{"abi":[{"inputs":[{"internalType":"string","name":"nameCase","type":"string"},{"internalType":"string","name":"description","type":"string"}],"name":"createVoting","outputs":[],"stateMutability":"nonpayable","type":"function"},{"inputs":[],"name":"getVotingDeployed","outputs":[{"internalType":"address payable[]","name":"","type":"address[]"}],"stateMutability":"view","type":"function"},{"inputs":[{"internalType":"uint256","name":"","type":"uint256"}],"name":"votings","outputs":[{"internalType":"address payable","name":"","type":"address"}],"stateMutability":"view","type":"function"}],"devdoc":{"kind":"dev","methods":{},"version":1},"evm":{"assembly":"    /* \"Voting.sol\":274:701  contract FactoryVoting {... */\n  mstore(0x40, 0x80)\n  callvalue\n  dup1\n  iszero\n  tag_1\n  jumpi\n  0x00\n  dup1\n  revert\ntag_1:\n  pop\n  dataSize(sub_0)\n  dup1\n  dataOffset(sub_0)\n  0x00\n  codecopy\n  0x00\n  return\nstop\n\nsub_0: assembly {\n        /* \"Voting.sol\":274:701  contract FactoryVoting {... */\n      mstore(0x40, 0x80)\n      callvalue\n      dup1\n      iszero\n      tag_1\n      jumpi\n      0x00\n      dup1\n      revert\n    tag_1:\n      pop\n      jumpi(tag_2, lt(calldatasize, 0x04))\n      shr(0xe0, calldataload(0x00))\n      dup1\n      0x69ffe66d\n      eq\n      tag_3\n      jumpi\n      dup1\n      0x93b2b413\n      eq\n      tag_4\n      jumpi\n      dup1\n      0xa598d03c\n      eq\n      tag_5\n      jumpi\n    tag_2:\n      0x00\n      dup1\n      revert\n        /* \"Voting.sol\":557:698  function getVotingDeployed()... */\n    tag_3:\n      tag_6\n      tag_7\n      jump\t// in\n    tag_6:\n      mload(0x40)\n      tag_8\n      swap2\n      swap1\n      tag_9\n      jump\t// in\n    tag_8:\n      mload(0x40)\n      dup1\n      swap2\n      sub\n      swap1\n      return\n        /* \"Voting.sol\":345:549  function createVoting(string memory nameCase, string memory description) public {... */\n    tag_4:\n      tag_10\n      0x04\n      dup1\n      calldatasize\n      sub\n      dup2\n      add\n      swap1\n      tag_11\n      swap2\n      swap1\n      tag_12\n      jump\t// in\n    tag_11:\n      tag_13\n      jump\t// in\n    tag_10:\n      stop\n        /* \"Voting.sol\":304:336  address payable[] public votings */\n    tag_5:\n      tag_14\n      0x04\n      dup1\n      calldatasize\n      sub\n      dup2\n      add\n      swap1\n      tag_15\n      swap2\n      swap1\n      tag_16\n      jump\t// in\n    tag_15:\n      tag_17\n      jump\t// in\n    tag_14:\n      mload(0x40)\n      tag_18\n      swap2\n      swap1\n      tag_19\n      jump\t// in\n    tag_18:\n      mload(0x40)\n      dup1\n      swap2\n      sub\n      swap1\n      return\n        /* \"Voting.sol\":557:698  function getVotingDeployed()... */\n    tag_7:\n        /* \"Voting.sol\":634:658  address payable[] memory */\n      0x60\n        /* \"Voting.sol\":683:690  votings */\n      0x00\n        /* \"Voting.sol\":676:690  return votings */\n      dup1\n      sload\n      dup1\n      0x20\n      mul\n      0x20\n      add\n      mload(0x40)\n      swap1\n      dup2\n      add\n      0x40\n      mstore\n      dup1\n      swap3\n      swap2\n      swap1\n      dup2\n      dup2\n      mstore\n      0x20\n      add\n      dup3\n      dup1\n      sload\n      dup1\n      iszero\n      tag_21\n      jumpi\n      0x20\n      mul\n      dup3\n      add\n      swap2\n      swap1\n      0x00\n      mstore\n      keccak256(0x00, 0x20)\n      swap1\n    tag_22:\n      dup2\n      0x00\n      swap1\n      sload\n      swap1\n      0x0100\n      exp\n      swap1\n      div\n      0xffffffffffffffffffffffffffffffffffffffff\n      and\n      0xffffffffffffffffffffffffffffffffffffffff\n      and\n      dup2\n      mstore\n      0x20\n      add\n      swap1\n      0x01\n      add\n      swap1\n      dup1\n      dup4\n      gt\n      tag_22\n      jumpi\n    tag_21:\n      pop\n      pop\n      pop\n      pop\n      pop\n      swap1\n      pop\n        /* \"Voting.sol\":557:698  function getVotingDeployed()... */\n      swap1\n      jump\t// out\n        /* \"Voting.sol\":345:549  function createVoting(string memory nameCase, string memory description) public {... */\n    tag_13:\n        /* \"Voting.sol\":436:453  address newVoting */\n      0x00\n        /* \"Voting.sol\":475:483  nameCase */\n      dup3\n        /* \"Voting.sol\":485:496  description */\n      dup3\n        /* \"Voting.sol\":464:497  new Voting(nameCase, description) */\n      mload(0x40)\n      tag_24\n      swap1\n      tag_25\n      jump\t// in\n    tag_24:\n      tag_26\n      swap3\n      swap2\n      swap1\n      tag_27\n      jump\t// in\n    tag_26:\n      mload(0x40)\n      dup1\n      swap2\n      sub\n      swap1\n      0x00\n      create\n      dup1\n      iszero\n      dup1\n      iszero\n      tag_28\n      jumpi\n      returndatasize\n      0x00\n      dup1\n      returndatacopy\n      revert(0x00, returndatasize)\n    tag_28:\n      pop\n        /* \"Voting.sol\":436:498  address newVoting = address(new Voting(nameCase, description)) */\n      swap1\n      pop\n        /* \"Voting.sol\":509:516  votings */\n      0x00\n        /* \"Voting.sol\":530:539  newVoting */\n      dup2\n        /* \"Voting.sol\":509:541  votings.push(payable(newVoting)) */\n      swap1\n      dup1\n      0x01\n      dup2\n      sload\n      add\n      dup1\n      dup3\n      sstore\n      dup1\n      swap2\n      pop\n      pop\n      0x01\n      swap1\n      sub\n      swap1\n      0x00\n      mstore\n      keccak256(0x00, 0x20)\n      add\n      0x00\n      swap1\n      swap2\n      swap1\n      swap2\n      swap1\n      swap2\n      0x0100\n      exp\n      dup2\n      sload\n      dup2\n      0xffffffffffffffffffffffffffffffffffffffff\n      mul\n      not\n      and\n      swap1\n      dup4\n      0xffffffffffffffffffffffffffffffffffffffff\n      and\n      mul\n      or\n      swap1\n      sstore\n      pop\n        /* \"Voting.sol\":425:549  {... */\n      pop\n        /* \"Voting.sol\":345:549  function createVoting(string memory nameCase, string memory description) public {... */\n      pop\n      pop\n      jump\t// out\n        /* \"Voting.sol\":304:336  address payable[] public votings */\n    tag_17:\n      0x00\n      dup2\n      dup2\n      sload\n      dup2\n      lt\n      tag_30\n      jumpi\n      0x00\n      dup1\n      revert\n    tag_30:\n      swap1\n      0x00\n      mstore\n      keccak256(0x00, 0x20)\n      add\n      0x00\n      swap2\n      pop\n      sload\n      swap1\n      0x0100\n      exp\n      swap1\n      div\n      0xffffffffffffffffffffffffffffffffffffffff\n      and\n      dup2\n      jump\t// out\n    tag_25:\n      dataSize(sub_0)\n      dup1\n      dataOffset(sub_0)\n      dup4\n      codecopy\n      add\n      swap1\n      jump\t// out\n        /* \"#utility.yul\":7:129   */\n    tag_32:\n        /* \"#utility.yul\":82:88   */\n      0x00\n        /* \"#utility.yul\":116:121   */\n      dup2\n        /* \"#utility.yul\":110:122   */\n      mload\n        /* \"#utility.yul\":100:122   */\n      swap1\n      pop\n        /* \"#utility.yul\":7:129   */\n      swap2\n      swap1\n      pop\n      jump\t// out\n        /* \"#utility.yul\":135:327   */\n    tag_33:\n        /* \"#utility.yul\":242:253   */\n      0x00\n        /* \"#utility.yul\":276:282   */\n      dup3\n        /* \"#utility.yul\":271:274   */\n      dup3\n        /* \"#utility.yul\":264:283   */\n      mstore\n        /* \"#utility.yul\":316:320   */\n      0x20\n        /* \"#utility.yul\":311:314   */\n      dup3\n        /* \"#utility.yul\":307:321   */\n      add\n        /* \"#utility.yul\":292:321   */\n      swap1\n      pop\n        /* \"#utility.yul\":135:327   */\n      swap3\n      swap2\n      pop\n      pop\n      jump\t// out\n        /* \"#utility.yul\":333:473   */\n    tag_34:\n        /* \"#utility.yul\":408:412   */\n      0x00\n        /* \"#utility.yul\":431:434   */\n      dup2\n        /* \"#utility.yul\":423:434   */\n      swap1\n      pop\n        /* \"#utility.yul\":461:465   */\n      0x20\n        /* \"#utility.yul\":456:459   */\n      dup3\n        /* \"#utility.yul\":452:466   */\n      add\n        /* \"#utility.yul\":444:466   */\n      swap1\n      pop\n        /* \"#utility.yul\":333:473   */\n      swap2\n      swap1\n      pop\n      jump\t// out\n        /* \"#utility.yul\":479:605   */\n    tag_35:\n        /* \"#utility.yul\":516:523   */\n      0x00\n        /* \"#utility.yul\":556:598   */\n      0xffffffffffffffffffffffffffffffffffffffff\n        /* \"#utility.yul\":549:554   */\n      dup3\n        /* \"#utility.yul\":545:599   */\n      and\n        /* \"#utility.yul\":534:599   */\n      swap1\n      pop\n        /* \"#utility.yul\":479:605   */\n      swap2\n      swap1\n      pop\n      jump\t// out\n        /* \"#utility.yul\":611:715   */\n    tag_36:\n        /* \"#utility.yul\":656:663   */\n      0x00\n        /* \"#utility.yul\":685:709   */\n      tag_68\n        /* \"#utility.yul\":703:708   */\n      dup3\n        /* \"#utility.yul\":685:709   */\n      tag_35\n      jump\t// in\n    tag_68:\n        /* \"#utility.yul\":674:709   */\n      swap1\n      pop\n        /* \"#utility.yul\":611:715   */\n      swap2\n      swap1\n      pop\n      jump\t// out\n        /* \"#utility.yul\":721:853   */\n    tag_37:\n        /* \"#utility.yul\":814:846   */\n      tag_70\n        /* \"#utility.yul\":840:845   */\n      dup2\n        /* \"#utility.yul\":814:846   */\n      tag_36\n      jump\t// in\n    tag_70:\n        /* \"#utility.yul\":809:812   */\n      dup3\n        /* \"#utility.yul\":802:847   */\n      mstore\n        /* \"#utility.yul\":721:853   */\n      pop\n      pop\n      jump\t// out\n        /* \"#utility.yul\":859:1070   */\n    tag_38:\n        /* \"#utility.yul\":944:954   */\n      0x00\n        /* \"#utility.yul\":965:1027   */\n      tag_72\n        /* \"#utility.yul\":1023:1026   */\n      dup4\n        /* \"#utility.yul\":1015:1021   */\n      dup4\n        /* \"#utility.yul\":965:1027   */\n      tag_37\n      jump\t// in\n    tag_72:\n        /* \"#utility.yul\":1059:1063   */\n      0x20\n        /* \"#utility.yul\":1054:1057   */\n      dup4\n        /* \"#utility.yul\":1050:1064   */\n      add\n        /* \"#utility.yul\":1036:1064   */\n      swap1\n      pop\n        /* \"#utility.yul\":859:1070   */\n      swap3\n      swap2\n      pop\n      pop\n      jump\t// out\n        /* \"#utility.yul\":1076:1197   */\n    tag_39:\n        /* \"#utility.yul\":1154:1158   */\n      0x00\n        /* \"#utility.yul\":1186:1190   */\n      0x20\n        /* \"#utility.yul\":1181:1184   */\n      dup3\n        /* \"#utility.yul\":1177:1191   */\n      add\n        /* \"#utility.yul\":1169:1191   */\n      swap1\n      pop\n        /* \"#utility.yul\":1076:1197   */\n      swap2\n      swap1\n      pop\n      jump\t// out\n        /* \"#utility.yul\":1249:2045   */\n    tag_40:\n        /* \"#utility.yul\":1384:1387   */\n      0x00\n        /* \"#utility.yul\":1413:1475   */\n      tag_75\n        /* \"#utility.yul\":1469:1474   */\n      dup3\n        /* \"#utility.yul\":1413:1475   */\n      tag_32\n      jump\t// in\n    tag_75:\n        /* \"#utility.yul\":1491:1585   */\n      tag_76\n        /* \"#utility.yul\":1578:1584   */\n      dup2\n        /* \"#utility.yul\":1573:1576   */\n      dup6\n        /* \"#utility.yul\":1491:1585   */\n      tag_33\n      jump\t// in\n    tag_76:\n        /* \"#utility.yul\":1484:1585   */\n      swap4\n      pop\n        /* \"#utility.yul\":1609:1673   */\n      tag_77\n        /* \"#utility.yul\":1667:1672   */\n      dup4\n        /* \"#utility.yul\":1609:1673   */\n      tag_34\n      jump\t// in\n    tag_77:\n        /* \"#utility.yul\":1696:1703   */\n      dup1\n        /* \"#utility.yul\":1727:1728   */\n      0x00\n        /* \"#utility.yul\":1712:2020   */\n    tag_78:\n        /* \"#utility.yul\":1737:1743   */\n      dup4\n        /* \"#utility.yul\":1734:1735   */\n      dup2\n        /* \"#utility.yul\":1731:1744   */\n      lt\n        /* \"#utility.yul\":1712:2020   */\n      iszero\n      tag_80\n      jumpi\n        /* \"#utility.yul\":1813:1819   */\n      dup2\n        /* \"#utility.yul\":1807:1820   */\n      mload\n        /* \"#utility.yul\":1840:1919   */\n      tag_81\n        /* \"#utility.yul\":1915:1918   */\n      dup9\n        /* \"#utility.yul\":1900:1913   */\n      dup3\n        /* \"#utility.yul\":1840:1919   */\n      tag_38\n      jump\t// in\n    tag_81:\n        /* \"#utility.yul\":1833:1919   */\n      swap8\n      pop\n        /* \"#utility.yul\":1942:2010   */\n      tag_82\n        /* \"#utility.yul\":2003:2009   */\n      dup4\n        /* \"#utility.yul\":1942:2010   */\n      tag_39\n      jump\t// in\n    tag_82:\n        /* \"#utility.yul\":1932:2010   */\n      swap3\n      pop\n        /* \"#utility.yul\":1772:2020   */\n      pop\n        /* \"#utility.yul\":1759:1760   */\n      0x01\n        /* \"#utility.yul\":1756:1757   */\n      dup2\n        /* \"#utility.yul\":1752:1761   */\n      add\n        /* \"#utility.yul\":1747:1761   */\n      swap1\n      pop\n        /* \"#utility.yul\":1712:2020   */\n      jump(tag_78)\n    tag_80:\n        /* \"#utility.yul\":1716:1730   */\n      pop\n        /* \"#utility.yul\":2036:2039   */\n      dup6\n        /* \"#utility.yul\":2029:2039   */\n      swap4\n      pop\n        /* \"#utility.yul\":1389:2045   */\n      pop\n      pop\n      pop\n        /* \"#utility.yul\":1249:2045   */\n      swap3\n      swap2\n      pop\n      pop\n      jump\t// out\n        /* \"#utility.yul\":2051:2456   */\n    tag_9:\n        /* \"#utility.yul\":2210:2214   */\n      0x00\n        /* \"#utility.yul\":2248:2250   */\n      0x20\n        /* \"#utility.yul\":2237:2246   */\n      dup3\n        /* \"#utility.yul\":2233:2251   */\n      add\n        /* \"#utility.yul\":2225:2251   */\n      swap1\n      pop\n        /* \"#utility.yul\":2297:2306   */\n      dup2\n        /* \"#utility.yul\":2291:2295   */\n      dup2\n        /* \"#utility.yul\":2287:2307   */\n      sub\n        /* \"#utility.yul\":2283:2284   */\n      0x00\n        /* \"#utility.yul\":2272:2281   */\n      dup4\n        /* \"#utility.yul\":2268:2285   */\n      add\n        /* \"#utility.yul\":2261:2308   */\n      mstore\n        /* \"#utility.yul\":2325:2449   */\n      tag_84\n        /* \"#utility.yul\":2444:2448   */\n      dup2\n        /* \"#utility.yul\":2435:2441   */\n      dup5\n        /* \"#utility.yul\":2325:2449   */\n      tag_40\n      jump\t// in\n    tag_84:\n        /* \"#utility.yul\":2317:2449   */\n      swap1\n      pop\n        /* \"#utility.yul\":2051:2456   */\n      swap3\n      swap2\n      pop\n      pop\n      jump\t// out\n        /* \"#utility.yul\":2462:2537   */\n    tag_41:\n        /* \"#utility.yul\":2495:2501   */\n      0x00\n        /* \"#utility.yul\":2528:2530   */\n      0x40\n        /* \"#utility.yul\":2522:2531   */\n      mload\n        /* \"#utility.yul\":2512:2531   */\n      swap1\n      pop\n        /* \"#utility.yul\":2462:2537   */\n      swap1\n      jump\t// out\n        /* \"#utility.yul\":2543:2660   */\n    tag_42:\n        /* \"#utility.yul\":2652:2653   */\n      0x00\n        /* \"#utility.yul\":2649:2650   */\n      dup1\n        /* \"#utility.yul\":2642:2654   */\n      revert\n        /* \"#utility.yul\":2666:2783   */\n    tag_43:\n        /* \"#utility.yul\":2775:2776   */\n      0x00\n        /* \"#utility.yul\":2772:2773   */\n      dup1\n        /* \"#utility.yul\":2765:2777   */\n      revert\n        /* \"#utility.yul\":2789:2906   */\n    tag_44:\n        /* \"#utility.yul\":2898:2899   */\n      0x00\n        /* \"#utility.yul\":2895:2896   */\n      dup1\n        /* \"#utility.yul\":2888:2900   */\n      revert\n        /* \"#utility.yul\":2912:3029   */\n    tag_45:\n        /* \"#utility.yul\":3021:3022   */\n      0x00\n        /* \"#utility.yul\":3018:3019   */\n      dup1\n        /* \"#utility.yul\":3011:3023   */\n      revert\n        /* \"#utility.yul\":3035:3137   */\n    tag_46:\n        /* \"#utility.yul\":3076:3082   */\n      0x00\n        /* \"#utility.yul\":3127:3129   */\n      0x1f\n        /* \"#utility.yul\":3123:3130   */\n      not\n        /* \"#utility.yul\":3118:3120   */\n      0x1f\n        /* \"#utility.yul\":3111:3116   */\n      dup4\n        /* \"#utility.yul\":3107:3121   */\n      add\n        /* \"#utility.yul\":3103:3131   */\n      and\n        /* \"#utility.yul\":3093:3131   */\n      swap1\n      pop\n        /* \"#utility.yul\":3035:3137   */\n      swap2\n      swap1\n      pop\n      jump\t// out\n        /* \"#utility.yul\":3143:3323   */\n    tag_47:\n        /* \"#utility.yul\":3191:3268   */\n      0x4e487b7100000000000000000000000000000000000000000000000000000000\n        /* \"#utility.yul\":3188:3189   */\n      0x00\n        /* \"#utility.yul\":3181:3269   */\n      mstore\n        /* \"#utility.yul\":3288:3292   */\n      0x41\n        /* \"#utility.yul\":3285:3286   */\n      0x04\n        /* \"#utility.yul\":3278:3293   */\n      mstore\n        /* \"#utility.yul\":3312:3316   */\n      0x24\n        /* \"#utility.yul\":3309:3310   */\n      0x00\n        /* \"#utility.yul\":3302:3317   */\n      revert\n        /* \"#utility.yul\":3329:3610   */\n    tag_48:\n        /* \"#utility.yul\":3412:3439   */\n      tag_93\n        /* \"#utility.yul\":3434:3438   */\n      dup3\n        /* \"#utility.yul\":3412:3439   */\n      tag_46\n      jump\t// in\n    tag_93:\n        /* \"#utility.yul\":3404:3410   */\n      dup2\n        /* \"#utility.yul\":3400:3440   */\n      add\n        /* \"#utility.yul\":3542:3548   */\n      dup2\n        /* \"#utility.yul\":3530:3540   */\n      dup2\n        /* \"#utility.yul\":3527:3549   */\n      lt\n        /* \"#utility.yul\":3506:3524   */\n      0xffffffffffffffff\n        /* \"#utility.yul\":3494:3504   */\n      dup3\n        /* \"#utility.yul\":3491:3525   */\n      gt\n        /* \"#utility.yul\":3488:3550   */\n      or\n        /* \"#utility.yul\":3485:3573   */\n      iszero\n      tag_94\n      jumpi\n        /* \"#utility.yul\":3553:3571   */\n      tag_95\n      tag_47\n      jump\t// in\n    tag_95:\n        /* \"#utility.yul\":3485:3573   */\n    tag_94:\n        /* \"#utility.yul\":3593:3603   */\n      dup1\n        /* \"#utility.yul\":3589:3591   */\n      0x40\n        /* \"#utility.yul\":3582:3604   */\n      mstore\n        /* \"#utility.yul\":3372:3610   */\n      pop\n        /* \"#utility.yul\":3329:3610   */\n      pop\n      pop\n      jump\t// out\n        /* \"#utility.yul\":3616:3745   */\n    tag_49:\n        /* \"#utility.yul\":3650:3656   */\n      0x00\n        /* \"#utility.yul\":3677:3697   */\n      tag_97\n      tag_41\n      jump\t// in\n    tag_97:\n        /* \"#utility.yul\":3667:3697   */\n      swap1\n      pop\n        /* \"#utility.yul\":3706:3739   */\n      tag_98\n        /* \"#utility.yul\":3734:3738   */\n      dup3\n        /* \"#utility.yul\":3726:3732   */\n      dup3\n        /* \"#utility.yul\":3706:3739   */\n      tag_48\n      jump\t// in\n    tag_98:\n        /* \"#utility.yul\":3616:3745   */\n      swap2\n      swap1\n      pop\n      jump\t// out\n        /* \"#utility.yul\":3751:4059   */\n    tag_50:\n        /* \"#utility.yul\":3813:3817   */\n      0x00\n        /* \"#utility.yul\":3903:3921   */\n      0xffffffffffffffff\n        /* \"#utility.yul\":3895:3901   */\n      dup3\n        /* \"#utility.yul\":3892:3922   */\n      gt\n        /* \"#utility.yul\":3889:3945   */\n      iszero\n      tag_100\n      jumpi\n        /* \"#utility.yul\":3925:3943   */\n      tag_101\n      tag_47\n      jump\t// in\n    tag_101:\n        /* \"#utility.yul\":3889:3945   */\n    tag_100:\n        /* \"#utility.yul\":3963:3992   */\n      tag_102\n        /* \"#utility.yul\":3985:3991   */\n      dup3\n        /* \"#utility.yul\":3963:3992   */\n      tag_46\n      jump\t// in\n    tag_102:\n        /* \"#utility.yul\":3955:3992   */\n      swap1\n      pop\n        /* \"#utility.yul\":4047:4051   */\n      0x20\n        /* \"#utility.yul\":4041:4045   */\n      dup2\n        /* \"#utility.yul\":4037:4052   */\n      add\n        /* \"#utility.yul\":4029:4052   */\n      swap1\n      pop\n        /* \"#utility.yul\":3751:4059   */\n      swap2\n      swap1\n      pop\n      jump\t// out\n        /* \"#utility.yul\":4065:4211   */\n    tag_51:\n        /* \"#utility.yul\":4162:4168   */\n      dup3\n        /* \"#utility.yul\":4157:4160   */\n      dup2\n        /* \"#utility.yul\":4152:4155   */\n      dup4\n        /* \"#utility.yul\":4139:4169   */\n      calldatacopy\n        /* \"#utility.yul\":4203:4204   */\n      0x00\n        /* \"#utility.yul\":4194:4200   */\n      dup4\n        /* \"#utility.yul\":4189:4192   */\n      dup4\n        /* \"#utility.yul\":4185:4201   */\n      add\n        /* \"#utility.yul\":4178:4205   */\n      mstore\n        /* \"#utility.yul\":4065:4211   */\n      pop\n      pop\n      pop\n      jump\t// out\n        /* \"#utility.yul\":4217:4642   */\n    tag_52:\n        /* \"#utility.yul\":4295:4300   */\n      0x00\n        /* \"#utility.yul\":4320:4386   */\n      tag_105\n        /* \"#utility.yul\":4336:4385   */\n      tag_106\n        /* \"#utility.yul\":4378:4384   */\n      dup5\n        /* \"#utility.yul\":4336:4385   */\n      tag_50\n      jump\t// in\n    tag_106:\n        /* \"#utility.yul\":4320:4386   */\n      tag_49\n      jump\t// in\n    tag_105:\n        /* \"#utility.yul\":4311:4386   */\n      swap1\n      pop\n        /* \"#utility.yul\":4409:4415   */\n      dup3\n        /* \"#utility.yul\":4402:4407   */\n      dup2\n        /* \"#utility.yul\":4395:4416   */\n      mstore\n        /* \"#utility.yul\":4447:4451   */\n      0x20\n        /* \"#utility.yul\":4440:4445   */\n      dup2\n        /* \"#utility.yul\":4436:4452   */\n      add\n        /* \"#utility.yul\":4485:4488   */\n      dup5\n        /* \"#utility.yul\":4476:4482   */\n      dup5\n        /* \"#utility.yul\":4471:4474   */\n      dup5\n        /* \"#utility.yul\":4467:4483   */\n      add\n        /* \"#utility.yul\":4464:4489   */\n      gt\n        /* \"#utility.yul\":4461:4573   */\n      iszero\n      tag_107\n      jumpi\n        /* \"#utility.yul\":4492:4571   */\n      tag_108\n      tag_45\n      jump\t// in\n    tag_108:\n        /* \"#utility.yul\":4461:4573   */\n    tag_107:\n        /* \"#utility.yul\":4582:4636   */\n      tag_109\n        /* \"#utility.yul\":4629:4635   */\n      dup5\n        /* \"#utility.yul\":4624:4627   */\n      dup3\n        /* \"#utility.yul\":4619:4622   */\n      dup6\n        /* \"#utility.yul\":4582:4636   */\n      tag_51\n      jump\t// in\n    tag_109:\n        /* \"#utility.yul\":4301:4642   */\n      pop\n        /* \"#utility.yul\":4217:4642   */\n      swap4\n      swap3\n      pop\n      pop\n      pop\n      jump\t// out\n        /* \"#utility.yul\":4662:5002   */\n    tag_53:\n        /* \"#utility.yul\":4718:4723   */\n      0x00\n        /* \"#utility.yul\":4767:4770   */\n      dup3\n        /* \"#utility.yul\":4760:4764   */\n      0x1f\n        /* \"#utility.yul\":4752:4758   */\n      dup4\n        /* \"#utility.yul\":4748:4765   */\n      add\n        /* \"#utility.yul\":4744:4771   */\n      slt\n        /* \"#utility.yul\":4734:4856   */\n      tag_111\n      jumpi\n        /* \"#utility.yul\":4775:4854   */\n      tag_112\n      tag_44\n      jump\t// in\n    tag_112:\n        /* \"#utility.yul\":4734:4856   */\n    tag_111:\n        /* \"#utility.yul\":4892:4898   */\n      dup2\n        /* \"#utility.yul\":4879:4899   */\n      calldataload\n        /* \"#utility.yul\":4917:4996   */\n      tag_113\n        /* \"#utility.yul\":4992:4995   */\n      dup5\n        /* \"#utility.yul\":4984:4990   */\n      dup3\n        /* \"#utility.yul\":4977:4981   */\n      0x20\n        /* \"#utility.yul\":4969:4975   */\n      dup7\n        /* \"#utility.yul\":4965:4982   */\n      add\n        /* \"#utility.yul\":4917:4996   */\n      tag_52\n      jump\t// in\n    tag_113:\n        /* \"#utility.yul\":4908:4996   */\n      swap2\n      pop\n        /* \"#utility.yul\":4724:5002   */\n      pop\n        /* \"#utility.yul\":4662:5002   */\n      swap3\n      swap2\n      pop\n      pop\n      jump\t// out\n        /* \"#utility.yul\":5008:5842   */\n    tag_12:\n        /* \"#utility.yul\":5096:5102   */\n      0x00\n        /* \"#utility.yul\":5104:5110   */\n      dup1\n        /* \"#utility.yul\":5153:5155   */\n      0x40\n        /* \"#utility.yul\":5141:5150   */\n      dup4\n        /* \"#utility.yul\":5132:5139   */\n      dup6\n        /* \"#utility.yul\":5128:5151   */\n      sub\n        /* \"#utility.yul\":5124:5156   */\n      slt\n        /* \"#utility.yul\":5121:5240   */\n      iszero\n      tag_115\n      jumpi\n        /* \"#utility.yul\":5159:5238   */\n      tag_116\n      tag_42\n      jump\t// in\n    tag_116:\n        /* \"#utility.yul\":5121:5240   */\n    tag_115:\n        /* \"#utility.yul\":5307:5308   */\n      0x00\n        /* \"#utility.yul\":5296:5305   */\n      dup4\n        /* \"#utility.yul\":5292:5309   */\n      add\n        /* \"#utility.yul\":5279:5310   */\n      calldataload\n        /* \"#utility.yul\":5337:5355   */\n      0xffffffffffffffff\n        /* \"#utility.yul\":5329:5335   */\n      dup2\n        /* \"#utility.yul\":5326:5356   */\n      gt\n        /* \"#utility.yul\":5323:5440   */\n      iszero\n      tag_117\n      jumpi\n        /* \"#utility.yul\":5359:5438   */\n      tag_118\n      tag_43\n      jump\t// in\n    tag_118:\n        /* \"#utility.yul\":5323:5440   */\n    tag_117:\n        /* \"#utility.yul\":5464:5527   */\n      tag_119\n        /* \"#utility.yul\":5519:5526   */\n      dup6\n        /* \"#utility.yul\":5510:5516   */\n      dup3\n        /* \"#utility.yul\":5499:5508   */\n      dup7\n        /* \"#utility.yul\":5495:5517   */\n      add\n        /* \"#utility.yul\":5464:5527   */\n      tag_53\n      jump\t// in\n    tag_119:\n        /* \"#utility.yul\":5454:5527   */\n      swap3\n      pop\n        /* \"#utility.yul\":5250:5537   */\n      pop\n        /* \"#utility.yul\":5604:5606   */\n      0x20\n        /* \"#utility.yul\":5593:5602   */\n      dup4\n        /* \"#utility.yul\":5589:5607   */\n      add\n        /* \"#utility.yul\":5576:5608   */\n      calldataload\n        /* \"#utility.yul\":5635:5653   */\n      0xffffffffffffffff\n        /* \"#utility.yul\":5627:5633   */\n      dup2\n        /* \"#utility.yul\":5624:5654   */\n      gt\n        /* \"#utility.yul\":5621:5738   */\n      iszero\n      tag_120\n      jumpi\n        /* \"#utility.yul\":5657:5736   */\n      tag_121\n      tag_43\n      jump\t// in\n    tag_121:\n        /* \"#utility.yul\":5621:5738   */\n    tag_120:\n        /* \"#utility.yul\":5762:5825   */\n      tag_122\n        /* \"#utility.yul\":5817:5824   */\n      dup6\n        /* \"#utility.yul\":5808:5814   */\n      dup3\n        /* \"#utility.yul\":5797:5806   */\n      dup7\n        /* \"#utility.yul\":5793:5815   */\n      add\n        /* \"#utility.yul\":5762:5825   */\n      tag_53\n      jump\t// in\n    tag_122:\n        /* \"#utility.yul\":5752:5825   */\n      swap2\n      pop\n        /* \"#utility.yul\":5547:5835   */\n      pop\n        /* \"#utility.yul\":5008:5842   */\n      swap3\n      pop\n      swap3\n      swap1\n      pop\n      jump\t// out\n        /* \"#utility.yul\":5848:5925   */\n    tag_54:\n        /* \"#utility.yul\":5885:5892   */\n      0x00\n        /* \"#utility.yul\":5914:5919   */\n      dup2\n        /* \"#utility.yul\":5903:5919   */\n      swap1\n      pop\n        /* \"#utility.yul\":5848:5925   */\n      swap2\n      swap1\n      pop\n      jump\t// out\n        /* \"#utility.yul\":5931:6053   */\n    tag_55:\n        /* \"#utility.yul\":6004:6028   */\n      tag_125\n        /* \"#utility.yul\":6022:6027   */\n      dup2\n        /* \"#utility.yul\":6004:6028   */\n      tag_54\n      jump\t// in\n    tag_125:\n        /* \"#utility.yul\":5997:6002   */\n      dup2\n        /* \"#utility.yul\":5994:6029   */\n      eq\n        /* \"#utility.yul\":5984:6047   */\n      tag_126\n      jumpi\n        /* \"#utility.yul\":6043:6044   */\n      0x00\n        /* \"#utility.yul\":6040:6041   */\n      dup1\n        /* \"#utility.yul\":6033:6045   */\n      revert\n        /* \"#utility.yul\":5984:6047   */\n    tag_126:\n        /* \"#utility.yul\":5931:6053   */\n      pop\n      jump\t// out\n        /* \"#utility.yul\":6059:6198   */\n    tag_56:\n        /* \"#utility.yul\":6105:6110   */\n      0x00\n        /* \"#utility.yul\":6143:6149   */\n      dup2\n        /* \"#utility.yul\":6130:6150   */\n      calldataload\n        /* \"#utility.yul\":6121:6150   */\n      swap1\n      pop\n        /* \"#utility.yul\":6159:6192   */\n      tag_128\n        /* \"#utility.yul\":6186:6191   */\n      dup2\n        /* \"#utility.yul\":6159:6192   */\n      tag_55\n      jump\t// in\n    tag_128:\n        /* \"#utility.yul\":6059:6198   */\n      swap3\n      swap2\n      pop\n      pop\n      jump\t// out\n        /* \"#utility.yul\":6204:6533   */\n    tag_16:\n        /* \"#utility.yul\":6263:6269   */\n      0x00\n        /* \"#utility.yul\":6312:6314   */\n      0x20\n        /* \"#utility.yul\":6300:6309   */\n      dup3\n        /* \"#utility.yul\":6291:6298   */\n      dup5\n        /* \"#utility.yul\":6287:6310   */\n      sub\n        /* \"#utility.yul\":6283:6315   */\n      slt\n        /* \"#utility.yul\":6280:6399   */\n      iszero\n      tag_130\n      jumpi\n        /* \"#utility.yul\":6318:6397   */\n      tag_131\n      tag_42\n      jump\t// in\n    tag_131:\n        /* \"#utility.yul\":6280:6399   */\n    tag_130:\n        /* \"#utility.yul\":6438:6439   */\n      0x00\n        /* \"#utility.yul\":6463:6516   */\n      tag_132\n        /* \"#utility.yul\":6508:6515   */\n      dup5\n        /* \"#utility.yul\":6499:6505   */\n      dup3\n        /* \"#utility.yul\":6488:6497   */\n      dup6\n        /* \"#utility.yul\":6484:6506   */\n      add\n        /* \"#utility.yul\":6463:6516   */\n      tag_56\n      jump\t// in\n    tag_132:\n        /* \"#utility.yul\":6453:6516   */\n      swap2\n      pop\n        /* \"#utility.yul\":6409:6526   */\n      pop\n        /* \"#utility.yul\":6204:6533   */\n      swap3\n      swap2\n      pop\n      pop\n      jump\t// out\n        /* \"#utility.yul\":6539:6681   */\n    tag_57:\n        /* \"#utility.yul\":6642:6674   */\n      tag_134\n        /* \"#utility.yul\":6668:6673   */\n      dup2\n        /* \"#utility.yul\":6642:6674   */\n      tag_36\n      jump\t// in\n    tag_134:\n        /* \"#utility.yul\":6637:6640   */\n      dup3\n        /* \"#utility.yul\":6630:6675   */\n      mstore\n        /* \"#utility.yul\":6539:6681   */\n      pop\n      pop\n      jump\t// out\n        /* \"#utility.yul\":6687:6941   */\n    tag_19:\n        /* \"#utility.yul\":6796:6800   */\n      0x00\n        /* \"#utility.yul\":6834:6836   */\n      0x20\n        /* \"#utility.yul\":6823:6832   */\n      dup3\n        /* \"#utility.yul\":6819:6837   */\n      add\n        /* \"#utility.yul\":6811:6837   */\n      swap1\n      pop\n        /* \"#utility.yul\":6847:6934   */\n      tag_136\n        /* \"#utility.yul\":6931:6932   */\n      0x00\n        /* \"#utility.yul\":6920:6929   */\n      dup4\n        /* \"#utility.yul\":6916:6933   */\n      add\n        /* \"#utility.yul\":6907:6913   */\n      dup5\n        /* \"#utility.yul\":6847:6934   */\n      tag_57\n      jump\t// in\n    tag_136:\n        /* \"#utility.yul\":6687:6941   */\n      swap3\n      swap2\n      pop\n      pop\n      jump\t// out\n        /* \"#utility.yul\":6947:7046   */\n    tag_58:\n        /* \"#utility.yul\":6999:7005   */\n      0x00\n        /* \"#utility.yul\":7033:7038   */\n      dup2\n        /* \"#utility.yul\":7027:7039   */\n      mload\n        /* \"#utility.yul\":7017:7039   */\n      swap1\n      pop\n        /* \"#utility.yul\":6947:7046   */\n      swap2\n      swap1\n      pop\n      jump\t// out\n        /* \"#utility.yul\":7052:7221   */\n    tag_59:\n        /* \"#utility.yul\":7136:7147   */\n      0x00\n        /* \"#utility.yul\":7170:7176   */\n      dup3\n        /* \"#utility.yul\":7165:7168   */\n      dup3\n        /* \"#utility.yul\":7158:7177   */\n      mstore\n        /* \"#utility.yul\":7210:7214   */\n      0x20\n        /* \"#utility.yul\":7205:7208   */\n      dup3\n        /* \"#utility.yul\":7201:7215   */\n      add\n        /* \"#utility.yul\":7186:7215   */\n      swap1\n      pop\n        /* \"#utility.yul\":7052:7221   */\n      swap3\n      swap2\n      pop\n      pop\n      jump\t// out\n        /* \"#utility.yul\":7227:7473   */\n    tag_60:\n        /* \"#utility.yul\":7308:7309   */\n      0x00\n        /* \"#utility.yul\":7318:7431   */\n    tag_140:\n        /* \"#utility.yul\":7332:7338   */\n      dup4\n        /* \"#utility.yul\":7329:7330   */\n      dup2\n        /* \"#utility.yul\":7326:7339   */\n      lt\n        /* \"#utility.yul\":7318:7431   */\n      iszero\n      tag_142\n      jumpi\n        /* \"#utility.yul\":7417:7418   */\n      dup1\n        /* \"#utility.yul\":7412:7415   */\n      dup3\n        /* \"#utility.yul\":7408:7419   */\n      add\n        /* \"#utility.yul\":7402:7420   */\n      mload\n        /* \"#utility.yul\":7398:7399   */\n      dup2\n        /* \"#utility.yul\":7393:7396   */\n      dup5\n        /* \"#utility.yul\":7389:7400   */\n      add\n        /* \"#utility.yul\":7382:7421   */\n      mstore\n        /* \"#utility.yul\":7354:7356   */\n      0x20\n        /* \"#utility.yul\":7351:7352   */\n      dup2\n        /* \"#utility.yul\":7347:7357   */\n      add\n        /* \"#utility.yul\":7342:7357   */\n      swap1\n      pop\n        /* \"#utility.yul\":7318:7431   */\n      jump(tag_140)\n    tag_142:\n        /* \"#utility.yul\":7465:7466   */\n      0x00\n        /* \"#utility.yul\":7456:7462   */\n      dup5\n        /* \"#utility.yul\":7451:7454   */\n      dup5\n        /* \"#utility.yul\":7447:7463   */\n      add\n        /* \"#utility.yul\":7440:7467   */\n      mstore\n        /* \"#utility.yul\":7289:7473   */\n      pop\n        /* \"#utility.yul\":7227:7473   */\n      pop\n      pop\n      pop\n      jump\t// out\n        /* \"#utility.yul\":7479:7856   */\n    tag_61:\n        /* \"#utility.yul\":7567:7570   */\n      0x00\n        /* \"#utility.yul\":7595:7634   */\n      tag_144\n        /* \"#utility.yul\":7628:7633   */\n      dup3\n        /* \"#utility.yul\":7595:7634   */\n      tag_58\n      jump\t// in\n    tag_144:\n        /* \"#utility.yul\":7650:7721   */\n      tag_145\n        /* \"#utility.yul\":7714:7720   */\n      dup2\n        /* \"#utility.yul\":7709:7712   */\n      dup6\n        /* \"#utility.yul\":7650:7721   */\n      tag_59\n      jump\t// in\n    tag_145:\n        /* \"#utility.yul\":7643:7721   */\n      swap4\n      pop\n        /* \"#utility.yul\":7730:7795   */\n      tag_146\n        /* \"#utility.yul\":7788:7794   */\n      dup2\n        /* \"#utility.yul\":7783:7786   */\n      dup6\n        /* \"#utility.yul\":7776:7780   */\n      0x20\n        /* \"#utility.yul\":7769:7774   */\n      dup7\n        /* \"#utility.yul\":7765:7781   */\n      add\n        /* \"#utility.yul\":7730:7795   */\n      tag_60\n      jump\t// in\n    tag_146:\n        /* \"#utility.yul\":7820:7849   */\n      tag_147\n        /* \"#utility.yul\":7842:7848   */\n      dup2\n        /* \"#utility.yul\":7820:7849   */\n      tag_46\n      jump\t// in\n    tag_147:\n        /* \"#utility.yul\":7815:7818   */\n      dup5\n        /* \"#utility.yul\":7811:7850   */\n      add\n        /* \"#utility.yul\":7804:7850   */\n      swap2\n      pop\n        /* \"#utility.yul\":7571:7856   */\n      pop\n        /* \"#utility.yul\":7479:7856   */\n      swap3\n      swap2\n      pop\n      pop\n      jump\t// out\n        /* \"#utility.yul\":7862:8376   */\n    tag_27:\n        /* \"#utility.yul\":8023:8027   */\n      0x00\n        /* \"#utility.yul\":8061:8063   */\n      0x40\n        /* \"#utility.yul\":8050:8059   */\n      dup3\n        /* \"#utility.yul\":8046:8064   */\n      add\n        /* \"#utility.yul\":8038:8064   */\n      swap1\n      pop\n        /* \"#utility.yul\":8110:8119   */\n      dup2\n        /* \"#utility.yul\":8104:8108   */\n      dup2\n        /* \"#utility.yul\":8100:8120   */\n      sub\n        /* \"#utility.yul\":8096:8097   */\n      0x00\n        /* \"#utility.yul\":8085:8094   */\n      dup4\n        /* \"#utility.yul\":8081:8098   */\n      add\n        /* \"#utility.yul\":8074:8121   */\n      mstore\n        /* \"#utility.yul\":8138:8216   */\n      tag_149\n        /* \"#utility.yul\":8211:8215   */\n      dup2\n        /* \"#utility.yul\":8202:8208   */\n      dup6\n        /* \"#utility.yul\":8138:8216   */\n      tag_61\n      jump\t// in\n    tag_149:\n        /* \"#utility.yul\":8130:8216   */\n      swap1\n      pop\n        /* \"#utility.yul\":8263:8272   */\n      dup2\n        /* \"#utility.yul\":8257:8261   */\n      dup2\n        /* \"#utility.yul\":8253:8273   */\n      sub\n        /* \"#utility.yul\":8248:8250   */\n      0x20\n        /* \"#utility.yul\":8237:8246   */\n      dup4\n        /* \"#utility.yul\":8233:8251   */\n      add\n        /* \"#utility.yul\":8226:8274   */\n      mstore\n        /* \"#utility.yul\":8291:8369   */\n      tag_150\n        /* \"#utility.yul\":8364:8368   */\n      dup2\n        /* \"#utility.yul\":8355:8361   */\n      dup5\n        /* \"#utility.yul\":8291:8369   */\n      tag_61\n      jump\t// in\n    tag_150:\n        /* \"#utility.yul\":8283:8369   */\n      swap1\n      pop\n        /* \"#utility.yul\":7862:8376   */\n      swap4\n      swap3\n      pop\n      pop\n      pop\n      jump\t// out\n    stop\n\n    sub_0: assembly {\n            /* \"Voting.sol\":705:2403  contract Voting {... */\n          mstore(0x40, 0x80)\n            /* \"Voting.sol\":1066:1259  constructor(string memory _nameCase, string memory _description) {... */\n          callvalue\n          dup1\n          iszero\n          tag_1\n          jumpi\n          0x00\n          dup1\n          revert\n        tag_1:\n          pop\n          mload(0x40)\n          sub(codesize, bytecodeSize)\n          dup1\n          bytecodeSize\n          dup4\n          codecopy\n          dup2\n          dup2\n          add\n          0x40\n          mstore\n          dup2\n          add\n          swap1\n          tag_2\n          swap2\n          swap1\n          tag_3\n          jump\t// in\n        tag_2:\n            /* \"Voting.sol\":1155:1164  _nameCase */\n          dup2\n            /* \"Voting.sol\":1142:1143  c */\n          0x00\n            /* \"Voting.sol\":1142:1152  c.nameCase */\n          dup1\n          add\n            /* \"Voting.sol\":1142:1164  c.nameCase = _nameCase */\n          swap1\n          dup2\n          tag_6\n          swap2\n          swap1\n          tag_7\n          jump\t// in\n        tag_6:\n          pop\n            /* \"Voting.sol\":1191:1203  _description */\n          dup1\n            /* \"Voting.sol\":1175:1176  c */\n          0x00\n            /* \"Voting.sol\":1175:1188  c.description */\n          0x01\n          add\n            /* \"Voting.sol\":1175:1203  c.description = _description */\n          swap1\n          dup2\n          tag_8\n          swap2\n          swap1\n          tag_7\n          jump\t// in\n        tag_8:\n          pop\n            /* \"Voting.sol\":1242:1251  2 minutes */\n          0x78\n            /* \"Voting.sol\":1224:1239  block.timestamp */\n          timestamp\n            /* \"Voting.sol\":1224:1251  block.timestamp + 2 minutes */\n          tag_9\n          swap2\n          swap1\n          tag_10\n          jump\t// in\n        tag_9:\n            /* \"Voting.sol\":1214:1221  timeMax */\n          0x07\n            /* \"Voting.sol\":1214:1251  timeMax = block.timestamp + 2 minutes */\n          dup2\n          swap1\n          sstore\n          pop\n            /* \"Voting.sol\":1066:1259  constructor(string memory _nameCase, string memory _description) {... */\n          pop\n          pop\n            /* \"Voting.sol\":705:2403  contract Voting {... */\n          jump(tag_11)\n            /* \"#utility.yul\":7:82   */\n        tag_12:\n            /* \"#utility.yul\":40:46   */\n          0x00\n            /* \"#utility.yul\":73:75   */\n          0x40\n            /* \"#utility.yul\":67:76   */\n          mload\n            /* \"#utility.yul\":57:76   */\n          swap1\n          pop\n            /* \"#utility.yul\":7:82   */\n          swap1\n          jump\t// out\n            /* \"#utility.yul\":88:205   */\n        tag_13:\n            /* \"#utility.yul\":197:198   */\n          0x00\n            /* \"#utility.yul\":194:195   */\n          dup1\n            /* \"#utility.yul\":187:199   */\n          revert\n            /* \"#utility.yul\":211:328   */\n        tag_14:\n            /* \"#utility.yul\":320:321   */\n          0x00\n            /* \"#utility.yul\":317:318   */\n          dup1\n            /* \"#utility.yul\":310:322   */\n          revert\n            /* \"#utility.yul\":334:451   */\n        tag_15:\n            /* \"#utility.yul\":443:444   */\n          0x00\n            /* \"#utility.yul\":440:441   */\n          dup1\n            /* \"#utility.yul\":433:445   */\n          revert\n            /* \"#utility.yul\":457:574   */\n        tag_16:\n            /* \"#utility.yul\":566:567   */\n          0x00\n            /* \"#utility.yul\":563:564   */\n          dup1\n            /* \"#utility.yul\":556:568   */\n          revert\n            /* \"#utility.yul\":580:682   */\n        tag_17:\n            /* \"#utility.yul\":621:627   */\n          0x00\n            /* \"#utility.yul\":672:674   */\n          0x1f\n            /* \"#utility.yul\":668:675   */\n          not\n            /* \"#utility.yul\":663:665   */\n          0x1f\n            /* \"#utility.yul\":656:661   */\n          dup4\n            /* \"#utility.yul\":652:666   */\n          add\n            /* \"#utility.yul\":648:676   */\n          and\n            /* \"#utility.yul\":638:676   */\n          swap1\n          pop\n            /* \"#utility.yul\":580:682   */\n          swap2\n          swap1\n          pop\n          jump\t// out\n            /* \"#utility.yul\":688:868   */\n        tag_18:\n            /* \"#utility.yul\":736:813   */\n          0x4e487b7100000000000000000000000000000000000000000000000000000000\n            /* \"#utility.yul\":733:734   */\n          0x00\n            /* \"#utility.yul\":726:814   */\n          mstore\n            /* \"#utility.yul\":833:837   */\n          0x41\n            /* \"#utility.yul\":830:831   */\n          0x04\n            /* \"#utility.yul\":823:838   */\n          mstore\n            /* \"#utility.yul\":857:861   */\n          0x24\n            /* \"#utility.yul\":854:855   */\n          0x00\n            /* \"#utility.yul\":847:862   */\n          revert\n            /* \"#utility.yul\":874:1155   */\n        tag_19:\n            /* \"#utility.yul\":957:984   */\n          tag_54\n            /* \"#utility.yul\":979:983   */\n          dup3\n            /* \"#utility.yul\":957:984   */\n          tag_17\n          jump\t// in\n        tag_54:\n            /* \"#utility.yul\":949:955   */\n          dup2\n            /* \"#utility.yul\":945:985   */\n          add\n            /* \"#utility.yul\":1087:1093   */\n          dup2\n            /* \"#utility.yul\":1075:1085   */\n          dup2\n            /* \"#utility.yul\":1072:1094   */\n          lt\n            /* \"#utility.yul\":1051:1069   */\n          0xffffffffffffffff\n            /* \"#utility.yul\":1039:1049   */\n          dup3\n            /* \"#utility.yul\":1036:1070   */\n          gt\n            /* \"#utility.yul\":1033:1095   */\n          or\n            /* \"#utility.yul\":1030:1118   */\n          iszero\n          tag_55\n          jumpi\n            /* \"#utility.yul\":1098:1116   */\n          tag_56\n          tag_18\n          jump\t// in\n        tag_56:\n            /* \"#utility.yul\":1030:1118   */\n        tag_55:\n            /* \"#utility.yul\":1138:1148   */\n          dup1\n            /* \"#utility.yul\":1134:1136   */\n          0x40\n            /* \"#utility.yul\":1127:1149   */\n          mstore\n            /* \"#utility.yul\":917:1155   */\n          pop\n            /* \"#utility.yul\":874:1155   */\n          pop\n          pop\n          jump\t// out\n            /* \"#utility.yul\":1161:1290   */\n        tag_20:\n            /* \"#utility.yul\":1195:1201   */\n          0x00\n            /* \"#utility.yul\":1222:1242   */\n          tag_58\n          tag_12\n          jump\t// in\n        tag_58:\n            /* \"#utility.yul\":1212:1242   */\n          swap1\n          pop\n            /* \"#utility.yul\":1251:1284   */\n          tag_59\n            /* \"#utility.yul\":1279:1283   */\n          dup3\n            /* \"#utility.yul\":1271:1277   */\n          dup3\n            /* \"#utility.yul\":1251:1284   */\n          tag_19\n          jump\t// in\n        tag_59:\n            /* \"#utility.yul\":1161:1290   */\n          swap2\n          swap1\n          pop\n          jump\t// out\n            /* \"#utility.yul\":1296:1604   */\n        tag_21:\n            /* \"#utility.yul\":1358:1362   */\n          0x00\n            /* \"#utility.yul\":1448:1466   */\n          0xffffffffffffffff\n            /* \"#utility.yul\":1440:1446   */\n          dup3\n            /* \"#utility.yul\":1437:1467   */\n          gt\n            /* \"#utility.yul\":1434:1490   */\n          iszero\n          tag_61\n          jumpi\n            /* \"#utility.yul\":1470:1488   */\n          tag_62\n          tag_18\n          jump\t// in\n        tag_62:\n            /* \"#utility.yul\":1434:1490   */\n        tag_61:\n            /* \"#utility.yul\":1508:1537   */\n          tag_63\n            /* \"#utility.yul\":1530:1536   */\n          dup3\n            /* \"#utility.yul\":1508:1537   */\n          tag_17\n          jump\t// in\n        tag_63:\n            /* \"#utility.yul\":1500:1537   */\n          swap1\n          pop\n            /* \"#utility.yul\":1592:1596   */\n          0x20\n            /* \"#utility.yul\":1586:1590   */\n          dup2\n            /* \"#utility.yul\":1582:1597   */\n          add\n            /* \"#utility.yul\":1574:1597   */\n          swap1\n          pop\n            /* \"#utility.yul\":1296:1604   */\n          swap2\n          swap1\n          pop\n          jump\t// out\n            /* \"#utility.yul\":1610:1856   */\n        tag_22:\n            /* \"#utility.yul\":1691:1692   */\n          0x00\n            /* \"#utility.yul\":1701:1814   */\n        tag_65:\n            /* \"#utility.yul\":1715:1721   */\n          dup4\n            /* \"#utility.yul\":1712:1713   */\n          dup2\n            /* \"#utility.yul\":1709:1722   */\n          lt\n            /* \"#utility.yul\":1701:1814   */\n          iszero\n          tag_67\n          jumpi\n            /* \"#utility.yul\":1800:1801   */\n          dup1\n            /* \"#utility.yul\":1795:1798   */\n          dup3\n            /* \"#utility.yul\":1791:1802   */\n          add\n            /* \"#utility.yul\":1785:1803   */\n          mload\n            /* \"#utility.yul\":1781:1782   */\n          dup2\n            /* \"#utility.yul\":1776:1779   */\n          dup5\n            /* \"#utility.yul\":1772:1783   */\n          add\n            /* \"#utility.yul\":1765:1804   */\n          mstore\n            /* \"#utility.yul\":1737:1739   */\n          0x20\n            /* \"#utility.yul\":1734:1735   */\n          dup2\n            /* \"#utility.yul\":1730:1740   */\n          add\n            /* \"#utility.yul\":1725:1740   */\n          swap1\n          pop\n            /* \"#utility.yul\":1701:1814   */\n          jump(tag_65)\n        tag_67:\n            /* \"#utility.yul\":1848:1849   */\n          0x00\n            /* \"#utility.yul\":1839:1845   */\n          dup5\n            /* \"#utility.yul\":1834:1837   */\n          dup5\n            /* \"#utility.yul\":1830:1846   */\n          add\n            /* \"#utility.yul\":1823:1850   */\n          mstore\n            /* \"#utility.yul\":1672:1856   */\n          pop\n            /* \"#utility.yul\":1610:1856   */\n          pop\n          pop\n          pop\n          jump\t// out\n            /* \"#utility.yul\":1862:2296   */\n        tag_23:\n            /* \"#utility.yul\":1951:1956   */\n          0x00\n            /* \"#utility.yul\":1976:2042   */\n          tag_69\n            /* \"#utility.yul\":1992:2041   */\n          tag_70\n            /* \"#utility.yul\":2034:2040   */\n          dup5\n            /* \"#utility.yul\":1992:2041   */\n          tag_21\n          jump\t// in\n        tag_70:\n            /* \"#utility.yul\":1976:2042   */\n          tag_20\n          jump\t// in\n        tag_69:\n            /* \"#utility.yul\":1967:2042   */\n          swap1\n          pop\n            /* \"#utility.yul\":2065:2071   */\n          dup3\n            /* \"#utility.yul\":2058:2063   */\n          dup2\n            /* \"#utility.yul\":2051:2072   */\n          mstore\n            /* \"#utility.yul\":2103:2107   */\n          0x20\n            /* \"#utility.yul\":2096:2101   */\n          dup2\n            /* \"#utility.yul\":2092:2108   */\n          add\n            /* \"#utility.yul\":2141:2144   */\n          dup5\n            /* \"#utility.yul\":2132:2138   */\n          dup5\n            /* \"#utility.yul\":2127:2130   */\n          dup5\n            /* \"#utility.yul\":2123:2139   */\n          add\n            /* \"#utility.yul\":2120:2145   */\n          gt\n            /* \"#utility.yul\":2117:2229   */\n          iszero\n          tag_71\n          jumpi\n            /* \"#utility.yul\":2148:2227   */\n          tag_72\n          tag_16\n          jump\t// in\n        tag_72:\n            /* \"#utility.yul\":2117:2229   */\n        tag_71:\n            /* \"#utility.yul\":2238:2290   */\n          tag_73\n            /* \"#utility.yul\":2283:2289   */\n          dup5\n            /* \"#utility.yul\":2278:2281   */\n          dup3\n            /* \"#utility.yul\":2273:2276   */\n          dup6\n            /* \"#utility.yul\":2238:2290   */\n          tag_22\n          jump\t// in\n        tag_73:\n            /* \"#utility.yul\":1957:2296   */\n          pop\n            /* \"#utility.yul\":1862:2296   */\n          swap4\n          swap3\n          pop\n          pop\n          pop\n          jump\t// out\n            /* \"#utility.yul\":2316:2671   */\n        tag_24:\n            /* \"#utility.yul\":2383:2388   */\n          0x00\n            /* \"#utility.yul\":2432:2435   */\n          dup3\n            /* \"#utility.yul\":2425:2429   */\n          0x1f\n            /* \"#utility.yul\":2417:2423   */\n          dup4\n            /* \"#utility.yul\":2413:2430   */\n          add\n            /* \"#utility.yul\":2409:2436   */\n          slt\n            /* \"#utility.yul\":2399:2521   */\n          tag_75\n          jumpi\n            /* \"#utility.yul\":2440:2519   */\n          tag_76\n          tag_15\n          jump\t// in\n        tag_76:\n            /* \"#utility.yul\":2399:2521   */\n        tag_75:\n            /* \"#utility.yul\":2550:2556   */\n          dup2\n            /* \"#utility.yul\":2544:2557   */\n          mload\n            /* \"#utility.yul\":2575:2665   */\n          tag_77\n            /* \"#utility.yul\":2661:2664   */\n          dup5\n            /* \"#utility.yul\":2653:2659   */\n          dup3\n            /* \"#utility.yul\":2646:2650   */\n          0x20\n            /* \"#utility.yul\":2638:2644   */\n          dup7\n            /* \"#utility.yul\":2634:2651   */\n          add\n            /* \"#utility.yul\":2575:2665   */\n          tag_23\n          jump\t// in\n        tag_77:\n            /* \"#utility.yul\":2566:2665   */\n          swap2\n          pop\n            /* \"#utility.yul\":2389:2671   */\n          pop\n            /* \"#utility.yul\":2316:2671   */\n          swap3\n          swap2\n          pop\n          pop\n          jump\t// out\n            /* \"#utility.yul\":2677:3530   */\n        tag_3:\n            /* \"#utility.yul\":2776:2782   */\n          0x00\n            /* \"#utility.yul\":2784:2790   */\n          dup1\n            /* \"#utility.yul\":2833:2835   */\n          0x40\n            /* \"#utility.yul\":2821:2830   */\n          dup4\n            /* \"#utility.yul\":2812:2819   */\n          dup6\n            /* \"#utility.yul\":2808:2831   */\n          sub\n            /* \"#utility.yul\":2804:2836   */\n          slt\n            /* \"#utility.yul\":2801:2920   */\n          iszero\n          tag_79\n          jumpi\n            /* \"#utility.yul\":2839:2918   */\n          tag_80\n          tag_13\n          jump\t// in\n        tag_80:\n            /* \"#utility.yul\":2801:2920   */\n        tag_79:\n            /* \"#utility.yul\":2980:2981   */\n          0x00\n            /* \"#utility.yul\":2969:2978   */\n          dup4\n            /* \"#utility.yul\":2965:2982   */\n          add\n            /* \"#utility.yul\":2959:2983   */\n          mload\n            /* \"#utility.yul\":3010:3028   */\n          0xffffffffffffffff\n            /* \"#utility.yul\":3002:3008   */\n          dup2\n            /* \"#utility.yul\":2999:3029   */\n          gt\n            /* \"#utility.yul\":2996:3113   */\n          iszero\n          tag_81\n          jumpi\n            /* \"#utility.yul\":3032:3111   */\n          tag_82\n          tag_14\n          jump\t// in\n        tag_82:\n            /* \"#utility.yul\":2996:3113   */\n        tag_81:\n            /* \"#utility.yul\":3137:3211   */\n          tag_83\n            /* \"#utility.yul\":3203:3210   */\n          dup6\n            /* \"#utility.yul\":3194:3200   */\n          dup3\n            /* \"#utility.yul\":3183:3192   */\n          dup7\n            /* \"#utility.yul\":3179:3201   */\n          add\n            /* \"#utility.yul\":3137:3211   */\n          tag_24\n          jump\t// in\n        tag_83:\n            /* \"#utility.yul\":3127:3211   */\n          swap3\n          pop\n            /* \"#utility.yul\":2930:3221   */\n          pop\n            /* \"#utility.yul\":3281:3283   */\n          0x20\n            /* \"#utility.yul\":3270:3279   */\n          dup4\n            /* \"#utility.yul\":3266:3284   */\n          add\n            /* \"#utility.yul\":3260:3285   */\n          mload\n            /* \"#utility.yul\":3312:3330   */\n          0xffffffffffffffff\n            /* \"#utility.yul\":3304:3310   */\n          dup2\n            /* \"#utility.yul\":3301:3331   */\n          gt\n            /* \"#utility.yul\":3298:3415   */\n          iszero\n          tag_84\n          jumpi\n            /* \"#utility.yul\":3334:3413   */\n          tag_85\n          tag_14\n          jump\t// in\n        tag_85:\n            /* \"#utility.yul\":3298:3415   */\n        tag_84:\n            /* \"#utility.yul\":3439:3513   */\n          tag_86\n            /* \"#utility.yul\":3505:3512   */\n          dup6\n            /* \"#utility.yul\":3496:3502   */\n          dup3\n            /* \"#utility.yul\":3485:3494   */\n          dup7\n            /* \"#utility.yul\":3481:3503   */\n          add\n            /* \"#utility.yul\":3439:3513   */\n          tag_24\n          jump\t// in\n        tag_86:\n            /* \"#utility.yul\":3429:3513   */\n          swap2\n          pop\n            /* \"#utility.yul\":3231:3523   */\n          pop\n            /* \"#utility.yul\":2677:3530   */\n          swap3\n          pop\n          swap3\n          swap1\n          pop\n          jump\t// out\n            /* \"#utility.yul\":3536:3635   */\n        tag_25:\n            /* \"#utility.yul\":3588:3594   */\n          0x00\n            /* \"#utility.yul\":3622:3627   */\n          dup2\n            /* \"#utility.yul\":3616:3628   */\n          mload\n            /* \"#utility.yul\":3606:3628   */\n          swap1\n          pop\n            /* \"#utility.yul\":3536:3635   */\n          swap2\n          swap1\n          pop\n          jump\t// out\n            /* \"#utility.yul\":3641:3821   */\n        tag_26:\n            /* \"#utility.yul\":3689:3766   */\n          0x4e487b7100000000000000000000000000000000000000000000000000000000\n            /* \"#utility.yul\":3686:3687   */\n          0x00\n            /* \"#utility.yul\":3679:3767   */\n          mstore\n            /* \"#utility.yul\":3786:3790   */\n          0x22\n            /* \"#utility.yul\":3783:3784   */\n          0x04\n            /* \"#utility.yul\":3776:3791   */\n          mstore\n            /* \"#utility.yul\":3810:3814   */\n          0x24\n            /* \"#utility.yul\":3807:3808   */\n          0x00\n            /* \"#utility.yul\":3800:3815   */\n          revert\n            /* \"#utility.yul\":3827:4147   */\n        tag_27:\n            /* \"#utility.yul\":3871:3877   */\n          0x00\n            /* \"#utility.yul\":3908:3909   */\n          0x02\n            /* \"#utility.yul\":3902:3906   */\n          dup3\n            /* \"#utility.yul\":3898:3910   */\n          div\n            /* \"#utility.yul\":3888:3910   */\n          swap1\n          pop\n            /* \"#utility.yul\":3955:3956   */\n          0x01\n            /* \"#utility.yul\":3949:3953   */\n          dup3\n            /* \"#utility.yul\":3945:3957   */\n          and\n            /* \"#utility.yul\":3976:3994   */\n          dup1\n            /* \"#utility.yul\":3966:4047   */\n          tag_90\n          jumpi\n            /* \"#utility.yul\":4032:4036   */\n          0x7f\n            /* \"#utility.yul\":4024:4030   */\n          dup3\n            /* \"#utility.yul\":4020:4037   */\n          and\n            /* \"#utility.yul\":4010:4037   */\n          swap2\n          pop\n            /* \"#utility.yul\":3966:4047   */\n        tag_90:\n            /* \"#utility.yul\":4094:4096   */\n          0x20\n            /* \"#utility.yul\":4086:4092   */\n          dup3\n            /* \"#utility.yul\":4083:4097   */\n          lt\n            /* \"#utility.yul\":4063:4081   */\n          dup2\n            /* \"#utility.yul\":4060:4098   */\n          sub\n            /* \"#utility.yul\":4057:4141   */\n          tag_91\n          jumpi\n            /* \"#utility.yul\":4113:4131   */\n          tag_92\n          tag_26\n          jump\t// in\n        tag_92:\n            /* \"#utility.yul\":4057:4141   */\n        tag_91:\n            /* \"#utility.yul\":3878:4147   */\n          pop\n            /* \"#utility.yul\":3827:4147   */\n          swap2\n          swap1\n          pop\n          jump\t// out\n            /* \"#utility.yul\":4153:4294   */\n        tag_28:\n            /* \"#utility.yul\":4202:4206   */\n          0x00\n            /* \"#utility.yul\":4225:4228   */\n          dup2\n            /* \"#utility.yul\":4217:4228   */\n          swap1\n          pop\n            /* \"#utility.yul\":4248:4251   */\n          dup2\n            /* \"#utility.yul\":4245:4246   */\n          0x00\n            /* \"#utility.yul\":4238:4252   */\n          mstore\n            /* \"#utility.yul\":4282:4286   */\n          0x20\n            /* \"#utility.yul\":4279:4280   */\n          0x00\n            /* \"#utility.yul\":4269:4287   */\n          keccak256\n            /* \"#utility.yul\":4261:4287   */\n          swap1\n          pop\n            /* \"#utility.yul\":4153:4294   */\n          swap2\n          swap1\n          pop\n          jump\t// out\n            /* \"#utility.yul\":4300:4393   */\n        tag_29:\n            /* \"#utility.yul\":4337:4343   */\n          0x00\n            /* \"#utility.yul\":4384:4386   */\n          0x20\n            /* \"#utility.yul\":4379:4381   */\n          0x1f\n            /* \"#utility.yul\":4372:4377   */\n          dup4\n            /* \"#utility.yul\":4368:4382   */\n          add\n            /* \"#utility.yul\":4364:4387   */\n          div\n            /* \"#utility.yul\":4354:4387   */\n          swap1\n          pop\n            /* \"#utility.yul\":4300:4393   */\n          swap2\n          swap1\n          pop\n          jump\t// out\n            /* \"#utility.yul\":4399:4506   */\n        tag_30:\n            /* \"#utility.yul\":4443:4451   */\n          0x00\n            /* \"#utility.yul\":4493:4498   */\n          dup3\n            /* \"#utility.yul\":4487:4491   */\n          dup3\n            /* \"#utility.yul\":4483:4499   */\n          shl\n            /* \"#utility.yul\":4462:4499   */\n          swap1\n          pop\n            /* \"#utility.yul\":4399:4506   */\n          swap3\n          swap2\n          pop\n          pop\n          jump\t// out\n            /* \"#utility.yul\":4512:4905   */\n        tag_31:\n            /* \"#utility.yul\":4581:4587   */\n          0x00\n            /* \"#utility.yul\":4631:4632   */\n          0x08\n            /* \"#utility.yul\":4619:4629   */\n          dup4\n            /* \"#utility.yul\":4615:4633   */\n          mul\n            /* \"#utility.yul\":4654:4751   */\n          tag_97\n            /* \"#utility.yul\":4684:4750   */\n          0xffffffffffffffffffffffffffffffffffffffffffffffffffffffffffffffff\n            /* \"#utility.yul\":4673:4682   */\n          dup3\n            /* \"#utility.yul\":4654:4751   */\n          tag_30\n          jump\t// in\n        tag_97:\n            /* \"#utility.yul\":4772:4811   */\n          tag_98\n            /* \"#utility.yul\":4802:4810   */\n          dup7\n            /* \"#utility.yul\":4791:4800   */\n          dup4\n            /* \"#utility.yul\":4772:4811   */\n          tag_30\n          jump\t// in\n        tag_98:\n            /* \"#utility.yul\":4760:4811   */\n          swap6\n          pop\n            /* \"#utility.yul\":4844:4848   */\n          dup1\n            /* \"#utility.yul\":4840:4849   */\n          not\n            /* \"#utility.yul\":4833:4838   */\n          dup5\n            /* \"#utility.yul\":4829:4850   */\n          and\n            /* \"#utility.yul\":4820:4850   */\n          swap4\n          pop\n            /* \"#utility.yul\":4893:4897   */\n          dup1\n            /* \"#utility.yul\":4883:4891   */\n          dup7\n            /* \"#utility.yul\":4879:4898   */\n          and\n            /* \"#utility.yul\":4872:4877   */\n          dup5\n            /* \"#utility.yul\":4869:4899   */\n          or\n            /* \"#utility.yul\":4859:4899   */\n          swap3\n          pop\n            /* \"#utility.yul\":4588:4905   */\n          pop\n          pop\n            /* \"#utility.yul\":4512:4905   */\n          swap4\n          swap3\n          pop\n          pop\n          pop\n          jump\t// out\n            /* \"#utility.yul\":4911:4988   */\n        tag_32:\n            /* \"#utility.yul\":4948:4955   */\n          0x00\n            /* \"#utility.yul\":4977:4982   */\n          dup2\n            /* \"#utility.yul\":4966:4982   */\n          swap1\n          pop\n            /* \"#utility.yul\":4911:4988   */\n          swap2\n          swap1\n          pop\n          jump\t// out\n            /* \"#utility.yul\":4994:5054   */\n        tag_33:\n            /* \"#utility.yul\":5022:5025   */\n          0x00\n            /* \"#utility.yul\":5043:5048   */\n          dup2\n            /* \"#utility.yul\":5036:5048   */\n          swap1\n          pop\n            /* \"#utility.yul\":4994:5054   */\n          swap2\n          swap1\n          pop\n          jump\t// out\n            /* \"#utility.yul\":5060:5202   */\n        tag_34:\n            /* \"#utility.yul\":5110:5119   */\n          0x00\n            /* \"#utility.yul\":5143:5196   */\n          tag_102\n            /* \"#utility.yul\":5161:5195   */\n          tag_103\n            /* \"#utility.yul\":5170:5194   */\n          tag_104\n            /* \"#utility.yul\":5188:5193   */\n          dup5\n            /* \"#utility.yul\":5170:5194   */\n          tag_32\n          jump\t// in\n        tag_104:\n            /* \"#utility.yul\":5161:5195   */\n          tag_33\n          jump\t// in\n        tag_103:\n            /* \"#utility.yul\":5143:5196   */\n          tag_32\n          jump\t// in\n        tag_102:\n            /* \"#utility.yul\":5130:5196   */\n          swap1\n          pop\n            /* \"#utility.yul\":5060:5202   */\n          swap2\n          swap1\n          pop\n          jump\t// out\n            /* \"#utility.yul\":5208:5283   */\n        tag_35:\n            /* \"#utility.yul\":5251:5254   */\n          0x00\n            /* \"#utility.yul\":5272:5277   */\n          dup2\n            /* \"#utility.yul\":5265:5277   */\n          swap1\n          pop\n            /* \"#utility.yul\":5208:5283   */\n          swap2\n          swap1\n          pop\n          jump\t// out\n            /* \"#utility.yul\":5289:5558   */\n        tag_36:\n            /* \"#utility.yul\":5399:5438   */\n          tag_107\n            /* \"#utility.yul\":5430:5437   */\n          dup4\n            /* \"#utility.yul\":5399:5438   */\n          tag_34\n          jump\t// in\n        tag_107:\n            /* \"#utility.yul\":5460:5551   */\n          tag_108\n            /* \"#utility.yul\":5509:5550   */\n          tag_109\n            /* \"#utility.yul\":5533:5549   */\n          dup3\n            /* \"#utility.yul\":5509:5550   */\n          tag_35\n          jump\t// in\n        tag_109:\n            /* \"#utility.yul\":5501:5507   */\n          dup5\n            /* \"#utility.yul\":5494:5498   */\n          dup5\n            /* \"#utility.yul\":5488:5499   */\n          sload\n            /* \"#utility.yul\":5460:5551   */\n          tag_31\n          jump\t// in\n        tag_108:\n            /* \"#utility.yul\":5454:5458   */\n          dup3\n            /* \"#utility.yul\":5447:5552   */\n          sstore\n            /* \"#utility.yul\":5365:5558   */\n          pop\n            /* \"#utility.yul\":5289:5558   */\n          pop\n          pop\n          pop\n          jump\t// out\n            /* \"#utility.yul\":5564:5637   */\n        tag_37:\n            /* \"#utility.yul\":5609:5612   */\n          0x00\n            /* \"#utility.yul\":5564:5637   */\n          swap1\n          jump\t// out\n            /* \"#utility.yul\":5643:5832   */\n        tag_38:\n            /* \"#utility.yul\":5720:5752   */\n          tag_112\n          tag_37\n          jump\t// in\n        tag_112:\n            /* \"#utility.yul\":5761:5826   */\n          tag_113\n            /* \"#utility.yul\":5819:5825   */\n          dup2\n            /* \"#utility.yul\":5811:5817   */\n          dup5\n            /* \"#utility.yul\":5805:5809   */\n          dup5\n            /* \"#utility.yul\":5761:5826   */\n          tag_36\n          jump\t// in\n        tag_113:\n            /* \"#utility.yul\":5696:5832   */\n          pop\n            /* \"#utility.yul\":5643:5832   */\n          pop\n          pop\n          jump\t// out\n            /* \"#utility.yul\":5838:6024   */\n        tag_39:\n            /* \"#utility.yul\":5898:6018   */\n        tag_115:\n            /* \"#utility.yul\":5915:5918   */\n          dup2\n            /* \"#utility.yul\":5908:5913   */\n          dup2\n            /* \"#utility.yul\":5905:5919   */\n          lt\n            /* \"#utility.yul\":5898:6018   */\n          iszero\n          tag_117\n          jumpi\n            /* \"#utility.yul\":5969:6008   */\n          tag_118\n            /* \"#utility.yul\":6006:6007   */\n          0x00\n            /* \"#utility.yul\":5999:6004   */\n          dup3\n            /* \"#utility.yul\":5969:6008   */\n          tag_38\n          jump\t// in\n        tag_118:\n            /* \"#utility.yul\":5942:5943   */\n          0x01\n            /* \"#utility.yul\":5935:5940   */\n          dup2\n            /* \"#utility.yul\":5931:5944   */\n          add\n            /* \"#utility.yul\":5922:5944   */\n          swap1\n          pop\n            /* \"#utility.yul\":5898:6018   */\n          jump(tag_115)\n        tag_117:\n            /* \"#utility.yul\":5838:6024   */\n          pop\n          pop\n          jump\t// out\n            /* \"#utility.yul\":6030:6573   */\n        tag_40:\n            /* \"#utility.yul\":6131:6133   */\n          0x1f\n            /* \"#utility.yul\":6126:6129   */\n          dup3\n            /* \"#utility.yul\":6123:6134   */\n          gt\n            /* \"#utility.yul\":6120:6566   */\n          iszero\n          tag_120\n          jumpi\n            /* \"#utility.yul\":6165:6203   */\n          tag_121\n            /* \"#utility.yul\":6197:6202   */\n          dup2\n            /* \"#utility.yul\":6165:6203   */\n          tag_28\n          jump\t// in\n        tag_121:\n            /* \"#utility.yul\":6249:6278   */\n          tag_122\n            /* \"#utility.yul\":6267:6277   */\n          dup5\n            /* \"#utility.yul\":6249:6278   */\n          tag_29\n          jump\t// in\n        tag_122:\n            /* \"#utility.yul\":6239:6247   */\n          dup2\n            /* \"#utility.yul\":6235:6279   */\n          add\n            /* \"#utility.yul\":6432:6434   */\n          0x20\n            /* \"#utility.yul\":6420:6430   */\n          dup6\n            /* \"#utility.yul\":6417:6435   */\n          lt\n            /* \"#utility.yul\":6414:6463   */\n          iszero\n          tag_123\n          jumpi\n            /* \"#utility.yul\":6453:6461   */\n          dup2\n            /* \"#utility.yul\":6438:6461   */\n          swap1\n          pop\n            /* \"#utility.yul\":6414:6463   */\n        tag_123:\n            /* \"#utility.yul\":6476:6556   */\n          tag_124\n            /* \"#utility.yul\":6532:6554   */\n          tag_125\n            /* \"#utility.yul\":6550:6553   */\n          dup6\n            /* \"#utility.yul\":6532:6554   */\n          tag_29\n          jump\t// in\n        tag_125:\n            /* \"#utility.yul\":6522:6530   */\n          dup4\n            /* \"#utility.yul\":6518:6555   */\n          add\n            /* \"#utility.yul\":6505:6516   */\n          dup3\n            /* \"#utility.yul\":6476:6556   */\n          tag_39\n          jump\t// in\n        tag_124:\n            /* \"#utility.yul\":6135:6566   */\n          pop\n          pop\n            /* \"#utility.yul\":6120:6566   */\n        tag_120:\n            /* \"#utility.yul\":6030:6573   */\n          pop\n          pop\n          pop\n          jump\t// out\n            /* \"#utility.yul\":6579:6696   */\n        tag_41:\n            /* \"#utility.yul\":6633:6641   */\n          0x00\n            /* \"#utility.yul\":6683:6688   */\n          dup3\n            /* \"#utility.yul\":6677:6681   */\n          dup3\n            /* \"#utility.yul\":6673:6689   */\n          shr\n            /* \"#utility.yul\":6652:6689   */\n          swap1\n          pop\n            /* \"#utility.yul\":6579:6696   */\n          swap3\n          swap2\n          pop\n          pop\n          jump\t// out\n            /* \"#utility.yul\":6702:6871   */\n        tag_42:\n            /* \"#utility.yul\":6746:6752   */\n          0x00\n            /* \"#utility.yul\":6779:6830   */\n          tag_128\n            /* \"#utility.yul\":6827:6828   */\n          0x00\n            /* \"#utility.yul\":6823:6829   */\n          not\n            /* \"#utility.yul\":6815:6820   */\n          dup5\n            /* \"#utility.yul\":6812:6813   */\n          0x08\n            /* \"#utility.yul\":6808:6821   */\n          mul\n            /* \"#utility.yul\":6779:6830   */\n          tag_41\n          jump\t// in\n        tag_128:\n            /* \"#utility.yul\":6775:6831   */\n          not\n            /* \"#utility.yul\":6860:6864   */\n          dup1\n            /* \"#utility.yul\":6854:6858   */\n          dup4\n            /* \"#utility.yul\":6850:6865   */\n          and\n            /* \"#utility.yul\":6840:6865   */\n          swap2\n          pop\n            /* \"#utility.yul\":6753:6871   */\n          pop\n            /* \"#utility.yul\":6702:6871   */\n          swap3\n          swap2\n          pop\n          pop\n          jump\t// out\n            /* \"#utility.yul\":6876:7171   */\n        tag_43:\n            /* \"#utility.yul\":6952:6956   */\n          0x00\n            /* \"#utility.yul\":7098:7127   */\n          tag_130\n            /* \"#utility.yul\":7123:7126   */\n          dup4\n            /* \"#utility.yul\":7117:7121   */\n          dup4\n            /* \"#utility.yul\":7098:7127   */\n          tag_42\n          jump\t// in\n        tag_130:\n            /* \"#utility.yul\":7090:7127   */\n          swap2\n          pop\n            /* \"#utility.yul\":7160:7163   */\n          dup3\n            /* \"#utility.yul\":7157:7158   */\n          0x02\n            /* \"#utility.yul\":7153:7164   */\n          mul\n            /* \"#utility.yul\":7147:7151   */\n          dup3\n            /* \"#utility.yul\":7144:7165   */\n          or\n            /* \"#utility.yul\":7136:7165   */\n          swap1\n          pop\n            /* \"#utility.yul\":6876:7171   */\n          swap3\n          swap2\n          pop\n          pop\n          jump\t// out\n            /* \"#utility.yul\":7176:8571   */\n        tag_7:\n            /* \"#utility.yul\":7293:7330   */\n          tag_132\n            /* \"#utility.yul\":7326:7329   */\n          dup3\n            /* \"#utility.yul\":7293:7330   */\n          tag_25\n          jump\t// in\n        tag_132:\n            /* \"#utility.yul\":7395:7413   */\n          0xffffffffffffffff\n            /* \"#utility.yul\":7387:7393   */\n          dup2\n            /* \"#utility.yul\":7384:7414   */\n          gt\n            /* \"#utility.yul\":7381:7437   */\n          iszero\n          tag_133\n          jumpi\n            /* \"#utility.yul\":7417:7435   */\n          tag_134\n          tag_18\n          jump\t// in\n        tag_134:\n            /* \"#utility.yul\":7381:7437   */\n        tag_133:\n            /* \"#utility.yul\":7461:7499   */\n          tag_135\n            /* \"#utility.yul\":7493:7497   */\n          dup3\n            /* \"#utility.yul\":7487:7498   */\n          sload\n            /* \"#utility.yul\":7461:7499   */\n          tag_27\n          jump\t// in\n        tag_135:\n            /* \"#utility.yul\":7546:7613   */\n          tag_136\n            /* \"#utility.yul\":7606:7612   */\n          dup3\n            /* \"#utility.yul\":7598:7604   */\n          dup3\n            /* \"#utility.yul\":7592:7596   */\n          dup6\n            /* \"#utility.yul\":7546:7613   */\n          tag_40\n          jump\t// in\n        tag_136:\n            /* \"#utility.yul\":7640:7641   */\n          0x00\n            /* \"#utility.yul\":7664:7668   */\n          0x20\n            /* \"#utility.yul\":7651:7668   */\n          swap1\n          pop\n            /* \"#utility.yul\":7696:7698   */\n          0x1f\n            /* \"#utility.yul\":7688:7694   */\n          dup4\n            /* \"#utility.yul\":7685:7699   */\n          gt\n            /* \"#utility.yul\":7713:7714   */\n          0x01\n            /* \"#utility.yul\":7708:8326   */\n          dup2\n          eq\n          tag_138\n          jumpi\n            /* \"#utility.yul\":8370:8371   */\n          0x00\n            /* \"#utility.yul\":8387:8393   */\n          dup5\n            /* \"#utility.yul\":8384:8461   */\n          iszero\n          tag_139\n          jumpi\n            /* \"#utility.yul\":8436:8445   */\n          dup3\n            /* \"#utility.yul\":8431:8434   */\n          dup8\n            /* \"#utility.yul\":8427:8446   */\n          add\n            /* \"#utility.yul\":8421:8447   */\n          mload\n            /* \"#utility.yul\":8412:8447   */\n          swap1\n          pop\n            /* \"#utility.yul\":8384:8461   */\n        tag_139:\n            /* \"#utility.yul\":8487:8554   */\n          tag_140\n            /* \"#utility.yul\":8547:8553   */\n          dup6\n            /* \"#utility.yul\":8540:8545   */\n          dup3\n            /* \"#utility.yul\":8487:8554   */\n          tag_43\n          jump\t// in\n        tag_140:\n            /* \"#utility.yul\":8481:8485   */\n          dup7\n            /* \"#utility.yul\":8474:8555   */\n          sstore\n            /* \"#utility.yul\":8343:8565   */\n          pop\n            /* \"#utility.yul\":7678:8565   */\n          jump(tag_137)\n            /* \"#utility.yul\":7708:8326   */\n        tag_138:\n            /* \"#utility.yul\":7760:7764   */\n          0x1f\n            /* \"#utility.yul\":7756:7765   */\n          not\n            /* \"#utility.yul\":7748:7754   */\n          dup5\n            /* \"#utility.yul\":7744:7766   */\n          and\n            /* \"#utility.yul\":7794:7831   */\n          tag_141\n            /* \"#utility.yul\":7826:7830   */\n          dup7\n            /* \"#utility.yul\":7794:7831   */\n          tag_28\n          jump\t// in\n        tag_141:\n            /* \"#utility.yul\":7853:7854   */\n          0x00\n            /* \"#utility.yul\":7867:8075   */\n        tag_142:\n            /* \"#utility.yul\":7881:7888   */\n          dup3\n            /* \"#utility.yul\":7878:7879   */\n          dup2\n            /* \"#utility.yul\":7875:7889   */\n          lt\n            /* \"#utility.yul\":7867:8075   */\n          iszero\n          tag_144\n          jumpi\n            /* \"#utility.yul\":7960:7969   */\n          dup5\n            /* \"#utility.yul\":7955:7958   */\n          dup10\n            /* \"#utility.yul\":7951:7970   */\n          add\n            /* \"#utility.yul\":7945:7971   */\n          mload\n            /* \"#utility.yul\":7937:7943   */\n          dup3\n            /* \"#utility.yul\":7930:7972   */\n          sstore\n            /* \"#utility.yul\":8011:8012   */\n          0x01\n            /* \"#utility.yul\":8003:8009   */\n          dup3\n            /* \"#utility.yul\":7999:8013   */\n          add\n            /* \"#utility.yul\":7989:8013   */\n          swap2\n          pop\n            /* \"#utility.yul\":8058:8060   */\n          0x20\n            /* \"#utility.yul\":8047:8056   */\n          dup6\n            /* \"#utility.yul\":8043:8061   */\n          add\n            /* \"#utility.yul\":8030:8061   */\n          swap5\n          pop\n            /* \"#utility.yul\":7904:7908   */\n          0x20\n            /* \"#utility.yul\":7901:7902   */\n          dup2\n            /* \"#utility.yul\":7897:7909   */\n          add\n            /* \"#utility.yul\":7892:7909   */\n          swap1\n          pop\n            /* \"#utility.yul\":7867:8075   */\n          jump(tag_142)\n        tag_144:\n            /* \"#utility.yul\":8103:8109   */\n          dup7\n            /* \"#utility.yul\":8094:8101   */\n          dup4\n            /* \"#utility.yul\":8091:8110   */\n          lt\n            /* \"#utility.yul\":8088:8267   */\n          iszero\n          tag_145\n          jumpi\n            /* \"#utility.yul\":8161:8170   */\n          dup5\n            /* \"#utility.yul\":8156:8159   */\n          dup10\n            /* \"#utility.yul\":8152:8171   */\n          add\n            /* \"#utility.yul\":8146:8172   */\n          mload\n            /* \"#utility.yul\":8204:8252   */\n          tag_146\n            /* \"#utility.yul\":8246:8250   */\n          0x1f\n            /* \"#utility.yul\":8238:8244   */\n          dup10\n            /* \"#utility.yul\":8234:8251   */\n          and\n            /* \"#utility.yul\":8223:8232   */\n          dup3\n            /* \"#utility.yul\":8204:8252   */\n          tag_42\n          jump\t// in\n        tag_146:\n            /* \"#utility.yul\":8196:8202   */\n          dup4\n            /* \"#utility.yul\":8189:8253   */\n          sstore\n            /* \"#utility.yul\":8111:8267   */\n          pop\n            /* \"#utility.yul\":8088:8267   */\n        tag_145:\n            /* \"#utility.yul\":8313:8314   */\n          0x01\n            /* \"#utility.yul\":8309:8310   */\n          0x02\n            /* \"#utility.yul\":8301:8307   */\n          dup9\n            /* \"#utility.yul\":8297:8311   */\n          mul\n            /* \"#utility.yul\":8293:8315   */\n          add\n            /* \"#utility.yul\":8287:8291   */\n          dup9\n            /* \"#utility.yul\":8280:8316   */\n          sstore\n            /* \"#utility.yul\":7715:8326   */\n          pop\n          pop\n          pop\n            /* \"#utility.yul\":7678:8565   */\n        tag_137:\n          pop\n            /* \"#utility.yul\":7268:8571   */\n          pop\n          pop\n          pop\n            /* \"#utility.yul\":7176:8571   */\n          pop\n          pop\n          jump\t// out\n            /* \"#utility.yul\":8577:8757   */\n        tag_44:\n            /* \"#utility.yul\":8625:8702   */\n          0x4e487b7100000000000000000000000000000000000000000000000000000000\n            /* \"#utility.yul\":8622:8623   */\n          0x00\n            /* \"#utility.yul\":8615:8703   */\n          mstore\n            /* \"#utility.yul\":8722:8726   */\n          0x11\n            /* \"#utility.yul\":8719:8720   */\n          0x04\n            /* \"#utility.yul\":8712:8727   */\n          mstore\n            /* \"#utility.yul\":8746:8750   */\n          0x24\n            /* \"#utility.yul\":8743:8744   */\n          0x00\n            /* \"#utility.yul\":8736:8751   */\n          revert\n            /* \"#utility.yul\":8763:8954   */\n        tag_10:\n            /* \"#utility.yul\":8803:8806   */\n          0x00\n            /* \"#utility.yul\":8822:8842   */\n          tag_149\n            /* \"#utility.yul\":8840:8841   */\n          dup3\n            /* \"#utility.yul\":8822:8842   */\n          tag_32\n          jump\t// in\n        tag_149:\n            /* \"#utility.yul\":8817:8842   */\n          swap2\n          pop\n            /* \"#utility.yul\":8856:8876   */\n          tag_150\n            /* \"#utility.yul\":8874:8875   */\n          dup4\n            /* \"#utility.yul\":8856:8876   */\n          tag_32\n          jump\t// in\n        tag_150:\n            /* \"#utility.yul\":8851:8876   */\n          swap3\n          pop\n            /* \"#utility.yul\":8899:8900   */\n          dup3\n            /* \"#utility.yul\":8896:8897   */\n          dup3\n            /* \"#utility.yul\":8892:8901   */\n          add\n            /* \"#utility.yul\":8885:8901   */\n          swap1\n          pop\n            /* \"#utility.yul\":8920:8923   */\n          dup1\n            /* \"#utility.yul\":8917:8918   */\n          dup3\n            /* \"#utility.yul\":8914:8924   */\n          gt\n            /* \"#utility.yul\":8911:8947   */\n          iszero\n          tag_151\n          jumpi\n            /* \"#utility.yul\":8927:8945   */\n          tag_152\n          tag_44\n          jump\t// in\n        tag_152:\n            /* \"#utility.yul\":8911:8947   */\n        tag_151:\n            /* \"#utility.yul\":8763:8954   */\n          swap3\n          swap2\n          pop\n          pop\n          jump\t// out\n            /* \"Voting.sol\":705:2403  contract Voting {... */\n        tag_11:\n          dataSize(sub_0)\n          dup1\n          dataOffset(sub_0)\n          0x00\n          codecopy\n          0x00\n          return\n        stop\n\n        sub_0: assembly {\n                /* \"Voting.sol\":705:2403  contract Voting {... */\n              mstore(0x40, 0x80)\n              callvalue\n              dup1\n              iszero\n              tag_1\n              jumpi\n              0x00\n              dup1\n              revert\n            tag_1:\n              pop\n              jumpi(tag_2, lt(calldatasize, 0x04))\n              shr(0xe0, calldataload(0x00))\n              dup1\n              0x2a0c6edf\n              eq\n              tag_3\n              jumpi\n              dup1\n              0x7f75a31b\n              eq\n              tag_4\n              jumpi\n              dup1\n              0xb93b1f83\n              eq\n              tag_5\n              jumpi\n              dup1\n              0xc3da42b8\n              eq\n              tag_6\n              jumpi\n            tag_2:\n              0x00\n              dup1\n              revert\n                /* \"Voting.sol\":1751:2022  function votingDenyCase() public timeCase alreadyVoting{... */\n            tag_3:\n              tag_7\n              tag_8\n              jump\t// in\n            tag_7:\n              stop\n                /* \"Voting.sol\":1586:1718  function votingAcceptCase() public timeCase alreadyVoting{... */\n            tag_4:\n              tag_9\n              tag_10\n              jump\t// in\n            tag_9:\n              stop\n                /* \"Voting.sol\":2030:2400  function approveCase() public {... */\n            tag_5:\n              tag_11\n              tag_12\n              jump\t// in\n            tag_11:\n              stop\n                /* \"Voting.sol\":1014:1027  Case public c */\n            tag_6:\n              tag_13\n              tag_14\n              jump\t// in\n            tag_13:\n              mload(0x40)\n              tag_15\n              swap7\n              swap6\n              swap5\n              swap4\n              swap3\n              swap2\n              swap1\n              tag_16\n              jump\t// in\n            tag_15:\n              mload(0x40)\n              dup1\n              swap2\n              sub\n              swap1\n              return\n                /* \"Voting.sol\":1751:2022  function votingDenyCase() public timeCase alreadyVoting{... */\n            tag_8:\n                /* \"Voting.sol\":1324:1331  timeMax */\n              sload(0x07)\n                /* \"Voting.sol\":1306:1321  block.timestamp */\n              timestamp\n                /* \"Voting.sol\":1306:1331  block.timestamp < timeMax */\n              lt\n                /* \"Voting.sol\":1298:1349  require(block.timestamp < timeMax, \"Time exceeded\") */\n              tag_18\n              jumpi\n              mload(0x40)\n              0x08c379a000000000000000000000000000000000000000000000000000000000\n              dup2\n              mstore\n              0x04\n              add\n              tag_19\n              swap1\n              tag_20\n              jump\t// in\n            tag_19:\n              mload(0x40)\n              dup1\n              swap2\n              sub\n              swap1\n              revert\n            tag_18:\n                /* \"Voting.sol\":1422:1423  c */\n              0x00\n                /* \"Voting.sol\":1422:1433  c.approvers */\n              0x05\n              add\n                /* \"Voting.sol\":1422:1445  c.approvers[msg.sender] */\n              0x00\n                /* \"Voting.sol\":1434:1444  msg.sender */\n              caller\n                /* \"Voting.sol\":1422:1445  c.approvers[msg.sender] */\n              0xffffffffffffffffffffffffffffffffffffffff\n              and\n              0xffffffffffffffffffffffffffffffffffffffff\n              and\n              dup2\n              mstore\n              0x20\n              add\n              swap1\n              dup2\n              mstore\n              0x20\n              add\n              0x00\n              keccak256\n              0x00\n              swap1\n              sload\n              swap1\n              0x0100\n              exp\n              swap1\n              div\n              0xff\n              and\n                /* \"Voting.sol\":1421:1445  !c.approvers[msg.sender] */\n              iszero\n                /* \"Voting.sol\":1413:1468  require(!c.approvers[msg.sender], \"you already voting\") */\n              tag_22\n              jumpi\n              mload(0x40)\n              0x08c379a000000000000000000000000000000000000000000000000000000000\n              dup2\n              mstore\n              0x04\n              add\n              tag_23\n              swap1\n              tag_24\n              jump\t// in\n            tag_23:\n              mload(0x40)\n              dup1\n              swap2\n              sub\n              swap1\n              revert\n            tag_22:\n                /* \"Voting.sol\":1488:1489  c */\n              0x00\n                /* \"Voting.sol\":1488:1502  c.notApprovers */\n              0x06\n              add\n                /* \"Voting.sol\":1488:1514  c.notApprovers[msg.sender] */\n              0x00\n                /* \"Voting.sol\":1503:1513  msg.sender */\n              caller\n                /* \"Voting.sol\":1488:1514  c.notApprovers[msg.sender] */\n              0xffffffffffffffffffffffffffffffffffffffff\n              and\n              0xffffffffffffffffffffffffffffffffffffffff\n              and\n              dup2\n              mstore\n              0x20\n              add\n              swap1\n              dup2\n              mstore\n              0x20\n              add\n              0x00\n              keccak256\n              0x00\n              swap1\n              sload\n              swap1\n              0x0100\n              exp\n              swap1\n              div\n              0xff\n              and\n                /* \"Voting.sol\":1487:1514  !c.notApprovers[msg.sender] */\n              iszero\n                /* \"Voting.sol\":1479:1537  require(!c.notApprovers[msg.sender], \"you already voting\") */\n              tag_25\n              jumpi\n              mload(0x40)\n              0x08c379a000000000000000000000000000000000000000000000000000000000\n              dup2\n              mstore\n              0x04\n              add\n              tag_26\n              swap1\n              tag_24\n              jump\t// in\n            tag_26:\n              mload(0x40)\n              dup1\n              swap2\n              sub\n              swap1\n              revert\n            tag_25:\n                /* \"Voting.sol\":1826:1827  c */\n              0x00\n                /* \"Voting.sol\":1826:1837  c.approvers */\n              0x05\n              add\n                /* \"Voting.sol\":1826:1849  c.approvers[msg.sender] */\n              0x00\n                /* \"Voting.sol\":1838:1848  msg.sender */\n              caller\n                /* \"Voting.sol\":1826:1849  c.approvers[msg.sender] */\n              0xffffffffffffffffffffffffffffffffffffffff\n              and\n              0xffffffffffffffffffffffffffffffffffffffff\n              and\n              dup2\n              mstore\n              0x20\n              add\n              swap1\n              dup2\n              mstore\n              0x20\n              add\n              0x00\n              keccak256\n              0x00\n              swap1\n              sload\n              swap1\n              0x0100\n              exp\n              swap1\n              div\n              0xff\n              and\n                /* \"Voting.sol\":1825:1849  !c.approvers[msg.sender] */\n              iszero\n                /* \"Voting.sol\":1817:1872  require(!c.approvers[msg.sender], \"you already voting\") */\n              tag_28\n              jumpi\n              mload(0x40)\n              0x08c379a000000000000000000000000000000000000000000000000000000000\n              dup2\n              mstore\n              0x04\n              add\n              tag_29\n              swap1\n              tag_24\n              jump\t// in\n            tag_29:\n              mload(0x40)\n              dup1\n              swap2\n              sub\n              swap1\n              revert\n            tag_28:\n                /* \"Voting.sol\":1892:1893  c */\n              0x00\n                /* \"Voting.sol\":1892:1906  c.notApprovers */\n              0x06\n              add\n                /* \"Voting.sol\":1892:1918  c.notApprovers[msg.sender] */\n              0x00\n                /* \"Voting.sol\":1907:1917  msg.sender */\n              caller\n                /* \"Voting.sol\":1892:1918  c.notApprovers[msg.sender] */\n              0xffffffffffffffffffffffffffffffffffffffff\n              and\n              0xffffffffffffffffffffffffffffffffffffffff\n              and\n              dup2\n              mstore\n              0x20\n              add\n              swap1\n              dup2\n              mstore\n              0x20\n              add\n              0x00\n              keccak256\n              0x00\n              swap1\n              sload\n              swap1\n              0x0100\n              exp\n              swap1\n              div\n              0xff\n              and\n                /* \"Voting.sol\":1891:1918  !c.notApprovers[msg.sender] */\n              iszero\n                /* \"Voting.sol\":1883:1941  require(!c.notApprovers[msg.sender], \"you already voting\") */\n              tag_30\n              jumpi\n              mload(0x40)\n              0x08c379a000000000000000000000000000000000000000000000000000000000\n              dup2\n              mstore\n              0x04\n              add\n              tag_31\n              swap1\n              tag_24\n              jump\t// in\n            tag_31:\n              mload(0x40)\n              dup1\n              swap2\n              sub\n              swap1\n              revert\n            tag_30:\n                /* \"Voting.sol\":1981:1985  true */\n              0x01\n                /* \"Voting.sol\":1952:1953  c */\n              0x00\n                /* \"Voting.sol\":1952:1966  c.notApprovers */\n              0x06\n              add\n                /* \"Voting.sol\":1952:1978  c.notApprovers[msg.sender] */\n              0x00\n                /* \"Voting.sol\":1967:1977  msg.sender */\n              caller\n                /* \"Voting.sol\":1952:1978  c.notApprovers[msg.sender] */\n              0xffffffffffffffffffffffffffffffffffffffff\n              and\n              0xffffffffffffffffffffffffffffffffffffffff\n              and\n              dup2\n              mstore\n              0x20\n              add\n              swap1\n              dup2\n              mstore\n              0x20\n              add\n              0x00\n              keccak256\n              0x00\n                /* \"Voting.sol\":1952:1985  c.notApprovers[msg.sender] = true */\n              0x0100\n              exp\n              dup2\n              sload\n              dup2\n              0xff\n              mul\n              not\n              and\n              swap1\n              dup4\n              iszero\n              iszero\n              mul\n              or\n              swap1\n              sstore\n              pop\n                /* \"Voting.sol\":1996:1997  c */\n              0x00\n                /* \"Voting.sol\":1996:2012  c.countNotAccept */\n              0x03\n              add\n              0x00\n                /* \"Voting.sol\":1996:2014  c.countNotAccept++ */\n              dup2\n              sload\n              dup1\n              swap3\n              swap2\n              swap1\n              tag_32\n              swap1\n              tag_33\n              jump\t// in\n            tag_32:\n              swap2\n              swap1\n              pop\n              sstore\n              pop\n                /* \"Voting.sol\":1751:2022  function votingDenyCase() public timeCase alreadyVoting{... */\n              jump\t// out\n                /* \"Voting.sol\":1586:1718  function votingAcceptCase() public timeCase alreadyVoting{... */\n            tag_10:\n                /* \"Voting.sol\":1324:1331  timeMax */\n              sload(0x07)\n                /* \"Voting.sol\":1306:1321  block.timestamp */\n              timestamp\n                /* \"Voting.sol\":1306:1331  block.timestamp < timeMax */\n              lt\n                /* \"Voting.sol\":1298:1349  require(block.timestamp < timeMax, \"Time exceeded\") */\n              tag_35\n              jumpi\n              mload(0x40)\n              0x08c379a000000000000000000000000000000000000000000000000000000000\n              dup2\n              mstore\n              0x04\n              add\n              tag_36\n              swap1\n              tag_20\n              jump\t// in\n            tag_36:\n              mload(0x40)\n              dup1\n              swap2\n              sub\n              swap1\n              revert\n            tag_35:\n                /* \"Voting.sol\":1422:1423  c */\n              0x00\n                /* \"Voting.sol\":1422:1433  c.approvers */\n              0x05\n              add\n                /* \"Voting.sol\":1422:1445  c.approvers[msg.sender] */\n              0x00\n                /* \"Voting.sol\":1434:1444  msg.sender */\n              caller\n                /* \"Voting.sol\":1422:1445  c.approvers[msg.sender] */\n              0xffffffffffffffffffffffffffffffffffffffff\n              and\n              0xffffffffffffffffffffffffffffffffffffffff\n              and\n              dup2\n              mstore\n              0x20\n              add\n              swap1\n              dup2\n              mstore\n              0x20\n              add\n              0x00\n              keccak256\n              0x00\n              swap1\n              sload\n              swap1\n              0x0100\n              exp\n              swap1\n              div\n              0xff\n              and\n                /* \"Voting.sol\":1421:1445  !c.approvers[msg.sender] */\n              iszero\n                /* \"Voting.sol\":1413:1468  require(!c.approvers[msg.sender], \"you already voting\") */\n              tag_38\n              jumpi\n              mload(0x40)\n              0x08c379a000000000000000000000000000000000000000000000000000000000\n              dup2\n              mstore\n              0x04\n              add\n              tag_39\n              swap1\n              tag_24\n              jump\t// in\n            tag_39:\n              mload(0x40)\n              dup1\n              swap2\n              sub\n              swap1\n              revert\n            tag_38:\n                /* \"Voting.sol\":1488:1489  c */\n              0x00\n                /* \"Voting.sol\":1488:1502  c.notApprovers */\n              0x06\n              add\n                /* \"Voting.sol\":1488:1514  c.notApprovers[msg.sender] */\n              0x00\n                /* \"Voting.sol\":1503:1513  msg.sender */\n              caller\n                /* \"Voting.sol\":1488:1514  c.notApprovers[msg.sender] */\n              0xffffffffffffffffffffffffffffffffffffffff\n              and\n              0xffffffffffffffffffffffffffffffffffffffff\n              and\n              dup2\n              mstore\n              0x20\n              add\n              swap1\n              dup2\n              mstore\n              0x20\n              add\n              0x00\n              keccak256\n              0x00\n              swap1\n              sload\n              swap1\n              0x0100\n              exp\n              swap1\n              div\n              0xff\n              and\n                /* \"Voting.sol\":1487:1514  !c.notApprovers[msg.sender] */\n              iszero\n                /* \"Voting.sol\":1479:1537  require(!c.notApprovers[msg.sender], \"you already voting\") */\n              tag_40\n              jumpi\n              mload(0x40)\n              0x08c379a000000000000000000000000000000000000000000000000000000000\n              dup2\n              mstore\n              0x04\n              add\n              tag_41\n              swap1\n              tag_24\n              jump\t// in\n            tag_41:\n              mload(0x40)\n              dup1\n              swap2\n              sub\n              swap1\n              revert\n            tag_40:\n                /* \"Voting.sol\":1680:1684  true */\n              0x01\n                /* \"Voting.sol\":1654:1655  c */\n              0x00\n                /* \"Voting.sol\":1654:1665  c.approvers */\n              0x05\n              add\n                /* \"Voting.sol\":1654:1677  c.approvers[msg.sender] */\n              0x00\n                /* \"Voting.sol\":1666:1676  msg.sender */\n              caller\n                /* \"Voting.sol\":1654:1677  c.approvers[msg.sender] */\n              0xffffffffffffffffffffffffffffffffffffffff\n              and\n              0xffffffffffffffffffffffffffffffffffffffff\n              and\n              dup2\n              mstore\n              0x20\n              add\n              swap1\n              dup2\n              mstore\n              0x20\n              add\n              0x00\n              keccak256\n              0x00\n                /* \"Voting.sol\":1654:1684  c.approvers[msg.sender] = true */\n              0x0100\n              exp\n              dup2\n              sload\n              dup2\n              0xff\n              mul\n              not\n              and\n              swap1\n              dup4\n              iszero\n              iszero\n              mul\n              or\n              swap1\n              sstore\n              pop\n                /* \"Voting.sol\":1695:1696  c */\n              0x00\n                /* \"Voting.sol\":1695:1708  c.countAccept */\n              0x02\n              add\n              0x00\n                /* \"Voting.sol\":1695:1710  c.countAccept++ */\n              dup2\n              sload\n              dup1\n              swap3\n              swap2\n              swap1\n              tag_43\n              swap1\n              tag_33\n              jump\t// in\n            tag_43:\n              swap2\n              swap1\n              pop\n              sstore\n              pop\n                /* \"Voting.sol\":1586:1718  function votingAcceptCase() public timeCase alreadyVoting{... */\n              jump\t// out\n                /* \"Voting.sol\":2030:2400  function approveCase() public {... */\n            tag_12:\n                /* \"Voting.sol\":2097:2104  timeMax */\n              sload(0x07)\n                /* \"Voting.sol\":2079:2094  block.timestamp */\n              timestamp\n                /* \"Voting.sol\":2079:2104  block.timestamp > timeMax */\n              gt\n                /* \"Voting.sol\":2071:2125  require(block.timestamp > timeMax, \"Case in progress\") */\n              tag_45\n              jumpi\n              mload(0x40)\n              0x08c379a000000000000000000000000000000000000000000000000000000000\n              dup2\n              mstore\n              0x04\n              add\n              tag_46\n              swap1\n              tag_47\n              jump\t// in\n            tag_46:\n              mload(0x40)\n              dup1\n              swap2\n              sub\n              swap1\n              revert\n            tag_45:\n                /* \"Voting.sol\":2158:2162  true */\n              0x01\n                /* \"Voting.sol\":2144:2162  c.finished != true */\n              iszero\n              iszero\n                /* \"Voting.sol\":2144:2145  c */\n              0x00\n                /* \"Voting.sol\":2144:2154  c.finished */\n              0x04\n              add\n              0x01\n              swap1\n              sload\n              swap1\n              0x0100\n              exp\n              swap1\n              div\n              0xff\n              and\n                /* \"Voting.sol\":2144:2162  c.finished != true */\n              iszero\n              iszero\n              sub\n                /* \"Voting.sol\":2136:2184  require(c.finished != true, \"Case already done\") */\n              tag_48\n              jumpi\n              mload(0x40)\n              0x08c379a000000000000000000000000000000000000000000000000000000000\n              dup2\n              mstore\n              0x04\n              add\n              tag_49\n              swap1\n              tag_50\n              jump\t// in\n            tag_49:\n              mload(0x40)\n              dup1\n              swap2\n              sub\n              swap1\n              revert\n            tag_48:\n                /* \"Voting.sol\":2218:2219  c */\n              0x00\n                /* \"Voting.sol\":2218:2234  c.countNotAccept */\n              0x03\n              add\n              sload\n                /* \"Voting.sol\":2201:2202  c */\n              0x00\n                /* \"Voting.sol\":2201:2214  c.countAccept */\n              0x02\n              add\n              sload\n                /* \"Voting.sol\":2201:2234  c.countAccept >= c.countNotAccept */\n              lt\n                /* \"Voting.sol\":2197:2393  if (c.countAccept >= c.countNotAccept) {... */\n              tag_51\n              jumpi\n                /* \"Voting.sol\":2263:2267  true */\n              0x01\n                /* \"Voting.sol\":2251:2252  c */\n              0x00\n                /* \"Voting.sol\":2251:2260  c.approve */\n              0x04\n              add\n              0x00\n                /* \"Voting.sol\":2251:2267  c.approve = true */\n              0x0100\n              exp\n              dup2\n              sload\n              dup2\n              0xff\n              mul\n              not\n              and\n              swap1\n              dup4\n              iszero\n              iszero\n              mul\n              or\n              swap1\n              sstore\n              pop\n                /* \"Voting.sol\":2295:2299  true */\n              0x01\n                /* \"Voting.sol\":2282:2283  c */\n              0x00\n                /* \"Voting.sol\":2282:2292  c.finished */\n              0x04\n              add\n              0x01\n                /* \"Voting.sol\":2282:2299  c.finished = true */\n              0x0100\n              exp\n              dup2\n              sload\n              dup2\n              0xff\n              mul\n              not\n              and\n              swap1\n              dup4\n              iszero\n              iszero\n              mul\n              or\n              swap1\n              sstore\n              pop\n                /* \"Voting.sol\":2197:2393  if (c.countAccept >= c.countNotAccept) {... */\n              jump(tag_52)\n            tag_51:\n                /* \"Voting.sol\":2344:2349  false */\n              0x00\n                /* \"Voting.sol\":2332:2333  c */\n              dup1\n                /* \"Voting.sol\":2332:2341  c.approve */\n              0x04\n              add\n              0x00\n                /* \"Voting.sol\":2332:2349  c.approve = false */\n              0x0100\n              exp\n              dup2\n              sload\n              dup2\n              0xff\n              mul\n              not\n              and\n              swap1\n              dup4\n              iszero\n              iszero\n              mul\n              or\n              swap1\n              sstore\n              pop\n                /* \"Voting.sol\":2377:2381  true */\n              0x01\n                /* \"Voting.sol\":2364:2365  c */\n              0x00\n                /* \"Voting.sol\":2364:2374  c.finished */\n              0x04\n              add\n              0x01\n                /* \"Voting.sol\":2364:2381  c.finished = true */\n              0x0100\n              exp\n              dup2\n              sload\n              dup2\n              0xff\n              mul\n              not\n              and\n              swap1\n              dup4\n              iszero\n              iszero\n              mul\n              or\n              swap1\n              sstore\n              pop\n                /* \"Voting.sol\":2197:2393  if (c.countAccept >= c.countNotAccept) {... */\n            tag_52:\n                /* \"Voting.sol\":2030:2400  function approveCase() public {... */\n              jump\t// out\n                /* \"Voting.sol\":1014:1027  Case public c */\n            tag_14:\n              0x00\n              dup1\n              0x00\n              add\n              dup1\n              sload\n              tag_53\n              swap1\n              tag_54\n              jump\t// in\n            tag_53:\n              dup1\n              0x1f\n              add\n              0x20\n              dup1\n              swap2\n              div\n              mul\n              0x20\n              add\n              mload(0x40)\n              swap1\n              dup2\n              add\n              0x40\n              mstore\n              dup1\n              swap3\n              swap2\n              swap1\n              dup2\n              dup2\n              mstore\n              0x20\n              add\n              dup3\n              dup1\n              sload\n              tag_55\n              swap1\n              tag_54\n              jump\t// in\n            tag_55:\n              dup1\n              iszero\n              tag_56\n              jumpi\n              dup1\n              0x1f\n              lt\n              tag_57\n              jumpi\n              0x0100\n              dup1\n              dup4\n              sload\n              div\n              mul\n              dup4\n              mstore\n              swap2\n              0x20\n              add\n              swap2\n              jump(tag_56)\n            tag_57:\n              dup3\n              add\n              swap2\n              swap1\n              0x00\n              mstore\n              keccak256(0x00, 0x20)\n              swap1\n            tag_58:\n              dup2\n              sload\n              dup2\n              mstore\n              swap1\n              0x01\n              add\n              swap1\n              0x20\n              add\n              dup1\n              dup4\n              gt\n              tag_58\n              jumpi\n              dup3\n              swap1\n              sub\n              0x1f\n              and\n              dup3\n              add\n              swap2\n            tag_56:\n              pop\n              pop\n              pop\n              pop\n              pop\n              swap1\n              dup1\n              0x01\n              add\n              dup1\n              sload\n              tag_59\n              swap1\n              tag_54\n              jump\t// in\n            tag_59:\n              dup1\n              0x1f\n              add\n              0x20\n              dup1\n              swap2\n              div\n              mul\n              0x20\n              add\n              mload(0x40)\n              swap1\n              dup2\n              add\n              0x40\n              mstore\n              dup1\n              swap3\n              swap2\n              swap1\n              dup2\n              dup2\n              mstore\n              0x20\n              add\n              dup3\n              dup1\n              sload\n              tag_60\n              swap1\n              tag_54\n              jump\t// in\n            tag_60:\n              dup1\n              iszero\n              tag_61\n              jumpi\n              dup1\n              0x1f\n              lt\n              tag_62\n              jumpi\n              0x0100\n              dup1\n              dup4\n              sload\n              div\n              mul\n              dup4\n              mstore\n              swap2\n              0x20\n              add\n              swap2\n              jump(tag_61)\n            tag_62:\n              dup3\n              add\n              swap2\n              swap1\n              0x00\n              mstore\n              keccak256(0x00, 0x20)\n              swap1\n            tag_63:\n              dup2\n              sload\n              dup2\n              mstore\n              swap1\n              0x01\n              add\n              swap1\n              0x20\n              add\n              dup1\n              dup4\n              gt\n              tag_63\n              jumpi\n              dup3\n              swap1\n              sub\n              0x1f\n              and\n              dup3\n              add\n              swap2\n            tag_61:\n              pop\n              pop\n              pop\n              pop\n              pop\n              swap1\n              dup1\n              0x02\n              add\n              sload\n              swap1\n              dup1\n              0x03\n              add\n              sload\n              swap1\n              dup1\n              0x04\n              add\n              0x00\n              swap1\n              sload\n              swap1\n              0x0100\n              exp\n              swap1\n              div\n              0xff\n              and\n              swap1\n              dup1\n              0x04\n              add\n              0x01\n              swap1\n              sload\n              swap1\n              0x0100\n              exp\n              swap1\n              div\n              0xff\n              and\n              swap1\n              pop\n              dup7\n              jump\t// out\n                /* \"#utility.yul\":7:106   */\n            tag_64:\n                /* \"#utility.yul\":59:65   */\n              0x00\n                /* \"#utility.yul\":93:98   */\n              dup2\n                /* \"#utility.yul\":87:99   */\n              mload\n                /* \"#utility.yul\":77:99   */\n              swap1\n              pop\n                /* \"#utility.yul\":7:106   */\n              swap2\n              swap1\n              pop\n              jump\t// out\n                /* \"#utility.yul\":112:281   */\n            tag_65:\n                /* \"#utility.yul\":196:207   */\n              0x00\n                /* \"#utility.yul\":230:236   */\n              dup3\n                /* \"#utility.yul\":225:228   */\n              dup3\n                /* \"#utility.yul\":218:237   */\n              mstore\n                /* \"#utility.yul\":270:274   */\n              0x20\n                /* \"#utility.yul\":265:268   */\n              dup3\n                /* \"#utility.yul\":261:275   */\n              add\n                /* \"#utility.yul\":246:275   */\n              swap1\n              pop\n                /* \"#utility.yul\":112:281   */\n              swap3\n              swap2\n              pop\n              pop\n              jump\t// out\n                /* \"#utility.yul\":287:533   */\n            tag_66:\n                /* \"#utility.yul\":368:369   */\n              0x00\n                /* \"#utility.yul\":378:491   */\n            tag_87:\n                /* \"#utility.yul\":392:398   */\n              dup4\n                /* \"#utility.yul\":389:390   */\n              dup2\n                /* \"#utility.yul\":386:399   */\n              lt\n                /* \"#utility.yul\":378:491   */\n              iszero\n              tag_89\n              jumpi\n                /* \"#utility.yul\":477:478   */\n              dup1\n                /* \"#utility.yul\":472:475   */\n              dup3\n                /* \"#utility.yul\":468:479   */\n              add\n                /* \"#utility.yul\":462:480   */\n              mload\n                /* \"#utility.yul\":458:459   */\n              dup2\n                /* \"#utility.yul\":453:456   */\n              dup5\n                /* \"#utility.yul\":449:460   */\n              add\n                /* \"#utility.yul\":442:481   */\n              mstore\n                /* \"#utility.yul\":414:416   */\n              0x20\n                /* \"#utility.yul\":411:412   */\n              dup2\n                /* \"#utility.yul\":407:417   */\n              add\n                /* \"#utility.yul\":402:417   */\n              swap1\n              pop\n                /* \"#utility.yul\":378:491   */\n              jump(tag_87)\n            tag_89:\n                /* \"#utility.yul\":525:526   */\n              0x00\n                /* \"#utility.yul\":516:522   */\n              dup5\n                /* \"#utility.yul\":511:514   */\n              dup5\n                /* \"#utility.yul\":507:523   */\n              add\n                /* \"#utility.yul\":500:527   */\n              mstore\n                /* \"#utility.yul\":349:533   */\n              pop\n                /* \"#utility.yul\":287:533   */\n              pop\n              pop\n              pop\n              jump\t// out\n                /* \"#utility.yul\":539:641   */\n            tag_67:\n                /* \"#utility.yul\":580:586   */\n              0x00\n                /* \"#utility.yul\":631:633   */\n              0x1f\n                /* \"#utility.yul\":627:634   */\n              not\n                /* \"#utility.yul\":622:624   */\n              0x1f\n                /* \"#utility.yul\":615:620   */\n              dup4\n                /* \"#utility.yul\":611:625   */\n              add\n                /* \"#utility.yul\":607:635   */\n              and\n                /* \"#utility.yul\":597:635   */\n              swap1\n              pop\n                /* \"#utility.yul\":539:641   */\n              swap2\n              swap1\n              pop\n              jump\t// out\n                /* \"#utility.yul\":647:1024   */\n            tag_68:\n                /* \"#utility.yul\":735:738   */\n              0x00\n                /* \"#utility.yul\":763:802   */\n              tag_92\n                /* \"#utility.yul\":796:801   */\n              dup3\n                /* \"#utility.yul\":763:802   */\n              tag_64\n              jump\t// in\n            tag_92:\n                /* \"#utility.yul\":818:889   */\n              tag_93\n                /* \"#utility.yul\":882:888   */\n              dup2\n                /* \"#utility.yul\":877:880   */\n              dup6\n                /* \"#utility.yul\":818:889   */\n              tag_65\n              jump\t// in\n            tag_93:\n                /* \"#utility.yul\":811:889   */\n              swap4\n              pop\n                /* \"#utility.yul\":898:963   */\n              tag_94\n                /* \"#utility.yul\":956:962   */\n              dup2\n                /* \"#utility.yul\":951:954   */\n              dup6\n                /* \"#utility.yul\":944:948   */\n              0x20\n                /* \"#utility.yul\":937:942   */\n              dup7\n                /* \"#utility.yul\":933:949   */\n              add\n                /* \"#utility.yul\":898:963   */\n              tag_66\n              jump\t// in\n            tag_94:\n                /* \"#utility.yul\":988:1017   */\n              tag_95\n                /* \"#utility.yul\":1010:1016   */\n              dup2\n                /* \"#utility.yul\":988:1017   */\n              tag_67\n              jump\t// in\n            tag_95:\n                /* \"#utility.yul\":983:986   */\n              dup5\n                /* \"#utility.yul\":979:1018   */\n              add\n                /* \"#utility.yul\":972:1018   */\n              swap2\n              pop\n                /* \"#utility.yul\":739:1024   */\n              pop\n                /* \"#utility.yul\":647:1024   */\n              swap3\n              swap2\n              pop\n              pop\n              jump\t// out\n                /* \"#utility.yul\":1030:1107   */\n            tag_69:\n                /* \"#utility.yul\":1067:1074   */\n              0x00\n                /* \"#utility.yul\":1096:1101   */\n              dup2\n                /* \"#utility.yul\":1085:1101   */\n              swap1\n              pop\n                /* \"#utility.yul\":1030:1107   */\n              swap2\n              swap1\n              pop\n              jump\t// out\n                /* \"#utility.yul\":1113:1231   */\n            tag_70:\n                /* \"#utility.yul\":1200:1224   */\n              tag_98\n                /* \"#utility.yul\":1218:1223   */\n              dup2\n                /* \"#utility.yul\":1200:1224   */\n              tag_69\n              jump\t// in\n            tag_98:\n                /* \"#utility.yul\":1195:1198   */\n              dup3\n                /* \"#utility.yul\":1188:1225   */\n              mstore\n                /* \"#utility.yul\":1113:1231   */\n              pop\n              pop\n              jump\t// out\n                /* \"#utility.yul\":1237:1327   */\n            tag_71:\n                /* \"#utility.yul\":1271:1278   */\n              0x00\n                /* \"#utility.yul\":1314:1319   */\n              dup2\n                /* \"#utility.yul\":1307:1320   */\n              iszero\n                /* \"#utility.yul\":1300:1321   */\n              iszero\n                /* \"#utility.yul\":1289:1321   */\n              swap1\n              pop\n                /* \"#utility.yul\":1237:1327   */\n              swap2\n              swap1\n              pop\n              jump\t// out\n                /* \"#utility.yul\":1333:1442   */\n            tag_72:\n                /* \"#utility.yul\":1414:1435   */\n              tag_101\n                /* \"#utility.yul\":1429:1434   */\n              dup2\n                /* \"#utility.yul\":1414:1435   */\n              tag_71\n              jump\t// in\n            tag_101:\n                /* \"#utility.yul\":1409:1412   */\n              dup3\n                /* \"#utility.yul\":1402:1436   */\n              mstore\n                /* \"#utility.yul\":1333:1442   */\n              pop\n              pop\n              jump\t// out\n                /* \"#utility.yul\":1448:2381   */\n            tag_16:\n                /* \"#utility.yul\":1709:1713   */\n              0x00\n                /* \"#utility.yul\":1747:1750   */\n              0xc0\n                /* \"#utility.yul\":1736:1745   */\n              dup3\n                /* \"#utility.yul\":1732:1751   */\n              add\n                /* \"#utility.yul\":1724:1751   */\n              swap1\n              pop\n                /* \"#utility.yul\":1797:1806   */\n              dup2\n                /* \"#utility.yul\":1791:1795   */\n              dup2\n                /* \"#utility.yul\":1787:1807   */\n              sub\n                /* \"#utility.yul\":1783:1784   */\n              0x00\n                /* \"#utility.yul\":1772:1781   */\n              dup4\n                /* \"#utility.yul\":1768:1785   */\n              add\n                /* \"#utility.yul\":1761:1808   */\n              mstore\n                /* \"#utility.yul\":1825:1903   */\n              tag_103\n                /* \"#utility.yul\":1898:1902   */\n              dup2\n                /* \"#utility.yul\":1889:1895   */\n              dup10\n                /* \"#utility.yul\":1825:1903   */\n              tag_68\n              jump\t// in\n            tag_103:\n                /* \"#utility.yul\":1817:1903   */\n              swap1\n              pop\n                /* \"#utility.yul\":1950:1959   */\n              dup2\n                /* \"#utility.yul\":1944:1948   */\n              dup2\n                /* \"#utility.yul\":1940:1960   */\n              sub\n                /* \"#utility.yul\":1935:1937   */\n              0x20\n                /* \"#utility.yul\":1924:1933   */\n              dup4\n                /* \"#utility.yul\":1920:1938   */\n              add\n                /* \"#utility.yul\":1913:1961   */\n              mstore\n                /* \"#utility.yul\":1978:2056   */\n              tag_104\n                /* \"#utility.yul\":2051:2055   */\n              dup2\n                /* \"#utility.yul\":2042:2048   */\n              dup9\n                /* \"#utility.yul\":1978:2056   */\n              tag_68\n              jump\t// in\n            tag_104:\n                /* \"#utility.yul\":1970:2056   */\n              swap1\n              pop\n                /* \"#utility.yul\":2066:2138   */\n              tag_105\n                /* \"#utility.yul\":2134:2136   */\n              0x40\n                /* \"#utility.yul\":2123:2132   */\n              dup4\n                /* \"#utility.yul\":2119:2137   */\n              add\n                /* \"#utility.yul\":2110:2116   */\n              dup8\n                /* \"#utility.yul\":2066:2138   */\n              tag_70\n              jump\t// in\n            tag_105:\n                /* \"#utility.yul\":2148:2220   */\n              tag_106\n                /* \"#utility.yul\":2216:2218   */\n              0x60\n                /* \"#utility.yul\":2205:2214   */\n              dup4\n                /* \"#utility.yul\":2201:2219   */\n              add\n                /* \"#utility.yul\":2192:2198   */\n              dup7\n                /* \"#utility.yul\":2148:2220   */\n              tag_70\n              jump\t// in\n            tag_106:\n                /* \"#utility.yul\":2230:2297   */\n              tag_107\n                /* \"#utility.yul\":2292:2295   */\n              0x80\n                /* \"#utility.yul\":2281:2290   */\n              dup4\n                /* \"#utility.yul\":2277:2296   */\n              add\n                /* \"#utility.yul\":2268:2274   */\n              dup6\n                /* \"#utility.yul\":2230:2297   */\n              tag_72\n              jump\t// in\n            tag_107:\n                /* \"#utility.yul\":2307:2374   */\n              tag_108\n                /* \"#utility.yul\":2369:2372   */\n              0xa0\n                /* \"#utility.yul\":2358:2367   */\n              dup4\n                /* \"#utility.yul\":2354:2373   */\n              add\n                /* \"#utility.yul\":2345:2351   */\n              dup5\n                /* \"#utility.yul\":2307:2374   */\n              tag_72\n              jump\t// in\n            tag_108:\n                /* \"#utility.yul\":1448:2381   */\n              swap8\n              swap7\n              pop\n              pop\n              pop\n              pop\n              pop\n              pop\n              pop\n              jump\t// out\n                /* \"#utility.yul\":2387:2550   */\n            tag_73:\n                /* \"#utility.yul\":2527:2542   */\n              0x54696d6520657863656564656400000000000000000000000000000000000000\n                /* \"#utility.yul\":2523:2524   */\n              0x00\n                /* \"#utility.yul\":2515:2521   */\n              dup3\n                /* \"#utility.yul\":2511:2525   */\n              add\n                /* \"#utility.yul\":2504:2543   */\n              mstore\n                /* \"#utility.yul\":2387:2550   */\n              pop\n              jump\t// out\n                /* \"#utility.yul\":2556:2922   */\n            tag_74:\n                /* \"#utility.yul\":2698:2701   */\n              0x00\n                /* \"#utility.yul\":2719:2786   */\n              tag_111\n                /* \"#utility.yul\":2783:2785   */\n              0x0d\n                /* \"#utility.yul\":2778:2781   */\n              dup4\n                /* \"#utility.yul\":2719:2786   */\n              tag_65\n              jump\t// in\n            tag_111:\n                /* \"#utility.yul\":2712:2786   */\n              swap2\n              pop\n                /* \"#utility.yul\":2795:2888   */\n              tag_112\n                /* \"#utility.yul\":2884:2887   */\n              dup3\n                /* \"#utility.yul\":2795:2888   */\n              tag_73\n              jump\t// in\n            tag_112:\n                /* \"#utility.yul\":2913:2915   */\n              0x20\n                /* \"#utility.yul\":2908:2911   */\n              dup3\n                /* \"#utility.yul\":2904:2916   */\n              add\n                /* \"#utility.yul\":2897:2916   */\n              swap1\n              pop\n                /* \"#utility.yul\":2556:2922   */\n              swap2\n              swap1\n              pop\n              jump\t// out\n                /* \"#utility.yul\":2928:3347   */\n            tag_20:\n                /* \"#utility.yul\":3094:3098   */\n              0x00\n                /* \"#utility.yul\":3132:3134   */\n              0x20\n                /* \"#utility.yul\":3121:3130   */\n              dup3\n                /* \"#utility.yul\":3117:3135   */\n              add\n                /* \"#utility.yul\":3109:3135   */\n              swap1\n              pop\n                /* \"#utility.yul\":3181:3190   */\n              dup2\n                /* \"#utility.yul\":3175:3179   */\n              dup2\n                /* \"#utility.yul\":3171:3191   */\n              sub\n                /* \"#utility.yul\":3167:3168   */\n              0x00\n                /* \"#utility.yul\":3156:3165   */\n              dup4\n                /* \"#utility.yul\":3152:3169   */\n              add\n                /* \"#utility.yul\":3145:3192   */\n              mstore\n                /* \"#utility.yul\":3209:3340   */\n              tag_114\n                /* \"#utility.yul\":3335:3339   */\n              dup2\n                /* \"#utility.yul\":3209:3340   */\n              tag_74\n              jump\t// in\n            tag_114:\n                /* \"#utility.yul\":3201:3340   */\n              swap1\n              pop\n                /* \"#utility.yul\":2928:3347   */\n              swap2\n              swap1\n              pop\n              jump\t// out\n                /* \"#utility.yul\":3353:3521   */\n            tag_75:\n                /* \"#utility.yul\":3493:3513   */\n              0x796f7520616c726561647920766f74696e670000000000000000000000000000\n                /* \"#utility.yul\":3489:3490   */\n              0x00\n                /* \"#utility.yul\":3481:3487   */\n              dup3\n                /* \"#utility.yul\":3477:3491   */\n              add\n                /* \"#utility.yul\":3470:3514   */\n              mstore\n                /* \"#utility.yul\":3353:3521   */\n              pop\n              jump\t// out\n                /* \"#utility.yul\":3527:3893   */\n            tag_76:\n                /* \"#utility.yul\":3669:3672   */\n              0x00\n                /* \"#utility.yul\":3690:3757   */\n              tag_117\n                /* \"#utility.yul\":3754:3756   */\n              0x12\n                /* \"#utility.yul\":3749:3752   */\n              dup4\n                /* \"#utility.yul\":3690:3757   */\n              tag_65\n              jump\t// in\n            tag_117:\n                /* \"#utility.yul\":3683:3757   */\n              swap2\n              pop\n                /* \"#utility.yul\":3766:3859   */\n              tag_118\n                /* \"#utility.yul\":3855:3858   */\n              dup3\n                /* \"#utility.yul\":3766:3859   */\n              tag_75\n              jump\t// in\n            tag_118:\n                /* \"#utility.yul\":3884:3886   */\n              0x20\n                /* \"#utility.yul\":3879:3882   */\n              dup3\n                /* \"#utility.yul\":3875:3887   */\n              add\n                /* \"#utility.yul\":3868:3887   */\n              swap1\n              pop\n                /* \"#utility.yul\":3527:3893   */\n              swap2\n              swap1\n              pop\n              jump\t// out\n                /* \"#utility.yul\":3899:4318   */\n            tag_24:\n                /* \"#utility.yul\":4065:4069   */\n              0x00\n                /* \"#utility.yul\":4103:4105   */\n              0x20\n                /* \"#utility.yul\":4092:4101   */\n              dup3\n                /* \"#utility.yul\":4088:4106   */\n              add\n                /* \"#utility.yul\":4080:4106   */\n              swap1\n              pop\n                /* \"#utility.yul\":4152:4161   */\n              dup2\n                /* \"#utility.yul\":4146:4150   */\n              dup2\n                /* \"#utility.yul\":4142:4162   */\n              sub\n                /* \"#utility.yul\":4138:4139   */\n              0x00\n                /* \"#utility.yul\":4127:4136   */\n              dup4\n                /* \"#utility.yul\":4123:4140   */\n              add\n                /* \"#utility.yul\":4116:4163   */\n              mstore\n                /* \"#utility.yul\":4180:4311   */\n              tag_120\n                /* \"#utility.yul\":4306:4310   */\n              dup2\n                /* \"#utility.yul\":4180:4311   */\n              tag_76\n              jump\t// in\n            tag_120:\n                /* \"#utility.yul\":4172:4311   */\n              swap1\n              pop\n                /* \"#utility.yul\":3899:4318   */\n              swap2\n              swap1\n              pop\n              jump\t// out\n                /* \"#utility.yul\":4324:4504   */\n            tag_77:\n                /* \"#utility.yul\":4372:4449   */\n              0x4e487b7100000000000000000000000000000000000000000000000000000000\n                /* \"#utility.yul\":4369:4370   */\n              0x00\n                /* \"#utility.yul\":4362:4450   */\n              mstore\n                /* \"#utility.yul\":4469:4473   */\n              0x11\n                /* \"#utility.yul\":4466:4467   */\n              0x04\n                /* \"#utility.yul\":4459:4474   */\n              mstore\n                /* \"#utility.yul\":4493:4497   */\n              0x24\n                /* \"#utility.yul\":4490:4491   */\n              0x00\n                /* \"#utility.yul\":4483:4498   */\n              revert\n                /* \"#utility.yul\":4510:4743   */\n            tag_33:\n                /* \"#utility.yul\":4549:4552   */\n              0x00\n                /* \"#utility.yul\":4572:4596   */\n              tag_123\n                /* \"#utility.yul\":4590:4595   */\n              dup3\n                /* \"#utility.yul\":4572:4596   */\n              tag_69\n              jump\t// in\n            tag_123:\n                /* \"#utility.yul\":4563:4596   */\n              swap2\n              pop\n                /* \"#utility.yul\":4618:4684   */\n              0xffffffffffffffffffffffffffffffffffffffffffffffffffffffffffffffff\n                /* \"#utility.yul\":4611:4616   */\n              dup3\n                /* \"#utility.yul\":4608:4685   */\n              sub\n                /* \"#utility.yul\":4605:4708   */\n              tag_124\n              jumpi\n                /* \"#utility.yul\":4688:4706   */\n              tag_125\n              tag_77\n              jump\t// in\n            tag_125:\n                /* \"#utility.yul\":4605:4708   */\n            tag_124:\n                /* \"#utility.yul\":4735:4736   */\n              0x01\n                /* \"#utility.yul\":4728:4733   */\n              dup3\n                /* \"#utility.yul\":4724:4737   */\n              add\n                /* \"#utility.yul\":4717:4737   */\n              swap1\n              pop\n                /* \"#utility.yul\":4510:4743   */\n              swap2\n              swap1\n              pop\n              jump\t// out\n                /* \"#utility.yul\":4749:4915   */\n            tag_78:\n                /* \"#utility.yul\":4889:4907   */\n              0x4361736520696e2070726f677265737300000000000000000000000000000000\n                /* \"#utility.yul\":4885:4886   */\n              0x00\n                /* \"#utility.yul\":4877:4883   */\n              dup3\n                /* \"#utility.yul\":4873:4887   */\n              add\n                /* \"#utility.yul\":4866:4908   */\n              mstore\n                /* \"#utility.yul\":4749:4915   */\n              pop\n              jump\t// out\n                /* \"#utility.yul\":4921:5287   */\n            tag_79:\n                /* \"#utility.yul\":5063:5066   */\n              0x00\n                /* \"#utility.yul\":5084:5151   */\n              tag_128\n                /* \"#utility.yul\":5148:5150   */\n              0x10\n                /* \"#utility.yul\":5143:5146   */\n              dup4\n                /* \"#utility.yul\":5084:5151   */\n              tag_65\n              jump\t// in\n            tag_128:\n                /* \"#utility.yul\":5077:5151   */\n              swap2\n              pop\n                /* \"#utility.yul\":5160:5253   */\n              tag_129\n                /* \"#utility.yul\":5249:5252   */\n              dup3\n                /* \"#utility.yul\":5160:5253   */\n              tag_78\n              jump\t// in\n            tag_129:\n                /* \"#utility.yul\":5278:5280   */\n              0x20\n                /* \"#utility.yul\":5273:5276   */\n              dup3\n                /* \"#utility.yul\":5269:5281   */\n              add\n                /* \"#utility.yul\":5262:5281   */\n              swap1\n              pop\n                /* \"#utility.yul\":4921:5287   */\n              swap2\n              swap1\n              pop\n              jump\t// out\n                /* \"#utility.yul\":5293:5712   */\n            tag_47:\n                /* \"#utility.yul\":5459:5463   */\n              0x00\n                /* \"#utility.yul\":5497:5499   */\n              0x20\n                /* \"#utility.yul\":5486:5495   */\n              dup3\n                /* \"#utility.yul\":5482:5500   */\n              add\n                /* \"#utility.yul\":5474:5500   */\n              swap1\n              pop\n                /* \"#utility.yul\":5546:5555   */\n              dup2\n                /* \"#utility.yul\":5540:5544   */\n              dup2\n                /* \"#utility.yul\":5536:5556   */\n              sub\n                /* \"#utility.yul\":5532:5533   */\n              0x00\n                /* \"#utility.yul\":5521:5530   */\n              dup4\n                /* \"#utility.yul\":5517:5534   */\n              add\n                /* \"#utility.yul\":5510:5557   */\n              mstore\n                /* \"#utility.yul\":5574:5705   */\n              tag_131\n                /* \"#utility.yul\":5700:5704   */\n              dup2\n                /* \"#utility.yul\":5574:5705   */\n              tag_79\n              jump\t// in\n            tag_131:\n                /* \"#utility.yul\":5566:5705   */\n              swap1\n              pop\n                /* \"#utility.yul\":5293:5712   */\n              swap2\n              swap1\n              pop\n              jump\t// out\n                /* \"#utility.yul\":5718:5885   */\n            tag_80:\n                /* \"#utility.yul\":5858:5877   */\n              0x4361736520616c726561647920646f6e65000000000000000000000000000000\n                /* \"#utility.yul\":5854:5855   */\n              0x00\n                /* \"#utility.yul\":5846:5852   */\n              dup3\n                /* \"#utility.yul\":5842:5856   */\n              add\n                /* \"#utility.yul\":5835:5878   */\n              mstore\n                /* \"#utility.yul\":5718:5885   */\n              pop\n              jump\t// out\n                /* \"#utility.yul\":5891:6257   */\n            tag_81:\n                /* \"#utility.yul\":6033:6036   */\n              0x00\n                /* \"#utility.yul\":6054:6121   */\n              tag_134\n                /* \"#utility.yul\":6118:6120   */\n              0x11\n                /* \"#utility.yul\":6113:6116   */\n              dup4\n                /* \"#utility.yul\":6054:6121   */\n              tag_65\n              jump\t// in\n            tag_134:\n                /* \"#utility.yul\":6047:6121   */\n              swap2\n              pop\n                /* \"#utility.yul\":6130:6223   */\n              tag_135\n                /* \"#utility.yul\":6219:6222   */\n              dup3\n                /* \"#utility.yul\":6130:6223   */\n              tag_80\n              jump\t// in\n            tag_135:\n                /* \"#utility.yul\":6248:6250   */\n              0x20\n                /* \"#utility.yul\":6243:6246   */\n              dup3\n                /* \"#utility.yul\":6239:6251   */\n              add\n                /* \"#utility.yul\":6232:6251   */\n              swap1\n              pop\n                /* \"#utility.yul\":5891:6257   */\n              swap2\n              swap1\n              pop\n              jump\t// out\n                /* \"#utility.yul\":6263:6682   */\n            tag_50:\n                /* \"#utility.yul\":6429:6433   */\n              0x00\n                /* \"#utility.yul\":6467:6469   */\n              0x20\n                /* \"#utility.yul\":6456:6465   */\n              dup3\n                /* \"#utility.yul\":6452:6470   */\n              add\n                /* \"#utility.yul\":6444:6470   */\n              swap1\n              pop\n                /* \"#utility.yul\":6516:6525   */\n              dup2\n                /* \"#utility.yul\":6510:6514   */\n              dup2\n                /* \"#utility.yul\":6506:6526   */\n              sub\n                /* \"#utility.yul\":6502:6503   */\n              0x00\n                /* \"#utility.yul\":6491:6500   */\n              dup4\n                /* \"#utility.yul\":6487:6504   */\n              add\n                /* \"#utility.yul\":6480:6527   */\n              mstore\n                /* \"#utility.yul\":6544:6675   */\n              tag_137\n                /* \"#utility.yul\":6670:6674   */\n              dup2\n                /* \"#utility.yul\":6544:6675   */\n              tag_81\n              jump\t// in\n            tag_137:\n                /* \"#utility.yul\":6536:6675   */\n              swap1\n              pop\n                /* \"#utility.yul\":6263:6682   */\n              swap2\n              swap1\n              pop\n              jump\t// out\n                /* \"#utility.yul\":6688:6868   */\n            tag_82:\n                /* \"#utility.yul\":6736:6813   */\n              0x4e487b7100000000000000000000000000000000000000000000000000000000\n                /* \"#utility.yul\":6733:6734   */\n              0x00\n                /* \"#utility.yul\":6726:6814   */\n              mstore\n                /* \"#utility.yul\":6833:6837   */\n              0x22\n                /* \"#utility.yul\":6830:6831   */\n              0x04\n                /* \"#utility.yul\":6823:6838   */\n              mstore\n                /* \"#utility.yul\":6857:6861   */\n              0x24\n                /* \"#utility.yul\":6854:6855   */\n              0x00\n                /* \"#utility.yul\":6847:6862   */\n              revert\n                /* \"#utility.yul\":6874:7194   */\n            tag_54:\n                /* \"#utility.yul\":6918:6924   */\n              0x00\n                /* \"#utility.yul\":6955:6956   */\n              0x02\n                /* \"#utility.yul\":6949:6953   */\n              dup3\n                /* \"#utility.yul\":6945:6957   */\n              div\n                /* \"#utility.yul\":6935:6957   */\n              swap1\n              pop\n                /* \"#utility.yul\":7002:7003   */\n              0x01\n                /* \"#utility.yul\":6996:7000   */\n              dup3\n                /* \"#utility.yul\":6992:7004   */\n              and\n                /* \"#utility.yul\":7023:7041   */\n              dup1\n                /* \"#utility.yul\":7013:7094   */\n              tag_140\n              jumpi\n                /* \"#utility.yul\":7079:7083   */\n              0x7f\n                /* \"#utility.yul\":7071:7077   */\n              dup3\n                /* \"#utility.yul\":7067:7084   */\n              and\n                /* \"#utility.yul\":7057:7084   */\n              swap2\n              pop\n                /* \"#utility.yul\":7013:7094   */\n            tag_140:\n                /* \"#utility.yul\":7141:7143   */\n              0x20\n                /* \"#utility.yul\":7133:7139   */\n              dup3\n                /* \"#utility.yul\":7130:7144   */\n              lt\n                /* \"#utility.yul\":7110:7128   */\n              dup2\n                /* \"#utility.yul\":7107:7145   */\n              sub\n                /* \"#utility.yul\":7104:7188   */\n              tag_141\n              jumpi\n                /* \"#utility.yul\":7160:7178   */\n              tag_142\n              tag_82\n              jump\t// in\n            tag_142:\n                /* \"#utility.yul\":7104:7188   */\n            tag_141:\n                /* \"#utility.yul\":6925:7194   */\n              pop\n                /* \"#utility.yul\":6874:7194   */\n              swap2\n              swap1\n              pop\n              jump\t// out\n\n            auxdata: 0xa2646970667358221220294faa72fc9f0acbe872d6e72f93214cee78be56e6e802bc1e9161010ffeae0464736f6c63430008180033\n        }\n    }\n\n    auxdata: 0xa2646970667358221220e76921767bbc46ee724c4f4f3fc2cfac78de836b000c927daba0d20fe08ccf9964736f6c63430008180033\n}\n","bytecode":{"linkReferences":{},"object":"608060405234801561000f575f80fd5b506118588061001d5f395ff3fe608060405234801562000010575f80fd5b506004361062000044575f3560e01c806369ffe66d146200004857806393b2b413146200006a578063a598d03c146200008a575b5f80fd5b62000052620000c0565b6040516200006191906200032d565b60405180910390f35b620000886004803603810190620000829190620004b8565b6200014c565b005b620000a86004803603810190620000a2919062000573565b620001eb565b604051620000b79190620005b4565b60405180910390f35b60605f8054806020026020016040519081016040528092919081815260200182805480156200014257602002820191905f5260205f20905b815f9054906101000a900473ffffffffffffffffffffffffffffffffffffffff1673ffffffffffffffffffffffffffffffffffffffff1681526020019060010190808311620000f8575b5050505050905090565b5f82826040516200015d9062000226565b6200016a92919062000653565b604051809103905ff08015801562000184573d5f803e3d5ffd5b5090505f81908060018154018082558091505060019003905f5260205f20015f9091909190916101000a81548173ffffffffffffffffffffffffffffffffffffffff021916908373ffffffffffffffffffffffffffffffffffffffff160217905550505050565b5f8181548110620001fa575f80fd5b905f5260205f20015f915054906101000a900473ffffffffffffffffffffffffffffffffffffffff1681565b611196806200068d83390190565b5f81519050919050565b5f82825260208201905092915050565b5f819050602082019050919050565b5f73ffffffffffffffffffffffffffffffffffffffff82169050919050565b5f62000288826200025d565b9050919050565b6200029a816200027c565b82525050565b5f620002ad83836200028f565b60208301905092915050565b5f602082019050919050565b5f620002d18262000234565b620002dd81856200023e565b9350620002ea836200024e565b805f5b8381101562000320578151620003048882620002a0565b97506200031183620002b9565b925050600181019050620002ed565b5085935050505092915050565b5f6020820190508181035f830152620003478184620002c5565b905092915050565b5f604051905090565b5f80fd5b5f80fd5b5f80fd5b5f80fd5b5f601f19601f8301169050919050565b7f4e487b71000000000000000000000000000000000000000000000000000000005f52604160045260245ffd5b620003b08262000368565b810181811067ffffffffffffffff82111715620003d257620003d162000378565b5b80604052505050565b5f620003e66200034f565b9050620003f48282620003a5565b919050565b5f67ffffffffffffffff82111562000416576200041562000378565b5b620004218262000368565b9050602081019050919050565b828183375f83830152505050565b5f620004526200044c84620003f9565b620003db565b90508281526020810184848401111562000471576200047062000364565b5b6200047e8482856200042e565b509392505050565b5f82601f8301126200049d576200049c62000360565b5b8135620004af8482602086016200043c565b91505092915050565b5f8060408385031215620004d157620004d062000358565b5b5f83013567ffffffffffffffff811115620004f157620004f06200035c565b5b620004ff8582860162000486565b925050602083013567ffffffffffffffff8111156200052357620005226200035c565b5b620005318582860162000486565b9150509250929050565b5f819050919050565b6200054f816200053b565b81146200055a575f80fd5b50565b5f813590506200056d8162000544565b92915050565b5f602082840312156200058b576200058a62000358565b5b5f6200059a848285016200055d565b91505092915050565b620005ae816200027c565b82525050565b5f602082019050620005c95f830184620005a3565b92915050565b5f81519050919050565b5f82825260208201905092915050565b5f5b8381101562000608578082015181840152602081019050620005eb565b5f8484015250505050565b5f6200061f82620005cf565b6200062b8185620005d9565b93506200063d818560208601620005e9565b620006488162000368565b840191505092915050565b5f6040820190508181035f8301526200066d818562000613565b9050818103602083015262000683818462000613565b9050939250505056fe608060405234801562000010575f80fd5b5060405162001196380380620011968339818101604052810190620000369190620001ff565b815f80019081620000489190620004b9565b50805f60010190816200005c9190620004b9565b506078426200006c9190620005ca565b600781905550505062000604565b5f604051905090565b5f80fd5b5f80fd5b5f80fd5b5f80fd5b5f601f19601f8301169050919050565b7f4e487b71000000000000000000000000000000000000000000000000000000005f52604160045260245ffd5b620000db8262000093565b810181811067ffffffffffffffff82111715620000fd57620000fc620000a3565b5b80604052505050565b5f620001116200007a565b90506200011f8282620000d0565b919050565b5f67ffffffffffffffff821115620001415762000140620000a3565b5b6200014c8262000093565b9050602081019050919050565b5f5b83811015620001785780820151818401526020810190506200015b565b5f8484015250505050565b5f62000199620001938462000124565b62000106565b905082815260208101848484011115620001b857620001b76200008f565b5b620001c584828562000159565b509392505050565b5f82601f830112620001e457620001e36200008b565b5b8151620001f684826020860162000183565b91505092915050565b5f806040838503121562000218576200021762000083565b5b5f83015167ffffffffffffffff81111562000238576200023762000087565b5b6200024685828601620001cd565b925050602083015167ffffffffffffffff8111156200026a576200026962000087565b5b6200027885828601620001cd565b9150509250929050565b5f81519050919050565b7f4e487b71000000000000000000000000000000000000000000000000000000005f52602260045260245ffd5b5f6002820490506001821680620002d157607f821691505b602082108103620002e757620002e66200028c565b5b50919050565b5f819050815f5260205f209050919050565b5f6020601f8301049050919050565b5f82821b905092915050565b5f600883026200034b7fffffffffffffffffffffffffffffffffffffffffffffffffffffffffffffffff826200030e565b6200035786836200030e565b95508019841693508086168417925050509392505050565b5f819050919050565b5f819050919050565b5f620003a16200039b62000395846200036f565b62000378565b6200036f565b9050919050565b5f819050919050565b620003bc8362000381565b620003d4620003cb82620003a8565b8484546200031a565b825550505050565b5f90565b620003ea620003dc565b620003f7818484620003b1565b505050565b5b818110156200041e57620004125f82620003e0565b600181019050620003fd565b5050565b601f8211156200046d576200043781620002ed565b6200044284620002ff565b8101602085101562000452578190505b6200046a6200046185620002ff565b830182620003fc565b50505b505050565b5f82821c905092915050565b5f6200048f5f198460080262000472565b1980831691505092915050565b5f620004a983836200047e565b9150826002028217905092915050565b620004c48262000282565b67ffffffffffffffff811115620004e057620004df620000a3565b5b620004ec8254620002b9565b620004f982828562000422565b5f60209050601f8311600181146200052f575f84156200051a578287015190505b6200052685826200049c565b86555062000595565b601f1984166200053f86620002ed565b5f5b82811015620005685784890151825560018201915060208501945060208101905062000541565b8683101562000588578489015162000584601f8916826200047e565b8355505b6001600288020188555050505b505050505050565b7f4e487b71000000000000000000000000000000000000000000000000000000005f52601160045260245ffd5b5f620005d6826200036f565b9150620005e3836200036f565b9250828201905080821115620005fe57620005fd6200059d565b5b92915050565b610b8480620006125f395ff3fe608060405234801561000f575f80fd5b506004361061004a575f3560e01c80632a0c6edf1461004e5780637f75a31b14610058578063b93b1f8314610062578063c3da42b81461006c575b5f80fd5b61005661008f565b005b610060610375565b005b61006a610543565b005b610074610667565b60405161008696959493929190610870565b60405180910390f35b60075442106100d3576040517f08c379a00000000000000000000000000000000000000000000000000000000081526004016100ca90610927565b60405180910390fd5b5f6005015f3373ffffffffffffffffffffffffffffffffffffffff1673ffffffffffffffffffffffffffffffffffffffff1681526020019081526020015f205f9054906101000a900460ff161561015f576040517f08c379a00000000000000000000000000000000000000000000000000000000081526004016101569061098f565b60405180910390fd5b5f6006015f3373ffffffffffffffffffffffffffffffffffffffff1673ffffffffffffffffffffffffffffffffffffffff1681526020019081526020015f205f9054906101000a900460ff16156101eb576040517f08c379a00000000000000000000000000000000000000000000000000000000081526004016101e29061098f565b60405180910390fd5b5f6005015f3373ffffffffffffffffffffffffffffffffffffffff1673ffffffffffffffffffffffffffffffffffffffff1681526020019081526020015f205f9054906101000a900460ff1615610277576040517f08c379a000000000000000000000000000000000000000000000000000000000815260040161026e9061098f565b60405180910390fd5b5f6006015f3373ffffffffffffffffffffffffffffffffffffffff1673ffffffffffffffffffffffffffffffffffffffff1681526020019081526020015f205f9054906101000a900460ff1615610303576040517f08c379a00000000000000000000000000000000000000000000000000000000081526004016102fa9061098f565b60405180910390fd5b60015f6006015f3373ffffffffffffffffffffffffffffffffffffffff1673ffffffffffffffffffffffffffffffffffffffff1681526020019081526020015f205f6101000a81548160ff0219169083151502179055505f6003015f81548092919061036e906109da565b9190505550565b60075442106103b9576040517f08c379a00000000000000000000000000000000000000000000000000000000081526004016103b090610927565b60405180910390fd5b5f6005015f3373ffffffffffffffffffffffffffffffffffffffff1673ffffffffffffffffffffffffffffffffffffffff1681526020019081526020015f205f9054906101000a900460ff1615610445576040517f08c379a000000000000000000000000000000000000000000000000000000000815260040161043c9061098f565b60405180910390fd5b5f6006015f3373ffffffffffffffffffffffffffffffffffffffff1673ffffffffffffffffffffffffffffffffffffffff1681526020019081526020015f205f9054906101000a900460ff16156104d1576040517f08c379a00000000000000000000000000000000000000000000000000000000081526004016104c89061098f565b60405180910390fd5b60015f6005015f3373ffffffffffffffffffffffffffffffffffffffff1673ffffffffffffffffffffffffffffffffffffffff1681526020019081526020015f205f6101000a81548160ff0219169083151502179055505f6002015f81548092919061053c906109da565b9190505550565b6007544211610587576040517f08c379a000000000000000000000000000000000000000000000000000000000815260040161057e90610a6b565b60405180910390fd5b600115155f60040160019054906101000a900460ff161515036105df576040517f08c379a00000000000000000000000000000000000000000000000000000000081526004016105d690610ad3565b60405180910390fd5b5f600301545f600201541061062c5760015f6004015f6101000a81548160ff02191690831515021790555060015f60040160016101000a81548160ff021916908315150217905550610665565b5f806004015f6101000a81548160ff02191690831515021790555060015f60040160016101000a81548160ff0219169083151502179055505b565b5f805f01805461067690610b1e565b80601f01602080910402602001604051908101604052809291908181526020018280546106a290610b1e565b80156106ed5780601f106106c4576101008083540402835291602001916106ed565b820191905f5260205f20905b8154815290600101906020018083116106d057829003601f168201915b50505050509080600101805461070290610b1e565b80601f016020809104026020016040519081016040528092919081815260200182805461072e90610b1e565b80156107795780601f1061075057610100808354040283529160200191610779565b820191905f5260205f20905b81548152906001019060200180831161075c57829003601f168201915b505050505090806002015490806003015490806004015f9054906101000a900460ff16908060040160019054906101000a900460ff16905086565b5f81519050919050565b5f82825260208201905092915050565b5f5b838110156107eb5780820151818401526020810190506107d0565b5f8484015250505050565b5f601f19601f8301169050919050565b5f610810826107b4565b61081a81856107be565b935061082a8185602086016107ce565b610833816107f6565b840191505092915050565b5f819050919050565b6108508161083e565b82525050565b5f8115159050919050565b61086a81610856565b82525050565b5f60c0820190508181035f8301526108888189610806565b9050818103602083015261089c8188610806565b90506108ab6040830187610847565b6108b86060830186610847565b6108c56080830185610861565b6108d260a0830184610861565b979650505050505050565b7f54696d65206578636565646564000000000000000000000000000000000000005f82015250565b5f610911600d836107be565b915061091c826108dd565b602082019050919050565b5f6020820190508181035f83015261093e81610905565b9050919050565b7f796f7520616c726561647920766f74696e6700000000000000000000000000005f82015250565b5f6109796012836107be565b915061098482610945565b602082019050919050565b5f6020820190508181035f8301526109a68161096d565b9050919050565b7f4e487b71000000000000000000000000000000000000000000000000000000005f52601160045260245ffd5b5f6109e48261083e565b91507fffffffffffffffffffffffffffffffffffffffffffffffffffffffffffffffff8203610a1657610a156109ad565b5b600182019050919050565b7f4361736520696e2070726f6772657373000000000000000000000000000000005f82015250565b5f610a556010836107be565b9150610a6082610a21565b602082019050919050565b5f6020820190508181035f830152610a8281610a49565b9050919050565b7f4361736520616c726561647920646f6e650000000000000000000000000000005f82015250565b5f610abd6011836107be565b9150610ac882610a89565b602082019050919050565b5f6020820190508181035f830152610aea81610ab1565b9050919050565b7f4e487b71000000000000000000000000000000000000000000000000000000005f52602260045260245ffd5b5f6002820490506001821680610b3557607f821691505b602082108103610b4857610b47610af1565b5b5091905056fea2646970667358221220294faa72fc9f0acbe872d6e72f93214cee78be56e6e802bc1e9161010ffeae0464736f6c63430008180033a2646970667358221220e76921767bbc46ee724c4f4f3fc2cfac78de836b000c927daba0d20fe08ccf9964736f6c63430008180033","opcodes":"PUSH1 0x80 PUSH1 0x40 MSTORE CALLVALUE DUP1 ISZERO PUSH2 0xF JUMPI PUSH0 DUP1 REVERT JUMPDEST POP PUSH2 0x1858 DUP1 PUSH2 0x1D PUSH0 CODECOPY PUSH0 RETURN INVALID PUSH1 0x80 PUSH1 0x40 MSTORE CALLVALUE DUP1 ISZERO PUSH3 0x10 JUMPI PUSH0 DUP1 REVERT JUMPDEST POP PUSH1 0x4 CALLDATASIZE LT PUSH3 0x44 JUMPI PUSH0 CALLDATALOAD PUSH1 0xE0 SHR DUP1 PUSH4 0x69FFE66D EQ PUSH3 0x48 JUMPI DUP1 PUSH4 0x93B2B413 EQ PUSH3 0x6A JUMPI DUP1 PUSH4 0xA598D03C EQ PUSH3 0x8A JUMPI JUMPDEST PUSH0 DUP1 REVERT JUMPDEST PUSH3 0x52 PUSH3 0xC0 JUMP JUMPDEST PUSH1 0x40 MLOAD PUSH3 0x61 SWAP2 SWAP1 PUSH3 0x32D JUMP JUMPDEST PUSH1 0x40 MLOAD DUP1 SWAP2 SUB SWAP1 RETURN JUMPDEST PUSH3 0x88 PUSH1 0x4 DUP1 CALLDATASIZE SUB DUP2 ADD SWAP1 PUSH3 0x82 SWAP2 SWAP1 PUSH3 0x4B8 JUMP JUMPDEST PUSH3 0x14C JUMP JUMPDEST STOP JUMPDEST PUSH3 0xA8 PUSH1 0x4 DUP1 CALLDATASIZE SUB DUP2 ADD SWAP1 PUSH3 0xA2 SWAP2 SWAP1 PUSH3 0x573 JUMP JUMPDEST PUSH3 0x1EB JUMP JUMPDEST PUSH1 0x40 MLOAD PUSH3 0xB7 SWAP2 SWAP1 PUSH3 0x5B4 JUMP JUMPDEST PUSH1 0x40 MLOAD DUP1 SWAP2 SUB SWAP1 RETURN JUMPDEST PUSH1 0x60 PUSH0 DUP1 SLOAD DUP1 PUSH1 0x20 MUL PUSH1 0x20 ADD PUSH1 0x40 MLOAD SWAP1 DUP2 ADD PUSH1 0x40 MSTORE DUP1 SWAP3 SWAP2 SWAP1 DUP2 DUP2 MSTORE PUSH1 0x20 ADD DUP3 DUP1 SLOAD DUP1 ISZERO PUSH3 0x142 JUMPI PUSH1 0x20 MUL DUP3 ADD SWAP2 SWAP1 PUSH0 MSTORE PUSH1 0x20 PUSH0 KECCAK256 SWAP1 JUMPDEST DUP2 PUSH0 SWAP1 SLOAD SWAP1 PUSH2 0x100 EXP SWAP1 DIV PUSH20 0xFFFFFFFFFFFFFFFFFFFFFFFFFFFFFFFFFFFFFFFF AND PUSH20 0xFFFFFFFFFFFFFFFFFFFFFFFFFFFFFFFFFFFFFFFF AND DUP2 MSTORE PUSH1 0x20 ADD SWAP1 PUSH1 0x1 ADD SWAP1 DUP1 DUP4 GT PUSH3 0xF8 JUMPI JUMPDEST POP POP POP POP POP SWAP1 POP SWAP1 JUMP JUMPDEST PUSH0 DUP3 DUP3 PUSH1 0x40 MLOAD PUSH3 0x15D SWAP1 PUSH3 0x226 JUMP JUMPDEST PUSH3 0x16A SWAP3 SWAP2 SWAP1 PUSH3 0x653 JUMP JUMPDEST PUSH1 0x40 MLOAD DUP1 SWAP2 SUB SWAP1 PUSH0 CREATE DUP1 ISZERO DUP1 ISZERO PUSH3 0x184 JUMPI RETURNDATASIZE PUSH0 DUP1 RETURNDATACOPY RETURNDATASIZE PUSH0 REVERT JUMPDEST POP SWAP1 POP PUSH0 DUP2 SWAP1 DUP1 PUSH1 0x1 DUP2 SLOAD ADD DUP1 DUP3 SSTORE DUP1 SWAP2 POP POP PUSH1 0x1 SWAP1 SUB SWAP1 PUSH0 MSTORE PUSH1 0x20 PUSH0 KECCAK256 ADD PUSH0 SWAP1 SWAP2 SWAP1 SWAP2 SWAP1 SWAP2 PUSH2 0x100 EXP DUP2 SLOAD DUP2 PUSH20 0xFFFFFFFFFFFFFFFFFFFFFFFFFFFFFFFFFFFFFFFF MUL NOT AND SWAP1 DUP4 PUSH20 0xFFFFFFFFFFFFFFFFFFFFFFFFFFFFFFFFFFFFFFFF AND MUL OR SWAP1 SSTORE POP POP POP POP JUMP JUMPDEST PUSH0 DUP2 DUP2 SLOAD DUP2 LT PUSH3 0x1FA JUMPI PUSH0 DUP1 REVERT JUMPDEST SWAP1 PUSH0 MSTORE PUSH1 0x20 PUSH0 KECCAK256 ADD PUSH0 SWAP2 POP SLOAD SWAP1 PUSH2 0x100 EXP SWAP1 DIV PUSH20 0xFFFFFFFFFFFFFFFFFFFFFFFFFFFFFFFFFFFFFFFF AND DUP2 JUMP JUMPDEST PUSH2 0x1196 DUP1 PUSH3 0x68D DUP4 CODECOPY ADD SWAP1 JUMP JUMPDEST PUSH0 DUP2 MLOAD SWAP1 POP SWAP2 SWAP1 POP JUMP JUMPDEST PUSH0 DUP3 DUP3 MSTORE PUSH1 0x20 DUP3 ADD SWAP1 POP SWAP3 SWAP2 POP POP JUMP JUMPDEST PUSH0 DUP2 SWAP1 POP PUSH1 0x20 DUP3 ADD SWAP1 POP SWAP2 SWAP1 POP JUMP JUMPDEST PUSH0 PUSH20 0xFFFFFFFFFFFFFFFFFFFFFFFFFFFFFFFFFFFFFFFF DUP3 AND SWAP1 POP SWAP2 SWAP1 POP JUMP JUMPDEST PUSH0 PUSH3 0x288 DUP3 PUSH3 0x25D JUMP JUMPDEST SWAP1 POP SWAP2 SWAP1 POP JUMP JUMPDEST PUSH3 0x29A DUP2 PUSH3 0x27C JUMP JUMPDEST DUP3 MSTORE POP POP JUMP JUMPDEST PUSH0 PUSH3 0x2AD DUP4 DUP4 PUSH3 0x28F JUMP JUMPDEST PUSH1 0x20 DUP4 ADD SWAP1 POP SWAP3 SWAP2 POP POP JUMP JUMPDEST PUSH0 PUSH1 0x20 DUP3 ADD SWAP1 POP SWAP2 SWAP1 POP JUMP JUMPDEST PUSH0 PUSH3 0x2D1 DUP3 PUSH3 0x234 JUMP JUMPDEST PUSH3 0x2DD DUP2 DUP6 PUSH3 0x23E JUMP JUMPDEST SWAP4 POP PUSH3 0x2EA DUP4 PUSH3 0x24E JUMP JUMPDEST DUP1 PUSH0 JUMPDEST DUP4 DUP2 LT ISZERO PUSH3 0x320 JUMPI DUP2 MLOAD PUSH3 0x304 DUP9 DUP3 PUSH3 0x2A0 JUMP JUMPDEST SWAP8 POP PUSH3 0x311 DUP4 PUSH3 0x2B9 JUMP JUMPDEST SWAP3 POP POP PUSH1 0x1 DUP2 ADD SWAP1 POP PUSH3 0x2ED JUMP JUMPDEST POP DUP6 SWAP4 POP POP POP POP SWAP3 SWAP2 POP POP JUMP JUMPDEST PUSH0 PUSH1 0x20 DUP3 ADD SWAP1 POP DUP2 DUP2 SUB PUSH0 DUP4 ADD MSTORE PUSH3 0x347 DUP2 DUP5 PUSH3 0x2C5 JUMP JUMPDEST SWAP1 POP SWAP3 SWAP2 POP POP JUMP JUMPDEST PUSH0 PUSH1 0x40 MLOAD SWAP1 POP SWAP1 JUMP JUMPDEST PUSH0 DUP1 REVERT JUMPDEST PUSH0 DUP1 REVERT JUMPDEST PUSH0 DUP1 REVERT JUMPDEST PUSH0 DUP1 REVERT JUMPDEST PUSH0 PUSH1 0x1F NOT PUSH1 0x1F DUP4 ADD AND SWAP1 POP SWAP2 SWAP1 POP JUMP JUMPDEST PUSH32 0x4E487B7100000000000000000000000000000000000000000000000000000000 PUSH0 MSTORE PUSH1 0x41 PUSH1 0x4 MSTORE PUSH1 0x24 PUSH0 REVERT JUMPDEST PUSH3 0x3B0 DUP3 PUSH3 0x368 JUMP JUMPDEST DUP2 ADD DUP2 DUP2 LT PUSH8 0xFFFFFFFFFFFFFFFF DUP3 GT OR ISZERO PUSH3 0x3D2 JUMPI PUSH3 0x3D1 PUSH3 0x378 JUMP JUMPDEST JUMPDEST DUP1 PUSH1 0x40 MSTORE POP POP POP JUMP JUMPDEST PUSH0 PUSH3 0x3E6 PUSH3 0x34F JUMP JUMPDEST SWAP1 POP PUSH3 0x3F4 DUP3 DUP3 PUSH3 0x3A5 JUMP JUMPDEST SWAP2 SWAP1 POP JUMP JUMPDEST PUSH0 PUSH8 0xFFFFFFFFFFFFFFFF DUP3 GT ISZERO PUSH3 0x416 JUMPI PUSH3 0x415 PUSH3 0x378 JUMP JUMPDEST JUMPDEST PUSH3 0x421 DUP3 PUSH3 0x368 JUMP JUMPDEST SWAP1 POP PUSH1 0x20 DUP2 ADD SWAP1 POP SWAP2 SWAP1 POP JUMP JUMPDEST DUP3 DUP2 DUP4 CALLDATACOPY PUSH0 DUP4 DUP4 ADD MSTORE POP POP POP JUMP JUMPDEST PUSH0 PUSH3 0x452 PUSH3 0x44C DUP5 PUSH3 0x3F9 JUMP JUMPDEST PUSH3 0x3DB JUMP JUMPDEST SWAP1 POP DUP3 DUP2 MSTORE PUSH1 0x20 DUP2 ADD DUP5 DUP5 DUP5 ADD GT ISZERO PUSH3 0x471 JUMPI PUSH3 0x470 PUSH3 0x364 JUMP JUMPDEST JUMPDEST PUSH3 0x47E DUP5 DUP3 DUP6 PUSH3 0x42E JUMP JUMPDEST POP SWAP4 SWAP3 POP POP POP JUMP JUMPDEST PUSH0 DUP3 PUSH1 0x1F DUP4 ADD SLT PUSH3 0x49D JUMPI PUSH3 0x49C PUSH3 0x360 JUMP JUMPDEST JUMPDEST DUP2 CALLDATALOAD PUSH3 0x4AF DUP5 DUP3 PUSH1 0x20 DUP7 ADD PUSH3 0x43C JUMP JUMPDEST SWAP2 POP POP SWAP3 SWAP2 POP POP JUMP JUMPDEST PUSH0 DUP1 PUSH1 0x40 DUP4 DUP6 SUB SLT ISZERO PUSH3 0x4D1 JUMPI PUSH3 0x4D0 PUSH3 0x358 JUMP JUMPDEST JUMPDEST PUSH0 DUP4 ADD CALLDATALOAD PUSH8 0xFFFFFFFFFFFFFFFF DUP2 GT ISZERO PUSH3 0x4F1 JUMPI PUSH3 0x4F0 PUSH3 0x35C JUMP JUMPDEST JUMPDEST PUSH3 0x4FF DUP6 DUP3 DUP7 ADD PUSH3 0x486 JUMP JUMPDEST SWAP3 POP POP PUSH1 0x20 DUP4 ADD CALLDATALOAD PUSH8 0xFFFFFFFFFFFFFFFF DUP2 GT ISZERO PUSH3 0x523 JUMPI PUSH3 0x522 PUSH3 0x35C JUMP JUMPDEST JUMPDEST PUSH3 0x531 DUP6 DUP3 DUP7 ADD PUSH3 0x486 JUMP JUMPDEST SWAP2 POP POP SWAP3 POP SWAP3 SWAP1 POP JUMP JUMPDEST PUSH0 DUP2 SWAP1 POP SWAP2 SWAP1 POP JUMP JUMPDEST PUSH3 0x54F DUP2 PUSH3 0x53B JUMP JUMPDEST DUP2 EQ PUSH3 0x55A JUMPI PUSH0 DUP1 REVERT JUMPDEST POP JUMP JUMPDEST PUSH0 DUP2 CALLDATALOAD SWAP1 POP PUSH3 0x56D DUP2 PUSH3 0x544 JUMP JUMPDEST SWAP3 SWAP2 POP POP JUMP JUMPDEST PUSH0 PUSH1 0x20 DUP3 DUP5 SUB SLT ISZERO PUSH3 0x58B JUMPI PUSH3 0x58A PUSH3 0x358 JUMP JUMPDEST JUMPDEST PUSH0 PUSH3 0x59A DUP5 DUP3 DUP6 ADD PUSH3 0x55D JUMP JUMPDEST SWAP2 POP POP SWAP3 SWAP2 POP POP JUMP JUMPDEST PUSH3 0x5AE DUP2 PUSH3 0x27C JUMP JUMPDEST DUP3 MSTORE POP POP JUMP JUMPDEST PUSH0 PUSH1 0x20 DUP3 ADD SWAP1 POP PUSH3 0x5C9 PUSH0 DUP4 ADD DUP5 PUSH3 0x5A3 JUMP JUMPDEST SWAP3 SWAP2 POP POP JUMP JUMPDEST PUSH0 DUP2 MLOAD SWAP1 POP SWAP2 SWAP1 POP JUMP JUMPDEST PUSH0 DUP3 DUP3 MSTORE PUSH1 0x20 DUP3 ADD SWAP1 POP SWAP3 SWAP2 POP POP JUMP JUMPDEST PUSH0 JUMPDEST DUP4 DUP2 LT ISZERO PUSH3 0x608 JUMPI DUP1 DUP3 ADD MLOAD DUP2 DUP5 ADD MSTORE PUSH1 0x20 DUP2 ADD SWAP1 POP PUSH3 0x5EB JUMP JUMPDEST PUSH0 DUP5 DUP5 ADD MSTORE POP POP POP POP JUMP JUMPDEST PUSH0 PUSH3 0x61F DUP3 PUSH3 0x5CF JUMP JUMPDEST PUSH3 0x62B DUP2 DUP6 PUSH3 0x5D9 JUMP JUMPDEST SWAP4 POP PUSH3 0x63D DUP2 DUP6 PUSH1 0x20 DUP7 ADD PUSH3 0x5E9 JUMP JUMPDEST PUSH3 0x648 DUP2 PUSH3 0x368 JUMP JUMPDEST DUP5 ADD SWAP2 POP POP SWAP3 SWAP2 POP POP JUMP JUMPDEST PUSH0 PUSH1 0x40 DUP3 ADD SWAP1 POP DUP2 DUP2 SUB PUSH0 DUP4 ADD MSTORE PUSH3 0x66D DUP2 DUP6 PUSH3 0x613 JUMP JUMPDEST SWAP1 POP DUP2 DUP2 SUB PUSH1 0x20 DUP4 ADD MSTORE PUSH3 0x683 DUP2 DUP5 PUSH3 0x613 JUMP JUMPDEST SWAP1 POP SWAP4 SWAP3 POP POP POP JUMP INVALID PUSH1 0x80 PUSH1 0x40 MSTORE CALLVALUE DUP1 ISZERO PUSH3 0x10 JUMPI PUSH0 DUP1 REVERT JUMPDEST POP PUSH1 0x40 MLOAD PUSH3 0x1196 CODESIZE SUB DUP1 PUSH3 0x1196 DUP4 CODECOPY DUP2 DUP2 ADD PUSH1 0x40 MSTORE DUP2 ADD SWAP1 PUSH3 0x36 SWAP2 SWAP1 PUSH3 0x1FF JUMP JUMPDEST DUP2 PUSH0 DUP1 ADD SWAP1 DUP2 PUSH3 0x48 SWAP2 SWAP1 PUSH3 0x4B9 JUMP JUMPDEST POP DUP1 PUSH0 PUSH1 0x1 ADD SWAP1 DUP2 PUSH3 0x5C SWAP2 SWAP1 PUSH3 0x4B9 JUMP JUMPDEST POP PUSH1 0x78 TIMESTAMP PUSH3 0x6C SWAP2 SWAP1 PUSH3 0x5CA JUMP JUMPDEST PUSH1 0x7 DUP2 SWAP1 SSTORE POP POP POP PUSH3 0x604 JUMP JUMPDEST PUSH0 PUSH1 0x40 MLOAD SWAP1 POP SWAP1 JUMP JUMPDEST PUSH0 DUP1 REVERT JUMPDEST PUSH0 DUP1 REVERT JUMPDEST PUSH0 DUP1 REVERT JUMPDEST PUSH0 DUP1 REVERT JUMPDEST PUSH0 PUSH1 0x1F NOT PUSH1 0x1F DUP4 ADD AND SWAP1 POP SWAP2 SWAP1 POP JUMP JUMPDEST PUSH32 0x4E487B7100000000000000000000000000000000000000000000000000000000 PUSH0 MSTORE PUSH1 0x41 PUSH1 0x4 MSTORE PUSH1 0x24 PUSH0 REVERT JUMPDEST PUSH3 0xDB DUP3 PUSH3 0x93 JUMP JUMPDEST DUP2 ADD DUP2 DUP2 LT PUSH8 0xFFFFFFFFFFFFFFFF DUP3 GT OR ISZERO PUSH3 0xFD JUMPI PUSH3 0xFC PUSH3 0xA3 JUMP JUMPDEST JUMPDEST DUP1 PUSH1 0x40 MSTORE POP POP POP JUMP JUMPDEST PUSH0 PUSH3 0x111 PUSH3 0x7A JUMP JUMPDEST SWAP1 POP PUSH3 0x11F DUP3 DUP3 PUSH3 0xD0 JUMP JUMPDEST SWAP2 SWAP1 POP JUMP JUMPDEST PUSH0 PUSH8 0xFFFFFFFFFFFFFFFF DUP3 GT ISZERO PUSH3 0x141 JUMPI PUSH3 0x140 PUSH3 0xA3 JUMP JUMPDEST JUMPDEST PUSH3 0x14C DUP3 PUSH3 0x93 JUMP JUMPDEST SWAP1 POP PUSH1 0x20 DUP2 ADD SWAP1 POP SWAP2 SWAP1 POP JUMP JUMPDEST PUSH0 JUMPDEST DUP4 DUP2 LT ISZERO PUSH3 0x178 JUMPI DUP1 DUP3 ADD MLOAD DUP2 DUP5 ADD MSTORE PUSH1 0x20 DUP2 ADD SWAP1 POP PUSH3 0x15B JUMP JUMPDEST PUSH0 DUP5 DUP5 ADD MSTORE POP POP POP POP JUMP JUMPDEST PUSH0 PUSH3 0x199 PUSH3 0x193 DUP5 PUSH3 0x124 JUMP JUMPDEST PUSH3 0x106 JUMP JUMPDEST SWAP1 POP DUP3 DUP2 MSTORE PUSH1 0x20 DUP2 ADD DUP5 DUP5 DUP5 ADD GT ISZERO PUSH3 0x1B8 JUMPI PUSH3 0x1B7 PUSH3 0x8F JUMP JUMPDEST JUMPDEST PUSH3 0x1C5 DUP5 DUP3 DUP6 PUSH3 0x159 JUMP JUMPDEST POP SWAP4 SWAP3 POP POP POP JUMP JUMPDEST PUSH0 DUP3 PUSH1 0x1F DUP4 ADD SLT PUSH3 0x1E4 JUMPI PUSH3 0x1E3 PUSH3 0x8B JUMP JUMPDEST JUMPDEST DUP2 MLOAD PUSH3 0x1F6 DUP5 DUP3 PUSH1 0x20 DUP7 ADD PUSH3 0x183 JUMP JUMPDEST SWAP2 POP POP SWAP3 SWAP2 POP POP JUMP JUMPDEST PUSH0 DUP1 PUSH1 0x40 DUP4 DUP6 SUB SLT ISZERO PUSH3 0x218 JUMPI PUSH3 0x217 PUSH3 0x83 JUMP JUMPDEST JUMPDEST PUSH0 DUP4 ADD MLOAD PUSH8 0xFFFFFFFFFFFFFFFF DUP2 GT ISZERO PUSH3 0x238 JUMPI PUSH3 0x237 PUSH3 0x87 JUMP JUMPDEST JUMPDEST PUSH3 0x246 DUP6 DUP3 DUP7 ADD PUSH3 0x1CD JUMP JUMPDEST SWAP3 POP POP PUSH1 0x20 DUP4 ADD MLOAD PUSH8 0xFFFFFFFFFFFFFFFF DUP2 GT ISZERO PUSH3 0x26A JUMPI PUSH3 0x269 PUSH3 0x87 JUMP JUMPDEST JUMPDEST PUSH3 0x278 DUP6 DUP3 DUP7 ADD PUSH3 0x1CD JUMP JUMPDEST SWAP2 POP POP SWAP3 POP SWAP3 SWAP1 POP JUMP JUMPDEST PUSH0 DUP2 MLOAD SWAP1 POP SWAP2 SWAP1 POP JUMP JUMPDEST PUSH32 0x4E487B7100000000000000000000000000000000000000000000000000000000 PUSH0 MSTORE PUSH1 0x22 PUSH1 0x4 MSTORE PUSH1 0x24 PUSH0 REVERT JUMPDEST PUSH0 PUSH1 0x2 DUP3 DIV SWAP1 POP PUSH1 0x1 DUP3 AND DUP1 PUSH3 0x2D1 JUMPI PUSH1 0x7F DUP3 AND SWAP2 POP JUMPDEST PUSH1 0x20 DUP3 LT DUP2 SUB PUSH3 0x2E7 JUMPI PUSH3 0x2E6 PUSH3 0x28C JUMP JUMPDEST JUMPDEST POP SWAP2 SWAP1 POP JUMP JUMPDEST PUSH0 DUP2 SWAP1 POP DUP2 PUSH0 MSTORE PUSH1 0x20 PUSH0 KECCAK256 SWAP1 POP SWAP2 SWAP1 POP JUMP JUMPDEST PUSH0 PUSH1 0x20 PUSH1 0x1F DUP4 ADD DIV SWAP1 POP SWAP2 SWAP1 POP JUMP JUMPDEST PUSH0 DUP3 DUP3 SHL SWAP1 POP SWAP3 SWAP2 POP POP JUMP JUMPDEST PUSH0 PUSH1 0x8 DUP4 MUL PUSH3 0x34B PUSH32 0xFFFFFFFFFFFFFFFFFFFFFFFFFFFFFFFFFFFFFFFFFFFFFFFFFFFFFFFFFFFFFFFF DUP3 PUSH3 0x30E JUMP JUMPDEST PUSH3 0x357 DUP7 DUP4 PUSH3 0x30E JUMP JUMPDEST SWAP6 POP DUP1 NOT DUP5 AND SWAP4 POP DUP1 DUP7 AND DUP5 OR SWAP3 POP POP POP SWAP4 SWAP3 POP POP POP JUMP JUMPDEST PUSH0 DUP2 SWAP1 POP SWAP2 SWAP1 POP JUMP JUMPDEST PUSH0 DUP2 SWAP1 POP SWAP2 SWAP1 POP JUMP JUMPDEST PUSH0 PUSH3 0x3A1 PUSH3 0x39B PUSH3 0x395 DUP5 PUSH3 0x36F JUMP JUMPDEST PUSH3 0x378 JUMP JUMPDEST PUSH3 0x36F JUMP JUMPDEST SWAP1 POP SWAP2 SWAP1 POP JUMP JUMPDEST PUSH0 DUP2 SWAP1 POP SWAP2 SWAP1 POP JUMP JUMPDEST PUSH3 0x3BC DUP4 PUSH3 0x381 JUMP JUMPDEST PUSH3 0x3D4 PUSH3 0x3CB DUP3 PUSH3 0x3A8 JUMP JUMPDEST DUP5 DUP5 SLOAD PUSH3 0x31A JUMP JUMPDEST DUP3 SSTORE POP POP POP POP JUMP JUMPDEST PUSH0 SWAP1 JUMP JUMPDEST PUSH3 0x3EA PUSH3 0x3DC JUMP JUMPDEST PUSH3 0x3F7 DUP2 DUP5 DUP5 PUSH3 0x3B1 JUMP JUMPDEST POP POP POP JUMP JUMPDEST JUMPDEST DUP2 DUP2 LT ISZERO PUSH3 0x41E JUMPI PUSH3 0x412 PUSH0 DUP3 PUSH3 0x3E0 JUMP JUMPDEST PUSH1 0x1 DUP2 ADD SWAP1 POP PUSH3 0x3FD JUMP JUMPDEST POP POP JUMP JUMPDEST PUSH1 0x1F DUP3 GT ISZERO PUSH3 0x46D JUMPI PUSH3 0x437 DUP2 PUSH3 0x2ED JUMP JUMPDEST PUSH3 0x442 DUP5 PUSH3 0x2FF JUMP JUMPDEST DUP2 ADD PUSH1 0x20 DUP6 LT ISZERO PUSH3 0x452 JUMPI DUP2 SWAP1 POP JUMPDEST PUSH3 0x46A PUSH3 0x461 DUP6 PUSH3 0x2FF JUMP JUMPDEST DUP4 ADD DUP3 PUSH3 0x3FC JUMP JUMPDEST POP POP JUMPDEST POP POP POP JUMP JUMPDEST PUSH0 DUP3 DUP3 SHR SWAP1 POP SWAP3 SWAP2 POP POP JUMP JUMPDEST PUSH0 PUSH3 0x48F PUSH0 NOT DUP5 PUSH1 0x8 MUL PUSH3 0x472 JUMP JUMPDEST NOT DUP1 DUP4 AND SWAP2 POP POP SWAP3 SWAP2 POP POP JUMP JUMPDEST PUSH0 PUSH3 0x4A9 DUP4 DUP4 PUSH3 0x47E JUMP JUMPDEST SWAP2 POP DUP3 PUSH1 0x2 MUL DUP3 OR SWAP1 POP SWAP3 SWAP2 POP POP JUMP JUMPDEST PUSH3 0x4C4 DUP3 PUSH3 0x282 JUMP JUMPDEST PUSH8 0xFFFFFFFFFFFFFFFF DUP2 GT ISZERO PUSH3 0x4E0 JUMPI PUSH3 0x4DF PUSH3 0xA3 JUMP JUMPDEST JUMPDEST PUSH3 0x4EC DUP3 SLOAD PUSH3 0x2B9 JUMP JUMPDEST PUSH3 0x4F9 DUP3 DUP3 DUP6 PUSH3 0x422 JUMP JUMPDEST PUSH0 PUSH1 0x20 SWAP1 POP PUSH1 0x1F DUP4 GT PUSH1 0x1 DUP2 EQ PUSH3 0x52F JUMPI PUSH0 DUP5 ISZERO PUSH3 0x51A JUMPI DUP3 DUP8 ADD MLOAD SWAP1 POP JUMPDEST PUSH3 0x526 DUP6 DUP3 PUSH3 0x49C JUMP JUMPDEST DUP7 SSTORE POP PUSH3 0x595 JUMP JUMPDEST PUSH1 0x1F NOT DUP5 AND PUSH3 0x53F DUP7 PUSH3 0x2ED JUMP JUMPDEST PUSH0 JUMPDEST DUP3 DUP2 LT ISZERO PUSH3 0x568 JUMPI DUP5 DUP10 ADD MLOAD DUP3 SSTORE PUSH1 0x1 DUP3 ADD SWAP2 POP PUSH1 0x20 DUP6 ADD SWAP5 POP PUSH1 0x20 DUP2 ADD SWAP1 POP PUSH3 0x541 JUMP JUMPDEST DUP7 DUP4 LT ISZERO PUSH3 0x588 JUMPI DUP5 DUP10 ADD MLOAD PUSH3 0x584 PUSH1 0x1F DUP10 AND DUP3 PUSH3 0x47E JUMP JUMPDEST DUP4 SSTORE POP JUMPDEST PUSH1 0x1 PUSH1 0x2 DUP9 MUL ADD DUP9 SSTORE POP POP POP JUMPDEST POP POP POP POP POP POP JUMP JUMPDEST PUSH32 0x4E487B7100000000000000000000000000000000000000000000000000000000 PUSH0 MSTORE PUSH1 0x11 PUSH1 0x4 MSTORE PUSH1 0x24 PUSH0 REVERT JUMPDEST PUSH0 PUSH3 0x5D6 DUP3 PUSH3 0x36F JUMP JUMPDEST SWAP2 POP PUSH3 0x5E3 DUP4 PUSH3 0x36F JUMP JUMPDEST SWAP3 POP DUP3 DUP3 ADD SWAP1 POP DUP1 DUP3 GT ISZERO PUSH3 0x5FE JUMPI PUSH3 0x5FD PUSH3 0x59D JUMP JUMPDEST JUMPDEST SWAP3 SWAP2 POP POP JUMP JUMPDEST PUSH2 0xB84 DUP1 PUSH3 0x612 PUSH0 CODECOPY PUSH0 RETURN INVALID PUSH1 0x80 PUSH1 0x40 MSTORE CALLVALUE DUP1 ISZERO PUSH2 0xF JUMPI PUSH0 DUP1 REVERT JUMPDEST POP PUSH1 0x4 CALLDATASIZE LT PUSH2 0x4A JUMPI PUSH0 CALLDATALOAD PUSH1 0xE0 SHR DUP1 PUSH4 0x2A0C6EDF EQ PUSH2 0x4E JUMPI DUP1 PUSH4 0x7F75A31B EQ PUSH2 0x58 JUMPI DUP1 PUSH4 0xB93B1F83 EQ PUSH2 0x62 JUMPI DUP1 PUSH4 0xC3DA42B8 EQ PUSH2 0x6C JUMPI JUMPDEST PUSH0 DUP1 REVERT JUMPDEST PUSH2 0x56 PUSH2 0x8F JUMP JUMPDEST STOP JUMPDEST PUSH2 0x60 PUSH2 0x375 JUMP JUMPDEST STOP JUMPDEST PUSH2 0x6A PUSH2 0x543 JUMP JUMPDEST STOP JUMPDEST PUSH2 0x74 PUSH2 0x667 JUMP JUMPDEST PUSH1 0x40 MLOAD PUSH2 0x86 SWAP7 SWAP6 SWAP5 SWAP4 SWAP3 SWAP2 SWAP1 PUSH2 0x870 JUMP JUMPDEST PUSH1 0x40 MLOAD DUP1 SWAP2 SUB SWAP1 RETURN JUMPDEST PUSH1 0x7 SLOAD TIMESTAMP LT PUSH2 0xD3 JUMPI PUSH1 0x40 MLOAD PUSH32 0x8C379A000000000000000000000000000000000000000000000000000000000 DUP2 MSTORE PUSH1 0x4 ADD PUSH2 0xCA SWAP1 PUSH2 0x927 JUMP JUMPDEST PUSH1 0x40 MLOAD DUP1 SWAP2 SUB SWAP1 REVERT JUMPDEST PUSH0 PUSH1 0x5 ADD PUSH0 CALLER PUSH20 0xFFFFFFFFFFFFFFFFFFFFFFFFFFFFFFFFFFFFFFFF AND PUSH20 0xFFFFFFFFFFFFFFFFFFFFFFFFFFFFFFFFFFFFFFFF AND DUP2 MSTORE PUSH1 0x20 ADD SWAP1 DUP2 MSTORE PUSH1 0x20 ADD PUSH0 KECCAK256 PUSH0 SWAP1 SLOAD SWAP1 PUSH2 0x100 EXP SWAP1 DIV PUSH1 0xFF AND ISZERO PUSH2 0x15F JUMPI PUSH1 0x40 MLOAD PUSH32 0x8C379A000000000000000000000000000000000000000000000000000000000 DUP2 MSTORE PUSH1 0x4 ADD PUSH2 0x156 SWAP1 PUSH2 0x98F JUMP JUMPDEST PUSH1 0x40 MLOAD DUP1 SWAP2 SUB SWAP1 REVERT JUMPDEST PUSH0 PUSH1 0x6 ADD PUSH0 CALLER PUSH20 0xFFFFFFFFFFFFFFFFFFFFFFFFFFFFFFFFFFFFFFFF AND PUSH20 0xFFFFFFFFFFFFFFFFFFFFFFFFFFFFFFFFFFFFFFFF AND DUP2 MSTORE PUSH1 0x20 ADD SWAP1 DUP2 MSTORE PUSH1 0x20 ADD PUSH0 KECCAK256 PUSH0 SWAP1 SLOAD SWAP1 PUSH2 0x100 EXP SWAP1 DIV PUSH1 0xFF AND ISZERO PUSH2 0x1EB JUMPI PUSH1 0x40 MLOAD PUSH32 0x8C379A000000000000000000000000000000000000000000000000000000000 DUP2 MSTORE PUSH1 0x4 ADD PUSH2 0x1E2 SWAP1 PUSH2 0x98F JUMP JUMPDEST PUSH1 0x40 MLOAD DUP1 SWAP2 SUB SWAP1 REVERT JUMPDEST PUSH0 PUSH1 0x5 ADD PUSH0 CALLER PUSH20 0xFFFFFFFFFFFFFFFFFFFFFFFFFFFFFFFFFFFFFFFF AND PUSH20 0xFFFFFFFFFFFFFFFFFFFFFFFFFFFFFFFFFFFFFFFF AND DUP2 MSTORE PUSH1 0x20 ADD SWAP1 DUP2 MSTORE PUSH1 0x20 ADD PUSH0 KECCAK256 PUSH0 SWAP1 SLOAD SWAP1 PUSH2 0x100 EXP SWAP1 DIV PUSH1 0xFF AND ISZERO PUSH2 0x277 JUMPI PUSH1 0x40 MLOAD PUSH32 0x8C379A000000000000000000000000000000000000000000000000000000000 DUP2 MSTORE PUSH1 0x4 ADD PUSH2 0x26E SWAP1 PUSH2 0x98F JUMP JUMPDEST PUSH1 0x40 MLOAD DUP1 SWAP2 SUB SWAP1 REVERT JUMPDEST PUSH0 PUSH1 0x6 ADD PUSH0 CALLER PUSH20 0xFFFFFFFFFFFFFFFFFFFFFFFFFFFFFFFFFFFFFFFF AND PUSH20 0xFFFFFFFFFFFFFFFFFFFFFFFFFFFFFFFFFFFFFFFF AND DUP2 MSTORE PUSH1 0x20 ADD SWAP1 DUP2 MSTORE PUSH1 0x20 ADD PUSH0 KECCAK256 PUSH0 SWAP1 SLOAD SWAP1 PUSH2 0x100 EXP SWAP1 DIV PUSH1 0xFF AND ISZERO PUSH2 0x303 JUMPI PUSH1 0x40 MLOAD PUSH32 0x8C379A000000000000000000000000000000000000000000000000000000000 DUP2 MSTORE PUSH1 0x4 ADD PUSH2 0x2FA SWAP1 PUSH2 0x98F JUMP JUMPDEST PUSH1 0x40 MLOAD DUP1 SWAP2 SUB SWAP1 REVERT JUMPDEST PUSH1 0x1 PUSH0 PUSH1 0x6 ADD PUSH0 CALLER PUSH20 0xFFFFFFFFFFFFFFFFFFFFFFFFFFFFFFFFFFFFFFFF AND PUSH20 0xFFFFFFFFFFFFFFFFFFFFFFFFFFFFFFFFFFFFFFFF AND DUP2 MSTORE PUSH1 0x20 ADD SWAP1 DUP2 MSTORE PUSH1 0x20 ADD PUSH0 KECCAK256 PUSH0 PUSH2 0x100 EXP DUP2 SLOAD DUP2 PUSH1 0xFF MUL NOT AND SWAP1 DUP4 ISZERO ISZERO MUL OR SWAP1 SSTORE POP PUSH0 PUSH1 0x3 ADD PUSH0 DUP2 SLOAD DUP1 SWAP3 SWAP2 SWAP1 PUSH2 0x36E SWAP1 PUSH2 0x9DA JUMP JUMPDEST SWAP2 SWAP1 POP SSTORE POP JUMP JUMPDEST PUSH1 0x7 SLOAD TIMESTAMP LT PUSH2 0x3B9 JUMPI PUSH1 0x40 MLOAD PUSH32 0x8C379A000000000000000000000000000000000000000000000000000000000 DUP2 MSTORE PUSH1 0x4 ADD PUSH2 0x3B0 SWAP1 PUSH2 0x927 JUMP JUMPDEST PUSH1 0x40 MLOAD DUP1 SWAP2 SUB SWAP1 REVERT JUMPDEST PUSH0 PUSH1 0x5 ADD PUSH0 CALLER PUSH20 0xFFFFFFFFFFFFFFFFFFFFFFFFFFFFFFFFFFFFFFFF AND PUSH20 0xFFFFFFFFFFFFFFFFFFFFFFFFFFFFFFFFFFFFFFFF AND DUP2 MSTORE PUSH1 0x20 ADD SWAP1 DUP2 MSTORE PUSH1 0x20 ADD PUSH0 KECCAK256 PUSH0 SWAP1 SLOAD SWAP1 PUSH2 0x100 EXP SWAP1 DIV PUSH1 0xFF AND ISZERO PUSH2 0x445 JUMPI PUSH1 0x40 MLOAD PUSH32 0x8C379A000000000000000000000000000000000000000000000000000000000 DUP2 MSTORE PUSH1 0x4 ADD PUSH2 0x43C SWAP1 PUSH2 0x98F JUMP JUMPDEST PUSH1 0x40 MLOAD DUP1 SWAP2 SUB SWAP1 REVERT JUMPDEST PUSH0 PUSH1 0x6 ADD PUSH0 CALLER PUSH20 0xFFFFFFFFFFFFFFFFFFFFFFFFFFFFFFFFFFFFFFFF AND PUSH20 0xFFFFFFFFFFFFFFFFFFFFFFFFFFFFFFFFFFFFFFFF AND DUP2 MSTORE PUSH1 0x20 ADD SWAP1 DUP2 MSTORE PUSH1 0x20 ADD PUSH0 KECCAK256 PUSH0 SWAP1 SLOAD SWAP1 PUSH2 0x100 EXP SWAP1 DIV PUSH1 0xFF AND ISZERO PUSH2 0x4D1 JUMPI PUSH1 0x40 MLOAD PUSH32 0x8C379A000000000000000000000000000000000000000000000000000000000 DUP2 MSTORE PUSH1 0x4 ADD PUSH2 0x4C8 SWAP1 PUSH2 0x98F JUMP JUMPDEST PUSH1 0x40 MLOAD DUP1 SWAP2 SUB SWAP1 REVERT JUMPDEST PUSH1 0x1 PUSH0 PUSH1 0x5 ADD PUSH0 CALLER PUSH20 0xFFFFFFFFFFFFFFFFFFFFFFFFFFFFFFFFFFFFFFFF AND PUSH20 0xFFFFFFFFFFFFFFFFFFFFFFFFFFFFFFFFFFFFFFFF AND DUP2 MSTORE PUSH1 0x20 ADD SWAP1 DUP2 MSTORE PUSH1 0x20 ADD PUSH0 KECCAK256 PUSH0 PUSH2 0x100 EXP DUP2 SLOAD DUP2 PUSH1 0xFF MUL NOT AND SWAP1 DUP4 ISZERO ISZERO MUL OR SWAP1 SSTORE POP PUSH0 PUSH1 0x2 ADD PUSH0 DUP2 SLOAD DUP1 SWAP3 SWAP2 SWAP1 PUSH2 0x53C SWAP1 PUSH2 0x9DA JUMP JUMPDEST SWAP2 SWAP1 POP SSTORE POP JUMP JUMPDEST PUSH1 0x7 SLOAD TIMESTAMP GT PUSH2 0x587 JUMPI PUSH1 0x40 MLOAD PUSH32 0x8C379A000000000000000000000000000000000000000000000000000000000 DUP2 MSTORE PUSH1 0x4 ADD PUSH2 0x57E SWAP1 PUSH2 0xA6B JUMP JUMPDEST PUSH1 0x40 MLOAD DUP1 SWAP2 SUB SWAP1 REVERT JUMPDEST PUSH1 0x1 ISZERO ISZERO PUSH0 PUSH1 0x4 ADD PUSH1 0x1 SWAP1 SLOAD SWAP1 PUSH2 0x100 EXP SWAP1 DIV PUSH1 0xFF AND ISZERO ISZERO SUB PUSH2 0x5DF JUMPI PUSH1 0x40 MLOAD PUSH32 0x8C379A000000000000000000000000000000000000000000000000000000000 DUP2 MSTORE PUSH1 0x4 ADD PUSH2 0x5D6 SWAP1 PUSH2 0xAD3 JUMP JUMPDEST PUSH1 0x40 MLOAD DUP1 SWAP2 SUB SWAP1 REVERT JUMPDEST PUSH0 PUSH1 0x3 ADD SLOAD PUSH0 PUSH1 0x2 ADD SLOAD LT PUSH2 0x62C JUMPI PUSH1 0x1 PUSH0 PUSH1 0x4 ADD PUSH0 PUSH2 0x100 EXP DUP2 SLOAD DUP2 PUSH1 0xFF MUL NOT AND SWAP1 DUP4 ISZERO ISZERO MUL OR SWAP1 SSTORE POP PUSH1 0x1 PUSH0 PUSH1 0x4 ADD PUSH1 0x1 PUSH2 0x100 EXP DUP2 SLOAD DUP2 PUSH1 0xFF MUL NOT AND SWAP1 DUP4 ISZERO ISZERO MUL OR SWAP1 SSTORE POP PUSH2 0x665 JUMP JUMPDEST PUSH0 DUP1 PUSH1 0x4 ADD PUSH0 PUSH2 0x100 EXP DUP2 SLOAD DUP2 PUSH1 0xFF MUL NOT AND SWAP1 DUP4 ISZERO ISZERO MUL OR SWAP1 SSTORE POP PUSH1 0x1 PUSH0 PUSH1 0x4 ADD PUSH1 0x1 PUSH2 0x100 EXP DUP2 SLOAD DUP2 PUSH1 0xFF MUL NOT AND SWAP1 DUP4 ISZERO ISZERO MUL OR SWAP1 SSTORE POP JUMPDEST JUMP JUMPDEST PUSH0 DUP1 PUSH0 ADD DUP1 SLOAD PUSH2 0x676 SWAP1 PUSH2 0xB1E JUMP JUMPDEST DUP1 PUSH1 0x1F ADD PUSH1 0x20 DUP1 SWAP2 DIV MUL PUSH1 0x20 ADD PUSH1 0x40 MLOAD SWAP1 DUP2 ADD PUSH1 0x40 MSTORE DUP1 SWAP3 SWAP2 SWAP1 DUP2 DUP2 MSTORE PUSH1 0x20 ADD DUP3 DUP1 SLOAD PUSH2 0x6A2 SWAP1 PUSH2 0xB1E JUMP JUMPDEST DUP1 ISZERO PUSH2 0x6ED JUMPI DUP1 PUSH1 0x1F LT PUSH2 0x6C4 JUMPI PUSH2 0x100 DUP1 DUP4 SLOAD DIV MUL DUP4 MSTORE SWAP2 PUSH1 0x20 ADD SWAP2 PUSH2 0x6ED JUMP JUMPDEST DUP3 ADD SWAP2 SWAP1 PUSH0 MSTORE PUSH1 0x20 PUSH0 KECCAK256 SWAP1 JUMPDEST DUP2 SLOAD DUP2 MSTORE SWAP1 PUSH1 0x1 ADD SWAP1 PUSH1 0x20 ADD DUP1 DUP4 GT PUSH2 0x6D0 JUMPI DUP3 SWAP1 SUB PUSH1 0x1F AND DUP3 ADD SWAP2 JUMPDEST POP POP POP POP POP SWAP1 DUP1 PUSH1 0x1 ADD DUP1 SLOAD PUSH2 0x702 SWAP1 PUSH2 0xB1E JUMP JUMPDEST DUP1 PUSH1 0x1F ADD PUSH1 0x20 DUP1 SWAP2 DIV MUL PUSH1 0x20 ADD PUSH1 0x40 MLOAD SWAP1 DUP2 ADD PUSH1 0x40 MSTORE DUP1 SWAP3 SWAP2 SWAP1 DUP2 DUP2 MSTORE PUSH1 0x20 ADD DUP3 DUP1 SLOAD PUSH2 0x72E SWAP1 PUSH2 0xB1E JUMP JUMPDEST DUP1 ISZERO PUSH2 0x779 JUMPI DUP1 PUSH1 0x1F LT PUSH2 0x750 JUMPI PUSH2 0x100 DUP1 DUP4 SLOAD DIV MUL DUP4 MSTORE SWAP2 PUSH1 0x20 ADD SWAP2 PUSH2 0x779 JUMP JUMPDEST DUP3 ADD SWAP2 SWAP1 PUSH0 MSTORE PUSH1 0x20 PUSH0 KECCAK256 SWAP1 JUMPDEST DUP2 SLOAD DUP2 MSTORE SWAP1 PUSH1 0x1 ADD SWAP1 PUSH1 0x20 ADD DUP1 DUP4 GT PUSH2 0x75C JUMPI DUP3 SWAP1 SUB PUSH1 0x1F AND DUP3 ADD SWAP2 JUMPDEST POP POP POP POP POP SWAP1 DUP1 PUSH1 0x2 ADD SLOAD SWAP1 DUP1 PUSH1 0x3 ADD SLOAD SWAP1 DUP1 PUSH1 0x4 ADD PUSH0 SWAP1 SLOAD SWAP1 PUSH2 0x100 EXP SWAP1 DIV PUSH1 0xFF AND SWAP1 DUP1 PUSH1 0x4 ADD PUSH1 0x1 SWAP1 SLOAD SWAP1 PUSH2 0x100 EXP SWAP1 DIV PUSH1 0xFF AND SWAP1 POP DUP7 JUMP JUMPDEST PUSH0 DUP2 MLOAD SWAP1 POP SWAP2 SWAP1 POP JUMP JUMPDEST PUSH0 DUP3 DUP3 MSTORE PUSH1 0x20 DUP3 ADD SWAP1 POP SWAP3 SWAP2 POP POP JUMP JUMPDEST PUSH0 JUMPDEST DUP4 DUP2 LT ISZERO PUSH2 0x7EB JUMPI DUP1 DUP3 ADD MLOAD DUP2 DUP5 ADD MSTORE PUSH1 0x20 DUP2 ADD SWAP1 POP PUSH2 0x7D0 JUMP JUMPDEST PUSH0 DUP5 DUP5 ADD MSTORE POP POP POP POP JUMP JUMPDEST PUSH0 PUSH1 0x1F NOT PUSH1 0x1F DUP4 ADD AND SWAP1 POP SWAP2 SWAP1 POP JUMP JUMPDEST PUSH0 PUSH2 0x810 DUP3 PUSH2 0x7B4 JUMP JUMPDEST PUSH2 0x81A DUP2 DUP6 PUSH2 0x7BE JUMP JUMPDEST SWAP4 POP PUSH2 0x82A DUP2 DUP6 PUSH1 0x20 DUP7 ADD PUSH2 0x7CE JUMP JUMPDEST PUSH2 0x833 DUP2 PUSH2 0x7F6 JUMP JUMPDEST DUP5 ADD SWAP2 POP POP SWAP3 SWAP2 POP POP JUMP JUMPDEST PUSH0 DUP2 SWAP1 POP SWAP2 SWAP1 POP JUMP JUMPDEST PUSH2 0x850 DUP2 PUSH2 0x83E JUMP JUMPDEST DUP3 MSTORE POP POP JUMP JUMPDEST PUSH0 DUP2 ISZERO ISZERO SWAP1 POP SWAP2 SWAP1 POP JUMP JUMPDEST PUSH2 0x86A DUP2 PUSH2 0x856 JUMP JUMPDEST DUP3 MSTORE POP POP JUMP JUMPDEST PUSH0 PUSH1 0xC0 DUP3 ADD SWAP1 POP DUP2 DUP2 SUB PUSH0 DUP4 ADD MSTORE PUSH2 0x888 DUP2 DUP10 PUSH2 0x806 JUMP JUMPDEST SWAP1 POP DUP2 DUP2 SUB PUSH1 0x20 DUP4 ADD MSTORE PUSH2 0x89C DUP2 DUP9 PUSH2 0x806 JUMP JUMPDEST SWAP1 POP PUSH2 0x8AB PUSH1 0x40 DUP4 ADD DUP8 PUSH2 0x847 JUMP JUMPDEST PUSH2 0x8B8 PUSH1 0x60 DUP4 ADD DUP7 PUSH2 0x847 JUMP JUMPDEST PUSH2 0x8C5 PUSH1 0x80 DUP4 ADD DUP6 PUSH2 0x861 JUMP JUMPDEST PUSH2 0x8D2 PUSH1 0xA0 DUP4 ADD DUP5 PUSH2 0x861 JUMP JUMPDEST SWAP8 SWAP7 POP POP POP POP POP POP POP JUMP JUMPDEST PUSH32 0x54696D6520657863656564656400000000000000000000000000000000000000 PUSH0 DUP3 ADD MSTORE POP JUMP JUMPDEST PUSH0 PUSH2 0x911 PUSH1 0xD DUP4 PUSH2 0x7BE JUMP JUMPDEST SWAP2 POP PUSH2 0x91C DUP3 PUSH2 0x8DD JUMP JUMPDEST PUSH1 0x20 DUP3 ADD SWAP1 POP SWAP2 SWAP1 POP JUMP JUMPDEST PUSH0 PUSH1 0x20 DUP3 ADD SWAP1 POP DUP2 DUP2 SUB PUSH0 DUP4 ADD MSTORE PUSH2 0x93E DUP2 PUSH2 0x905 JUMP JUMPDEST SWAP1 POP SWAP2 SWAP1 POP JUMP JUMPDEST PUSH32 0x796F7520616C726561647920766F74696E670000000000000000000000000000 PUSH0 DUP3 ADD MSTORE POP JUMP JUMPDEST PUSH0 PUSH2 0x979 PUSH1 0x12 DUP4 PUSH2 0x7BE JUMP JUMPDEST SWAP2 POP PUSH2 0x984 DUP3 PUSH2 0x945 JUMP JUMPDEST PUSH1 0x20 DUP3 ADD SWAP1 POP SWAP2 SWAP1 POP JUMP JUMPDEST PUSH0 PUSH1 0x20 DUP3 ADD SWAP1 POP DUP2 DUP2 SUB PUSH0 DUP4 ADD MSTORE PUSH2 0x9A6 DUP2 PUSH2 0x96D JUMP JUMPDEST SWAP1 POP SWAP2 SWAP1 POP JUMP JUMPDEST PUSH32 0x4E487B7100000000000000000000000000000000000000000000000000000000 PUSH0 MSTORE PUSH1 0x11 PUSH1 0x4 MSTORE PUSH1 0x24 PUSH0 REVERT JUMPDEST PUSH0 PUSH2 0x9E4 DUP3 PUSH2 0x83E JUMP JUMPDEST SWAP2 POP PUSH32 0xFFFFFFFFFFFFFFFFFFFFFFFFFFFFFFFFFFFFFFFFFFFFFFFFFFFFFFFFFFFFFFFF DUP3 SUB PUSH2 0xA16 JUMPI PUSH2 0xA15 PUSH2 0x9AD JUMP JUMPDEST JUMPDEST PUSH1 0x1 DUP3 ADD SWAP1 POP SWAP2 SWAP1 POP JUMP JUMPDEST PUSH32 0x4361736520696E2070726F677265737300000000000000000000000000000000 PUSH0 DUP3 ADD MSTORE POP JUMP JUMPDEST PUSH0 PUSH2 0xA55 PUSH1 0x10 DUP4 PUSH2 0x7BE JUMP JUMPDEST SWAP2 POP PUSH2 0xA60 DUP3 PUSH2 0xA21 JUMP JUMPDEST PUSH1 0x20 DUP3 ADD SWAP1 POP SWAP2 SWAP1 POP JUMP JUMPDEST PUSH0 PUSH1 0x20 DUP3 ADD SWAP1 POP DUP2 DUP2 SUB PUSH0 DUP4 ADD MSTORE PUSH2 0xA82 DUP2 PUSH2 0xA49 JUMP JUMPDEST SWAP1 POP SWAP2 SWAP1 POP JUMP JUMPDEST PUSH32 0x4361736520616C726561647920646F6E65000000000000000000000000000000 PUSH0 DUP3 ADD MSTORE POP JUMP JUMPDEST PUSH0 PUSH2 0xABD PUSH1 0x11 DUP4 PUSH2 0x7BE JUMP JUMPDEST SWAP2 POP PUSH2 0xAC8 DUP3 PUSH2 0xA89 JUMP JUMPDEST PUSH1 0x20 DUP3 ADD SWAP1 POP SWAP2 SWAP1 POP JUMP JUMPDEST PUSH0 PUSH1 0x20 DUP3 ADD SWAP1 POP DUP2 DUP2 SUB PUSH0 DUP4 ADD MSTORE PUSH2 0xAEA DUP2 PUSH2 0xAB1 JUMP JUMPDEST SWAP1 POP SWAP2 SWAP1 POP JUMP JUMPDEST PUSH32 0x4E487B7100000000000000000000000000000000000000000000000000000000 PUSH0 MSTORE PUSH1 0x22 PUSH1 0x4 MSTORE PUSH1 0x24 PUSH0 REVERT JUMPDEST PUSH0 PUSH1 0x2 DUP3 DIV SWAP1 POP PUSH1 0x1 DUP3 AND DUP1 PUSH2 0xB35 JUMPI PUSH1 0x7F DUP3 AND SWAP2 POP JUMPDEST PUSH1 0x20 DUP3 LT DUP2 SUB PUSH2 0xB48 JUMPI PUSH2 0xB47 PUSH2 0xAF1 JUMP JUMPDEST JUMPDEST POP SWAP2 SWAP1 POP JUMP INVALID LOG2 PUSH5 0x6970667358 0x22 SLT KECCAK256 0x29 0x4F 0xAA PUSH19 0xFC9F0ACBE872D6E72F93214CEE78BE56E6E802 0xBC 0x1E SWAP2 PUSH2 0x10F INVALID 0xAE DIV PUSH5 0x736F6C6343 STOP ADDMOD XOR STOP CALLER LOG2 PUSH5 0x6970667358 0x22 SLT KECCAK256 0xE7 PUSH10 0x21767BBC46EE724C4F4F EXTCODEHASH 0xC2 0xCF 0xAC PUSH25 0xDE836B000C927DABA0D20FE08CCF9964736F6C634300081800 CALLER "},"gasEstimates":{"creation":{"codeDepositCost":"1246400","executionCost":"1293","totalCost":"1247693"},"external":{"createVoting(string,string)":"infinite","getVotingDeployed()":"infinite","votings(uint256)":"4965"}},"methodIdentifiers":{"createVoting(string,string)":"93b2b413","getVotingDeployed()":"69ffe66d","votings(uint256)":"a598d03c"}},"storageLayout":{"storage":[{"astId":4,"contract":"Voting.sol:FactoryVoting","label":"votings","offset":0,"slot":"0","type":"t_array(t_address_payable)dyn_storage"}],"types":{"t_address_payable":{"encoding":"inplace","label":"address payable","numberOfBytes":"20"},"t_array(t_address_payable)dyn_storage":{"base":"t_address_payable","encoding":"dynamic_array","label":"address payable[]","numberOfBytes":"32"}}},"userdoc":{"kind":"user","methods":{},"version":1}}