{"abi":[{"inputs":[{"internalType":"string","name":"_nameCase","type":"string"}],"stateMutability":"nonpayable","type":"constructor"},{"inputs":[{"internalType":"uint256","name":"index","type":"uint256"}],"name":"approveCase","outputs":[],"stateMutability":"nonpayable","type":"function"},{"inputs":[{"internalType":"uint256","name":"","type":"uint256"}],"name":"c","outputs":[{"internalType":"string","name":"nameCase","type":"string"},{"internalType":"uint256","name":"countAccept","type":"uint256"},{"internalType":"uint256","name":"countNotAccept","type":"uint256"},{"internalType":"bool","name":"approve","type":"bool"},{"internalType":"bool","name":"finished","type":"bool"}],"stateMutability":"view","type":"function"},{"inputs":[{"internalType":"string","name":"_nameCase","type":"string"}],"name":"createCaso","outputs":[],"stateMutability":"nonpayable","type":"function"},{"inputs":[{"internalType":"uint256","name":"index","type":"uint256"}],"name":"votingAcceptCase","outputs":[],"stateMutability":"nonpayable","type":"function"},{"inputs":[{"internalType":"uint256","name":"index","type":"uint256"}],"name":"votingDenyCase","outputs":[],"stateMutability":"nonpayable","type":"function"}],"devdoc":{"kind":"dev","methods":{},"version":1},"evm":{"assembly":"    /* \"Voting.sol\":663:2815  contract Voting {... */\n  mstore(0x40, 0x80)\n    /* \"Voting.sol\":997:1171  constructor(string memory _nameCase) {... */\n  callvalue\n  dup1\n  iszero\n  tag_1\n  jumpi\n  0x00\n  dup1\n  revert\ntag_1:\n  pop\n  mload(0x40)\n  sub(codesize, bytecodeSize)\n  dup1\n  bytecodeSize\n  dup4\n  codecopy\n  dup2\n  dup2\n  add\n  0x40\n  mstore\n  dup2\n  add\n  swap1\n  tag_2\n  swap2\n  swap1\n  tag_3\n  jump\t// in\ntag_2:\n    /* \"Voting.sol\":1045:1065  Case storage newCase */\n  0x00\n    /* \"Voting.sol\":1068:1069  c */\n  dup1\n    /* \"Voting.sol\":1068:1076  c.push() */\n  0x01\n  dup2\n  0x01\n  dup2\n  sload\n  add\n  dup1\n  dup3\n  sstore\n  dup1\n  swap2\n  pop\n  pop\n  sub\n  swap1\n  0x00\n  mstore\n  keccak256(0x00, 0x20)\n  swap1\n  0x06\n  mul\n  add\n    /* \"Voting.sol\":1045:1076  Case storage newCase = c.push() */\n  swap1\n  pop\n    /* \"Voting.sol\":1106:1115  _nameCase */\n  dup2\n    /* \"Voting.sol\":1087:1094  newCase */\n  dup2\n    /* \"Voting.sol\":1087:1103  newCase.nameCase */\n  0x00\n  add\n    /* \"Voting.sol\":1087:1115  newCase.nameCase = _nameCase */\n  swap1\n  dup2\n  tag_7\n  swap2\n  swap1\n  tag_8\n  jump\t// in\ntag_7:\n  pop\n    /* \"Voting.sol\":1154:1163  2 minutes */\n  0x78\n    /* \"Voting.sol\":1136:1151  block.timestamp */\n  timestamp\n    /* \"Voting.sol\":1136:1163  block.timestamp + 2 minutes */\n  tag_9\n  swap2\n  swap1\n  tag_10\n  jump\t// in\ntag_9:\n    /* \"Voting.sol\":1126:1133  timeMax */\n  0x01\n    /* \"Voting.sol\":1126:1163  timeMax = block.timestamp + 2 minutes */\n  dup2\n  swap1\n  sstore\n  pop\n    /* \"Voting.sol\":1034:1171  {... */\n  pop\n    /* \"Voting.sol\":997:1171  constructor(string memory _nameCase) {... */\n  pop\n    /* \"Voting.sol\":663:2815  contract Voting {... */\n  jump(tag_11)\n    /* \"#utility.yul\":7:82   */\ntag_12:\n    /* \"#utility.yul\":40:46   */\n  0x00\n    /* \"#utility.yul\":73:75   */\n  0x40\n    /* \"#utility.yul\":67:76   */\n  mload\n    /* \"#utility.yul\":57:76   */\n  swap1\n  pop\n    /* \"#utility.yul\":7:82   */\n  swap1\n  jump\t// out\n    /* \"#utility.yul\":88:205   */\ntag_13:\n    /* \"#utility.yul\":197:198   */\n  0x00\n    /* \"#utility.yul\":194:195   */\n  dup1\n    /* \"#utility.yul\":187:199   */\n  revert\n    /* \"#utility.yul\":211:328   */\ntag_14:\n    /* \"#utility.yul\":320:321   */\n  0x00\n    /* \"#utility.yul\":317:318   */\n  dup1\n    /* \"#utility.yul\":310:322   */\n  revert\n    /* \"#utility.yul\":334:451   */\ntag_15:\n    /* \"#utility.yul\":443:444   */\n  0x00\n    /* \"#utility.yul\":440:441   */\n  dup1\n    /* \"#utility.yul\":433:445   */\n  revert\n    /* \"#utility.yul\":457:574   */\ntag_16:\n    /* \"#utility.yul\":566:567   */\n  0x00\n    /* \"#utility.yul\":563:564   */\n  dup1\n    /* \"#utility.yul\":556:568   */\n  revert\n    /* \"#utility.yul\":580:682   */\ntag_17:\n    /* \"#utility.yul\":621:627   */\n  0x00\n    /* \"#utility.yul\":672:674   */\n  0x1f\n    /* \"#utility.yul\":668:675   */\n  not\n    /* \"#utility.yul\":663:665   */\n  0x1f\n    /* \"#utility.yul\":656:661   */\n  dup4\n    /* \"#utility.yul\":652:666   */\n  add\n    /* \"#utility.yul\":648:676   */\n  and\n    /* \"#utility.yul\":638:676   */\n  swap1\n  pop\n    /* \"#utility.yul\":580:682   */\n  swap2\n  swap1\n  pop\n  jump\t// out\n    /* \"#utility.yul\":688:868   */\ntag_18:\n    /* \"#utility.yul\":736:813   */\n  0x4e487b7100000000000000000000000000000000000000000000000000000000\n    /* \"#utility.yul\":733:734   */\n  0x00\n    /* \"#utility.yul\":726:814   */\n  mstore\n    /* \"#utility.yul\":833:837   */\n  0x41\n    /* \"#utility.yul\":830:831   */\n  0x04\n    /* \"#utility.yul\":823:838   */\n  mstore\n    /* \"#utility.yul\":857:861   */\n  0x24\n    /* \"#utility.yul\":854:855   */\n  0x00\n    /* \"#utility.yul\":847:862   */\n  revert\n    /* \"#utility.yul\":874:1155   */\ntag_19:\n    /* \"#utility.yul\":957:984   */\n  tag_54\n    /* \"#utility.yul\":979:983   */\n  dup3\n    /* \"#utility.yul\":957:984   */\n  tag_17\n  jump\t// in\ntag_54:\n    /* \"#utility.yul\":949:955   */\n  dup2\n    /* \"#utility.yul\":945:985   */\n  add\n    /* \"#utility.yul\":1087:1093   */\n  dup2\n    /* \"#utility.yul\":1075:1085   */\n  dup2\n    /* \"#utility.yul\":1072:1094   */\n  lt\n    /* \"#utility.yul\":1051:1069   */\n  0xffffffffffffffff\n    /* \"#utility.yul\":1039:1049   */\n  dup3\n    /* \"#utility.yul\":1036:1070   */\n  gt\n    /* \"#utility.yul\":1033:1095   */\n  or\n    /* \"#utility.yul\":1030:1118   */\n  iszero\n  tag_55\n  jumpi\n    /* \"#utility.yul\":1098:1116   */\n  tag_56\n  tag_18\n  jump\t// in\ntag_56:\n    /* \"#utility.yul\":1030:1118   */\ntag_55:\n    /* \"#utility.yul\":1138:1148   */\n  dup1\n    /* \"#utility.yul\":1134:1136   */\n  0x40\n    /* \"#utility.yul\":1127:1149   */\n  mstore\n    /* \"#utility.yul\":917:1155   */\n  pop\n    /* \"#utility.yul\":874:1155   */\n  pop\n  pop\n  jump\t// out\n    /* \"#utility.yul\":1161:1290   */\ntag_20:\n    /* \"#utility.yul\":1195:1201   */\n  0x00\n    /* \"#utility.yul\":1222:1242   */\n  tag_58\n  tag_12\n  jump\t// in\ntag_58:\n    /* \"#utility.yul\":1212:1242   */\n  swap1\n  pop\n    /* \"#utility.yul\":1251:1284   */\n  tag_59\n    /* \"#utility.yul\":1279:1283   */\n  dup3\n    /* \"#utility.yul\":1271:1277   */\n  dup3\n    /* \"#utility.yul\":1251:1284   */\n  tag_19\n  jump\t// in\ntag_59:\n    /* \"#utility.yul\":1161:1290   */\n  swap2\n  swap1\n  pop\n  jump\t// out\n    /* \"#utility.yul\":1296:1604   */\ntag_21:\n    /* \"#utility.yul\":1358:1362   */\n  0x00\n    /* \"#utility.yul\":1448:1466   */\n  0xffffffffffffffff\n    /* \"#utility.yul\":1440:1446   */\n  dup3\n    /* \"#utility.yul\":1437:1467   */\n  gt\n    /* \"#utility.yul\":1434:1490   */\n  iszero\n  tag_61\n  jumpi\n    /* \"#utility.yul\":1470:1488   */\n  tag_62\n  tag_18\n  jump\t// in\ntag_62:\n    /* \"#utility.yul\":1434:1490   */\ntag_61:\n    /* \"#utility.yul\":1508:1537   */\n  tag_63\n    /* \"#utility.yul\":1530:1536   */\n  dup3\n    /* \"#utility.yul\":1508:1537   */\n  tag_17\n  jump\t// in\ntag_63:\n    /* \"#utility.yul\":1500:1537   */\n  swap1\n  pop\n    /* \"#utility.yul\":1592:1596   */\n  0x20\n    /* \"#utility.yul\":1586:1590   */\n  dup2\n    /* \"#utility.yul\":1582:1597   */\n  add\n    /* \"#utility.yul\":1574:1597   */\n  swap1\n  pop\n    /* \"#utility.yul\":1296:1604   */\n  swap2\n  swap1\n  pop\n  jump\t// out\n    /* \"#utility.yul\":1610:1856   */\ntag_22:\n    /* \"#utility.yul\":1691:1692   */\n  0x00\n    /* \"#utility.yul\":1701:1814   */\ntag_65:\n    /* \"#utility.yul\":1715:1721   */\n  dup4\n    /* \"#utility.yul\":1712:1713   */\n  dup2\n    /* \"#utility.yul\":1709:1722   */\n  lt\n    /* \"#utility.yul\":1701:1814   */\n  iszero\n  tag_67\n  jumpi\n    /* \"#utility.yul\":1800:1801   */\n  dup1\n    /* \"#utility.yul\":1795:1798   */\n  dup3\n    /* \"#utility.yul\":1791:1802   */\n  add\n    /* \"#utility.yul\":1785:1803   */\n  mload\n    /* \"#utility.yul\":1781:1782   */\n  dup2\n    /* \"#utility.yul\":1776:1779   */\n  dup5\n    /* \"#utility.yul\":1772:1783   */\n  add\n    /* \"#utility.yul\":1765:1804   */\n  mstore\n    /* \"#utility.yul\":1737:1739   */\n  0x20\n    /* \"#utility.yul\":1734:1735   */\n  dup2\n    /* \"#utility.yul\":1730:1740   */\n  add\n    /* \"#utility.yul\":1725:1740   */\n  swap1\n  pop\n    /* \"#utility.yul\":1701:1814   */\n  jump(tag_65)\ntag_67:\n    /* \"#utility.yul\":1848:1849   */\n  0x00\n    /* \"#utility.yul\":1839:1845   */\n  dup5\n    /* \"#utility.yul\":1834:1837   */\n  dup5\n    /* \"#utility.yul\":1830:1846   */\n  add\n    /* \"#utility.yul\":1823:1850   */\n  mstore\n    /* \"#utility.yul\":1672:1856   */\n  pop\n    /* \"#utility.yul\":1610:1856   */\n  pop\n  pop\n  pop\n  jump\t// out\n    /* \"#utility.yul\":1862:2296   */\ntag_23:\n    /* \"#utility.yul\":1951:1956   */\n  0x00\n    /* \"#utility.yul\":1976:2042   */\n  tag_69\n    /* \"#utility.yul\":1992:2041   */\n  tag_70\n    /* \"#utility.yul\":2034:2040   */\n  dup5\n    /* \"#utility.yul\":1992:2041   */\n  tag_21\n  jump\t// in\ntag_70:\n    /* \"#utility.yul\":1976:2042   */\n  tag_20\n  jump\t// in\ntag_69:\n    /* \"#utility.yul\":1967:2042   */\n  swap1\n  pop\n    /* \"#utility.yul\":2065:2071   */\n  dup3\n    /* \"#utility.yul\":2058:2063   */\n  dup2\n    /* \"#utility.yul\":2051:2072   */\n  mstore\n    /* \"#utility.yul\":2103:2107   */\n  0x20\n    /* \"#utility.yul\":2096:2101   */\n  dup2\n    /* \"#utility.yul\":2092:2108   */\n  add\n    /* \"#utility.yul\":2141:2144   */\n  dup5\n    /* \"#utility.yul\":2132:2138   */\n  dup5\n    /* \"#utility.yul\":2127:2130   */\n  dup5\n    /* \"#utility.yul\":2123:2139   */\n  add\n    /* \"#utility.yul\":2120:2145   */\n  gt\n    /* \"#utility.yul\":2117:2229   */\n  iszero\n  tag_71\n  jumpi\n    /* \"#utility.yul\":2148:2227   */\n  tag_72\n  tag_16\n  jump\t// in\ntag_72:\n    /* \"#utility.yul\":2117:2229   */\ntag_71:\n    /* \"#utility.yul\":2238:2290   */\n  tag_73\n    /* \"#utility.yul\":2283:2289   */\n  dup5\n    /* \"#utility.yul\":2278:2281   */\n  dup3\n    /* \"#utility.yul\":2273:2276   */\n  dup6\n    /* \"#utility.yul\":2238:2290   */\n  tag_22\n  jump\t// in\ntag_73:\n    /* \"#utility.yul\":1957:2296   */\n  pop\n    /* \"#utility.yul\":1862:2296   */\n  swap4\n  swap3\n  pop\n  pop\n  pop\n  jump\t// out\n    /* \"#utility.yul\":2316:2671   */\ntag_24:\n    /* \"#utility.yul\":2383:2388   */\n  0x00\n    /* \"#utility.yul\":2432:2435   */\n  dup3\n    /* \"#utility.yul\":2425:2429   */\n  0x1f\n    /* \"#utility.yul\":2417:2423   */\n  dup4\n    /* \"#utility.yul\":2413:2430   */\n  add\n    /* \"#utility.yul\":2409:2436   */\n  slt\n    /* \"#utility.yul\":2399:2521   */\n  tag_75\n  jumpi\n    /* \"#utility.yul\":2440:2519   */\n  tag_76\n  tag_15\n  jump\t// in\ntag_76:\n    /* \"#utility.yul\":2399:2521   */\ntag_75:\n    /* \"#utility.yul\":2550:2556   */\n  dup2\n    /* \"#utility.yul\":2544:2557   */\n  mload\n    /* \"#utility.yul\":2575:2665   */\n  tag_77\n    /* \"#utility.yul\":2661:2664   */\n  dup5\n    /* \"#utility.yul\":2653:2659   */\n  dup3\n    /* \"#utility.yul\":2646:2650   */\n  0x20\n    /* \"#utility.yul\":2638:2644   */\n  dup7\n    /* \"#utility.yul\":2634:2651   */\n  add\n    /* \"#utility.yul\":2575:2665   */\n  tag_23\n  jump\t// in\ntag_77:\n    /* \"#utility.yul\":2566:2665   */\n  swap2\n  pop\n    /* \"#utility.yul\":2389:2671   */\n  pop\n    /* \"#utility.yul\":2316:2671   */\n  swap3\n  swap2\n  pop\n  pop\n  jump\t// out\n    /* \"#utility.yul\":2677:3201   */\ntag_3:\n    /* \"#utility.yul\":2757:2763   */\n  0x00\n    /* \"#utility.yul\":2806:2808   */\n  0x20\n    /* \"#utility.yul\":2794:2803   */\n  dup3\n    /* \"#utility.yul\":2785:2792   */\n  dup5\n    /* \"#utility.yul\":2781:2804   */\n  sub\n    /* \"#utility.yul\":2777:2809   */\n  slt\n    /* \"#utility.yul\":2774:2893   */\n  iszero\n  tag_79\n  jumpi\n    /* \"#utility.yul\":2812:2891   */\n  tag_80\n  tag_13\n  jump\t// in\ntag_80:\n    /* \"#utility.yul\":2774:2893   */\ntag_79:\n    /* \"#utility.yul\":2953:2954   */\n  0x00\n    /* \"#utility.yul\":2942:2951   */\n  dup3\n    /* \"#utility.yul\":2938:2955   */\n  add\n    /* \"#utility.yul\":2932:2956   */\n  mload\n    /* \"#utility.yul\":2983:3001   */\n  0xffffffffffffffff\n    /* \"#utility.yul\":2975:2981   */\n  dup2\n    /* \"#utility.yul\":2972:3002   */\n  gt\n    /* \"#utility.yul\":2969:3086   */\n  iszero\n  tag_81\n  jumpi\n    /* \"#utility.yul\":3005:3084   */\n  tag_82\n  tag_14\n  jump\t// in\ntag_82:\n    /* \"#utility.yul\":2969:3086   */\ntag_81:\n    /* \"#utility.yul\":3110:3184   */\n  tag_83\n    /* \"#utility.yul\":3176:3183   */\n  dup5\n    /* \"#utility.yul\":3167:3173   */\n  dup3\n    /* \"#utility.yul\":3156:3165   */\n  dup6\n    /* \"#utility.yul\":3152:3174   */\n  add\n    /* \"#utility.yul\":3110:3184   */\n  tag_24\n  jump\t// in\ntag_83:\n    /* \"#utility.yul\":3100:3184   */\n  swap2\n  pop\n    /* \"#utility.yul\":2903:3194   */\n  pop\n    /* \"#utility.yul\":2677:3201   */\n  swap3\n  swap2\n  pop\n  pop\n  jump\t// out\n    /* \"#utility.yul\":3207:3306   */\ntag_25:\n    /* \"#utility.yul\":3259:3265   */\n  0x00\n    /* \"#utility.yul\":3293:3298   */\n  dup2\n    /* \"#utility.yul\":3287:3299   */\n  mload\n    /* \"#utility.yul\":3277:3299   */\n  swap1\n  pop\n    /* \"#utility.yul\":3207:3306   */\n  swap2\n  swap1\n  pop\n  jump\t// out\n    /* \"#utility.yul\":3312:3492   */\ntag_26:\n    /* \"#utility.yul\":3360:3437   */\n  0x4e487b7100000000000000000000000000000000000000000000000000000000\n    /* \"#utility.yul\":3357:3358   */\n  0x00\n    /* \"#utility.yul\":3350:3438   */\n  mstore\n    /* \"#utility.yul\":3457:3461   */\n  0x22\n    /* \"#utility.yul\":3454:3455   */\n  0x04\n    /* \"#utility.yul\":3447:3462   */\n  mstore\n    /* \"#utility.yul\":3481:3485   */\n  0x24\n    /* \"#utility.yul\":3478:3479   */\n  0x00\n    /* \"#utility.yul\":3471:3486   */\n  revert\n    /* \"#utility.yul\":3498:3818   */\ntag_27:\n    /* \"#utility.yul\":3542:3548   */\n  0x00\n    /* \"#utility.yul\":3579:3580   */\n  0x02\n    /* \"#utility.yul\":3573:3577   */\n  dup3\n    /* \"#utility.yul\":3569:3581   */\n  div\n    /* \"#utility.yul\":3559:3581   */\n  swap1\n  pop\n    /* \"#utility.yul\":3626:3627   */\n  0x01\n    /* \"#utility.yul\":3620:3624   */\n  dup3\n    /* \"#utility.yul\":3616:3628   */\n  and\n    /* \"#utility.yul\":3647:3665   */\n  dup1\n    /* \"#utility.yul\":3637:3718   */\n  tag_87\n  jumpi\n    /* \"#utility.yul\":3703:3707   */\n  0x7f\n    /* \"#utility.yul\":3695:3701   */\n  dup3\n    /* \"#utility.yul\":3691:3708   */\n  and\n    /* \"#utility.yul\":3681:3708   */\n  swap2\n  pop\n    /* \"#utility.yul\":3637:3718   */\ntag_87:\n    /* \"#utility.yul\":3765:3767   */\n  0x20\n    /* \"#utility.yul\":3757:3763   */\n  dup3\n    /* \"#utility.yul\":3754:3768   */\n  lt\n    /* \"#utility.yul\":3734:3752   */\n  dup2\n    /* \"#utility.yul\":3731:3769   */\n  sub\n    /* \"#utility.yul\":3728:3812   */\n  tag_88\n  jumpi\n    /* \"#utility.yul\":3784:3802   */\n  tag_89\n  tag_26\n  jump\t// in\ntag_89:\n    /* \"#utility.yul\":3728:3812   */\ntag_88:\n    /* \"#utility.yul\":3549:3818   */\n  pop\n    /* \"#utility.yul\":3498:3818   */\n  swap2\n  swap1\n  pop\n  jump\t// out\n    /* \"#utility.yul\":3824:3965   */\ntag_28:\n    /* \"#utility.yul\":3873:3877   */\n  0x00\n    /* \"#utility.yul\":3896:3899   */\n  dup2\n    /* \"#utility.yul\":3888:3899   */\n  swap1\n  pop\n    /* \"#utility.yul\":3919:3922   */\n  dup2\n    /* \"#utility.yul\":3916:3917   */\n  0x00\n    /* \"#utility.yul\":3909:3923   */\n  mstore\n    /* \"#utility.yul\":3953:3957   */\n  0x20\n    /* \"#utility.yul\":3950:3951   */\n  0x00\n    /* \"#utility.yul\":3940:3958   */\n  keccak256\n    /* \"#utility.yul\":3932:3958   */\n  swap1\n  pop\n    /* \"#utility.yul\":3824:3965   */\n  swap2\n  swap1\n  pop\n  jump\t// out\n    /* \"#utility.yul\":3971:4064   */\ntag_29:\n    /* \"#utility.yul\":4008:4014   */\n  0x00\n    /* \"#utility.yul\":4055:4057   */\n  0x20\n    /* \"#utility.yul\":4050:4052   */\n  0x1f\n    /* \"#utility.yul\":4043:4048   */\n  dup4\n    /* \"#utility.yul\":4039:4053   */\n  add\n    /* \"#utility.yul\":4035:4058   */\n  div\n    /* \"#utility.yul\":4025:4058   */\n  swap1\n  pop\n    /* \"#utility.yul\":3971:4064   */\n  swap2\n  swap1\n  pop\n  jump\t// out\n    /* \"#utility.yul\":4070:4177   */\ntag_30:\n    /* \"#utility.yul\":4114:4122   */\n  0x00\n    /* \"#utility.yul\":4164:4169   */\n  dup3\n    /* \"#utility.yul\":4158:4162   */\n  dup3\n    /* \"#utility.yul\":4154:4170   */\n  shl\n    /* \"#utility.yul\":4133:4170   */\n  swap1\n  pop\n    /* \"#utility.yul\":4070:4177   */\n  swap3\n  swap2\n  pop\n  pop\n  jump\t// out\n    /* \"#utility.yul\":4183:4576   */\ntag_31:\n    /* \"#utility.yul\":4252:4258   */\n  0x00\n    /* \"#utility.yul\":4302:4303   */\n  0x08\n    /* \"#utility.yul\":4290:4300   */\n  dup4\n    /* \"#utility.yul\":4286:4304   */\n  mul\n    /* \"#utility.yul\":4325:4422   */\n  tag_94\n    /* \"#utility.yul\":4355:4421   */\n  0xffffffffffffffffffffffffffffffffffffffffffffffffffffffffffffffff\n    /* \"#utility.yul\":4344:4353   */\n  dup3\n    /* \"#utility.yul\":4325:4422   */\n  tag_30\n  jump\t// in\ntag_94:\n    /* \"#utility.yul\":4443:4482   */\n  tag_95\n    /* \"#utility.yul\":4473:4481   */\n  dup7\n    /* \"#utility.yul\":4462:4471   */\n  dup4\n    /* \"#utility.yul\":4443:4482   */\n  tag_30\n  jump\t// in\ntag_95:\n    /* \"#utility.yul\":4431:4482   */\n  swap6\n  pop\n    /* \"#utility.yul\":4515:4519   */\n  dup1\n    /* \"#utility.yul\":4511:4520   */\n  not\n    /* \"#utility.yul\":4504:4509   */\n  dup5\n    /* \"#utility.yul\":4500:4521   */\n  and\n    /* \"#utility.yul\":4491:4521   */\n  swap4\n  pop\n    /* \"#utility.yul\":4564:4568   */\n  dup1\n    /* \"#utility.yul\":4554:4562   */\n  dup7\n    /* \"#utility.yul\":4550:4569   */\n  and\n    /* \"#utility.yul\":4543:4548   */\n  dup5\n    /* \"#utility.yul\":4540:4570   */\n  or\n    /* \"#utility.yul\":4530:4570   */\n  swap3\n  pop\n    /* \"#utility.yul\":4259:4576   */\n  pop\n  pop\n    /* \"#utility.yul\":4183:4576   */\n  swap4\n  swap3\n  pop\n  pop\n  pop\n  jump\t// out\n    /* \"#utility.yul\":4582:4659   */\ntag_32:\n    /* \"#utility.yul\":4619:4626   */\n  0x00\n    /* \"#utility.yul\":4648:4653   */\n  dup2\n    /* \"#utility.yul\":4637:4653   */\n  swap1\n  pop\n    /* \"#utility.yul\":4582:4659   */\n  swap2\n  swap1\n  pop\n  jump\t// out\n    /* \"#utility.yul\":4665:4725   */\ntag_33:\n    /* \"#utility.yul\":4693:4696   */\n  0x00\n    /* \"#utility.yul\":4714:4719   */\n  dup2\n    /* \"#utility.yul\":4707:4719   */\n  swap1\n  pop\n    /* \"#utility.yul\":4665:4725   */\n  swap2\n  swap1\n  pop\n  jump\t// out\n    /* \"#utility.yul\":4731:4873   */\ntag_34:\n    /* \"#utility.yul\":4781:4790   */\n  0x00\n    /* \"#utility.yul\":4814:4867   */\n  tag_99\n    /* \"#utility.yul\":4832:4866   */\n  tag_100\n    /* \"#utility.yul\":4841:4865   */\n  tag_101\n    /* \"#utility.yul\":4859:4864   */\n  dup5\n    /* \"#utility.yul\":4841:4865   */\n  tag_32\n  jump\t// in\ntag_101:\n    /* \"#utility.yul\":4832:4866   */\n  tag_33\n  jump\t// in\ntag_100:\n    /* \"#utility.yul\":4814:4867   */\n  tag_32\n  jump\t// in\ntag_99:\n    /* \"#utility.yul\":4801:4867   */\n  swap1\n  pop\n    /* \"#utility.yul\":4731:4873   */\n  swap2\n  swap1\n  pop\n  jump\t// out\n    /* \"#utility.yul\":4879:4954   */\ntag_35:\n    /* \"#utility.yul\":4922:4925   */\n  0x00\n    /* \"#utility.yul\":4943:4948   */\n  dup2\n    /* \"#utility.yul\":4936:4948   */\n  swap1\n  pop\n    /* \"#utility.yul\":4879:4954   */\n  swap2\n  swap1\n  pop\n  jump\t// out\n    /* \"#utility.yul\":4960:5229   */\ntag_36:\n    /* \"#utility.yul\":5070:5109   */\n  tag_104\n    /* \"#utility.yul\":5101:5108   */\n  dup4\n    /* \"#utility.yul\":5070:5109   */\n  tag_34\n  jump\t// in\ntag_104:\n    /* \"#utility.yul\":5131:5222   */\n  tag_105\n    /* \"#utility.yul\":5180:5221   */\n  tag_106\n    /* \"#utility.yul\":5204:5220   */\n  dup3\n    /* \"#utility.yul\":5180:5221   */\n  tag_35\n  jump\t// in\ntag_106:\n    /* \"#utility.yul\":5172:5178   */\n  dup5\n    /* \"#utility.yul\":5165:5169   */\n  dup5\n    /* \"#utility.yul\":5159:5170   */\n  sload\n    /* \"#utility.yul\":5131:5222   */\n  tag_31\n  jump\t// in\ntag_105:\n    /* \"#utility.yul\":5125:5129   */\n  dup3\n    /* \"#utility.yul\":5118:5223   */\n  sstore\n    /* \"#utility.yul\":5036:5229   */\n  pop\n    /* \"#utility.yul\":4960:5229   */\n  pop\n  pop\n  pop\n  jump\t// out\n    /* \"#utility.yul\":5235:5308   */\ntag_37:\n    /* \"#utility.yul\":5280:5283   */\n  0x00\n    /* \"#utility.yul\":5235:5308   */\n  swap1\n  jump\t// out\n    /* \"#utility.yul\":5314:5503   */\ntag_38:\n    /* \"#utility.yul\":5391:5423   */\n  tag_109\n  tag_37\n  jump\t// in\ntag_109:\n    /* \"#utility.yul\":5432:5497   */\n  tag_110\n    /* \"#utility.yul\":5490:5496   */\n  dup2\n    /* \"#utility.yul\":5482:5488   */\n  dup5\n    /* \"#utility.yul\":5476:5480   */\n  dup5\n    /* \"#utility.yul\":5432:5497   */\n  tag_36\n  jump\t// in\ntag_110:\n    /* \"#utility.yul\":5367:5503   */\n  pop\n    /* \"#utility.yul\":5314:5503   */\n  pop\n  pop\n  jump\t// out\n    /* \"#utility.yul\":5509:5695   */\ntag_39:\n    /* \"#utility.yul\":5569:5689   */\ntag_112:\n    /* \"#utility.yul\":5586:5589   */\n  dup2\n    /* \"#utility.yul\":5579:5584   */\n  dup2\n    /* \"#utility.yul\":5576:5590   */\n  lt\n    /* \"#utility.yul\":5569:5689   */\n  iszero\n  tag_114\n  jumpi\n    /* \"#utility.yul\":5640:5679   */\n  tag_115\n    /* \"#utility.yul\":5677:5678   */\n  0x00\n    /* \"#utility.yul\":5670:5675   */\n  dup3\n    /* \"#utility.yul\":5640:5679   */\n  tag_38\n  jump\t// in\ntag_115:\n    /* \"#utility.yul\":5613:5614   */\n  0x01\n    /* \"#utility.yul\":5606:5611   */\n  dup2\n    /* \"#utility.yul\":5602:5615   */\n  add\n    /* \"#utility.yul\":5593:5615   */\n  swap1\n  pop\n    /* \"#utility.yul\":5569:5689   */\n  jump(tag_112)\ntag_114:\n    /* \"#utility.yul\":5509:5695   */\n  pop\n  pop\n  jump\t// out\n    /* \"#utility.yul\":5701:6244   */\ntag_40:\n    /* \"#utility.yul\":5802:5804   */\n  0x1f\n    /* \"#utility.yul\":5797:5800   */\n  dup3\n    /* \"#utility.yul\":5794:5805   */\n  gt\n    /* \"#utility.yul\":5791:6237   */\n  iszero\n  tag_117\n  jumpi\n    /* \"#utility.yul\":5836:5874   */\n  tag_118\n    /* \"#utility.yul\":5868:5873   */\n  dup2\n    /* \"#utility.yul\":5836:5874   */\n  tag_28\n  jump\t// in\ntag_118:\n    /* \"#utility.yul\":5920:5949   */\n  tag_119\n    /* \"#utility.yul\":5938:5948   */\n  dup5\n    /* \"#utility.yul\":5920:5949   */\n  tag_29\n  jump\t// in\ntag_119:\n    /* \"#utility.yul\":5910:5918   */\n  dup2\n    /* \"#utility.yul\":5906:5950   */\n  add\n    /* \"#utility.yul\":6103:6105   */\n  0x20\n    /* \"#utility.yul\":6091:6101   */\n  dup6\n    /* \"#utility.yul\":6088:6106   */\n  lt\n    /* \"#utility.yul\":6085:6134   */\n  iszero\n  tag_120\n  jumpi\n    /* \"#utility.yul\":6124:6132   */\n  dup2\n    /* \"#utility.yul\":6109:6132   */\n  swap1\n  pop\n    /* \"#utility.yul\":6085:6134   */\ntag_120:\n    /* \"#utility.yul\":6147:6227   */\n  tag_121\n    /* \"#utility.yul\":6203:6225   */\n  tag_122\n    /* \"#utility.yul\":6221:6224   */\n  dup6\n    /* \"#utility.yul\":6203:6225   */\n  tag_29\n  jump\t// in\ntag_122:\n    /* \"#utility.yul\":6193:6201   */\n  dup4\n    /* \"#utility.yul\":6189:6226   */\n  add\n    /* \"#utility.yul\":6176:6187   */\n  dup3\n    /* \"#utility.yul\":6147:6227   */\n  tag_39\n  jump\t// in\ntag_121:\n    /* \"#utility.yul\":5806:6237   */\n  pop\n  pop\n    /* \"#utility.yul\":5791:6237   */\ntag_117:\n    /* \"#utility.yul\":5701:6244   */\n  pop\n  pop\n  pop\n  jump\t// out\n    /* \"#utility.yul\":6250:6367   */\ntag_41:\n    /* \"#utility.yul\":6304:6312   */\n  0x00\n    /* \"#utility.yul\":6354:6359   */\n  dup3\n    /* \"#utility.yul\":6348:6352   */\n  dup3\n    /* \"#utility.yul\":6344:6360   */\n  shr\n    /* \"#utility.yul\":6323:6360   */\n  swap1\n  pop\n    /* \"#utility.yul\":6250:6367   */\n  swap3\n  swap2\n  pop\n  pop\n  jump\t// out\n    /* \"#utility.yul\":6373:6542   */\ntag_42:\n    /* \"#utility.yul\":6417:6423   */\n  0x00\n    /* \"#utility.yul\":6450:6501   */\n  tag_125\n    /* \"#utility.yul\":6498:6499   */\n  0x00\n    /* \"#utility.yul\":6494:6500   */\n  not\n    /* \"#utility.yul\":6486:6491   */\n  dup5\n    /* \"#utility.yul\":6483:6484   */\n  0x08\n    /* \"#utility.yul\":6479:6492   */\n  mul\n    /* \"#utility.yul\":6450:6501   */\n  tag_41\n  jump\t// in\ntag_125:\n    /* \"#utility.yul\":6446:6502   */\n  not\n    /* \"#utility.yul\":6531:6535   */\n  dup1\n    /* \"#utility.yul\":6525:6529   */\n  dup4\n    /* \"#utility.yul\":6521:6536   */\n  and\n    /* \"#utility.yul\":6511:6536   */\n  swap2\n  pop\n    /* \"#utility.yul\":6424:6542   */\n  pop\n    /* \"#utility.yul\":6373:6542   */\n  swap3\n  swap2\n  pop\n  pop\n  jump\t// out\n    /* \"#utility.yul\":6547:6842   */\ntag_43:\n    /* \"#utility.yul\":6623:6627   */\n  0x00\n    /* \"#utility.yul\":6769:6798   */\n  tag_127\n    /* \"#utility.yul\":6794:6797   */\n  dup4\n    /* \"#utility.yul\":6788:6792   */\n  dup4\n    /* \"#utility.yul\":6769:6798   */\n  tag_42\n  jump\t// in\ntag_127:\n    /* \"#utility.yul\":6761:6798   */\n  swap2\n  pop\n    /* \"#utility.yul\":6831:6834   */\n  dup3\n    /* \"#utility.yul\":6828:6829   */\n  0x02\n    /* \"#utility.yul\":6824:6835   */\n  mul\n    /* \"#utility.yul\":6818:6822   */\n  dup3\n    /* \"#utility.yul\":6815:6836   */\n  or\n    /* \"#utility.yul\":6807:6836   */\n  swap1\n  pop\n    /* \"#utility.yul\":6547:6842   */\n  swap3\n  swap2\n  pop\n  pop\n  jump\t// out\n    /* \"#utility.yul\":6847:8242   */\ntag_8:\n    /* \"#utility.yul\":6964:7001   */\n  tag_129\n    /* \"#utility.yul\":6997:7000   */\n  dup3\n    /* \"#utility.yul\":6964:7001   */\n  tag_25\n  jump\t// in\ntag_129:\n    /* \"#utility.yul\":7066:7084   */\n  0xffffffffffffffff\n    /* \"#utility.yul\":7058:7064   */\n  dup2\n    /* \"#utility.yul\":7055:7085   */\n  gt\n    /* \"#utility.yul\":7052:7108   */\n  iszero\n  tag_130\n  jumpi\n    /* \"#utility.yul\":7088:7106   */\n  tag_131\n  tag_18\n  jump\t// in\ntag_131:\n    /* \"#utility.yul\":7052:7108   */\ntag_130:\n    /* \"#utility.yul\":7132:7170   */\n  tag_132\n    /* \"#utility.yul\":7164:7168   */\n  dup3\n    /* \"#utility.yul\":7158:7169   */\n  sload\n    /* \"#utility.yul\":7132:7170   */\n  tag_27\n  jump\t// in\ntag_132:\n    /* \"#utility.yul\":7217:7284   */\n  tag_133\n    /* \"#utility.yul\":7277:7283   */\n  dup3\n    /* \"#utility.yul\":7269:7275   */\n  dup3\n    /* \"#utility.yul\":7263:7267   */\n  dup6\n    /* \"#utility.yul\":7217:7284   */\n  tag_40\n  jump\t// in\ntag_133:\n    /* \"#utility.yul\":7311:7312   */\n  0x00\n    /* \"#utility.yul\":7335:7339   */\n  0x20\n    /* \"#utility.yul\":7322:7339   */\n  swap1\n  pop\n    /* \"#utility.yul\":7367:7369   */\n  0x1f\n    /* \"#utility.yul\":7359:7365   */\n  dup4\n    /* \"#utility.yul\":7356:7370   */\n  gt\n    /* \"#utility.yul\":7384:7385   */\n  0x01\n    /* \"#utility.yul\":7379:7997   */\n  dup2\n  eq\n  tag_135\n  jumpi\n    /* \"#utility.yul\":8041:8042   */\n  0x00\n    /* \"#utility.yul\":8058:8064   */\n  dup5\n    /* \"#utility.yul\":8055:8132   */\n  iszero\n  tag_136\n  jumpi\n    /* \"#utility.yul\":8107:8116   */\n  dup3\n    /* \"#utility.yul\":8102:8105   */\n  dup8\n    /* \"#utility.yul\":8098:8117   */\n  add\n    /* \"#utility.yul\":8092:8118   */\n  mload\n    /* \"#utility.yul\":8083:8118   */\n  swap1\n  pop\n    /* \"#utility.yul\":8055:8132   */\ntag_136:\n    /* \"#utility.yul\":8158:8225   */\n  tag_137\n    /* \"#utility.yul\":8218:8224   */\n  dup6\n    /* \"#utility.yul\":8211:8216   */\n  dup3\n    /* \"#utility.yul\":8158:8225   */\n  tag_43\n  jump\t// in\ntag_137:\n    /* \"#utility.yul\":8152:8156   */\n  dup7\n    /* \"#utility.yul\":8145:8226   */\n  sstore\n    /* \"#utility.yul\":8014:8236   */\n  pop\n    /* \"#utility.yul\":7349:8236   */\n  jump(tag_134)\n    /* \"#utility.yul\":7379:7997   */\ntag_135:\n    /* \"#utility.yul\":7431:7435   */\n  0x1f\n    /* \"#utility.yul\":7427:7436   */\n  not\n    /* \"#utility.yul\":7419:7425   */\n  dup5\n    /* \"#utility.yul\":7415:7437   */\n  and\n    /* \"#utility.yul\":7465:7502   */\n  tag_138\n    /* \"#utility.yul\":7497:7501   */\n  dup7\n    /* \"#utility.yul\":7465:7502   */\n  tag_28\n  jump\t// in\ntag_138:\n    /* \"#utility.yul\":7524:7525   */\n  0x00\n    /* \"#utility.yul\":7538:7746   */\ntag_139:\n    /* \"#utility.yul\":7552:7559   */\n  dup3\n    /* \"#utility.yul\":7549:7550   */\n  dup2\n    /* \"#utility.yul\":7546:7560   */\n  lt\n    /* \"#utility.yul\":7538:7746   */\n  iszero\n  tag_141\n  jumpi\n    /* \"#utility.yul\":7631:7640   */\n  dup5\n    /* \"#utility.yul\":7626:7629   */\n  dup10\n    /* \"#utility.yul\":7622:7641   */\n  add\n    /* \"#utility.yul\":7616:7642   */\n  mload\n    /* \"#utility.yul\":7608:7614   */\n  dup3\n    /* \"#utility.yul\":7601:7643   */\n  sstore\n    /* \"#utility.yul\":7682:7683   */\n  0x01\n    /* \"#utility.yul\":7674:7680   */\n  dup3\n    /* \"#utility.yul\":7670:7684   */\n  add\n    /* \"#utility.yul\":7660:7684   */\n  swap2\n  pop\n    /* \"#utility.yul\":7729:7731   */\n  0x20\n    /* \"#utility.yul\":7718:7727   */\n  dup6\n    /* \"#utility.yul\":7714:7732   */\n  add\n    /* \"#utility.yul\":7701:7732   */\n  swap5\n  pop\n    /* \"#utility.yul\":7575:7579   */\n  0x20\n    /* \"#utility.yul\":7572:7573   */\n  dup2\n    /* \"#utility.yul\":7568:7580   */\n  add\n    /* \"#utility.yul\":7563:7580   */\n  swap1\n  pop\n    /* \"#utility.yul\":7538:7746   */\n  jump(tag_139)\ntag_141:\n    /* \"#utility.yul\":7774:7780   */\n  dup7\n    /* \"#utility.yul\":7765:7772   */\n  dup4\n    /* \"#utility.yul\":7762:7781   */\n  lt\n    /* \"#utility.yul\":7759:7938   */\n  iszero\n  tag_142\n  jumpi\n    /* \"#utility.yul\":7832:7841   */\n  dup5\n    /* \"#utility.yul\":7827:7830   */\n  dup10\n    /* \"#utility.yul\":7823:7842   */\n  add\n    /* \"#utility.yul\":7817:7843   */\n  mload\n    /* \"#utility.yul\":7875:7923   */\n  tag_143\n    /* \"#utility.yul\":7917:7921   */\n  0x1f\n    /* \"#utility.yul\":7909:7915   */\n  dup10\n    /* \"#utility.yul\":7905:7922   */\n  and\n    /* \"#utility.yul\":7894:7903   */\n  dup3\n    /* \"#utility.yul\":7875:7923   */\n  tag_42\n  jump\t// in\ntag_143:\n    /* \"#utility.yul\":7867:7873   */\n  dup4\n    /* \"#utility.yul\":7860:7924   */\n  sstore\n    /* \"#utility.yul\":7782:7938   */\n  pop\n    /* \"#utility.yul\":7759:7938   */\ntag_142:\n    /* \"#utility.yul\":7984:7985   */\n  0x01\n    /* \"#utility.yul\":7980:7981   */\n  0x02\n    /* \"#utility.yul\":7972:7978   */\n  dup9\n    /* \"#utility.yul\":7968:7982   */\n  mul\n    /* \"#utility.yul\":7964:7986   */\n  add\n    /* \"#utility.yul\":7958:7962   */\n  dup9\n    /* \"#utility.yul\":7951:7987   */\n  sstore\n    /* \"#utility.yul\":7386:7997   */\n  pop\n  pop\n  pop\n    /* \"#utility.yul\":7349:8236   */\ntag_134:\n  pop\n    /* \"#utility.yul\":6939:8242   */\n  pop\n  pop\n  pop\n    /* \"#utility.yul\":6847:8242   */\n  pop\n  pop\n  jump\t// out\n    /* \"#utility.yul\":8248:8428   */\ntag_44:\n    /* \"#utility.yul\":8296:8373   */\n  0x4e487b7100000000000000000000000000000000000000000000000000000000\n    /* \"#utility.yul\":8293:8294   */\n  0x00\n    /* \"#utility.yul\":8286:8374   */\n  mstore\n    /* \"#utility.yul\":8393:8397   */\n  0x11\n    /* \"#utility.yul\":8390:8391   */\n  0x04\n    /* \"#utility.yul\":8383:8398   */\n  mstore\n    /* \"#utility.yul\":8417:8421   */\n  0x24\n    /* \"#utility.yul\":8414:8415   */\n  0x00\n    /* \"#utility.yul\":8407:8422   */\n  revert\n    /* \"#utility.yul\":8434:8625   */\ntag_10:\n    /* \"#utility.yul\":8474:8477   */\n  0x00\n    /* \"#utility.yul\":8493:8513   */\n  tag_146\n    /* \"#utility.yul\":8511:8512   */\n  dup3\n    /* \"#utility.yul\":8493:8513   */\n  tag_32\n  jump\t// in\ntag_146:\n    /* \"#utility.yul\":8488:8513   */\n  swap2\n  pop\n    /* \"#utility.yul\":8527:8547   */\n  tag_147\n    /* \"#utility.yul\":8545:8546   */\n  dup4\n    /* \"#utility.yul\":8527:8547   */\n  tag_32\n  jump\t// in\ntag_147:\n    /* \"#utility.yul\":8522:8547   */\n  swap3\n  pop\n    /* \"#utility.yul\":8570:8571   */\n  dup3\n    /* \"#utility.yul\":8567:8568   */\n  dup3\n    /* \"#utility.yul\":8563:8572   */\n  add\n    /* \"#utility.yul\":8556:8572   */\n  swap1\n  pop\n    /* \"#utility.yul\":8591:8594   */\n  dup1\n    /* \"#utility.yul\":8588:8589   */\n  dup3\n    /* \"#utility.yul\":8585:8595   */\n  gt\n    /* \"#utility.yul\":8582:8618   */\n  iszero\n  tag_148\n  jumpi\n    /* \"#utility.yul\":8598:8616   */\n  tag_149\n  tag_44\n  jump\t// in\ntag_149:\n    /* \"#utility.yul\":8582:8618   */\ntag_148:\n    /* \"#utility.yul\":8434:8625   */\n  swap3\n  swap2\n  pop\n  pop\n  jump\t// out\n    /* \"Voting.sol\":663:2815  contract Voting {... */\ntag_11:\n  dataSize(sub_0)\n  dup1\n  dataOffset(sub_0)\n  0x00\n  codecopy\n  0x00\n  return\nstop\n\nsub_0: assembly {\n        /* \"Voting.sol\":663:2815  contract Voting {... */\n      mstore(0x40, 0x80)\n      callvalue\n      dup1\n      iszero\n      tag_1\n      jumpi\n      0x00\n      dup1\n      revert\n    tag_1:\n      pop\n      jumpi(tag_2, lt(calldatasize, 0x04))\n      shr(0xe0, calldataload(0x00))\n      dup1\n      0x4f8dd50d\n      eq\n      tag_3\n      jumpi\n      dup1\n      0x5e8cd9f0\n      eq\n      tag_4\n      jumpi\n      dup1\n      0xa76b4cf6\n      eq\n      tag_5\n      jumpi\n      dup1\n      0xa8db2543\n      eq\n      tag_6\n      jumpi\n      dup1\n      0xf5de91df\n      eq\n      tag_7\n      jumpi\n    tag_2:\n      0x00\n      dup1\n      revert\n        /* \"Voting.sol\":943:958  Case[] public c */\n    tag_3:\n      tag_8\n      0x04\n      dup1\n      calldatasize\n      sub\n      dup2\n      add\n      swap1\n      tag_9\n      swap2\n      swap1\n      tag_10\n      jump\t// in\n    tag_9:\n      tag_11\n      jump\t// in\n    tag_8:\n      mload(0x40)\n      tag_12\n      swap6\n      swap5\n      swap4\n      swap3\n      swap2\n      swap1\n      tag_13\n      jump\t// in\n    tag_12:\n      mload(0x40)\n      dup1\n      swap2\n      sub\n      swap1\n      return\n        /* \"Voting.sol\":2389:2812  function approveCase(uint256 index) public {... */\n    tag_4:\n      tag_14\n      0x04\n      dup1\n      calldatasize\n      sub\n      dup2\n      add\n      swap1\n      tag_15\n      swap2\n      swap1\n      tag_10\n      jump\t// in\n    tag_15:\n      tag_16\n      jump\t// in\n    tag_14:\n      stop\n        /* \"Voting.sol\":1308:1589  function createCaso(string memory _nameCase) public {... */\n    tag_5:\n      tag_17\n      0x04\n      dup1\n      calldatasize\n      sub\n      dup2\n      add\n      swap1\n      tag_18\n      swap2\n      swap1\n      tag_19\n      jump\t// in\n    tag_18:\n      tag_20\n      jump\t// in\n    tag_17:\n      stop\n        /* \"Voting.sol\":1618:1981  function votingAcceptCase(uint256 index) public timeCase {... */\n    tag_6:\n      tag_21\n      0x04\n      dup1\n      calldatasize\n      sub\n      dup2\n      add\n      swap1\n      tag_22\n      swap2\n      swap1\n      tag_10\n      jump\t// in\n    tag_22:\n      tag_23\n      jump\t// in\n    tag_21:\n      stop\n        /* \"Voting.sol\":2014:2381  function votingDenyCase(uint256 index) public timeCase {... */\n    tag_7:\n      tag_24\n      0x04\n      dup1\n      calldatasize\n      sub\n      dup2\n      add\n      swap1\n      tag_25\n      swap2\n      swap1\n      tag_10\n      jump\t// in\n    tag_25:\n      tag_26\n      jump\t// in\n    tag_24:\n      stop\n        /* \"Voting.sol\":943:958  Case[] public c */\n    tag_11:\n      0x00\n      dup2\n      dup2\n      sload\n      dup2\n      lt\n      tag_27\n      jumpi\n      0x00\n      dup1\n      revert\n    tag_27:\n      swap1\n      0x00\n      mstore\n      keccak256(0x00, 0x20)\n      swap1\n      0x06\n      mul\n      add\n      0x00\n      swap2\n      pop\n      swap1\n      pop\n      dup1\n      0x00\n      add\n      dup1\n      sload\n      tag_29\n      swap1\n      tag_30\n      jump\t// in\n    tag_29:\n      dup1\n      0x1f\n      add\n      0x20\n      dup1\n      swap2\n      div\n      mul\n      0x20\n      add\n      mload(0x40)\n      swap1\n      dup2\n      add\n      0x40\n      mstore\n      dup1\n      swap3\n      swap2\n      swap1\n      dup2\n      dup2\n      mstore\n      0x20\n      add\n      dup3\n      dup1\n      sload\n      tag_31\n      swap1\n      tag_30\n      jump\t// in\n    tag_31:\n      dup1\n      iszero\n      tag_32\n      jumpi\n      dup1\n      0x1f\n      lt\n      tag_33\n      jumpi\n      0x0100\n      dup1\n      dup4\n      sload\n      div\n      mul\n      dup4\n      mstore\n      swap2\n      0x20\n      add\n      swap2\n      jump(tag_32)\n    tag_33:\n      dup3\n      add\n      swap2\n      swap1\n      0x00\n      mstore\n      keccak256(0x00, 0x20)\n      swap1\n    tag_34:\n      dup2\n      sload\n      dup2\n      mstore\n      swap1\n      0x01\n      add\n      swap1\n      0x20\n      add\n      dup1\n      dup4\n      gt\n      tag_34\n      jumpi\n      dup3\n      swap1\n      sub\n      0x1f\n      and\n      dup3\n      add\n      swap2\n    tag_32:\n      pop\n      pop\n      pop\n      pop\n      pop\n      swap1\n      dup1\n      0x01\n      add\n      sload\n      swap1\n      dup1\n      0x02\n      add\n      sload\n      swap1\n      dup1\n      0x03\n      add\n      0x00\n      swap1\n      sload\n      swap1\n      0x0100\n      exp\n      swap1\n      div\n      0xff\n      and\n      swap1\n      dup1\n      0x03\n      add\n      0x01\n      swap1\n      sload\n      swap1\n      0x0100\n      exp\n      swap1\n      div\n      0xff\n      and\n      swap1\n      pop\n      dup6\n      jump\t// out\n        /* \"Voting.sol\":2389:2812  function approveCase(uint256 index) public {... */\n    tag_16:\n        /* \"Voting.sol\":2469:2476  timeMax */\n      sload(0x01)\n        /* \"Voting.sol\":2451:2466  block.timestamp */\n      timestamp\n        /* \"Voting.sol\":2451:2476  block.timestamp > timeMax */\n      gt\n        /* \"Voting.sol\":2443:2497  require(block.timestamp > timeMax, \"Case in progress\") */\n      tag_36\n      jumpi\n      mload(0x40)\n      0x08c379a000000000000000000000000000000000000000000000000000000000\n      dup2\n      mstore\n      0x04\n      add\n      tag_37\n      swap1\n      tag_38\n      jump\t// in\n    tag_37:\n      mload(0x40)\n      dup1\n      swap2\n      sub\n      swap1\n      revert\n    tag_36:\n        /* \"Voting.sol\":2508:2531  Case storage verifyCase */\n      0x00\n        /* \"Voting.sol\":2534:2535  c */\n      dup1\n        /* \"Voting.sol\":2536:2541  index */\n      dup3\n        /* \"Voting.sol\":2534:2542  c[index] */\n      dup2\n      sload\n      dup2\n      lt\n      tag_39\n      jumpi\n      tag_40\n      tag_41\n      jump\t// in\n    tag_40:\n    tag_39:\n      swap1\n      0x00\n      mstore\n      keccak256(0x00, 0x20)\n      swap1\n      0x06\n      mul\n      add\n        /* \"Voting.sol\":2508:2542  Case storage verifyCase = c[index] */\n      swap1\n      pop\n        /* \"Voting.sol\":2585:2595  verifyCase */\n      dup1\n        /* \"Voting.sol\":2585:2610  verifyCase.countNotAccept */\n      0x02\n      add\n      sload\n        /* \"Voting.sol\":2559:2569  verifyCase */\n      dup2\n        /* \"Voting.sol\":2559:2581  verifyCase.countAccept */\n      0x01\n      add\n      sload\n        /* \"Voting.sol\":2559:2610  verifyCase.countAccept >= verifyCase.countNotAccept */\n      lt\n        /* \"Voting.sol\":2555:2805  if (verifyCase.countAccept >= verifyCase.countNotAccept) {... */\n      tag_43\n      jumpi\n        /* \"Voting.sol\":2648:2652  true */\n      0x01\n        /* \"Voting.sol\":2627:2637  verifyCase */\n      dup2\n        /* \"Voting.sol\":2627:2645  verifyCase.approve */\n      0x03\n      add\n      0x00\n        /* \"Voting.sol\":2627:2652  verifyCase.approve = true */\n      0x0100\n      exp\n      dup2\n      sload\n      dup2\n      0xff\n      mul\n      not\n      and\n      swap1\n      dup4\n      iszero\n      iszero\n      mul\n      or\n      swap1\n      sstore\n      pop\n        /* \"Voting.sol\":2689:2693  true */\n      0x01\n        /* \"Voting.sol\":2667:2677  verifyCase */\n      dup2\n        /* \"Voting.sol\":2667:2686  verifyCase.finished */\n      0x03\n      add\n      0x01\n        /* \"Voting.sol\":2667:2693  verifyCase.finished = true */\n      0x0100\n      exp\n      dup2\n      sload\n      dup2\n      0xff\n      mul\n      not\n      and\n      swap1\n      dup4\n      iszero\n      iszero\n      mul\n      or\n      swap1\n      sstore\n      pop\n        /* \"Voting.sol\":2555:2805  if (verifyCase.countAccept >= verifyCase.countNotAccept) {... */\n      jump(tag_44)\n    tag_43:\n        /* \"Voting.sol\":2747:2752  false */\n      0x00\n        /* \"Voting.sol\":2726:2736  verifyCase */\n      dup2\n        /* \"Voting.sol\":2726:2744  verifyCase.approve */\n      0x03\n      add\n      0x00\n        /* \"Voting.sol\":2726:2752  verifyCase.approve = false */\n      0x0100\n      exp\n      dup2\n      sload\n      dup2\n      0xff\n      mul\n      not\n      and\n      swap1\n      dup4\n      iszero\n      iszero\n      mul\n      or\n      swap1\n      sstore\n      pop\n        /* \"Voting.sol\":2789:2793  true */\n      0x01\n        /* \"Voting.sol\":2767:2777  verifyCase */\n      dup2\n        /* \"Voting.sol\":2767:2786  verifyCase.finished */\n      0x03\n      add\n      0x01\n        /* \"Voting.sol\":2767:2793  verifyCase.finished = true */\n      0x0100\n      exp\n      dup2\n      sload\n      dup2\n      0xff\n      mul\n      not\n      and\n      swap1\n      dup4\n      iszero\n      iszero\n      mul\n      or\n      swap1\n      sstore\n      pop\n        /* \"Voting.sol\":2555:2805  if (verifyCase.countAccept >= verifyCase.countNotAccept) {... */\n    tag_44:\n        /* \"Voting.sol\":2432:2812  {... */\n      pop\n        /* \"Voting.sol\":2389:2812  function approveCase(uint256 index) public {... */\n      pop\n      jump\t// out\n        /* \"Voting.sol\":1308:1589  function createCaso(string memory _nameCase) public {... */\n    tag_20:\n        /* \"Voting.sol\":1371:1391  Case storage newCase */\n      0x00\n        /* \"Voting.sol\":1394:1395  c */\n      dup1\n        /* \"Voting.sol\":1394:1402  c.push() */\n      0x01\n      dup2\n      0x01\n      dup2\n      sload\n      add\n      dup1\n      dup3\n      sstore\n      dup1\n      swap2\n      pop\n      pop\n      sub\n      swap1\n      0x00\n      mstore\n      keccak256(0x00, 0x20)\n      swap1\n      0x06\n      mul\n      add\n        /* \"Voting.sol\":1371:1402  Case storage newCase = c.push() */\n      swap1\n      pop\n        /* \"Voting.sol\":1432:1441  _nameCase */\n      dup2\n        /* \"Voting.sol\":1413:1420  newCase */\n      dup2\n        /* \"Voting.sol\":1413:1429  newCase.nameCase */\n      0x00\n      add\n        /* \"Voting.sol\":1413:1441  newCase.nameCase = _nameCase */\n      swap1\n      dup2\n      tag_47\n      swap2\n      swap1\n      tag_48\n      jump\t// in\n    tag_47:\n      pop\n        /* \"Voting.sol\":1474:1475  0 */\n      0x00\n        /* \"Voting.sol\":1452:1459  newCase */\n      dup2\n        /* \"Voting.sol\":1452:1471  newCase.countAccept */\n      0x01\n      add\n        /* \"Voting.sol\":1452:1475  newCase.countAccept = 0 */\n      dup2\n      swap1\n      sstore\n      pop\n        /* \"Voting.sol\":1511:1512  0 */\n      0x00\n        /* \"Voting.sol\":1486:1493  newCase */\n      dup2\n        /* \"Voting.sol\":1486:1508  newCase.countNotAccept */\n      0x02\n      add\n        /* \"Voting.sol\":1486:1512  newCase.countNotAccept = 0 */\n      dup2\n      swap1\n      sstore\n      pop\n        /* \"Voting.sol\":1541:1546  false */\n      0x00\n        /* \"Voting.sol\":1523:1530  newCase */\n      dup2\n        /* \"Voting.sol\":1523:1538  newCase.approve */\n      0x03\n      add\n      0x00\n        /* \"Voting.sol\":1523:1546  newCase.approve = false */\n      0x0100\n      exp\n      dup2\n      sload\n      dup2\n      0xff\n      mul\n      not\n      and\n      swap1\n      dup4\n      iszero\n      iszero\n      mul\n      or\n      swap1\n      sstore\n      pop\n        /* \"Voting.sol\":1576:1581  false */\n      0x00\n        /* \"Voting.sol\":1557:1564  newCase */\n      dup2\n        /* \"Voting.sol\":1557:1573  newCase.finished */\n      0x03\n      add\n      0x01\n        /* \"Voting.sol\":1557:1581  newCase.finished = false */\n      0x0100\n      exp\n      dup2\n      sload\n      dup2\n      0xff\n      mul\n      not\n      and\n      swap1\n      dup4\n      iszero\n      iszero\n      mul\n      or\n      swap1\n      sstore\n      pop\n        /* \"Voting.sol\":1360:1589  {... */\n      pop\n        /* \"Voting.sol\":1308:1589  function createCaso(string memory _nameCase) public {... */\n      pop\n      jump\t// out\n        /* \"Voting.sol\":1618:1981  function votingAcceptCase(uint256 index) public timeCase {... */\n    tag_23:\n        /* \"Voting.sol\":1236:1243  timeMax */\n      sload(0x01)\n        /* \"Voting.sol\":1218:1233  block.timestamp */\n      timestamp\n        /* \"Voting.sol\":1218:1243  block.timestamp < timeMax */\n      lt\n        /* \"Voting.sol\":1210:1261  require(block.timestamp < timeMax, \"Time exceeded\") */\n      tag_50\n      jumpi\n      mload(0x40)\n      0x08c379a000000000000000000000000000000000000000000000000000000000\n      dup2\n      mstore\n      0x04\n      add\n      tag_51\n      swap1\n      tag_52\n      jump\t// in\n    tag_51:\n      mload(0x40)\n      dup1\n      swap2\n      sub\n      swap1\n      revert\n    tag_50:\n        /* \"Voting.sol\":1686:1712  Case storage newVotingCase */\n      0x00\n        /* \"Voting.sol\":1715:1716  c */\n      dup1\n        /* \"Voting.sol\":1717:1722  index */\n      dup3\n        /* \"Voting.sol\":1715:1723  c[index] */\n      dup2\n      sload\n      dup2\n      lt\n      tag_54\n      jumpi\n      tag_55\n      tag_41\n      jump\t// in\n    tag_55:\n    tag_54:\n      swap1\n      0x00\n      mstore\n      keccak256(0x00, 0x20)\n      swap1\n      0x06\n      mul\n      add\n        /* \"Voting.sol\":1686:1723  Case storage newVotingCase = c[index] */\n      swap1\n      pop\n        /* \"Voting.sol\":1743:1756  newVotingCase */\n      dup1\n        /* \"Voting.sol\":1743:1766  newVotingCase.approvers */\n      0x04\n      add\n        /* \"Voting.sol\":1743:1778  newVotingCase.approvers[msg.sender] */\n      0x00\n        /* \"Voting.sol\":1767:1777  msg.sender */\n      caller\n        /* \"Voting.sol\":1743:1778  newVotingCase.approvers[msg.sender] */\n      0xffffffffffffffffffffffffffffffffffffffff\n      and\n      0xffffffffffffffffffffffffffffffffffffffff\n      and\n      dup2\n      mstore\n      0x20\n      add\n      swap1\n      dup2\n      mstore\n      0x20\n      add\n      0x00\n      keccak256\n      0x00\n      swap1\n      sload\n      swap1\n      0x0100\n      exp\n      swap1\n      div\n      0xff\n      and\n        /* \"Voting.sol\":1742:1778  !newVotingCase.approvers[msg.sender] */\n      iszero\n        /* \"Voting.sol\":1734:1801  require(!newVotingCase.approvers[msg.sender], \"you already voting\") */\n      tag_57\n      jumpi\n      mload(0x40)\n      0x08c379a000000000000000000000000000000000000000000000000000000000\n      dup2\n      mstore\n      0x04\n      add\n      tag_58\n      swap1\n      tag_59\n      jump\t// in\n    tag_58:\n      mload(0x40)\n      dup1\n      swap2\n      sub\n      swap1\n      revert\n    tag_57:\n        /* \"Voting.sol\":1821:1834  newVotingCase */\n      dup1\n        /* \"Voting.sol\":1821:1847  newVotingCase.notApprovers */\n      0x05\n      add\n        /* \"Voting.sol\":1821:1859  newVotingCase.notApprovers[msg.sender] */\n      0x00\n        /* \"Voting.sol\":1848:1858  msg.sender */\n      caller\n        /* \"Voting.sol\":1821:1859  newVotingCase.notApprovers[msg.sender] */\n      0xffffffffffffffffffffffffffffffffffffffff\n      and\n      0xffffffffffffffffffffffffffffffffffffffff\n      and\n      dup2\n      mstore\n      0x20\n      add\n      swap1\n      dup2\n      mstore\n      0x20\n      add\n      0x00\n      keccak256\n      0x00\n      swap1\n      sload\n      swap1\n      0x0100\n      exp\n      swap1\n      div\n      0xff\n      and\n        /* \"Voting.sol\":1820:1859  !newVotingCase.notApprovers[msg.sender] */\n      iszero\n        /* \"Voting.sol\":1812:1882  require(!newVotingCase.notApprovers[msg.sender], \"you already voting\") */\n      tag_60\n      jumpi\n      mload(0x40)\n      0x08c379a000000000000000000000000000000000000000000000000000000000\n      dup2\n      mstore\n      0x04\n      add\n      tag_61\n      swap1\n      tag_59\n      jump\t// in\n    tag_61:\n      mload(0x40)\n      dup1\n      swap2\n      sub\n      swap1\n      revert\n    tag_60:\n        /* \"Voting.sol\":1931:1935  true */\n      0x01\n        /* \"Voting.sol\":1893:1906  newVotingCase */\n      dup2\n        /* \"Voting.sol\":1893:1916  newVotingCase.approvers */\n      0x04\n      add\n        /* \"Voting.sol\":1893:1928  newVotingCase.approvers[msg.sender] */\n      0x00\n        /* \"Voting.sol\":1917:1927  msg.sender */\n      caller\n        /* \"Voting.sol\":1893:1928  newVotingCase.approvers[msg.sender] */\n      0xffffffffffffffffffffffffffffffffffffffff\n      and\n      0xffffffffffffffffffffffffffffffffffffffff\n      and\n      dup2\n      mstore\n      0x20\n      add\n      swap1\n      dup2\n      mstore\n      0x20\n      add\n      0x00\n      keccak256\n      0x00\n        /* \"Voting.sol\":1893:1935  newVotingCase.approvers[msg.sender] = true */\n      0x0100\n      exp\n      dup2\n      sload\n      dup2\n      0xff\n      mul\n      not\n      and\n      swap1\n      dup4\n      iszero\n      iszero\n      mul\n      or\n      swap1\n      sstore\n      pop\n        /* \"Voting.sol\":1946:1959  newVotingCase */\n      dup1\n        /* \"Voting.sol\":1946:1971  newVotingCase.countAccept */\n      0x01\n      add\n      0x00\n        /* \"Voting.sol\":1946:1973  newVotingCase.countAccept++ */\n      dup2\n      sload\n      dup1\n      swap3\n      swap2\n      swap1\n      tag_62\n      swap1\n      tag_63\n      jump\t// in\n    tag_62:\n      swap2\n      swap1\n      pop\n      sstore\n      pop\n        /* \"Voting.sol\":1675:1981  {... */\n      pop\n        /* \"Voting.sol\":1618:1981  function votingAcceptCase(uint256 index) public timeCase {... */\n      pop\n      jump\t// out\n        /* \"Voting.sol\":2014:2381  function votingDenyCase(uint256 index) public timeCase {... */\n    tag_26:\n        /* \"Voting.sol\":1236:1243  timeMax */\n      sload(0x01)\n        /* \"Voting.sol\":1218:1233  block.timestamp */\n      timestamp\n        /* \"Voting.sol\":1218:1243  block.timestamp < timeMax */\n      lt\n        /* \"Voting.sol\":1210:1261  require(block.timestamp < timeMax, \"Time exceeded\") */\n      tag_65\n      jumpi\n      mload(0x40)\n      0x08c379a000000000000000000000000000000000000000000000000000000000\n      dup2\n      mstore\n      0x04\n      add\n      tag_66\n      swap1\n      tag_52\n      jump\t// in\n    tag_66:\n      mload(0x40)\n      dup1\n      swap2\n      sub\n      swap1\n      revert\n    tag_65:\n        /* \"Voting.sol\":2080:2106  Case storage newVotingCase */\n      0x00\n        /* \"Voting.sol\":2109:2110  c */\n      dup1\n        /* \"Voting.sol\":2111:2116  index */\n      dup3\n        /* \"Voting.sol\":2109:2117  c[index] */\n      dup2\n      sload\n      dup2\n      lt\n      tag_68\n      jumpi\n      tag_69\n      tag_41\n      jump\t// in\n    tag_69:\n    tag_68:\n      swap1\n      0x00\n      mstore\n      keccak256(0x00, 0x20)\n      swap1\n      0x06\n      mul\n      add\n        /* \"Voting.sol\":2080:2117  Case storage newVotingCase = c[index] */\n      swap1\n      pop\n        /* \"Voting.sol\":2137:2150  newVotingCase */\n      dup1\n        /* \"Voting.sol\":2137:2160  newVotingCase.approvers */\n      0x04\n      add\n        /* \"Voting.sol\":2137:2172  newVotingCase.approvers[msg.sender] */\n      0x00\n        /* \"Voting.sol\":2161:2171  msg.sender */\n      caller\n        /* \"Voting.sol\":2137:2172  newVotingCase.approvers[msg.sender] */\n      0xffffffffffffffffffffffffffffffffffffffff\n      and\n      0xffffffffffffffffffffffffffffffffffffffff\n      and\n      dup2\n      mstore\n      0x20\n      add\n      swap1\n      dup2\n      mstore\n      0x20\n      add\n      0x00\n      keccak256\n      0x00\n      swap1\n      sload\n      swap1\n      0x0100\n      exp\n      swap1\n      div\n      0xff\n      and\n        /* \"Voting.sol\":2136:2172  !newVotingCase.approvers[msg.sender] */\n      iszero\n        /* \"Voting.sol\":2128:2195  require(!newVotingCase.approvers[msg.sender], \"you already voting\") */\n      tag_71\n      jumpi\n      mload(0x40)\n      0x08c379a000000000000000000000000000000000000000000000000000000000\n      dup2\n      mstore\n      0x04\n      add\n      tag_72\n      swap1\n      tag_59\n      jump\t// in\n    tag_72:\n      mload(0x40)\n      dup1\n      swap2\n      sub\n      swap1\n      revert\n    tag_71:\n        /* \"Voting.sol\":2215:2228  newVotingCase */\n      dup1\n        /* \"Voting.sol\":2215:2241  newVotingCase.notApprovers */\n      0x05\n      add\n        /* \"Voting.sol\":2215:2253  newVotingCase.notApprovers[msg.sender] */\n      0x00\n        /* \"Voting.sol\":2242:2252  msg.sender */\n      caller\n        /* \"Voting.sol\":2215:2253  newVotingCase.notApprovers[msg.sender] */\n      0xffffffffffffffffffffffffffffffffffffffff\n      and\n      0xffffffffffffffffffffffffffffffffffffffff\n      and\n      dup2\n      mstore\n      0x20\n      add\n      swap1\n      dup2\n      mstore\n      0x20\n      add\n      0x00\n      keccak256\n      0x00\n      swap1\n      sload\n      swap1\n      0x0100\n      exp\n      swap1\n      div\n      0xff\n      and\n        /* \"Voting.sol\":2214:2253  !newVotingCase.notApprovers[msg.sender] */\n      iszero\n        /* \"Voting.sol\":2206:2276  require(!newVotingCase.notApprovers[msg.sender], \"you already voting\") */\n      tag_73\n      jumpi\n      mload(0x40)\n      0x08c379a000000000000000000000000000000000000000000000000000000000\n      dup2\n      mstore\n      0x04\n      add\n      tag_74\n      swap1\n      tag_59\n      jump\t// in\n    tag_74:\n      mload(0x40)\n      dup1\n      swap2\n      sub\n      swap1\n      revert\n    tag_73:\n        /* \"Voting.sol\":2328:2332  true */\n      0x01\n        /* \"Voting.sol\":2287:2300  newVotingCase */\n      dup2\n        /* \"Voting.sol\":2287:2313  newVotingCase.notApprovers */\n      0x05\n      add\n        /* \"Voting.sol\":2287:2325  newVotingCase.notApprovers[msg.sender] */\n      0x00\n        /* \"Voting.sol\":2314:2324  msg.sender */\n      caller\n        /* \"Voting.sol\":2287:2325  newVotingCase.notApprovers[msg.sender] */\n      0xffffffffffffffffffffffffffffffffffffffff\n      and\n      0xffffffffffffffffffffffffffffffffffffffff\n      and\n      dup2\n      mstore\n      0x20\n      add\n      swap1\n      dup2\n      mstore\n      0x20\n      add\n      0x00\n      keccak256\n      0x00\n        /* \"Voting.sol\":2287:2332  newVotingCase.notApprovers[msg.sender] = true */\n      0x0100\n      exp\n      dup2\n      sload\n      dup2\n      0xff\n      mul\n      not\n      and\n      swap1\n      dup4\n      iszero\n      iszero\n      mul\n      or\n      swap1\n      sstore\n      pop\n        /* \"Voting.sol\":2343:2356  newVotingCase */\n      dup1\n        /* \"Voting.sol\":2343:2371  newVotingCase.countNotAccept */\n      0x02\n      add\n      0x00\n        /* \"Voting.sol\":2343:2373  newVotingCase.countNotAccept++ */\n      dup2\n      sload\n      dup1\n      swap3\n      swap2\n      swap1\n      tag_75\n      swap1\n      tag_63\n      jump\t// in\n    tag_75:\n      swap2\n      swap1\n      pop\n      sstore\n      pop\n        /* \"Voting.sol\":2069:2381  {... */\n      pop\n        /* \"Voting.sol\":2014:2381  function votingDenyCase(uint256 index) public timeCase {... */\n      pop\n      jump\t// out\n        /* \"#utility.yul\":7:82   */\n    tag_76:\n        /* \"#utility.yul\":40:46   */\n      0x00\n        /* \"#utility.yul\":73:75   */\n      0x40\n        /* \"#utility.yul\":67:76   */\n      mload\n        /* \"#utility.yul\":57:76   */\n      swap1\n      pop\n        /* \"#utility.yul\":7:82   */\n      swap1\n      jump\t// out\n        /* \"#utility.yul\":88:205   */\n    tag_77:\n        /* \"#utility.yul\":197:198   */\n      0x00\n        /* \"#utility.yul\":194:195   */\n      dup1\n        /* \"#utility.yul\":187:199   */\n      revert\n        /* \"#utility.yul\":211:328   */\n    tag_78:\n        /* \"#utility.yul\":320:321   */\n      0x00\n        /* \"#utility.yul\":317:318   */\n      dup1\n        /* \"#utility.yul\":310:322   */\n      revert\n        /* \"#utility.yul\":334:411   */\n    tag_79:\n        /* \"#utility.yul\":371:378   */\n      0x00\n        /* \"#utility.yul\":400:405   */\n      dup2\n        /* \"#utility.yul\":389:405   */\n      swap1\n      pop\n        /* \"#utility.yul\":334:411   */\n      swap2\n      swap1\n      pop\n      jump\t// out\n        /* \"#utility.yul\":417:539   */\n    tag_80:\n        /* \"#utility.yul\":490:514   */\n      tag_128\n        /* \"#utility.yul\":508:513   */\n      dup2\n        /* \"#utility.yul\":490:514   */\n      tag_79\n      jump\t// in\n    tag_128:\n        /* \"#utility.yul\":483:488   */\n      dup2\n        /* \"#utility.yul\":480:515   */\n      eq\n        /* \"#utility.yul\":470:533   */\n      tag_129\n      jumpi\n        /* \"#utility.yul\":529:530   */\n      0x00\n        /* \"#utility.yul\":526:527   */\n      dup1\n        /* \"#utility.yul\":519:531   */\n      revert\n        /* \"#utility.yul\":470:533   */\n    tag_129:\n        /* \"#utility.yul\":417:539   */\n      pop\n      jump\t// out\n        /* \"#utility.yul\":545:684   */\n    tag_81:\n        /* \"#utility.yul\":591:596   */\n      0x00\n        /* \"#utility.yul\":629:635   */\n      dup2\n        /* \"#utility.yul\":616:636   */\n      calldataload\n        /* \"#utility.yul\":607:636   */\n      swap1\n      pop\n        /* \"#utility.yul\":645:678   */\n      tag_131\n        /* \"#utility.yul\":672:677   */\n      dup2\n        /* \"#utility.yul\":645:678   */\n      tag_80\n      jump\t// in\n    tag_131:\n        /* \"#utility.yul\":545:684   */\n      swap3\n      swap2\n      pop\n      pop\n      jump\t// out\n        /* \"#utility.yul\":690:1019   */\n    tag_10:\n        /* \"#utility.yul\":749:755   */\n      0x00\n        /* \"#utility.yul\":798:800   */\n      0x20\n        /* \"#utility.yul\":786:795   */\n      dup3\n        /* \"#utility.yul\":777:784   */\n      dup5\n        /* \"#utility.yul\":773:796   */\n      sub\n        /* \"#utility.yul\":769:801   */\n      slt\n        /* \"#utility.yul\":766:885   */\n      iszero\n      tag_133\n      jumpi\n        /* \"#utility.yul\":804:883   */\n      tag_134\n      tag_77\n      jump\t// in\n    tag_134:\n        /* \"#utility.yul\":766:885   */\n    tag_133:\n        /* \"#utility.yul\":924:925   */\n      0x00\n        /* \"#utility.yul\":949:1002   */\n      tag_135\n        /* \"#utility.yul\":994:1001   */\n      dup5\n        /* \"#utility.yul\":985:991   */\n      dup3\n        /* \"#utility.yul\":974:983   */\n      dup6\n        /* \"#utility.yul\":970:992   */\n      add\n        /* \"#utility.yul\":949:1002   */\n      tag_81\n      jump\t// in\n    tag_135:\n        /* \"#utility.yul\":939:1002   */\n      swap2\n      pop\n        /* \"#utility.yul\":895:1012   */\n      pop\n        /* \"#utility.yul\":690:1019   */\n      swap3\n      swap2\n      pop\n      pop\n      jump\t// out\n        /* \"#utility.yul\":1025:1124   */\n    tag_82:\n        /* \"#utility.yul\":1077:1083   */\n      0x00\n        /* \"#utility.yul\":1111:1116   */\n      dup2\n        /* \"#utility.yul\":1105:1117   */\n      mload\n        /* \"#utility.yul\":1095:1117   */\n      swap1\n      pop\n        /* \"#utility.yul\":1025:1124   */\n      swap2\n      swap1\n      pop\n      jump\t// out\n        /* \"#utility.yul\":1130:1299   */\n    tag_83:\n        /* \"#utility.yul\":1214:1225   */\n      0x00\n        /* \"#utility.yul\":1248:1254   */\n      dup3\n        /* \"#utility.yul\":1243:1246   */\n      dup3\n        /* \"#utility.yul\":1236:1255   */\n      mstore\n        /* \"#utility.yul\":1288:1292   */\n      0x20\n        /* \"#utility.yul\":1283:1286   */\n      dup3\n        /* \"#utility.yul\":1279:1293   */\n      add\n        /* \"#utility.yul\":1264:1293   */\n      swap1\n      pop\n        /* \"#utility.yul\":1130:1299   */\n      swap3\n      swap2\n      pop\n      pop\n      jump\t// out\n        /* \"#utility.yul\":1305:1551   */\n    tag_84:\n        /* \"#utility.yul\":1386:1387   */\n      0x00\n        /* \"#utility.yul\":1396:1509   */\n    tag_139:\n        /* \"#utility.yul\":1410:1416   */\n      dup4\n        /* \"#utility.yul\":1407:1408   */\n      dup2\n        /* \"#utility.yul\":1404:1417   */\n      lt\n        /* \"#utility.yul\":1396:1509   */\n      iszero\n      tag_141\n      jumpi\n        /* \"#utility.yul\":1495:1496   */\n      dup1\n        /* \"#utility.yul\":1490:1493   */\n      dup3\n        /* \"#utility.yul\":1486:1497   */\n      add\n        /* \"#utility.yul\":1480:1498   */\n      mload\n        /* \"#utility.yul\":1476:1477   */\n      dup2\n        /* \"#utility.yul\":1471:1474   */\n      dup5\n        /* \"#utility.yul\":1467:1478   */\n      add\n        /* \"#utility.yul\":1460:1499   */\n      mstore\n        /* \"#utility.yul\":1432:1434   */\n      0x20\n        /* \"#utility.yul\":1429:1430   */\n      dup2\n        /* \"#utility.yul\":1425:1435   */\n      add\n        /* \"#utility.yul\":1420:1435   */\n      swap1\n      pop\n        /* \"#utility.yul\":1396:1509   */\n      jump(tag_139)\n    tag_141:\n        /* \"#utility.yul\":1543:1544   */\n      0x00\n        /* \"#utility.yul\":1534:1540   */\n      dup5\n        /* \"#utility.yul\":1529:1532   */\n      dup5\n        /* \"#utility.yul\":1525:1541   */\n      add\n        /* \"#utility.yul\":1518:1545   */\n      mstore\n        /* \"#utility.yul\":1367:1551   */\n      pop\n        /* \"#utility.yul\":1305:1551   */\n      pop\n      pop\n      pop\n      jump\t// out\n        /* \"#utility.yul\":1557:1659   */\n    tag_85:\n        /* \"#utility.yul\":1598:1604   */\n      0x00\n        /* \"#utility.yul\":1649:1651   */\n      0x1f\n        /* \"#utility.yul\":1645:1652   */\n      not\n        /* \"#utility.yul\":1640:1642   */\n      0x1f\n        /* \"#utility.yul\":1633:1638   */\n      dup4\n        /* \"#utility.yul\":1629:1643   */\n      add\n        /* \"#utility.yul\":1625:1653   */\n      and\n        /* \"#utility.yul\":1615:1653   */\n      swap1\n      pop\n        /* \"#utility.yul\":1557:1659   */\n      swap2\n      swap1\n      pop\n      jump\t// out\n        /* \"#utility.yul\":1665:2042   */\n    tag_86:\n        /* \"#utility.yul\":1753:1756   */\n      0x00\n        /* \"#utility.yul\":1781:1820   */\n      tag_144\n        /* \"#utility.yul\":1814:1819   */\n      dup3\n        /* \"#utility.yul\":1781:1820   */\n      tag_82\n      jump\t// in\n    tag_144:\n        /* \"#utility.yul\":1836:1907   */\n      tag_145\n        /* \"#utility.yul\":1900:1906   */\n      dup2\n        /* \"#utility.yul\":1895:1898   */\n      dup6\n        /* \"#utility.yul\":1836:1907   */\n      tag_83\n      jump\t// in\n    tag_145:\n        /* \"#utility.yul\":1829:1907   */\n      swap4\n      pop\n        /* \"#utility.yul\":1916:1981   */\n      tag_146\n        /* \"#utility.yul\":1974:1980   */\n      dup2\n        /* \"#utility.yul\":1969:1972   */\n      dup6\n        /* \"#utility.yul\":1962:1966   */\n      0x20\n        /* \"#utility.yul\":1955:1960   */\n      dup7\n        /* \"#utility.yul\":1951:1967   */\n      add\n        /* \"#utility.yul\":1916:1981   */\n      tag_84\n      jump\t// in\n    tag_146:\n        /* \"#utility.yul\":2006:2035   */\n      tag_147\n        /* \"#utility.yul\":2028:2034   */\n      dup2\n        /* \"#utility.yul\":2006:2035   */\n      tag_85\n      jump\t// in\n    tag_147:\n        /* \"#utility.yul\":2001:2004   */\n      dup5\n        /* \"#utility.yul\":1997:2036   */\n      add\n        /* \"#utility.yul\":1990:2036   */\n      swap2\n      pop\n        /* \"#utility.yul\":1757:2042   */\n      pop\n        /* \"#utility.yul\":1665:2042   */\n      swap3\n      swap2\n      pop\n      pop\n      jump\t// out\n        /* \"#utility.yul\":2048:2166   */\n    tag_87:\n        /* \"#utility.yul\":2135:2159   */\n      tag_149\n        /* \"#utility.yul\":2153:2158   */\n      dup2\n        /* \"#utility.yul\":2135:2159   */\n      tag_79\n      jump\t// in\n    tag_149:\n        /* \"#utility.yul\":2130:2133   */\n      dup3\n        /* \"#utility.yul\":2123:2160   */\n      mstore\n        /* \"#utility.yul\":2048:2166   */\n      pop\n      pop\n      jump\t// out\n        /* \"#utility.yul\":2172:2262   */\n    tag_88:\n        /* \"#utility.yul\":2206:2213   */\n      0x00\n        /* \"#utility.yul\":2249:2254   */\n      dup2\n        /* \"#utility.yul\":2242:2255   */\n      iszero\n        /* \"#utility.yul\":2235:2256   */\n      iszero\n        /* \"#utility.yul\":2224:2256   */\n      swap1\n      pop\n        /* \"#utility.yul\":2172:2262   */\n      swap2\n      swap1\n      pop\n      jump\t// out\n        /* \"#utility.yul\":2268:2377   */\n    tag_89:\n        /* \"#utility.yul\":2349:2370   */\n      tag_152\n        /* \"#utility.yul\":2364:2369   */\n      dup2\n        /* \"#utility.yul\":2349:2370   */\n      tag_88\n      jump\t// in\n    tag_152:\n        /* \"#utility.yul\":2344:2347   */\n      dup3\n        /* \"#utility.yul\":2337:2371   */\n      mstore\n        /* \"#utility.yul\":2268:2377   */\n      pop\n      pop\n      jump\t// out\n        /* \"#utility.yul\":2383:3114   */\n    tag_13:\n        /* \"#utility.yul\":2596:2600   */\n      0x00\n        /* \"#utility.yul\":2634:2637   */\n      0xa0\n        /* \"#utility.yul\":2623:2632   */\n      dup3\n        /* \"#utility.yul\":2619:2638   */\n      add\n        /* \"#utility.yul\":2611:2638   */\n      swap1\n      pop\n        /* \"#utility.yul\":2684:2693   */\n      dup2\n        /* \"#utility.yul\":2678:2682   */\n      dup2\n        /* \"#utility.yul\":2674:2694   */\n      sub\n        /* \"#utility.yul\":2670:2671   */\n      0x00\n        /* \"#utility.yul\":2659:2668   */\n      dup4\n        /* \"#utility.yul\":2655:2672   */\n      add\n        /* \"#utility.yul\":2648:2695   */\n      mstore\n        /* \"#utility.yul\":2712:2790   */\n      tag_154\n        /* \"#utility.yul\":2785:2789   */\n      dup2\n        /* \"#utility.yul\":2776:2782   */\n      dup9\n        /* \"#utility.yul\":2712:2790   */\n      tag_86\n      jump\t// in\n    tag_154:\n        /* \"#utility.yul\":2704:2790   */\n      swap1\n      pop\n        /* \"#utility.yul\":2800:2872   */\n      tag_155\n        /* \"#utility.yul\":2868:2870   */\n      0x20\n        /* \"#utility.yul\":2857:2866   */\n      dup4\n        /* \"#utility.yul\":2853:2871   */\n      add\n        /* \"#utility.yul\":2844:2850   */\n      dup8\n        /* \"#utility.yul\":2800:2872   */\n      tag_87\n      jump\t// in\n    tag_155:\n        /* \"#utility.yul\":2882:2954   */\n      tag_156\n        /* \"#utility.yul\":2950:2952   */\n      0x40\n        /* \"#utility.yul\":2939:2948   */\n      dup4\n        /* \"#utility.yul\":2935:2953   */\n      add\n        /* \"#utility.yul\":2926:2932   */\n      dup7\n        /* \"#utility.yul\":2882:2954   */\n      tag_87\n      jump\t// in\n    tag_156:\n        /* \"#utility.yul\":2964:3030   */\n      tag_157\n        /* \"#utility.yul\":3026:3028   */\n      0x60\n        /* \"#utility.yul\":3015:3024   */\n      dup4\n        /* \"#utility.yul\":3011:3029   */\n      add\n        /* \"#utility.yul\":3002:3008   */\n      dup6\n        /* \"#utility.yul\":2964:3030   */\n      tag_89\n      jump\t// in\n    tag_157:\n        /* \"#utility.yul\":3040:3107   */\n      tag_158\n        /* \"#utility.yul\":3102:3105   */\n      0x80\n        /* \"#utility.yul\":3091:3100   */\n      dup4\n        /* \"#utility.yul\":3087:3106   */\n      add\n        /* \"#utility.yul\":3078:3084   */\n      dup5\n        /* \"#utility.yul\":3040:3107   */\n      tag_89\n      jump\t// in\n    tag_158:\n        /* \"#utility.yul\":2383:3114   */\n      swap7\n      swap6\n      pop\n      pop\n      pop\n      pop\n      pop\n      pop\n      jump\t// out\n        /* \"#utility.yul\":3120:3237   */\n    tag_90:\n        /* \"#utility.yul\":3229:3230   */\n      0x00\n        /* \"#utility.yul\":3226:3227   */\n      dup1\n        /* \"#utility.yul\":3219:3231   */\n      revert\n        /* \"#utility.yul\":3243:3360   */\n    tag_91:\n        /* \"#utility.yul\":3352:3353   */\n      0x00\n        /* \"#utility.yul\":3349:3350   */\n      dup1\n        /* \"#utility.yul\":3342:3354   */\n      revert\n        /* \"#utility.yul\":3366:3546   */\n    tag_92:\n        /* \"#utility.yul\":3414:3491   */\n      0x4e487b7100000000000000000000000000000000000000000000000000000000\n        /* \"#utility.yul\":3411:3412   */\n      0x00\n        /* \"#utility.yul\":3404:3492   */\n      mstore\n        /* \"#utility.yul\":3511:3515   */\n      0x41\n        /* \"#utility.yul\":3508:3509   */\n      0x04\n        /* \"#utility.yul\":3501:3516   */\n      mstore\n        /* \"#utility.yul\":3535:3539   */\n      0x24\n        /* \"#utility.yul\":3532:3533   */\n      0x00\n        /* \"#utility.yul\":3525:3540   */\n      revert\n        /* \"#utility.yul\":3552:3833   */\n    tag_93:\n        /* \"#utility.yul\":3635:3662   */\n      tag_163\n        /* \"#utility.yul\":3657:3661   */\n      dup3\n        /* \"#utility.yul\":3635:3662   */\n      tag_85\n      jump\t// in\n    tag_163:\n        /* \"#utility.yul\":3627:3633   */\n      dup2\n        /* \"#utility.yul\":3623:3663   */\n      add\n        /* \"#utility.yul\":3765:3771   */\n      dup2\n        /* \"#utility.yul\":3753:3763   */\n      dup2\n        /* \"#utility.yul\":3750:3772   */\n      lt\n        /* \"#utility.yul\":3729:3747   */\n      0xffffffffffffffff\n        /* \"#utility.yul\":3717:3727   */\n      dup3\n        /* \"#utility.yul\":3714:3748   */\n      gt\n        /* \"#utility.yul\":3711:3773   */\n      or\n        /* \"#utility.yul\":3708:3796   */\n      iszero\n      tag_164\n      jumpi\n        /* \"#utility.yul\":3776:3794   */\n      tag_165\n      tag_92\n      jump\t// in\n    tag_165:\n        /* \"#utility.yul\":3708:3796   */\n    tag_164:\n        /* \"#utility.yul\":3816:3826   */\n      dup1\n        /* \"#utility.yul\":3812:3814   */\n      0x40\n        /* \"#utility.yul\":3805:3827   */\n      mstore\n        /* \"#utility.yul\":3595:3833   */\n      pop\n        /* \"#utility.yul\":3552:3833   */\n      pop\n      pop\n      jump\t// out\n        /* \"#utility.yul\":3839:3968   */\n    tag_94:\n        /* \"#utility.yul\":3873:3879   */\n      0x00\n        /* \"#utility.yul\":3900:3920   */\n      tag_167\n      tag_76\n      jump\t// in\n    tag_167:\n        /* \"#utility.yul\":3890:3920   */\n      swap1\n      pop\n        /* \"#utility.yul\":3929:3962   */\n      tag_168\n        /* \"#utility.yul\":3957:3961   */\n      dup3\n        /* \"#utility.yul\":3949:3955   */\n      dup3\n        /* \"#utility.yul\":3929:3962   */\n      tag_93\n      jump\t// in\n    tag_168:\n        /* \"#utility.yul\":3839:3968   */\n      swap2\n      swap1\n      pop\n      jump\t// out\n        /* \"#utility.yul\":3974:4282   */\n    tag_95:\n        /* \"#utility.yul\":4036:4040   */\n      0x00\n        /* \"#utility.yul\":4126:4144   */\n      0xffffffffffffffff\n        /* \"#utility.yul\":4118:4124   */\n      dup3\n        /* \"#utility.yul\":4115:4145   */\n      gt\n        /* \"#utility.yul\":4112:4168   */\n      iszero\n      tag_170\n      jumpi\n        /* \"#utility.yul\":4148:4166   */\n      tag_171\n      tag_92\n      jump\t// in\n    tag_171:\n        /* \"#utility.yul\":4112:4168   */\n    tag_170:\n        /* \"#utility.yul\":4186:4215   */\n      tag_172\n        /* \"#utility.yul\":4208:4214   */\n      dup3\n        /* \"#utility.yul\":4186:4215   */\n      tag_85\n      jump\t// in\n    tag_172:\n        /* \"#utility.yul\":4178:4215   */\n      swap1\n      pop\n        /* \"#utility.yul\":4270:4274   */\n      0x20\n        /* \"#utility.yul\":4264:4268   */\n      dup2\n        /* \"#utility.yul\":4260:4275   */\n      add\n        /* \"#utility.yul\":4252:4275   */\n      swap1\n      pop\n        /* \"#utility.yul\":3974:4282   */\n      swap2\n      swap1\n      pop\n      jump\t// out\n        /* \"#utility.yul\":4288:4434   */\n    tag_96:\n        /* \"#utility.yul\":4385:4391   */\n      dup3\n        /* \"#utility.yul\":4380:4383   */\n      dup2\n        /* \"#utility.yul\":4375:4378   */\n      dup4\n        /* \"#utility.yul\":4362:4392   */\n      calldatacopy\n        /* \"#utility.yul\":4426:4427   */\n      0x00\n        /* \"#utility.yul\":4417:4423   */\n      dup4\n        /* \"#utility.yul\":4412:4415   */\n      dup4\n        /* \"#utility.yul\":4408:4424   */\n      add\n        /* \"#utility.yul\":4401:4428   */\n      mstore\n        /* \"#utility.yul\":4288:4434   */\n      pop\n      pop\n      pop\n      jump\t// out\n        /* \"#utility.yul\":4440:4865   */\n    tag_97:\n        /* \"#utility.yul\":4518:4523   */\n      0x00\n        /* \"#utility.yul\":4543:4609   */\n      tag_175\n        /* \"#utility.yul\":4559:4608   */\n      tag_176\n        /* \"#utility.yul\":4601:4607   */\n      dup5\n        /* \"#utility.yul\":4559:4608   */\n      tag_95\n      jump\t// in\n    tag_176:\n        /* \"#utility.yul\":4543:4609   */\n      tag_94\n      jump\t// in\n    tag_175:\n        /* \"#utility.yul\":4534:4609   */\n      swap1\n      pop\n        /* \"#utility.yul\":4632:4638   */\n      dup3\n        /* \"#utility.yul\":4625:4630   */\n      dup2\n        /* \"#utility.yul\":4618:4639   */\n      mstore\n        /* \"#utility.yul\":4670:4674   */\n      0x20\n        /* \"#utility.yul\":4663:4668   */\n      dup2\n        /* \"#utility.yul\":4659:4675   */\n      add\n        /* \"#utility.yul\":4708:4711   */\n      dup5\n        /* \"#utility.yul\":4699:4705   */\n      dup5\n        /* \"#utility.yul\":4694:4697   */\n      dup5\n        /* \"#utility.yul\":4690:4706   */\n      add\n        /* \"#utility.yul\":4687:4712   */\n      gt\n        /* \"#utility.yul\":4684:4796   */\n      iszero\n      tag_177\n      jumpi\n        /* \"#utility.yul\":4715:4794   */\n      tag_178\n      tag_91\n      jump\t// in\n    tag_178:\n        /* \"#utility.yul\":4684:4796   */\n    tag_177:\n        /* \"#utility.yul\":4805:4859   */\n      tag_179\n        /* \"#utility.yul\":4852:4858   */\n      dup5\n        /* \"#utility.yul\":4847:4850   */\n      dup3\n        /* \"#utility.yul\":4842:4845   */\n      dup6\n        /* \"#utility.yul\":4805:4859   */\n      tag_96\n      jump\t// in\n    tag_179:\n        /* \"#utility.yul\":4524:4865   */\n      pop\n        /* \"#utility.yul\":4440:4865   */\n      swap4\n      swap3\n      pop\n      pop\n      pop\n      jump\t// out\n        /* \"#utility.yul\":4885:5225   */\n    tag_98:\n        /* \"#utility.yul\":4941:4946   */\n      0x00\n        /* \"#utility.yul\":4990:4993   */\n      dup3\n        /* \"#utility.yul\":4983:4987   */\n      0x1f\n        /* \"#utility.yul\":4975:4981   */\n      dup4\n        /* \"#utility.yul\":4971:4988   */\n      add\n        /* \"#utility.yul\":4967:4994   */\n      slt\n        /* \"#utility.yul\":4957:5079   */\n      tag_181\n      jumpi\n        /* \"#utility.yul\":4998:5077   */\n      tag_182\n      tag_90\n      jump\t// in\n    tag_182:\n        /* \"#utility.yul\":4957:5079   */\n    tag_181:\n        /* \"#utility.yul\":5115:5121   */\n      dup2\n        /* \"#utility.yul\":5102:5122   */\n      calldataload\n        /* \"#utility.yul\":5140:5219   */\n      tag_183\n        /* \"#utility.yul\":5215:5218   */\n      dup5\n        /* \"#utility.yul\":5207:5213   */\n      dup3\n        /* \"#utility.yul\":5200:5204   */\n      0x20\n        /* \"#utility.yul\":5192:5198   */\n      dup7\n        /* \"#utility.yul\":5188:5205   */\n      add\n        /* \"#utility.yul\":5140:5219   */\n      tag_97\n      jump\t// in\n    tag_183:\n        /* \"#utility.yul\":5131:5219   */\n      swap2\n      pop\n        /* \"#utility.yul\":4947:5225   */\n      pop\n        /* \"#utility.yul\":4885:5225   */\n      swap3\n      swap2\n      pop\n      pop\n      jump\t// out\n        /* \"#utility.yul\":5231:5740   */\n    tag_19:\n        /* \"#utility.yul\":5300:5306   */\n      0x00\n        /* \"#utility.yul\":5349:5351   */\n      0x20\n        /* \"#utility.yul\":5337:5346   */\n      dup3\n        /* \"#utility.yul\":5328:5335   */\n      dup5\n        /* \"#utility.yul\":5324:5347   */\n      sub\n        /* \"#utility.yul\":5320:5352   */\n      slt\n        /* \"#utility.yul\":5317:5436   */\n      iszero\n      tag_185\n      jumpi\n        /* \"#utility.yul\":5355:5434   */\n      tag_186\n      tag_77\n      jump\t// in\n    tag_186:\n        /* \"#utility.yul\":5317:5436   */\n    tag_185:\n        /* \"#utility.yul\":5503:5504   */\n      0x00\n        /* \"#utility.yul\":5492:5501   */\n      dup3\n        /* \"#utility.yul\":5488:5505   */\n      add\n        /* \"#utility.yul\":5475:5506   */\n      calldataload\n        /* \"#utility.yul\":5533:5551   */\n      0xffffffffffffffff\n        /* \"#utility.yul\":5525:5531   */\n      dup2\n        /* \"#utility.yul\":5522:5552   */\n      gt\n        /* \"#utility.yul\":5519:5636   */\n      iszero\n      tag_187\n      jumpi\n        /* \"#utility.yul\":5555:5634   */\n      tag_188\n      tag_78\n      jump\t// in\n    tag_188:\n        /* \"#utility.yul\":5519:5636   */\n    tag_187:\n        /* \"#utility.yul\":5660:5723   */\n      tag_189\n        /* \"#utility.yul\":5715:5722   */\n      dup5\n        /* \"#utility.yul\":5706:5712   */\n      dup3\n        /* \"#utility.yul\":5695:5704   */\n      dup6\n        /* \"#utility.yul\":5691:5713   */\n      add\n        /* \"#utility.yul\":5660:5723   */\n      tag_98\n      jump\t// in\n    tag_189:\n        /* \"#utility.yul\":5650:5723   */\n      swap2\n      pop\n        /* \"#utility.yul\":5446:5733   */\n      pop\n        /* \"#utility.yul\":5231:5740   */\n      swap3\n      swap2\n      pop\n      pop\n      jump\t// out\n        /* \"#utility.yul\":5746:5926   */\n    tag_99:\n        /* \"#utility.yul\":5794:5871   */\n      0x4e487b7100000000000000000000000000000000000000000000000000000000\n        /* \"#utility.yul\":5791:5792   */\n      0x00\n        /* \"#utility.yul\":5784:5872   */\n      mstore\n        /* \"#utility.yul\":5891:5895   */\n      0x22\n        /* \"#utility.yul\":5888:5889   */\n      0x04\n        /* \"#utility.yul\":5881:5896   */\n      mstore\n        /* \"#utility.yul\":5915:5919   */\n      0x24\n        /* \"#utility.yul\":5912:5913   */\n      0x00\n        /* \"#utility.yul\":5905:5920   */\n      revert\n        /* \"#utility.yul\":5932:6252   */\n    tag_30:\n        /* \"#utility.yul\":5976:5982   */\n      0x00\n        /* \"#utility.yul\":6013:6014   */\n      0x02\n        /* \"#utility.yul\":6007:6011   */\n      dup3\n        /* \"#utility.yul\":6003:6015   */\n      div\n        /* \"#utility.yul\":5993:6015   */\n      swap1\n      pop\n        /* \"#utility.yul\":6060:6061   */\n      0x01\n        /* \"#utility.yul\":6054:6058   */\n      dup3\n        /* \"#utility.yul\":6050:6062   */\n      and\n        /* \"#utility.yul\":6081:6099   */\n      dup1\n        /* \"#utility.yul\":6071:6152   */\n      tag_192\n      jumpi\n        /* \"#utility.yul\":6137:6141   */\n      0x7f\n        /* \"#utility.yul\":6129:6135   */\n      dup3\n        /* \"#utility.yul\":6125:6142   */\n      and\n        /* \"#utility.yul\":6115:6142   */\n      swap2\n      pop\n        /* \"#utility.yul\":6071:6152   */\n    tag_192:\n        /* \"#utility.yul\":6199:6201   */\n      0x20\n        /* \"#utility.yul\":6191:6197   */\n      dup3\n        /* \"#utility.yul\":6188:6202   */\n      lt\n        /* \"#utility.yul\":6168:6186   */\n      dup2\n        /* \"#utility.yul\":6165:6203   */\n      sub\n        /* \"#utility.yul\":6162:6246   */\n      tag_193\n      jumpi\n        /* \"#utility.yul\":6218:6236   */\n      tag_194\n      tag_99\n      jump\t// in\n    tag_194:\n        /* \"#utility.yul\":6162:6246   */\n    tag_193:\n        /* \"#utility.yul\":5983:6252   */\n      pop\n        /* \"#utility.yul\":5932:6252   */\n      swap2\n      swap1\n      pop\n      jump\t// out\n        /* \"#utility.yul\":6258:6424   */\n    tag_100:\n        /* \"#utility.yul\":6398:6416   */\n      0x4361736520696e2070726f677265737300000000000000000000000000000000\n        /* \"#utility.yul\":6394:6395   */\n      0x00\n        /* \"#utility.yul\":6386:6392   */\n      dup3\n        /* \"#utility.yul\":6382:6396   */\n      add\n        /* \"#utility.yul\":6375:6417   */\n      mstore\n        /* \"#utility.yul\":6258:6424   */\n      pop\n      jump\t// out\n        /* \"#utility.yul\":6430:6796   */\n    tag_101:\n        /* \"#utility.yul\":6572:6575   */\n      0x00\n        /* \"#utility.yul\":6593:6660   */\n      tag_197\n        /* \"#utility.yul\":6657:6659   */\n      0x10\n        /* \"#utility.yul\":6652:6655   */\n      dup4\n        /* \"#utility.yul\":6593:6660   */\n      tag_83\n      jump\t// in\n    tag_197:\n        /* \"#utility.yul\":6586:6660   */\n      swap2\n      pop\n        /* \"#utility.yul\":6669:6762   */\n      tag_198\n        /* \"#utility.yul\":6758:6761   */\n      dup3\n        /* \"#utility.yul\":6669:6762   */\n      tag_100\n      jump\t// in\n    tag_198:\n        /* \"#utility.yul\":6787:6789   */\n      0x20\n        /* \"#utility.yul\":6782:6785   */\n      dup3\n        /* \"#utility.yul\":6778:6790   */\n      add\n        /* \"#utility.yul\":6771:6790   */\n      swap1\n      pop\n        /* \"#utility.yul\":6430:6796   */\n      swap2\n      swap1\n      pop\n      jump\t// out\n        /* \"#utility.yul\":6802:7221   */\n    tag_38:\n        /* \"#utility.yul\":6968:6972   */\n      0x00\n        /* \"#utility.yul\":7006:7008   */\n      0x20\n        /* \"#utility.yul\":6995:7004   */\n      dup3\n        /* \"#utility.yul\":6991:7009   */\n      add\n        /* \"#utility.yul\":6983:7009   */\n      swap1\n      pop\n        /* \"#utility.yul\":7055:7064   */\n      dup2\n        /* \"#utility.yul\":7049:7053   */\n      dup2\n        /* \"#utility.yul\":7045:7065   */\n      sub\n        /* \"#utility.yul\":7041:7042   */\n      0x00\n        /* \"#utility.yul\":7030:7039   */\n      dup4\n        /* \"#utility.yul\":7026:7043   */\n      add\n        /* \"#utility.yul\":7019:7066   */\n      mstore\n        /* \"#utility.yul\":7083:7214   */\n      tag_200\n        /* \"#utility.yul\":7209:7213   */\n      dup2\n        /* \"#utility.yul\":7083:7214   */\n      tag_101\n      jump\t// in\n    tag_200:\n        /* \"#utility.yul\":7075:7214   */\n      swap1\n      pop\n        /* \"#utility.yul\":6802:7221   */\n      swap2\n      swap1\n      pop\n      jump\t// out\n        /* \"#utility.yul\":7227:7407   */\n    tag_41:\n        /* \"#utility.yul\":7275:7352   */\n      0x4e487b7100000000000000000000000000000000000000000000000000000000\n        /* \"#utility.yul\":7272:7273   */\n      0x00\n        /* \"#utility.yul\":7265:7353   */\n      mstore\n        /* \"#utility.yul\":7372:7376   */\n      0x32\n        /* \"#utility.yul\":7369:7370   */\n      0x04\n        /* \"#utility.yul\":7362:7377   */\n      mstore\n        /* \"#utility.yul\":7396:7400   */\n      0x24\n        /* \"#utility.yul\":7393:7394   */\n      0x00\n        /* \"#utility.yul\":7386:7401   */\n      revert\n        /* \"#utility.yul\":7413:7554   */\n    tag_102:\n        /* \"#utility.yul\":7462:7466   */\n      0x00\n        /* \"#utility.yul\":7485:7488   */\n      dup2\n        /* \"#utility.yul\":7477:7488   */\n      swap1\n      pop\n        /* \"#utility.yul\":7508:7511   */\n      dup2\n        /* \"#utility.yul\":7505:7506   */\n      0x00\n        /* \"#utility.yul\":7498:7512   */\n      mstore\n        /* \"#utility.yul\":7542:7546   */\n      0x20\n        /* \"#utility.yul\":7539:7540   */\n      0x00\n        /* \"#utility.yul\":7529:7547   */\n      keccak256\n        /* \"#utility.yul\":7521:7547   */\n      swap1\n      pop\n        /* \"#utility.yul\":7413:7554   */\n      swap2\n      swap1\n      pop\n      jump\t// out\n        /* \"#utility.yul\":7560:7653   */\n    tag_103:\n        /* \"#utility.yul\":7597:7603   */\n      0x00\n        /* \"#utility.yul\":7644:7646   */\n      0x20\n        /* \"#utility.yul\":7639:7641   */\n      0x1f\n        /* \"#utility.yul\":7632:7637   */\n      dup4\n        /* \"#utility.yul\":7628:7642   */\n      add\n        /* \"#utility.yul\":7624:7647   */\n      div\n        /* \"#utility.yul\":7614:7647   */\n      swap1\n      pop\n        /* \"#utility.yul\":7560:7653   */\n      swap2\n      swap1\n      pop\n      jump\t// out\n        /* \"#utility.yul\":7659:7766   */\n    tag_104:\n        /* \"#utility.yul\":7703:7711   */\n      0x00\n        /* \"#utility.yul\":7753:7758   */\n      dup3\n        /* \"#utility.yul\":7747:7751   */\n      dup3\n        /* \"#utility.yul\":7743:7759   */\n      shl\n        /* \"#utility.yul\":7722:7759   */\n      swap1\n      pop\n        /* \"#utility.yul\":7659:7766   */\n      swap3\n      swap2\n      pop\n      pop\n      jump\t// out\n        /* \"#utility.yul\":7772:8165   */\n    tag_105:\n        /* \"#utility.yul\":7841:7847   */\n      0x00\n        /* \"#utility.yul\":7891:7892   */\n      0x08\n        /* \"#utility.yul\":7879:7889   */\n      dup4\n        /* \"#utility.yul\":7875:7893   */\n      mul\n        /* \"#utility.yul\":7914:8011   */\n      tag_206\n        /* \"#utility.yul\":7944:8010   */\n      0xffffffffffffffffffffffffffffffffffffffffffffffffffffffffffffffff\n        /* \"#utility.yul\":7933:7942   */\n      dup3\n        /* \"#utility.yul\":7914:8011   */\n      tag_104\n      jump\t// in\n    tag_206:\n        /* \"#utility.yul\":8032:8071   */\n      tag_207\n        /* \"#utility.yul\":8062:8070   */\n      dup7\n        /* \"#utility.yul\":8051:8060   */\n      dup4\n        /* \"#utility.yul\":8032:8071   */\n      tag_104\n      jump\t// in\n    tag_207:\n        /* \"#utility.yul\":8020:8071   */\n      swap6\n      pop\n        /* \"#utility.yul\":8104:8108   */\n      dup1\n        /* \"#utility.yul\":8100:8109   */\n      not\n        /* \"#utility.yul\":8093:8098   */\n      dup5\n        /* \"#utility.yul\":8089:8110   */\n      and\n        /* \"#utility.yul\":8080:8110   */\n      swap4\n      pop\n        /* \"#utility.yul\":8153:8157   */\n      dup1\n        /* \"#utility.yul\":8143:8151   */\n      dup7\n        /* \"#utility.yul\":8139:8158   */\n      and\n        /* \"#utility.yul\":8132:8137   */\n      dup5\n        /* \"#utility.yul\":8129:8159   */\n      or\n        /* \"#utility.yul\":8119:8159   */\n      swap3\n      pop\n        /* \"#utility.yul\":7848:8165   */\n      pop\n      pop\n        /* \"#utility.yul\":7772:8165   */\n      swap4\n      swap3\n      pop\n      pop\n      pop\n      jump\t// out\n        /* \"#utility.yul\":8171:8231   */\n    tag_106:\n        /* \"#utility.yul\":8199:8202   */\n      0x00\n        /* \"#utility.yul\":8220:8225   */\n      dup2\n        /* \"#utility.yul\":8213:8225   */\n      swap1\n      pop\n        /* \"#utility.yul\":8171:8231   */\n      swap2\n      swap1\n      pop\n      jump\t// out\n        /* \"#utility.yul\":8237:8379   */\n    tag_107:\n        /* \"#utility.yul\":8287:8296   */\n      0x00\n        /* \"#utility.yul\":8320:8373   */\n      tag_210\n        /* \"#utility.yul\":8338:8372   */\n      tag_211\n        /* \"#utility.yul\":8347:8371   */\n      tag_212\n        /* \"#utility.yul\":8365:8370   */\n      dup5\n        /* \"#utility.yul\":8347:8371   */\n      tag_79\n      jump\t// in\n    tag_212:\n        /* \"#utility.yul\":8338:8372   */\n      tag_106\n      jump\t// in\n    tag_211:\n        /* \"#utility.yul\":8320:8373   */\n      tag_79\n      jump\t// in\n    tag_210:\n        /* \"#utility.yul\":8307:8373   */\n      swap1\n      pop\n        /* \"#utility.yul\":8237:8379   */\n      swap2\n      swap1\n      pop\n      jump\t// out\n        /* \"#utility.yul\":8385:8460   */\n    tag_108:\n        /* \"#utility.yul\":8428:8431   */\n      0x00\n        /* \"#utility.yul\":8449:8454   */\n      dup2\n        /* \"#utility.yul\":8442:8454   */\n      swap1\n      pop\n        /* \"#utility.yul\":8385:8460   */\n      swap2\n      swap1\n      pop\n      jump\t// out\n        /* \"#utility.yul\":8466:8735   */\n    tag_109:\n        /* \"#utility.yul\":8576:8615   */\n      tag_215\n        /* \"#utility.yul\":8607:8614   */\n      dup4\n        /* \"#utility.yul\":8576:8615   */\n      tag_107\n      jump\t// in\n    tag_215:\n        /* \"#utility.yul\":8637:8728   */\n      tag_216\n        /* \"#utility.yul\":8686:8727   */\n      tag_217\n        /* \"#utility.yul\":8710:8726   */\n      dup3\n        /* \"#utility.yul\":8686:8727   */\n      tag_108\n      jump\t// in\n    tag_217:\n        /* \"#utility.yul\":8678:8684   */\n      dup5\n        /* \"#utility.yul\":8671:8675   */\n      dup5\n        /* \"#utility.yul\":8665:8676   */\n      sload\n        /* \"#utility.yul\":8637:8728   */\n      tag_105\n      jump\t// in\n    tag_216:\n        /* \"#utility.yul\":8631:8635   */\n      dup3\n        /* \"#utility.yul\":8624:8729   */\n      sstore\n        /* \"#utility.yul\":8542:8735   */\n      pop\n        /* \"#utility.yul\":8466:8735   */\n      pop\n      pop\n      pop\n      jump\t// out\n        /* \"#utility.yul\":8741:8814   */\n    tag_110:\n        /* \"#utility.yul\":8786:8789   */\n      0x00\n        /* \"#utility.yul\":8741:8814   */\n      swap1\n      jump\t// out\n        /* \"#utility.yul\":8820:9009   */\n    tag_111:\n        /* \"#utility.yul\":8897:8929   */\n      tag_220\n      tag_110\n      jump\t// in\n    tag_220:\n        /* \"#utility.yul\":8938:9003   */\n      tag_221\n        /* \"#utility.yul\":8996:9002   */\n      dup2\n        /* \"#utility.yul\":8988:8994   */\n      dup5\n        /* \"#utility.yul\":8982:8986   */\n      dup5\n        /* \"#utility.yul\":8938:9003   */\n      tag_109\n      jump\t// in\n    tag_221:\n        /* \"#utility.yul\":8873:9009   */\n      pop\n        /* \"#utility.yul\":8820:9009   */\n      pop\n      pop\n      jump\t// out\n        /* \"#utility.yul\":9015:9201   */\n    tag_112:\n        /* \"#utility.yul\":9075:9195   */\n    tag_223:\n        /* \"#utility.yul\":9092:9095   */\n      dup2\n        /* \"#utility.yul\":9085:9090   */\n      dup2\n        /* \"#utility.yul\":9082:9096   */\n      lt\n        /* \"#utility.yul\":9075:9195   */\n      iszero\n      tag_225\n      jumpi\n        /* \"#utility.yul\":9146:9185   */\n      tag_226\n        /* \"#utility.yul\":9183:9184   */\n      0x00\n        /* \"#utility.yul\":9176:9181   */\n      dup3\n        /* \"#utility.yul\":9146:9185   */\n      tag_111\n      jump\t// in\n    tag_226:\n        /* \"#utility.yul\":9119:9120   */\n      0x01\n        /* \"#utility.yul\":9112:9117   */\n      dup2\n        /* \"#utility.yul\":9108:9121   */\n      add\n        /* \"#utility.yul\":9099:9121   */\n      swap1\n      pop\n        /* \"#utility.yul\":9075:9195   */\n      jump(tag_223)\n    tag_225:\n        /* \"#utility.yul\":9015:9201   */\n      pop\n      pop\n      jump\t// out\n        /* \"#utility.yul\":9207:9750   */\n    tag_113:\n        /* \"#utility.yul\":9308:9310   */\n      0x1f\n        /* \"#utility.yul\":9303:9306   */\n      dup3\n        /* \"#utility.yul\":9300:9311   */\n      gt\n        /* \"#utility.yul\":9297:9743   */\n      iszero\n      tag_228\n      jumpi\n        /* \"#utility.yul\":9342:9380   */\n      tag_229\n        /* \"#utility.yul\":9374:9379   */\n      dup2\n        /* \"#utility.yul\":9342:9380   */\n      tag_102\n      jump\t// in\n    tag_229:\n        /* \"#utility.yul\":9426:9455   */\n      tag_230\n        /* \"#utility.yul\":9444:9454   */\n      dup5\n        /* \"#utility.yul\":9426:9455   */\n      tag_103\n      jump\t// in\n    tag_230:\n        /* \"#utility.yul\":9416:9424   */\n      dup2\n        /* \"#utility.yul\":9412:9456   */\n      add\n        /* \"#utility.yul\":9609:9611   */\n      0x20\n        /* \"#utility.yul\":9597:9607   */\n      dup6\n        /* \"#utility.yul\":9594:9612   */\n      lt\n        /* \"#utility.yul\":9591:9640   */\n      iszero\n      tag_231\n      jumpi\n        /* \"#utility.yul\":9630:9638   */\n      dup2\n        /* \"#utility.yul\":9615:9638   */\n      swap1\n      pop\n        /* \"#utility.yul\":9591:9640   */\n    tag_231:\n        /* \"#utility.yul\":9653:9733   */\n      tag_232\n        /* \"#utility.yul\":9709:9731   */\n      tag_233\n        /* \"#utility.yul\":9727:9730   */\n      dup6\n        /* \"#utility.yul\":9709:9731   */\n      tag_103\n      jump\t// in\n    tag_233:\n        /* \"#utility.yul\":9699:9707   */\n      dup4\n        /* \"#utility.yul\":9695:9732   */\n      add\n        /* \"#utility.yul\":9682:9693   */\n      dup3\n        /* \"#utility.yul\":9653:9733   */\n      tag_112\n      jump\t// in\n    tag_232:\n        /* \"#utility.yul\":9312:9743   */\n      pop\n      pop\n        /* \"#utility.yul\":9297:9743   */\n    tag_228:\n        /* \"#utility.yul\":9207:9750   */\n      pop\n      pop\n      pop\n      jump\t// out\n        /* \"#utility.yul\":9756:9873   */\n    tag_114:\n        /* \"#utility.yul\":9810:9818   */\n      0x00\n        /* \"#utility.yul\":9860:9865   */\n      dup3\n        /* \"#utility.yul\":9854:9858   */\n      dup3\n        /* \"#utility.yul\":9850:9866   */\n      shr\n        /* \"#utility.yul\":9829:9866   */\n      swap1\n      pop\n        /* \"#utility.yul\":9756:9873   */\n      swap3\n      swap2\n      pop\n      pop\n      jump\t// out\n        /* \"#utility.yul\":9879:10048   */\n    tag_115:\n        /* \"#utility.yul\":9923:9929   */\n      0x00\n        /* \"#utility.yul\":9956:10007   */\n      tag_236\n        /* \"#utility.yul\":10004:10005   */\n      0x00\n        /* \"#utility.yul\":10000:10006   */\n      not\n        /* \"#utility.yul\":9992:9997   */\n      dup5\n        /* \"#utility.yul\":9989:9990   */\n      0x08\n        /* \"#utility.yul\":9985:9998   */\n      mul\n        /* \"#utility.yul\":9956:10007   */\n      tag_114\n      jump\t// in\n    tag_236:\n        /* \"#utility.yul\":9952:10008   */\n      not\n        /* \"#utility.yul\":10037:10041   */\n      dup1\n        /* \"#utility.yul\":10031:10035   */\n      dup4\n        /* \"#utility.yul\":10027:10042   */\n      and\n        /* \"#utility.yul\":10017:10042   */\n      swap2\n      pop\n        /* \"#utility.yul\":9930:10048   */\n      pop\n        /* \"#utility.yul\":9879:10048   */\n      swap3\n      swap2\n      pop\n      pop\n      jump\t// out\n        /* \"#utility.yul\":10053:10348   */\n    tag_116:\n        /* \"#utility.yul\":10129:10133   */\n      0x00\n        /* \"#utility.yul\":10275:10304   */\n      tag_238\n        /* \"#utility.yul\":10300:10303   */\n      dup4\n        /* \"#utility.yul\":10294:10298   */\n      dup4\n        /* \"#utility.yul\":10275:10304   */\n      tag_115\n      jump\t// in\n    tag_238:\n        /* \"#utility.yul\":10267:10304   */\n      swap2\n      pop\n        /* \"#utility.yul\":10337:10340   */\n      dup3\n        /* \"#utility.yul\":10334:10335   */\n      0x02\n        /* \"#utility.yul\":10330:10341   */\n      mul\n        /* \"#utility.yul\":10324:10328   */\n      dup3\n        /* \"#utility.yul\":10321:10342   */\n      or\n        /* \"#utility.yul\":10313:10342   */\n      swap1\n      pop\n        /* \"#utility.yul\":10053:10348   */\n      swap3\n      swap2\n      pop\n      pop\n      jump\t// out\n        /* \"#utility.yul\":10353:11748   */\n    tag_48:\n        /* \"#utility.yul\":10470:10507   */\n      tag_240\n        /* \"#utility.yul\":10503:10506   */\n      dup3\n        /* \"#utility.yul\":10470:10507   */\n      tag_82\n      jump\t// in\n    tag_240:\n        /* \"#utility.yul\":10572:10590   */\n      0xffffffffffffffff\n        /* \"#utility.yul\":10564:10570   */\n      dup2\n        /* \"#utility.yul\":10561:10591   */\n      gt\n        /* \"#utility.yul\":10558:10614   */\n      iszero\n      tag_241\n      jumpi\n        /* \"#utility.yul\":10594:10612   */\n      tag_242\n      tag_92\n      jump\t// in\n    tag_242:\n        /* \"#utility.yul\":10558:10614   */\n    tag_241:\n        /* \"#utility.yul\":10638:10676   */\n      tag_243\n        /* \"#utility.yul\":10670:10674   */\n      dup3\n        /* \"#utility.yul\":10664:10675   */\n      sload\n        /* \"#utility.yul\":10638:10676   */\n      tag_30\n      jump\t// in\n    tag_243:\n        /* \"#utility.yul\":10723:10790   */\n      tag_244\n        /* \"#utility.yul\":10783:10789   */\n      dup3\n        /* \"#utility.yul\":10775:10781   */\n      dup3\n        /* \"#utility.yul\":10769:10773   */\n      dup6\n        /* \"#utility.yul\":10723:10790   */\n      tag_113\n      jump\t// in\n    tag_244:\n        /* \"#utility.yul\":10817:10818   */\n      0x00\n        /* \"#utility.yul\":10841:10845   */\n      0x20\n        /* \"#utility.yul\":10828:10845   */\n      swap1\n      pop\n        /* \"#utility.yul\":10873:10875   */\n      0x1f\n        /* \"#utility.yul\":10865:10871   */\n      dup4\n        /* \"#utility.yul\":10862:10876   */\n      gt\n        /* \"#utility.yul\":10890:10891   */\n      0x01\n        /* \"#utility.yul\":10885:11503   */\n      dup2\n      eq\n      tag_246\n      jumpi\n        /* \"#utility.yul\":11547:11548   */\n      0x00\n        /* \"#utility.yul\":11564:11570   */\n      dup5\n        /* \"#utility.yul\":11561:11638   */\n      iszero\n      tag_247\n      jumpi\n        /* \"#utility.yul\":11613:11622   */\n      dup3\n        /* \"#utility.yul\":11608:11611   */\n      dup8\n        /* \"#utility.yul\":11604:11623   */\n      add\n        /* \"#utility.yul\":11598:11624   */\n      mload\n        /* \"#utility.yul\":11589:11624   */\n      swap1\n      pop\n        /* \"#utility.yul\":11561:11638   */\n    tag_247:\n        /* \"#utility.yul\":11664:11731   */\n      tag_248\n        /* \"#utility.yul\":11724:11730   */\n      dup6\n        /* \"#utility.yul\":11717:11722   */\n      dup3\n        /* \"#utility.yul\":11664:11731   */\n      tag_116\n      jump\t// in\n    tag_248:\n        /* \"#utility.yul\":11658:11662   */\n      dup7\n        /* \"#utility.yul\":11651:11732   */\n      sstore\n        /* \"#utility.yul\":11520:11742   */\n      pop\n        /* \"#utility.yul\":10855:11742   */\n      jump(tag_245)\n        /* \"#utility.yul\":10885:11503   */\n    tag_246:\n        /* \"#utility.yul\":10937:10941   */\n      0x1f\n        /* \"#utility.yul\":10933:10942   */\n      not\n        /* \"#utility.yul\":10925:10931   */\n      dup5\n        /* \"#utility.yul\":10921:10943   */\n      and\n        /* \"#utility.yul\":10971:11008   */\n      tag_249\n        /* \"#utility.yul\":11003:11007   */\n      dup7\n        /* \"#utility.yul\":10971:11008   */\n      tag_102\n      jump\t// in\n    tag_249:\n        /* \"#utility.yul\":11030:11031   */\n      0x00\n        /* \"#utility.yul\":11044:11252   */\n    tag_250:\n        /* \"#utility.yul\":11058:11065   */\n      dup3\n        /* \"#utility.yul\":11055:11056   */\n      dup2\n        /* \"#utility.yul\":11052:11066   */\n      lt\n        /* \"#utility.yul\":11044:11252   */\n      iszero\n      tag_252\n      jumpi\n        /* \"#utility.yul\":11137:11146   */\n      dup5\n        /* \"#utility.yul\":11132:11135   */\n      dup10\n        /* \"#utility.yul\":11128:11147   */\n      add\n        /* \"#utility.yul\":11122:11148   */\n      mload\n        /* \"#utility.yul\":11114:11120   */\n      dup3\n        /* \"#utility.yul\":11107:11149   */\n      sstore\n        /* \"#utility.yul\":11188:11189   */\n      0x01\n        /* \"#utility.yul\":11180:11186   */\n      dup3\n        /* \"#utility.yul\":11176:11190   */\n      add\n        /* \"#utility.yul\":11166:11190   */\n      swap2\n      pop\n        /* \"#utility.yul\":11235:11237   */\n      0x20\n        /* \"#utility.yul\":11224:11233   */\n      dup6\n        /* \"#utility.yul\":11220:11238   */\n      add\n        /* \"#utility.yul\":11207:11238   */\n      swap5\n      pop\n        /* \"#utility.yul\":11081:11085   */\n      0x20\n        /* \"#utility.yul\":11078:11079   */\n      dup2\n        /* \"#utility.yul\":11074:11086   */\n      add\n        /* \"#utility.yul\":11069:11086   */\n      swap1\n      pop\n        /* \"#utility.yul\":11044:11252   */\n      jump(tag_250)\n    tag_252:\n        /* \"#utility.yul\":11280:11286   */\n      dup7\n        /* \"#utility.yul\":11271:11278   */\n      dup4\n        /* \"#utility.yul\":11268:11287   */\n      lt\n        /* \"#utility.yul\":11265:11444   */\n      iszero\n      tag_253\n      jumpi\n        /* \"#utility.yul\":11338:11347   */\n      dup5\n        /* \"#utility.yul\":11333:11336   */\n      dup10\n        /* \"#utility.yul\":11329:11348   */\n      add\n        /* \"#utility.yul\":11323:11349   */\n      mload\n        /* \"#utility.yul\":11381:11429   */\n      tag_254\n        /* \"#utility.yul\":11423:11427   */\n      0x1f\n        /* \"#utility.yul\":11415:11421   */\n      dup10\n        /* \"#utility.yul\":11411:11428   */\n      and\n        /* \"#utility.yul\":11400:11409   */\n      dup3\n        /* \"#utility.yul\":11381:11429   */\n      tag_115\n      jump\t// in\n    tag_254:\n        /* \"#utility.yul\":11373:11379   */\n      dup4\n        /* \"#utility.yul\":11366:11430   */\n      sstore\n        /* \"#utility.yul\":11288:11444   */\n      pop\n        /* \"#utility.yul\":11265:11444   */\n    tag_253:\n        /* \"#utility.yul\":11490:11491   */\n      0x01\n        /* \"#utility.yul\":11486:11487   */\n      0x02\n        /* \"#utility.yul\":11478:11484   */\n      dup9\n        /* \"#utility.yul\":11474:11488   */\n      mul\n        /* \"#utility.yul\":11470:11492   */\n      add\n        /* \"#utility.yul\":11464:11468   */\n      dup9\n        /* \"#utility.yul\":11457:11493   */\n      sstore\n        /* \"#utility.yul\":10892:11503   */\n      pop\n      pop\n      pop\n        /* \"#utility.yul\":10855:11742   */\n    tag_245:\n      pop\n        /* \"#utility.yul\":10445:11748   */\n      pop\n      pop\n      pop\n        /* \"#utility.yul\":10353:11748   */\n      pop\n      pop\n      jump\t// out\n        /* \"#utility.yul\":11754:11917   */\n    tag_117:\n        /* \"#utility.yul\":11894:11909   */\n      0x54696d6520657863656564656400000000000000000000000000000000000000\n        /* \"#utility.yul\":11890:11891   */\n      0x00\n        /* \"#utility.yul\":11882:11888   */\n      dup3\n        /* \"#utility.yul\":11878:11892   */\n      add\n        /* \"#utility.yul\":11871:11910   */\n      mstore\n        /* \"#utility.yul\":11754:11917   */\n      pop\n      jump\t// out\n        /* \"#utility.yul\":11923:12289   */\n    tag_118:\n        /* \"#utility.yul\":12065:12068   */\n      0x00\n        /* \"#utility.yul\":12086:12153   */\n      tag_257\n        /* \"#utility.yul\":12150:12152   */\n      0x0d\n        /* \"#utility.yul\":12145:12148   */\n      dup4\n        /* \"#utility.yul\":12086:12153   */\n      tag_83\n      jump\t// in\n    tag_257:\n        /* \"#utility.yul\":12079:12153   */\n      swap2\n      pop\n        /* \"#utility.yul\":12162:12255   */\n      tag_258\n        /* \"#utility.yul\":12251:12254   */\n      dup3\n        /* \"#utility.yul\":12162:12255   */\n      tag_117\n      jump\t// in\n    tag_258:\n        /* \"#utility.yul\":12280:12282   */\n      0x20\n        /* \"#utility.yul\":12275:12278   */\n      dup3\n        /* \"#utility.yul\":12271:12283   */\n      add\n        /* \"#utility.yul\":12264:12283   */\n      swap1\n      pop\n        /* \"#utility.yul\":11923:12289   */\n      swap2\n      swap1\n      pop\n      jump\t// out\n        /* \"#utility.yul\":12295:12714   */\n    tag_52:\n        /* \"#utility.yul\":12461:12465   */\n      0x00\n        /* \"#utility.yul\":12499:12501   */\n      0x20\n        /* \"#utility.yul\":12488:12497   */\n      dup3\n        /* \"#utility.yul\":12484:12502   */\n      add\n        /* \"#utility.yul\":12476:12502   */\n      swap1\n      pop\n        /* \"#utility.yul\":12548:12557   */\n      dup2\n        /* \"#utility.yul\":12542:12546   */\n      dup2\n        /* \"#utility.yul\":12538:12558   */\n      sub\n        /* \"#utility.yul\":12534:12535   */\n      0x00\n        /* \"#utility.yul\":12523:12532   */\n      dup4\n        /* \"#utility.yul\":12519:12536   */\n      add\n        /* \"#utility.yul\":12512:12559   */\n      mstore\n        /* \"#utility.yul\":12576:12707   */\n      tag_260\n        /* \"#utility.yul\":12702:12706   */\n      dup2\n        /* \"#utility.yul\":12576:12707   */\n      tag_118\n      jump\t// in\n    tag_260:\n        /* \"#utility.yul\":12568:12707   */\n      swap1\n      pop\n        /* \"#utility.yul\":12295:12714   */\n      swap2\n      swap1\n      pop\n      jump\t// out\n        /* \"#utility.yul\":12720:12888   */\n    tag_119:\n        /* \"#utility.yul\":12860:12880   */\n      0x796f7520616c726561647920766f74696e670000000000000000000000000000\n        /* \"#utility.yul\":12856:12857   */\n      0x00\n        /* \"#utility.yul\":12848:12854   */\n      dup3\n        /* \"#utility.yul\":12844:12858   */\n      add\n        /* \"#utility.yul\":12837:12881   */\n      mstore\n        /* \"#utility.yul\":12720:12888   */\n      pop\n      jump\t// out\n        /* \"#utility.yul\":12894:13260   */\n    tag_120:\n        /* \"#utility.yul\":13036:13039   */\n      0x00\n        /* \"#utility.yul\":13057:13124   */\n      tag_263\n        /* \"#utility.yul\":13121:13123   */\n      0x12\n        /* \"#utility.yul\":13116:13119   */\n      dup4\n        /* \"#utility.yul\":13057:13124   */\n      tag_83\n      jump\t// in\n    tag_263:\n        /* \"#utility.yul\":13050:13124   */\n      swap2\n      pop\n        /* \"#utility.yul\":13133:13226   */\n      tag_264\n        /* \"#utility.yul\":13222:13225   */\n      dup3\n        /* \"#utility.yul\":13133:13226   */\n      tag_119\n      jump\t// in\n    tag_264:\n        /* \"#utility.yul\":13251:13253   */\n      0x20\n        /* \"#utility.yul\":13246:13249   */\n      dup3\n        /* \"#utility.yul\":13242:13254   */\n      add\n        /* \"#utility.yul\":13235:13254   */\n      swap1\n      pop\n        /* \"#utility.yul\":12894:13260   */\n      swap2\n      swap1\n      pop\n      jump\t// out\n        /* \"#utility.yul\":13266:13685   */\n    tag_59:\n        /* \"#utility.yul\":13432:13436   */\n      0x00\n        /* \"#utility.yul\":13470:13472   */\n      0x20\n        /* \"#utility.yul\":13459:13468   */\n      dup3\n        /* \"#utility.yul\":13455:13473   */\n      add\n        /* \"#utility.yul\":13447:13473   */\n      swap1\n      pop\n        /* \"#utility.yul\":13519:13528   */\n      dup2\n        /* \"#utility.yul\":13513:13517   */\n      dup2\n        /* \"#utility.yul\":13509:13529   */\n      sub\n        /* \"#utility.yul\":13505:13506   */\n      0x00\n        /* \"#utility.yul\":13494:13503   */\n      dup4\n        /* \"#utility.yul\":13490:13507   */\n      add\n        /* \"#utility.yul\":13483:13530   */\n      mstore\n        /* \"#utility.yul\":13547:13678   */\n      tag_266\n        /* \"#utility.yul\":13673:13677   */\n      dup2\n        /* \"#utility.yul\":13547:13678   */\n      tag_120\n      jump\t// in\n    tag_266:\n        /* \"#utility.yul\":13539:13678   */\n      swap1\n      pop\n        /* \"#utility.yul\":13266:13685   */\n      swap2\n      swap1\n      pop\n      jump\t// out\n        /* \"#utility.yul\":13691:13871   */\n    tag_121:\n        /* \"#utility.yul\":13739:13816   */\n      0x4e487b7100000000000000000000000000000000000000000000000000000000\n        /* \"#utility.yul\":13736:13737   */\n      0x00\n        /* \"#utility.yul\":13729:13817   */\n      mstore\n        /* \"#utility.yul\":13836:13840   */\n      0x11\n        /* \"#utility.yul\":13833:13834   */\n      0x04\n        /* \"#utility.yul\":13826:13841   */\n      mstore\n        /* \"#utility.yul\":13860:13864   */\n      0x24\n        /* \"#utility.yul\":13857:13858   */\n      0x00\n        /* \"#utility.yul\":13850:13865   */\n      revert\n        /* \"#utility.yul\":13877:14110   */\n    tag_63:\n        /* \"#utility.yul\":13916:13919   */\n      0x00\n        /* \"#utility.yul\":13939:13963   */\n      tag_269\n        /* \"#utility.yul\":13957:13962   */\n      dup3\n        /* \"#utility.yul\":13939:13963   */\n      tag_79\n      jump\t// in\n    tag_269:\n        /* \"#utility.yul\":13930:13963   */\n      swap2\n      pop\n        /* \"#utility.yul\":13985:14051   */\n      0xffffffffffffffffffffffffffffffffffffffffffffffffffffffffffffffff\n        /* \"#utility.yul\":13978:13983   */\n      dup3\n        /* \"#utility.yul\":13975:14052   */\n      sub\n        /* \"#utility.yul\":13972:14075   */\n      tag_270\n      jumpi\n        /* \"#utility.yul\":14055:14073   */\n      tag_271\n      tag_121\n      jump\t// in\n    tag_271:\n        /* \"#utility.yul\":13972:14075   */\n    tag_270:\n        /* \"#utility.yul\":14102:14103   */\n      0x01\n        /* \"#utility.yul\":14095:14100   */\n      dup3\n        /* \"#utility.yul\":14091:14104   */\n      add\n        /* \"#utility.yul\":14084:14104   */\n      swap1\n      pop\n        /* \"#utility.yul\":13877:14110   */\n      swap2\n      swap1\n      pop\n      jump\t// out\n\n    auxdata: 0xa26469706673582212200c5eb2bf6aad17b14b2bde0fb3a828a77f514d0b9e42cb159dbf4ac236f6ae2864736f6c63430008180033\n}\n","bytecode":{"linkReferences":{},"object":"608060405234801562000010575f80fd5b50604051620014dd380380620014dd83398181016040528101906200003691906200020b565b5f8060018160018154018082558091505003905f5260205f209060060201905081815f01908162000068919062000491565b50607842620000789190620005a2565b6001819055505050620005dc565b5f604051905090565b5f80fd5b5f80fd5b5f80fd5b5f80fd5b5f601f19601f8301169050919050565b7f4e487b71000000000000000000000000000000000000000000000000000000005f52604160045260245ffd5b620000e7826200009f565b810181811067ffffffffffffffff82111715620001095762000108620000af565b5b80604052505050565b5f6200011d62000086565b90506200012b8282620000dc565b919050565b5f67ffffffffffffffff8211156200014d576200014c620000af565b5b62000158826200009f565b9050602081019050919050565b5f5b838110156200018457808201518184015260208101905062000167565b5f8484015250505050565b5f620001a56200019f8462000130565b62000112565b905082815260208101848484011115620001c457620001c36200009b565b5b620001d184828562000165565b509392505050565b5f82601f830112620001f057620001ef62000097565b5b8151620002028482602086016200018f565b91505092915050565b5f602082840312156200022357620002226200008f565b5b5f82015167ffffffffffffffff81111562000243576200024262000093565b5b6200025184828501620001d9565b91505092915050565b5f81519050919050565b7f4e487b71000000000000000000000000000000000000000000000000000000005f52602260045260245ffd5b5f6002820490506001821680620002a957607f821691505b602082108103620002bf57620002be62000264565b5b50919050565b5f819050815f5260205f209050919050565b5f6020601f8301049050919050565b5f82821b905092915050565b5f60088302620003237fffffffffffffffffffffffffffffffffffffffffffffffffffffffffffffffff82620002e6565b6200032f8683620002e6565b95508019841693508086168417925050509392505050565b5f819050919050565b5f819050919050565b5f62000379620003736200036d8462000347565b62000350565b62000347565b9050919050565b5f819050919050565b620003948362000359565b620003ac620003a38262000380565b848454620002f2565b825550505050565b5f90565b620003c2620003b4565b620003cf81848462000389565b505050565b5b81811015620003f657620003ea5f82620003b8565b600181019050620003d5565b5050565b601f82111562000445576200040f81620002c5565b6200041a84620002d7565b810160208510156200042a578190505b620004426200043985620002d7565b830182620003d4565b50505b505050565b5f82821c905092915050565b5f620004675f19846008026200044a565b1980831691505092915050565b5f62000481838362000456565b9150826002028217905092915050565b6200049c826200025a565b67ffffffffffffffff811115620004b857620004b7620000af565b5b620004c4825462000291565b620004d1828285620003fa565b5f60209050601f83116001811462000507575f8415620004f2578287015190505b620004fe858262000474565b8655506200056d565b601f1984166200051786620002c5565b5f5b82811015620005405784890151825560018201915060208501945060208101905062000519565b868310156200056057848901516200055c601f89168262000456565b8355505b6001600288020188555050505b505050505050565b7f4e487b71000000000000000000000000000000000000000000000000000000005f52601160045260245ffd5b5f620005ae8262000347565b9150620005bb8362000347565b9250828201905080821115620005d657620005d562000575565b5b92915050565b610ef380620005ea5f395ff3fe608060405234801561000f575f80fd5b5060043610610055575f3560e01c80634f8dd50d146100595780635e8cd9f01461008d578063a76b4cf6146100a9578063a8db2543146100c5578063f5de91df146100e1575b5f80fd5b610073600480360381019061006e9190610772565b6100fd565b604051610084959493929190610850565b60405180910390f35b6100a760048036038101906100a29190610772565b6101dc565b005b6100c360048036038101906100be91906109d4565b6102cc565b005b6100df60048036038101906100da9190610772565b61034a565b005b6100fb60048036038101906100f69190610772565b61053c565b005b5f818154811061010b575f80fd5b905f5260205f2090600602015f91509050805f01805461012a90610a48565b80601f016020809104026020016040519081016040528092919081815260200182805461015690610a48565b80156101a15780601f10610178576101008083540402835291602001916101a1565b820191905f5260205f20905b81548152906001019060200180831161018457829003601f168201915b505050505090806001015490806002015490806003015f9054906101000a900460ff16908060030160019054906101000a900460ff16905085565b6001544211610220576040517f08c379a000000000000000000000000000000000000000000000000000000000815260040161021790610ac2565b60405180910390fd5b5f80828154811061023457610233610ae0565b5b905f5260205f2090600602019050806002015481600101541061028f576001816003015f6101000a81548160ff02191690831515021790555060018160030160016101000a81548160ff0219169083151502179055506102c8565b5f816003015f6101000a81548160ff02191690831515021790555060018160030160016101000a81548160ff0219169083151502179055505b5050565b5f8060018160018154018082558091505003905f5260205f209060060201905081815f0190816102fc9190610caa565b505f81600101819055505f81600201819055505f816003015f6101000a81548160ff0219169083151502179055505f8160030160016101000a81548160ff0219169083151502179055505050565b600154421061038e576040517f08c379a000000000000000000000000000000000000000000000000000000000815260040161038590610dc3565b60405180910390fd5b5f8082815481106103a2576103a1610ae0565b5b905f5260205f2090600602019050806004015f3373ffffffffffffffffffffffffffffffffffffffff1673ffffffffffffffffffffffffffffffffffffffff1681526020019081526020015f205f9054906101000a900460ff161561043c576040517f08c379a000000000000000000000000000000000000000000000000000000000815260040161043390610e2b565b60405180910390fd5b806005015f3373ffffffffffffffffffffffffffffffffffffffff1673ffffffffffffffffffffffffffffffffffffffff1681526020019081526020015f205f9054906101000a900460ff16156104c8576040517f08c379a00000000000000000000000000000000000000000000000000000000081526004016104bf90610e2b565b60405180910390fd5b6001816004015f3373ffffffffffffffffffffffffffffffffffffffff1673ffffffffffffffffffffffffffffffffffffffff1681526020019081526020015f205f6101000a81548160ff021916908315150217905550806001015f81548092919061053390610e76565b91905055505050565b6001544210610580576040517f08c379a000000000000000000000000000000000000000000000000000000000815260040161057790610dc3565b60405180910390fd5b5f80828154811061059457610593610ae0565b5b905f5260205f2090600602019050806004015f3373ffffffffffffffffffffffffffffffffffffffff1673ffffffffffffffffffffffffffffffffffffffff1681526020019081526020015f205f9054906101000a900460ff161561062e576040517f08c379a000000000000000000000000000000000000000000000000000000000815260040161062590610e2b565b60405180910390fd5b806005015f3373ffffffffffffffffffffffffffffffffffffffff1673ffffffffffffffffffffffffffffffffffffffff1681526020019081526020015f205f9054906101000a900460ff16156106ba576040517f08c379a00000000000000000000000000000000000000000000000000000000081526004016106b190610e2b565b60405180910390fd5b6001816005015f3373ffffffffffffffffffffffffffffffffffffffff1673ffffffffffffffffffffffffffffffffffffffff1681526020019081526020015f205f6101000a81548160ff021916908315150217905550806002015f81548092919061072590610e76565b91905055505050565b5f604051905090565b5f80fd5b5f80fd5b5f819050919050565b6107518161073f565b811461075b575f80fd5b50565b5f8135905061076c81610748565b92915050565b5f6020828403121561078757610786610737565b5b5f6107948482850161075e565b91505092915050565b5f81519050919050565b5f82825260208201905092915050565b5f5b838110156107d45780820151818401526020810190506107b9565b5f8484015250505050565b5f601f19601f8301169050919050565b5f6107f98261079d565b61080381856107a7565b93506108138185602086016107b7565b61081c816107df565b840191505092915050565b6108308161073f565b82525050565b5f8115159050919050565b61084a81610836565b82525050565b5f60a0820190508181035f83015261086881886107ef565b90506108776020830187610827565b6108846040830186610827565b6108916060830185610841565b61089e6080830184610841565b9695505050505050565b5f80fd5b5f80fd5b7f4e487b71000000000000000000000000000000000000000000000000000000005f52604160045260245ffd5b6108e6826107df565b810181811067ffffffffffffffff82111715610905576109046108b0565b5b80604052505050565b5f61091761072e565b905061092382826108dd565b919050565b5f67ffffffffffffffff821115610942576109416108b0565b5b61094b826107df565b9050602081019050919050565b828183375f83830152505050565b5f61097861097384610928565b61090e565b905082815260208101848484011115610994576109936108ac565b5b61099f848285610958565b509392505050565b5f82601f8301126109bb576109ba6108a8565b5b81356109cb848260208601610966565b91505092915050565b5f602082840312156109e9576109e8610737565b5b5f82013567ffffffffffffffff811115610a0657610a0561073b565b5b610a12848285016109a7565b91505092915050565b7f4e487b71000000000000000000000000000000000000000000000000000000005f52602260045260245ffd5b5f6002820490506001821680610a5f57607f821691505b602082108103610a7257610a71610a1b565b5b50919050565b7f4361736520696e2070726f6772657373000000000000000000000000000000005f82015250565b5f610aac6010836107a7565b9150610ab782610a78565b602082019050919050565b5f6020820190508181035f830152610ad981610aa0565b9050919050565b7f4e487b71000000000000000000000000000000000000000000000000000000005f52603260045260245ffd5b5f819050815f5260205f209050919050565b5f6020601f8301049050919050565b5f82821b905092915050565b5f60088302610b697fffffffffffffffffffffffffffffffffffffffffffffffffffffffffffffffff82610b2e565b610b738683610b2e565b95508019841693508086168417925050509392505050565b5f819050919050565b5f610bae610ba9610ba48461073f565b610b8b565b61073f565b9050919050565b5f819050919050565b610bc783610b94565b610bdb610bd382610bb5565b848454610b3a565b825550505050565b5f90565b610bef610be3565b610bfa818484610bbe565b505050565b5b81811015610c1d57610c125f82610be7565b600181019050610c00565b5050565b601f821115610c6257610c3381610b0d565b610c3c84610b1f565b81016020851015610c4b578190505b610c5f610c5785610b1f565b830182610bff565b50505b505050565b5f82821c905092915050565b5f610c825f1984600802610c67565b1980831691505092915050565b5f610c9a8383610c73565b9150826002028217905092915050565b610cb38261079d565b67ffffffffffffffff811115610ccc57610ccb6108b0565b5b610cd68254610a48565b610ce1828285610c21565b5f60209050601f831160018114610d12575f8415610d00578287015190505b610d0a8582610c8f565b865550610d71565b601f198416610d2086610b0d565b5f5b82811015610d4757848901518255600182019150602085019450602081019050610d22565b86831015610d645784890151610d60601f891682610c73565b8355505b6001600288020188555050505b505050505050565b7f54696d65206578636565646564000000000000000000000000000000000000005f82015250565b5f610dad600d836107a7565b9150610db882610d79565b602082019050919050565b5f6020820190508181035f830152610dda81610da1565b9050919050565b7f796f7520616c726561647920766f74696e6700000000000000000000000000005f82015250565b5f610e156012836107a7565b9150610e2082610de1565b602082019050919050565b5f6020820190508181035f830152610e4281610e09565b9050919050565b7f4e487b71000000000000000000000000000000000000000000000000000000005f52601160045260245ffd5b5f610e808261073f565b91507fffffffffffffffffffffffffffffffffffffffffffffffffffffffffffffffff8203610eb257610eb1610e49565b5b60018201905091905056fea26469706673582212200c5eb2bf6aad17b14b2bde0fb3a828a77f514d0b9e42cb159dbf4ac236f6ae2864736f6c63430008180033","opcodes":"PUSH1 0x80 PUSH1 0x40 MSTORE CALLVALUE DUP1 ISZERO PUSH3 0x10 JUMPI PUSH0 DUP1 REVERT JUMPDEST POP PUSH1 0x40 MLOAD PUSH3 0x14DD CODESIZE SUB DUP1 PUSH3 0x14DD DUP4 CODECOPY DUP2 DUP2 ADD PUSH1 0x40 MSTORE DUP2 ADD SWAP1 PUSH3 0x36 SWAP2 SWAP1 PUSH3 0x20B JUMP JUMPDEST PUSH0 DUP1 PUSH1 0x1 DUP2 PUSH1 0x1 DUP2 SLOAD ADD DUP1 DUP3 SSTORE DUP1 SWAP2 POP POP SUB SWAP1 PUSH0 MSTORE PUSH1 0x20 PUSH0 KECCAK256 SWAP1 PUSH1 0x6 MUL ADD SWAP1 POP DUP2 DUP2 PUSH0 ADD SWAP1 DUP2 PUSH3 0x68 SWAP2 SWAP1 PUSH3 0x491 JUMP JUMPDEST POP PUSH1 0x78 TIMESTAMP PUSH3 0x78 SWAP2 SWAP1 PUSH3 0x5A2 JUMP JUMPDEST PUSH1 0x1 DUP2 SWAP1 SSTORE POP POP POP PUSH3 0x5DC JUMP JUMPDEST PUSH0 PUSH1 0x40 MLOAD SWAP1 POP SWAP1 JUMP JUMPDEST PUSH0 DUP1 REVERT JUMPDEST PUSH0 DUP1 REVERT JUMPDEST PUSH0 DUP1 REVERT JUMPDEST PUSH0 DUP1 REVERT JUMPDEST PUSH0 PUSH1 0x1F NOT PUSH1 0x1F DUP4 ADD AND SWAP1 POP SWAP2 SWAP1 POP JUMP JUMPDEST PUSH32 0x4E487B7100000000000000000000000000000000000000000000000000000000 PUSH0 MSTORE PUSH1 0x41 PUSH1 0x4 MSTORE PUSH1 0x24 PUSH0 REVERT JUMPDEST PUSH3 0xE7 DUP3 PUSH3 0x9F JUMP JUMPDEST DUP2 ADD DUP2 DUP2 LT PUSH8 0xFFFFFFFFFFFFFFFF DUP3 GT OR ISZERO PUSH3 0x109 JUMPI PUSH3 0x108 PUSH3 0xAF JUMP JUMPDEST JUMPDEST DUP1 PUSH1 0x40 MSTORE POP POP POP JUMP JUMPDEST PUSH0 PUSH3 0x11D PUSH3 0x86 JUMP JUMPDEST SWAP1 POP PUSH3 0x12B DUP3 DUP3 PUSH3 0xDC JUMP JUMPDEST SWAP2 SWAP1 POP JUMP JUMPDEST PUSH0 PUSH8 0xFFFFFFFFFFFFFFFF DUP3 GT ISZERO PUSH3 0x14D JUMPI PUSH3 0x14C PUSH3 0xAF JUMP JUMPDEST JUMPDEST PUSH3 0x158 DUP3 PUSH3 0x9F JUMP JUMPDEST SWAP1 POP PUSH1 0x20 DUP2 ADD SWAP1 POP SWAP2 SWAP1 POP JUMP JUMPDEST PUSH0 JUMPDEST DUP4 DUP2 LT ISZERO PUSH3 0x184 JUMPI DUP1 DUP3 ADD MLOAD DUP2 DUP5 ADD MSTORE PUSH1 0x20 DUP2 ADD SWAP1 POP PUSH3 0x167 JUMP JUMPDEST PUSH0 DUP5 DUP5 ADD MSTORE POP POP POP POP JUMP JUMPDEST PUSH0 PUSH3 0x1A5 PUSH3 0x19F DUP5 PUSH3 0x130 JUMP JUMPDEST PUSH3 0x112 JUMP JUMPDEST SWAP1 POP DUP3 DUP2 MSTORE PUSH1 0x20 DUP2 ADD DUP5 DUP5 DUP5 ADD GT ISZERO PUSH3 0x1C4 JUMPI PUSH3 0x1C3 PUSH3 0x9B JUMP JUMPDEST JUMPDEST PUSH3 0x1D1 DUP5 DUP3 DUP6 PUSH3 0x165 JUMP JUMPDEST POP SWAP4 SWAP3 POP POP POP JUMP JUMPDEST PUSH0 DUP3 PUSH1 0x1F DUP4 ADD SLT PUSH3 0x1F0 JUMPI PUSH3 0x1EF PUSH3 0x97 JUMP JUMPDEST JUMPDEST DUP2 MLOAD PUSH3 0x202 DUP5 DUP3 PUSH1 0x20 DUP7 ADD PUSH3 0x18F JUMP JUMPDEST SWAP2 POP POP SWAP3 SWAP2 POP POP JUMP JUMPDEST PUSH0 PUSH1 0x20 DUP3 DUP5 SUB SLT ISZERO PUSH3 0x223 JUMPI PUSH3 0x222 PUSH3 0x8F JUMP JUMPDEST JUMPDEST PUSH0 DUP3 ADD MLOAD PUSH8 0xFFFFFFFFFFFFFFFF DUP2 GT ISZERO PUSH3 0x243 JUMPI PUSH3 0x242 PUSH3 0x93 JUMP JUMPDEST JUMPDEST PUSH3 0x251 DUP5 DUP3 DUP6 ADD PUSH3 0x1D9 JUMP JUMPDEST SWAP2 POP POP SWAP3 SWAP2 POP POP JUMP JUMPDEST PUSH0 DUP2 MLOAD SWAP1 POP SWAP2 SWAP1 POP JUMP JUMPDEST PUSH32 0x4E487B7100000000000000000000000000000000000000000000000000000000 PUSH0 MSTORE PUSH1 0x22 PUSH1 0x4 MSTORE PUSH1 0x24 PUSH0 REVERT JUMPDEST PUSH0 PUSH1 0x2 DUP3 DIV SWAP1 POP PUSH1 0x1 DUP3 AND DUP1 PUSH3 0x2A9 JUMPI PUSH1 0x7F DUP3 AND SWAP2 POP JUMPDEST PUSH1 0x20 DUP3 LT DUP2 SUB PUSH3 0x2BF JUMPI PUSH3 0x2BE PUSH3 0x264 JUMP JUMPDEST JUMPDEST POP SWAP2 SWAP1 POP JUMP JUMPDEST PUSH0 DUP2 SWAP1 POP DUP2 PUSH0 MSTORE PUSH1 0x20 PUSH0 KECCAK256 SWAP1 POP SWAP2 SWAP1 POP JUMP JUMPDEST PUSH0 PUSH1 0x20 PUSH1 0x1F DUP4 ADD DIV SWAP1 POP SWAP2 SWAP1 POP JUMP JUMPDEST PUSH0 DUP3 DUP3 SHL SWAP1 POP SWAP3 SWAP2 POP POP JUMP JUMPDEST PUSH0 PUSH1 0x8 DUP4 MUL PUSH3 0x323 PUSH32 0xFFFFFFFFFFFFFFFFFFFFFFFFFFFFFFFFFFFFFFFFFFFFFFFFFFFFFFFFFFFFFFFF DUP3 PUSH3 0x2E6 JUMP JUMPDEST PUSH3 0x32F DUP7 DUP4 PUSH3 0x2E6 JUMP JUMPDEST SWAP6 POP DUP1 NOT DUP5 AND SWAP4 POP DUP1 DUP7 AND DUP5 OR SWAP3 POP POP POP SWAP4 SWAP3 POP POP POP JUMP JUMPDEST PUSH0 DUP2 SWAP1 POP SWAP2 SWAP1 POP JUMP JUMPDEST PUSH0 DUP2 SWAP1 POP SWAP2 SWAP1 POP JUMP JUMPDEST PUSH0 PUSH3 0x379 PUSH3 0x373 PUSH3 0x36D DUP5 PUSH3 0x347 JUMP JUMPDEST PUSH3 0x350 JUMP JUMPDEST PUSH3 0x347 JUMP JUMPDEST SWAP1 POP SWAP2 SWAP1 POP JUMP JUMPDEST PUSH0 DUP2 SWAP1 POP SWAP2 SWAP1 POP JUMP JUMPDEST PUSH3 0x394 DUP4 PUSH3 0x359 JUMP JUMPDEST PUSH3 0x3AC PUSH3 0x3A3 DUP3 PUSH3 0x380 JUMP JUMPDEST DUP5 DUP5 SLOAD PUSH3 0x2F2 JUMP JUMPDEST DUP3 SSTORE POP POP POP POP JUMP JUMPDEST PUSH0 SWAP1 JUMP JUMPDEST PUSH3 0x3C2 PUSH3 0x3B4 JUMP JUMPDEST PUSH3 0x3CF DUP2 DUP5 DUP5 PUSH3 0x389 JUMP JUMPDEST POP POP POP JUMP JUMPDEST JUMPDEST DUP2 DUP2 LT ISZERO PUSH3 0x3F6 JUMPI PUSH3 0x3EA PUSH0 DUP3 PUSH3 0x3B8 JUMP JUMPDEST PUSH1 0x1 DUP2 ADD SWAP1 POP PUSH3 0x3D5 JUMP JUMPDEST POP POP JUMP JUMPDEST PUSH1 0x1F DUP3 GT ISZERO PUSH3 0x445 JUMPI PUSH3 0x40F DUP2 PUSH3 0x2C5 JUMP JUMPDEST PUSH3 0x41A DUP5 PUSH3 0x2D7 JUMP JUMPDEST DUP2 ADD PUSH1 0x20 DUP6 LT ISZERO PUSH3 0x42A JUMPI DUP2 SWAP1 POP JUMPDEST PUSH3 0x442 PUSH3 0x439 DUP6 PUSH3 0x2D7 JUMP JUMPDEST DUP4 ADD DUP3 PUSH3 0x3D4 JUMP JUMPDEST POP POP JUMPDEST POP POP POP JUMP JUMPDEST PUSH0 DUP3 DUP3 SHR SWAP1 POP SWAP3 SWAP2 POP POP JUMP JUMPDEST PUSH0 PUSH3 0x467 PUSH0 NOT DUP5 PUSH1 0x8 MUL PUSH3 0x44A JUMP JUMPDEST NOT DUP1 DUP4 AND SWAP2 POP POP SWAP3 SWAP2 POP POP JUMP JUMPDEST PUSH0 PUSH3 0x481 DUP4 DUP4 PUSH3 0x456 JUMP JUMPDEST SWAP2 POP DUP3 PUSH1 0x2 MUL DUP3 OR SWAP1 POP SWAP3 SWAP2 POP POP JUMP JUMPDEST PUSH3 0x49C DUP3 PUSH3 0x25A JUMP JUMPDEST PUSH8 0xFFFFFFFFFFFFFFFF DUP2 GT ISZERO PUSH3 0x4B8 JUMPI PUSH3 0x4B7 PUSH3 0xAF JUMP JUMPDEST JUMPDEST PUSH3 0x4C4 DUP3 SLOAD PUSH3 0x291 JUMP JUMPDEST PUSH3 0x4D1 DUP3 DUP3 DUP6 PUSH3 0x3FA JUMP JUMPDEST PUSH0 PUSH1 0x20 SWAP1 POP PUSH1 0x1F DUP4 GT PUSH1 0x1 DUP2 EQ PUSH3 0x507 JUMPI PUSH0 DUP5 ISZERO PUSH3 0x4F2 JUMPI DUP3 DUP8 ADD MLOAD SWAP1 POP JUMPDEST PUSH3 0x4FE DUP6 DUP3 PUSH3 0x474 JUMP JUMPDEST DUP7 SSTORE POP PUSH3 0x56D JUMP JUMPDEST PUSH1 0x1F NOT DUP5 AND PUSH3 0x517 DUP7 PUSH3 0x2C5 JUMP JUMPDEST PUSH0 JUMPDEST DUP3 DUP2 LT ISZERO PUSH3 0x540 JUMPI DUP5 DUP10 ADD MLOAD DUP3 SSTORE PUSH1 0x1 DUP3 ADD SWAP2 POP PUSH1 0x20 DUP6 ADD SWAP5 POP PUSH1 0x20 DUP2 ADD SWAP1 POP PUSH3 0x519 JUMP JUMPDEST DUP7 DUP4 LT ISZERO PUSH3 0x560 JUMPI DUP5 DUP10 ADD MLOAD PUSH3 0x55C PUSH1 0x1F DUP10 AND DUP3 PUSH3 0x456 JUMP JUMPDEST DUP4 SSTORE POP JUMPDEST PUSH1 0x1 PUSH1 0x2 DUP9 MUL ADD DUP9 SSTORE POP POP POP JUMPDEST POP POP POP POP POP POP JUMP JUMPDEST PUSH32 0x4E487B7100000000000000000000000000000000000000000000000000000000 PUSH0 MSTORE PUSH1 0x11 PUSH1 0x4 MSTORE PUSH1 0x24 PUSH0 REVERT JUMPDEST PUSH0 PUSH3 0x5AE DUP3 PUSH3 0x347 JUMP JUMPDEST SWAP2 POP PUSH3 0x5BB DUP4 PUSH3 0x347 JUMP JUMPDEST SWAP3 POP DUP3 DUP3 ADD SWAP1 POP DUP1 DUP3 GT ISZERO PUSH3 0x5D6 JUMPI PUSH3 0x5D5 PUSH3 0x575 JUMP JUMPDEST JUMPDEST SWAP3 SWAP2 POP POP JUMP JUMPDEST PUSH2 0xEF3 DUP1 PUSH3 0x5EA PUSH0 CODECOPY PUSH0 RETURN INVALID PUSH1 0x80 PUSH1 0x40 MSTORE CALLVALUE DUP1 ISZERO PUSH2 0xF JUMPI PUSH0 DUP1 REVERT JUMPDEST POP PUSH1 0x4 CALLDATASIZE LT PUSH2 0x55 JUMPI PUSH0 CALLDATALOAD PUSH1 0xE0 SHR DUP1 PUSH4 0x4F8DD50D EQ PUSH2 0x59 JUMPI DUP1 PUSH4 0x5E8CD9F0 EQ PUSH2 0x8D JUMPI DUP1 PUSH4 0xA76B4CF6 EQ PUSH2 0xA9 JUMPI DUP1 PUSH4 0xA8DB2543 EQ PUSH2 0xC5 JUMPI DUP1 PUSH4 0xF5DE91DF EQ PUSH2 0xE1 JUMPI JUMPDEST PUSH0 DUP1 REVERT JUMPDEST PUSH2 0x73 PUSH1 0x4 DUP1 CALLDATASIZE SUB DUP2 ADD SWAP1 PUSH2 0x6E SWAP2 SWAP1 PUSH2 0x772 JUMP JUMPDEST PUSH2 0xFD JUMP JUMPDEST PUSH1 0x40 MLOAD PUSH2 0x84 SWAP6 SWAP5 SWAP4 SWAP3 SWAP2 SWAP1 PUSH2 0x850 JUMP JUMPDEST PUSH1 0x40 MLOAD DUP1 SWAP2 SUB SWAP1 RETURN JUMPDEST PUSH2 0xA7 PUSH1 0x4 DUP1 CALLDATASIZE SUB DUP2 ADD SWAP1 PUSH2 0xA2 SWAP2 SWAP1 PUSH2 0x772 JUMP JUMPDEST PUSH2 0x1DC JUMP JUMPDEST STOP JUMPDEST PUSH2 0xC3 PUSH1 0x4 DUP1 CALLDATASIZE SUB DUP2 ADD SWAP1 PUSH2 0xBE SWAP2 SWAP1 PUSH2 0x9D4 JUMP JUMPDEST PUSH2 0x2CC JUMP JUMPDEST STOP JUMPDEST PUSH2 0xDF PUSH1 0x4 DUP1 CALLDATASIZE SUB DUP2 ADD SWAP1 PUSH2 0xDA SWAP2 SWAP1 PUSH2 0x772 JUMP JUMPDEST PUSH2 0x34A JUMP JUMPDEST STOP JUMPDEST PUSH2 0xFB PUSH1 0x4 DUP1 CALLDATASIZE SUB DUP2 ADD SWAP1 PUSH2 0xF6 SWAP2 SWAP1 PUSH2 0x772 JUMP JUMPDEST PUSH2 0x53C JUMP JUMPDEST STOP JUMPDEST PUSH0 DUP2 DUP2 SLOAD DUP2 LT PUSH2 0x10B JUMPI PUSH0 DUP1 REVERT JUMPDEST SWAP1 PUSH0 MSTORE PUSH1 0x20 PUSH0 KECCAK256 SWAP1 PUSH1 0x6 MUL ADD PUSH0 SWAP2 POP SWAP1 POP DUP1 PUSH0 ADD DUP1 SLOAD PUSH2 0x12A SWAP1 PUSH2 0xA48 JUMP JUMPDEST DUP1 PUSH1 0x1F ADD PUSH1 0x20 DUP1 SWAP2 DIV MUL PUSH1 0x20 ADD PUSH1 0x40 MLOAD SWAP1 DUP2 ADD PUSH1 0x40 MSTORE DUP1 SWAP3 SWAP2 SWAP1 DUP2 DUP2 MSTORE PUSH1 0x20 ADD DUP3 DUP1 SLOAD PUSH2 0x156 SWAP1 PUSH2 0xA48 JUMP JUMPDEST DUP1 ISZERO PUSH2 0x1A1 JUMPI DUP1 PUSH1 0x1F LT PUSH2 0x178 JUMPI PUSH2 0x100 DUP1 DUP4 SLOAD DIV MUL DUP4 MSTORE SWAP2 PUSH1 0x20 ADD SWAP2 PUSH2 0x1A1 JUMP JUMPDEST DUP3 ADD SWAP2 SWAP1 PUSH0 MSTORE PUSH1 0x20 PUSH0 KECCAK256 SWAP1 JUMPDEST DUP2 SLOAD DUP2 MSTORE SWAP1 PUSH1 0x1 ADD SWAP1 PUSH1 0x20 ADD DUP1 DUP4 GT PUSH2 0x184 JUMPI DUP3 SWAP1 SUB PUSH1 0x1F AND DUP3 ADD SWAP2 JUMPDEST POP POP POP POP POP SWAP1 DUP1 PUSH1 0x1 ADD SLOAD SWAP1 DUP1 PUSH1 0x2 ADD SLOAD SWAP1 DUP1 PUSH1 0x3 ADD PUSH0 SWAP1 SLOAD SWAP1 PUSH2 0x100 EXP SWAP1 DIV PUSH1 0xFF AND SWAP1 DUP1 PUSH1 0x3 ADD PUSH1 0x1 SWAP1 SLOAD SWAP1 PUSH2 0x100 EXP SWAP1 DIV PUSH1 0xFF AND SWAP1 POP DUP6 JUMP JUMPDEST PUSH1 0x1 SLOAD TIMESTAMP GT PUSH2 0x220 JUMPI PUSH1 0x40 MLOAD PUSH32 0x8C379A000000000000000000000000000000000000000000000000000000000 DUP2 MSTORE PUSH1 0x4 ADD PUSH2 0x217 SWAP1 PUSH2 0xAC2 JUMP JUMPDEST PUSH1 0x40 MLOAD DUP1 SWAP2 SUB SWAP1 REVERT JUMPDEST PUSH0 DUP1 DUP3 DUP2 SLOAD DUP2 LT PUSH2 0x234 JUMPI PUSH2 0x233 PUSH2 0xAE0 JUMP JUMPDEST JUMPDEST SWAP1 PUSH0 MSTORE PUSH1 0x20 PUSH0 KECCAK256 SWAP1 PUSH1 0x6 MUL ADD SWAP1 POP DUP1 PUSH1 0x2 ADD SLOAD DUP2 PUSH1 0x1 ADD SLOAD LT PUSH2 0x28F JUMPI PUSH1 0x1 DUP2 PUSH1 0x3 ADD PUSH0 PUSH2 0x100 EXP DUP2 SLOAD DUP2 PUSH1 0xFF MUL NOT AND SWAP1 DUP4 ISZERO ISZERO MUL OR SWAP1 SSTORE POP PUSH1 0x1 DUP2 PUSH1 0x3 ADD PUSH1 0x1 PUSH2 0x100 EXP DUP2 SLOAD DUP2 PUSH1 0xFF MUL NOT AND SWAP1 DUP4 ISZERO ISZERO MUL OR SWAP1 SSTORE POP PUSH2 0x2C8 JUMP JUMPDEST PUSH0 DUP2 PUSH1 0x3 ADD PUSH0 PUSH2 0x100 EXP DUP2 SLOAD DUP2 PUSH1 0xFF MUL NOT AND SWAP1 DUP4 ISZERO ISZERO MUL OR SWAP1 SSTORE POP PUSH1 0x1 DUP2 PUSH1 0x3 ADD PUSH1 0x1 PUSH2 0x100 EXP DUP2 SLOAD DUP2 PUSH1 0xFF MUL NOT AND SWAP1 DUP4 ISZERO ISZERO MUL OR SWAP1 SSTORE POP JUMPDEST POP POP JUMP JUMPDEST PUSH0 DUP1 PUSH1 0x1 DUP2 PUSH1 0x1 DUP2 SLOAD ADD DUP1 DUP3 SSTORE DUP1 SWAP2 POP POP SUB SWAP1 PUSH0 MSTORE PUSH1 0x20 PUSH0 KECCAK256 SWAP1 PUSH1 0x6 MUL ADD SWAP1 POP DUP2 DUP2 PUSH0 ADD SWAP1 DUP2 PUSH2 0x2FC SWAP2 SWAP1 PUSH2 0xCAA JUMP JUMPDEST POP PUSH0 DUP2 PUSH1 0x1 ADD DUP2 SWAP1 SSTORE POP PUSH0 DUP2 PUSH1 0x2 ADD DUP2 SWAP1 SSTORE POP PUSH0 DUP2 PUSH1 0x3 ADD PUSH0 PUSH2 0x100 EXP DUP2 SLOAD DUP2 PUSH1 0xFF MUL NOT AND SWAP1 DUP4 ISZERO ISZERO MUL OR SWAP1 SSTORE POP PUSH0 DUP2 PUSH1 0x3 ADD PUSH1 0x1 PUSH2 0x100 EXP DUP2 SLOAD DUP2 PUSH1 0xFF MUL NOT AND SWAP1 DUP4 ISZERO ISZERO MUL OR SWAP1 SSTORE POP POP POP JUMP JUMPDEST PUSH1 0x1 SLOAD TIMESTAMP LT PUSH2 0x38E JUMPI PUSH1 0x40 MLOAD PUSH32 0x8C379A000000000000000000000000000000000000000000000000000000000 DUP2 MSTORE PUSH1 0x4 ADD PUSH2 0x385 SWAP1 PUSH2 0xDC3 JUMP JUMPDEST PUSH1 0x40 MLOAD DUP1 SWAP2 SUB SWAP1 REVERT JUMPDEST PUSH0 DUP1 DUP3 DUP2 SLOAD DUP2 LT PUSH2 0x3A2 JUMPI PUSH2 0x3A1 PUSH2 0xAE0 JUMP JUMPDEST JUMPDEST SWAP1 PUSH0 MSTORE PUSH1 0x20 PUSH0 KECCAK256 SWAP1 PUSH1 0x6 MUL ADD SWAP1 POP DUP1 PUSH1 0x4 ADD PUSH0 CALLER PUSH20 0xFFFFFFFFFFFFFFFFFFFFFFFFFFFFFFFFFFFFFFFF AND PUSH20 0xFFFFFFFFFFFFFFFFFFFFFFFFFFFFFFFFFFFFFFFF AND DUP2 MSTORE PUSH1 0x20 ADD SWAP1 DUP2 MSTORE PUSH1 0x20 ADD PUSH0 KECCAK256 PUSH0 SWAP1 SLOAD SWAP1 PUSH2 0x100 EXP SWAP1 DIV PUSH1 0xFF AND ISZERO PUSH2 0x43C JUMPI PUSH1 0x40 MLOAD PUSH32 0x8C379A000000000000000000000000000000000000000000000000000000000 DUP2 MSTORE PUSH1 0x4 ADD PUSH2 0x433 SWAP1 PUSH2 0xE2B JUMP JUMPDEST PUSH1 0x40 MLOAD DUP1 SWAP2 SUB SWAP1 REVERT JUMPDEST DUP1 PUSH1 0x5 ADD PUSH0 CALLER PUSH20 0xFFFFFFFFFFFFFFFFFFFFFFFFFFFFFFFFFFFFFFFF AND PUSH20 0xFFFFFFFFFFFFFFFFFFFFFFFFFFFFFFFFFFFFFFFF AND DUP2 MSTORE PUSH1 0x20 ADD SWAP1 DUP2 MSTORE PUSH1 0x20 ADD PUSH0 KECCAK256 PUSH0 SWAP1 SLOAD SWAP1 PUSH2 0x100 EXP SWAP1 DIV PUSH1 0xFF AND ISZERO PUSH2 0x4C8 JUMPI PUSH1 0x40 MLOAD PUSH32 0x8C379A000000000000000000000000000000000000000000000000000000000 DUP2 MSTORE PUSH1 0x4 ADD PUSH2 0x4BF SWAP1 PUSH2 0xE2B JUMP JUMPDEST PUSH1 0x40 MLOAD DUP1 SWAP2 SUB SWAP1 REVERT JUMPDEST PUSH1 0x1 DUP2 PUSH1 0x4 ADD PUSH0 CALLER PUSH20 0xFFFFFFFFFFFFFFFFFFFFFFFFFFFFFFFFFFFFFFFF AND PUSH20 0xFFFFFFFFFFFFFFFFFFFFFFFFFFFFFFFFFFFFFFFF AND DUP2 MSTORE PUSH1 0x20 ADD SWAP1 DUP2 MSTORE PUSH1 0x20 ADD PUSH0 KECCAK256 PUSH0 PUSH2 0x100 EXP DUP2 SLOAD DUP2 PUSH1 0xFF MUL NOT AND SWAP1 DUP4 ISZERO ISZERO MUL OR SWAP1 SSTORE POP DUP1 PUSH1 0x1 ADD PUSH0 DUP2 SLOAD DUP1 SWAP3 SWAP2 SWAP1 PUSH2 0x533 SWAP1 PUSH2 0xE76 JUMP JUMPDEST SWAP2 SWAP1 POP SSTORE POP POP POP JUMP JUMPDEST PUSH1 0x1 SLOAD TIMESTAMP LT PUSH2 0x580 JUMPI PUSH1 0x40 MLOAD PUSH32 0x8C379A000000000000000000000000000000000000000000000000000000000 DUP2 MSTORE PUSH1 0x4 ADD PUSH2 0x577 SWAP1 PUSH2 0xDC3 JUMP JUMPDEST PUSH1 0x40 MLOAD DUP1 SWAP2 SUB SWAP1 REVERT JUMPDEST PUSH0 DUP1 DUP3 DUP2 SLOAD DUP2 LT PUSH2 0x594 JUMPI PUSH2 0x593 PUSH2 0xAE0 JUMP JUMPDEST JUMPDEST SWAP1 PUSH0 MSTORE PUSH1 0x20 PUSH0 KECCAK256 SWAP1 PUSH1 0x6 MUL ADD SWAP1 POP DUP1 PUSH1 0x4 ADD PUSH0 CALLER PUSH20 0xFFFFFFFFFFFFFFFFFFFFFFFFFFFFFFFFFFFFFFFF AND PUSH20 0xFFFFFFFFFFFFFFFFFFFFFFFFFFFFFFFFFFFFFFFF AND DUP2 MSTORE PUSH1 0x20 ADD SWAP1 DUP2 MSTORE PUSH1 0x20 ADD PUSH0 KECCAK256 PUSH0 SWAP1 SLOAD SWAP1 PUSH2 0x100 EXP SWAP1 DIV PUSH1 0xFF AND ISZERO PUSH2 0x62E JUMPI PUSH1 0x40 MLOAD PUSH32 0x8C379A000000000000000000000000000000000000000000000000000000000 DUP2 MSTORE PUSH1 0x4 ADD PUSH2 0x625 SWAP1 PUSH2 0xE2B JUMP JUMPDEST PUSH1 0x40 MLOAD DUP1 SWAP2 SUB SWAP1 REVERT JUMPDEST DUP1 PUSH1 0x5 ADD PUSH0 CALLER PUSH20 0xFFFFFFFFFFFFFFFFFFFFFFFFFFFFFFFFFFFFFFFF AND PUSH20 0xFFFFFFFFFFFFFFFFFFFFFFFFFFFFFFFFFFFFFFFF AND DUP2 MSTORE PUSH1 0x20 ADD SWAP1 DUP2 MSTORE PUSH1 0x20 ADD PUSH0 KECCAK256 PUSH0 SWAP1 SLOAD SWAP1 PUSH2 0x100 EXP SWAP1 DIV PUSH1 0xFF AND ISZERO PUSH2 0x6BA JUMPI PUSH1 0x40 MLOAD PUSH32 0x8C379A000000000000000000000000000000000000000000000000000000000 DUP2 MSTORE PUSH1 0x4 ADD PUSH2 0x6B1 SWAP1 PUSH2 0xE2B JUMP JUMPDEST PUSH1 0x40 MLOAD DUP1 SWAP2 SUB SWAP1 REVERT JUMPDEST PUSH1 0x1 DUP2 PUSH1 0x5 ADD PUSH0 CALLER PUSH20 0xFFFFFFFFFFFFFFFFFFFFFFFFFFFFFFFFFFFFFFFF AND PUSH20 0xFFFFFFFFFFFFFFFFFFFFFFFFFFFFFFFFFFFFFFFF AND DUP2 MSTORE PUSH1 0x20 ADD SWAP1 DUP2 MSTORE PUSH1 0x20 ADD PUSH0 KECCAK256 PUSH0 PUSH2 0x100 EXP DUP2 SLOAD DUP2 PUSH1 0xFF MUL NOT AND SWAP1 DUP4 ISZERO ISZERO MUL OR SWAP1 SSTORE POP DUP1 PUSH1 0x2 ADD PUSH0 DUP2 SLOAD DUP1 SWAP3 SWAP2 SWAP1 PUSH2 0x725 SWAP1 PUSH2 0xE76 JUMP JUMPDEST SWAP2 SWAP1 POP SSTORE POP POP POP JUMP JUMPDEST PUSH0 PUSH1 0x40 MLOAD SWAP1 POP SWAP1 JUMP JUMPDEST PUSH0 DUP1 REVERT JUMPDEST PUSH0 DUP1 REVERT JUMPDEST PUSH0 DUP2 SWAP1 POP SWAP2 SWAP1 POP JUMP JUMPDEST PUSH2 0x751 DUP2 PUSH2 0x73F JUMP JUMPDEST DUP2 EQ PUSH2 0x75B JUMPI PUSH0 DUP1 REVERT JUMPDEST POP JUMP JUMPDEST PUSH0 DUP2 CALLDATALOAD SWAP1 POP PUSH2 0x76C DUP2 PUSH2 0x748 JUMP JUMPDEST SWAP3 SWAP2 POP POP JUMP JUMPDEST PUSH0 PUSH1 0x20 DUP3 DUP5 SUB SLT ISZERO PUSH2 0x787 JUMPI PUSH2 0x786 PUSH2 0x737 JUMP JUMPDEST JUMPDEST PUSH0 PUSH2 0x794 DUP5 DUP3 DUP6 ADD PUSH2 0x75E JUMP JUMPDEST SWAP2 POP POP SWAP3 SWAP2 POP POP JUMP JUMPDEST PUSH0 DUP2 MLOAD SWAP1 POP SWAP2 SWAP1 POP JUMP JUMPDEST PUSH0 DUP3 DUP3 MSTORE PUSH1 0x20 DUP3 ADD SWAP1 POP SWAP3 SWAP2 POP POP JUMP JUMPDEST PUSH0 JUMPDEST DUP4 DUP2 LT ISZERO PUSH2 0x7D4 JUMPI DUP1 DUP3 ADD MLOAD DUP2 DUP5 ADD MSTORE PUSH1 0x20 DUP2 ADD SWAP1 POP PUSH2 0x7B9 JUMP JUMPDEST PUSH0 DUP5 DUP5 ADD MSTORE POP POP POP POP JUMP JUMPDEST PUSH0 PUSH1 0x1F NOT PUSH1 0x1F DUP4 ADD AND SWAP1 POP SWAP2 SWAP1 POP JUMP JUMPDEST PUSH0 PUSH2 0x7F9 DUP3 PUSH2 0x79D JUMP JUMPDEST PUSH2 0x803 DUP2 DUP6 PUSH2 0x7A7 JUMP JUMPDEST SWAP4 POP PUSH2 0x813 DUP2 DUP6 PUSH1 0x20 DUP7 ADD PUSH2 0x7B7 JUMP JUMPDEST PUSH2 0x81C DUP2 PUSH2 0x7DF JUMP JUMPDEST DUP5 ADD SWAP2 POP POP SWAP3 SWAP2 POP POP JUMP JUMPDEST PUSH2 0x830 DUP2 PUSH2 0x73F JUMP JUMPDEST DUP3 MSTORE POP POP JUMP JUMPDEST PUSH0 DUP2 ISZERO ISZERO SWAP1 POP SWAP2 SWAP1 POP JUMP JUMPDEST PUSH2 0x84A DUP2 PUSH2 0x836 JUMP JUMPDEST DUP3 MSTORE POP POP JUMP JUMPDEST PUSH0 PUSH1 0xA0 DUP3 ADD SWAP1 POP DUP2 DUP2 SUB PUSH0 DUP4 ADD MSTORE PUSH2 0x868 DUP2 DUP9 PUSH2 0x7EF JUMP JUMPDEST SWAP1 POP PUSH2 0x877 PUSH1 0x20 DUP4 ADD DUP8 PUSH2 0x827 JUMP JUMPDEST PUSH2 0x884 PUSH1 0x40 DUP4 ADD DUP7 PUSH2 0x827 JUMP JUMPDEST PUSH2 0x891 PUSH1 0x60 DUP4 ADD DUP6 PUSH2 0x841 JUMP JUMPDEST PUSH2 0x89E PUSH1 0x80 DUP4 ADD DUP5 PUSH2 0x841 JUMP JUMPDEST SWAP7 SWAP6 POP POP POP POP POP POP JUMP JUMPDEST PUSH0 DUP1 REVERT JUMPDEST PUSH0 DUP1 REVERT JUMPDEST PUSH32 0x4E487B7100000000000000000000000000000000000000000000000000000000 PUSH0 MSTORE PUSH1 0x41 PUSH1 0x4 MSTORE PUSH1 0x24 PUSH0 REVERT JUMPDEST PUSH2 0x8E6 DUP3 PUSH2 0x7DF JUMP JUMPDEST DUP2 ADD DUP2 DUP2 LT PUSH8 0xFFFFFFFFFFFFFFFF DUP3 GT OR ISZERO PUSH2 0x905 JUMPI PUSH2 0x904 PUSH2 0x8B0 JUMP JUMPDEST JUMPDEST DUP1 PUSH1 0x40 MSTORE POP POP POP JUMP JUMPDEST PUSH0 PUSH2 0x917 PUSH2 0x72E JUMP JUMPDEST SWAP1 POP PUSH2 0x923 DUP3 DUP3 PUSH2 0x8DD JUMP JUMPDEST SWAP2 SWAP1 POP JUMP JUMPDEST PUSH0 PUSH8 0xFFFFFFFFFFFFFFFF DUP3 GT ISZERO PUSH2 0x942 JUMPI PUSH2 0x941 PUSH2 0x8B0 JUMP JUMPDEST JUMPDEST PUSH2 0x94B DUP3 PUSH2 0x7DF JUMP JUMPDEST SWAP1 POP PUSH1 0x20 DUP2 ADD SWAP1 POP SWAP2 SWAP1 POP JUMP JUMPDEST DUP3 DUP2 DUP4 CALLDATACOPY PUSH0 DUP4 DUP4 ADD MSTORE POP POP POP JUMP JUMPDEST PUSH0 PUSH2 0x978 PUSH2 0x973 DUP5 PUSH2 0x928 JUMP JUMPDEST PUSH2 0x90E JUMP JUMPDEST SWAP1 POP DUP3 DUP2 MSTORE PUSH1 0x20 DUP2 ADD DUP5 DUP5 DUP5 ADD GT ISZERO PUSH2 0x994 JUMPI PUSH2 0x993 PUSH2 0x8AC JUMP JUMPDEST JUMPDEST PUSH2 0x99F DUP5 DUP3 DUP6 PUSH2 0x958 JUMP JUMPDEST POP SWAP4 SWAP3 POP POP POP JUMP JUMPDEST PUSH0 DUP3 PUSH1 0x1F DUP4 ADD SLT PUSH2 0x9BB JUMPI PUSH2 0x9BA PUSH2 0x8A8 JUMP JUMPDEST JUMPDEST DUP2 CALLDATALOAD PUSH2 0x9CB DUP5 DUP3 PUSH1 0x20 DUP7 ADD PUSH2 0x966 JUMP JUMPDEST SWAP2 POP POP SWAP3 SWAP2 POP POP JUMP JUMPDEST PUSH0 PUSH1 0x20 DUP3 DUP5 SUB SLT ISZERO PUSH2 0x9E9 JUMPI PUSH2 0x9E8 PUSH2 0x737 JUMP JUMPDEST JUMPDEST PUSH0 DUP3 ADD CALLDATALOAD PUSH8 0xFFFFFFFFFFFFFFFF DUP2 GT ISZERO PUSH2 0xA06 JUMPI PUSH2 0xA05 PUSH2 0x73B JUMP JUMPDEST JUMPDEST PUSH2 0xA12 DUP5 DUP3 DUP6 ADD PUSH2 0x9A7 JUMP JUMPDEST SWAP2 POP POP SWAP3 SWAP2 POP POP JUMP JUMPDEST PUSH32 0x4E487B7100000000000000000000000000000000000000000000000000000000 PUSH0 MSTORE PUSH1 0x22 PUSH1 0x4 MSTORE PUSH1 0x24 PUSH0 REVERT JUMPDEST PUSH0 PUSH1 0x2 DUP3 DIV SWAP1 POP PUSH1 0x1 DUP3 AND DUP1 PUSH2 0xA5F JUMPI PUSH1 0x7F DUP3 AND SWAP2 POP JUMPDEST PUSH1 0x20 DUP3 LT DUP2 SUB PUSH2 0xA72 JUMPI PUSH2 0xA71 PUSH2 0xA1B JUMP JUMPDEST JUMPDEST POP SWAP2 SWAP1 POP JUMP JUMPDEST PUSH32 0x4361736520696E2070726F677265737300000000000000000000000000000000 PUSH0 DUP3 ADD MSTORE POP JUMP JUMPDEST PUSH0 PUSH2 0xAAC PUSH1 0x10 DUP4 PUSH2 0x7A7 JUMP JUMPDEST SWAP2 POP PUSH2 0xAB7 DUP3 PUSH2 0xA78 JUMP JUMPDEST PUSH1 0x20 DUP3 ADD SWAP1 POP SWAP2 SWAP1 POP JUMP JUMPDEST PUSH0 PUSH1 0x20 DUP3 ADD SWAP1 POP DUP2 DUP2 SUB PUSH0 DUP4 ADD MSTORE PUSH2 0xAD9 DUP2 PUSH2 0xAA0 JUMP JUMPDEST SWAP1 POP SWAP2 SWAP1 POP JUMP JUMPDEST PUSH32 0x4E487B7100000000000000000000000000000000000000000000000000000000 PUSH0 MSTORE PUSH1 0x32 PUSH1 0x4 MSTORE PUSH1 0x24 PUSH0 REVERT JUMPDEST PUSH0 DUP2 SWAP1 POP DUP2 PUSH0 MSTORE PUSH1 0x20 PUSH0 KECCAK256 SWAP1 POP SWAP2 SWAP1 POP JUMP JUMPDEST PUSH0 PUSH1 0x20 PUSH1 0x1F DUP4 ADD DIV SWAP1 POP SWAP2 SWAP1 POP JUMP JUMPDEST PUSH0 DUP3 DUP3 SHL SWAP1 POP SWAP3 SWAP2 POP POP JUMP JUMPDEST PUSH0 PUSH1 0x8 DUP4 MUL PUSH2 0xB69 PUSH32 0xFFFFFFFFFFFFFFFFFFFFFFFFFFFFFFFFFFFFFFFFFFFFFFFFFFFFFFFFFFFFFFFF DUP3 PUSH2 0xB2E JUMP JUMPDEST PUSH2 0xB73 DUP7 DUP4 PUSH2 0xB2E JUMP JUMPDEST SWAP6 POP DUP1 NOT DUP5 AND SWAP4 POP DUP1 DUP7 AND DUP5 OR SWAP3 POP POP POP SWAP4 SWAP3 POP POP POP JUMP JUMPDEST PUSH0 DUP2 SWAP1 POP SWAP2 SWAP1 POP JUMP JUMPDEST PUSH0 PUSH2 0xBAE PUSH2 0xBA9 PUSH2 0xBA4 DUP5 PUSH2 0x73F JUMP JUMPDEST PUSH2 0xB8B JUMP JUMPDEST PUSH2 0x73F JUMP JUMPDEST SWAP1 POP SWAP2 SWAP1 POP JUMP JUMPDEST PUSH0 DUP2 SWAP1 POP SWAP2 SWAP1 POP JUMP JUMPDEST PUSH2 0xBC7 DUP4 PUSH2 0xB94 JUMP JUMPDEST PUSH2 0xBDB PUSH2 0xBD3 DUP3 PUSH2 0xBB5 JUMP JUMPDEST DUP5 DUP5 SLOAD PUSH2 0xB3A JUMP JUMPDEST DUP3 SSTORE POP POP POP POP JUMP JUMPDEST PUSH0 SWAP1 JUMP JUMPDEST PUSH2 0xBEF PUSH2 0xBE3 JUMP JUMPDEST PUSH2 0xBFA DUP2 DUP5 DUP5 PUSH2 0xBBE JUMP JUMPDEST POP POP POP JUMP JUMPDEST JUMPDEST DUP2 DUP2 LT ISZERO PUSH2 0xC1D JUMPI PUSH2 0xC12 PUSH0 DUP3 PUSH2 0xBE7 JUMP JUMPDEST PUSH1 0x1 DUP2 ADD SWAP1 POP PUSH2 0xC00 JUMP JUMPDEST POP POP JUMP JUMPDEST PUSH1 0x1F DUP3 GT ISZERO PUSH2 0xC62 JUMPI PUSH2 0xC33 DUP2 PUSH2 0xB0D JUMP JUMPDEST PUSH2 0xC3C DUP5 PUSH2 0xB1F JUMP JUMPDEST DUP2 ADD PUSH1 0x20 DUP6 LT ISZERO PUSH2 0xC4B JUMPI DUP2 SWAP1 POP JUMPDEST PUSH2 0xC5F PUSH2 0xC57 DUP6 PUSH2 0xB1F JUMP JUMPDEST DUP4 ADD DUP3 PUSH2 0xBFF JUMP JUMPDEST POP POP JUMPDEST POP POP POP JUMP JUMPDEST PUSH0 DUP3 DUP3 SHR SWAP1 POP SWAP3 SWAP2 POP POP JUMP JUMPDEST PUSH0 PUSH2 0xC82 PUSH0 NOT DUP5 PUSH1 0x8 MUL PUSH2 0xC67 JUMP JUMPDEST NOT DUP1 DUP4 AND SWAP2 POP POP SWAP3 SWAP2 POP POP JUMP JUMPDEST PUSH0 PUSH2 0xC9A DUP4 DUP4 PUSH2 0xC73 JUMP JUMPDEST SWAP2 POP DUP3 PUSH1 0x2 MUL DUP3 OR SWAP1 POP SWAP3 SWAP2 POP POP JUMP JUMPDEST PUSH2 0xCB3 DUP3 PUSH2 0x79D JUMP JUMPDEST PUSH8 0xFFFFFFFFFFFFFFFF DUP2 GT ISZERO PUSH2 0xCCC JUMPI PUSH2 0xCCB PUSH2 0x8B0 JUMP JUMPDEST JUMPDEST PUSH2 0xCD6 DUP3 SLOAD PUSH2 0xA48 JUMP JUMPDEST PUSH2 0xCE1 DUP3 DUP3 DUP6 PUSH2 0xC21 JUMP JUMPDEST PUSH0 PUSH1 0x20 SWAP1 POP PUSH1 0x1F DUP4 GT PUSH1 0x1 DUP2 EQ PUSH2 0xD12 JUMPI PUSH0 DUP5 ISZERO PUSH2 0xD00 JUMPI DUP3 DUP8 ADD MLOAD SWAP1 POP JUMPDEST PUSH2 0xD0A DUP6 DUP3 PUSH2 0xC8F JUMP JUMPDEST DUP7 SSTORE POP PUSH2 0xD71 JUMP JUMPDEST PUSH1 0x1F NOT DUP5 AND PUSH2 0xD20 DUP7 PUSH2 0xB0D JUMP JUMPDEST PUSH0 JUMPDEST DUP3 DUP2 LT ISZERO PUSH2 0xD47 JUMPI DUP5 DUP10 ADD MLOAD DUP3 SSTORE PUSH1 0x1 DUP3 ADD SWAP2 POP PUSH1 0x20 DUP6 ADD SWAP5 POP PUSH1 0x20 DUP2 ADD SWAP1 POP PUSH2 0xD22 JUMP JUMPDEST DUP7 DUP4 LT ISZERO PUSH2 0xD64 JUMPI DUP5 DUP10 ADD MLOAD PUSH2 0xD60 PUSH1 0x1F DUP10 AND DUP3 PUSH2 0xC73 JUMP JUMPDEST DUP4 SSTORE POP JUMPDEST PUSH1 0x1 PUSH1 0x2 DUP9 MUL ADD DUP9 SSTORE POP POP POP JUMPDEST POP POP POP POP POP POP JUMP JUMPDEST PUSH32 0x54696D6520657863656564656400000000000000000000000000000000000000 PUSH0 DUP3 ADD MSTORE POP JUMP JUMPDEST PUSH0 PUSH2 0xDAD PUSH1 0xD DUP4 PUSH2 0x7A7 JUMP JUMPDEST SWAP2 POP PUSH2 0xDB8 DUP3 PUSH2 0xD79 JUMP JUMPDEST PUSH1 0x20 DUP3 ADD SWAP1 POP SWAP2 SWAP1 POP JUMP JUMPDEST PUSH0 PUSH1 0x20 DUP3 ADD SWAP1 POP DUP2 DUP2 SUB PUSH0 DUP4 ADD MSTORE PUSH2 0xDDA DUP2 PUSH2 0xDA1 JUMP JUMPDEST SWAP1 POP SWAP2 SWAP1 POP JUMP JUMPDEST PUSH32 0x796F7520616C726561647920766F74696E670000000000000000000000000000 PUSH0 DUP3 ADD MSTORE POP JUMP JUMPDEST PUSH0 PUSH2 0xE15 PUSH1 0x12 DUP4 PUSH2 0x7A7 JUMP JUMPDEST SWAP2 POP PUSH2 0xE20 DUP3 PUSH2 0xDE1 JUMP JUMPDEST PUSH1 0x20 DUP3 ADD SWAP1 POP SWAP2 SWAP1 POP JUMP JUMPDEST PUSH0 PUSH1 0x20 DUP3 ADD SWAP1 POP DUP2 DUP2 SUB PUSH0 DUP4 ADD MSTORE PUSH2 0xE42 DUP2 PUSH2 0xE09 JUMP JUMPDEST SWAP1 POP SWAP2 SWAP1 POP JUMP JUMPDEST PUSH32 0x4E487B7100000000000000000000000000000000000000000000000000000000 PUSH0 MSTORE PUSH1 0x11 PUSH1 0x4 MSTORE PUSH1 0x24 PUSH0 REVERT JUMPDEST PUSH0 PUSH2 0xE80 DUP3 PUSH2 0x73F JUMP JUMPDEST SWAP2 POP PUSH32 0xFFFFFFFFFFFFFFFFFFFFFFFFFFFFFFFFFFFFFFFFFFFFFFFFFFFFFFFFFFFFFFFF DUP3 SUB PUSH2 0xEB2 JUMPI PUSH2 0xEB1 PUSH2 0xE49 JUMP JUMPDEST JUMPDEST PUSH1 0x1 DUP3 ADD SWAP1 POP SWAP2 SWAP1 POP JUMP INVALID LOG2 PUSH5 0x6970667358 0x22 SLT KECCAK256 0xC MCOPY 0xB2 0xBF PUSH11 0xAD17B14B2BDE0FB3A828A7 PUSH32 0x514D0B9E42CB159DBF4AC236F6AE2864736F6C63430008180033000000000000 "},"gasEstimates":{"creation":{"codeDepositCost":"765400","executionCost":"infinite","totalCost":"infinite"},"external":{"approveCase(uint256)":"57565","c(uint256)":"infinite","createCaso(string)":"infinite","votingAcceptCase(uint256)":"infinite","votingDenyCase(uint256)":"infinite"}},"methodIdentifiers":{"approveCase(uint256)":"5e8cd9f0","c(uint256)":"4f8dd50d","createCaso(string)":"a76b4cf6","votingAcceptCase(uint256)":"a8db2543","votingDenyCase(uint256)":"f5de91df"}},"storageLayout":{"storage":[{"astId":63,"contract":"Voting.sol:Voting","label":"c","offset":0,"slot":"0","type":"t_array(t_struct(Case)59_storage)dyn_storage"},{"astId":65,"contract":"Voting.sol:Voting","label":"timeMax","offset":0,"slot":"1","type":"t_uint256"}],"types":{"t_address":{"encoding":"inplace","label":"address","numberOfBytes":"20"},"t_array(t_struct(Case)59_storage)dyn_storage":{"base":"t_struct(Case)59_storage","encoding":"dynamic_array","label":"struct Voting.Case[]","numberOfBytes":"32"},"t_bool":{"encoding":"inplace","label":"bool","numberOfBytes":"1"},"t_mapping(t_address,t_bool)":{"encoding":"mapping","key":"t_address","label":"mapping(address => bool)","numberOfBytes":"32","value":"t_bool"},"t_string_storage":{"encoding":"bytes","label":"string","numberOfBytes":"32"},"t_struct(Case)59_storage":{"encoding":"inplace","label":"struct Voting.Case","members":[{"astId":42,"contract":"Voting.sol:Voting","label":"nameCase","offset":0,"slot":"0","type":"t_string_storage"},{"astId":44,"contract":"Voting.sol:Voting","label":"countAccept","offset":0,"slot":"1","type":"t_uint256"},{"astId":46,"contract":"Voting.sol:Voting","label":"countNotAccept","offset":0,"slot":"2","type":"t_uint256"},{"astId":48,"contract":"Voting.sol:Voting","label":"approve","offset":0,"slot":"3","type":"t_bool"},{"astId":50,"contract":"Voting.sol:Voting","label":"finished","offset":1,"slot":"3","type":"t_bool"},{"astId":54,"contract":"Voting.sol:Voting","label":"approvers","offset":0,"slot":"4","type":"t_mapping(t_address,t_bool)"},{"astId":58,"contract":"Voting.sol:Voting","label":"notApprovers","offset":0,"slot":"5","type":"t_mapping(t_address,t_bool)"}],"numberOfBytes":"192"},"t_uint256":{"encoding":"inplace","label":"uint256","numberOfBytes":"32"}}},"userdoc":{"kind":"user","methods":{},"version":1}}